:020000040000FA
:1000000080470020A1380000D35800008D38000040
:100010008D3800008D3800008D3800000000000091
:10002000000000000000000000000000F5380000A3
:100030008D380000000000008D3800008D38000071
:100040008D0500008D0500008D0500008D05000068
:100050008D0500008D0500008D0500008D05000058
:100060008D0500008D0500008D0500008D05000048
:100070008D0500008D0500008D0500008D05000038
:100080008D0500008D0500008D0500008D05000028
:100090008D0500008D0500008D0500008D05000018
:1000A0008D0500008D0500008D0500008D05000008
:1000B0008D0500008D0500008D0500008D050000F8
:1000C0008D0500008D0500008D0500008D050000E8
:1000D0008D0500008D0500008D0500008D050000D8
:1000E0008D0500008D0500008D0500008D050000C8
:1000F0008D0500008D0500008D0500008D050000B8
:100100002DE9F3471E468368994205460C4617467B
:1001100057D25B1A934254D3002E3BD06A4604F068
:10012000B3FF002847DB013FDDF800803C44264F49
:10013000DFF898906A462146284604F0A5FF00287B
:1001400039DBDDE9004A002C33DBAB689C4230D25E
:100150001B1B9A452DD86968E868214483689B6811
:1001600063B352469847002825DBC7F80096C7F8C6
:100170000496C7F80896C7F80C96C7F81096C7F803
:100180001496C7F81896C7F81C966EB1A04512D2FF
:10019000013CCFE7511E21446A4604F075FF002858
:1001A00009DBDDF80080C2E75444444503D801343C
:1001B000C0E76FF0150002B0BDE8F0876FF05700A0
:1001C000F9E74FF0FF30F6E7000001403546526E88
:1001D000036803F01F025B09026004D0012B03488F
:1001E00018BF002070474FF0A04070470003005038
:1001F0002DE9F047058B04462807904612D40229C2
:1002000005F0070540F0CD80204605F033F880B1B9
:100210000138218B042800F29F80DFE800F0C29DA6
:10022000657D8D0001290CBF45F0100545F02005C6
:10023000258388F31188BFF36F8FBDE8F08701F045
:1002400007035A1F012A1CD8002221F00701062BA0
:10025000276889B2C4E9002209D13B4603E0628BDA
:10026000013262831B68002BF9D141F00201218326
:10027000204604F0FFFF002800F0A18041F020019B
:100280009CE0042B0AD121F0070189B2218320468A
:1002900004F0F0FF10B141F020012183218B01F027
:1002A000070AAA4575D00027B946A368002B00F0BD
:1002B0008E8041F00801218388F31188BFF36F8F8E
:1002C000A168002900F08C800D68002900F088806A
:1002D000D1F80480334652462046C047002D48D00E
:1002E0002B6829461D46F0E7236921F0070141F0FC
:1002F0000601062DD3F80090218335D1B9F1000F06
:1003000047D041F00801218388F31188BFF36F8F34
:100310003D492046C84731E021F00701236941F0FB
:10032000040189B2042DD3F804902183E6D000277C
:100330003E464FF0040AB8E721F00701236941F077
:10034000050189B2052DD3F808902183D6D0002766
:100350003E464FF0050AA8E701F0070AAA4518D063
:100360000027B9463E46A0E700273E464FF0060A62
:100370009BE72B46B5E7B9F1000FC9D1EFF3118820
:10038000202383F31288BFF36F8F238B23F008039E
:100390002383258BEA062ED525F01003238305F051
:1003A00007056669218B002EBFF649AF0023276839
:1003B000C4E9003321F0070141F001012183218BC1
:1003C00001F0070AAA454FF000097FF46EAF002F35
:1003D00094D041F00801218388F31188BFF36F8F17
:1003E000002FC8D03D68394633465246204604F0B7
:1003F0002EFF2F46F4E7AB067FF51BAF25F0200359
:10040000238305F00705FFE6AD52000010B50D4B44
:1004100000221C7884420FD00132092A03F1100314
:10042000F7D16FF0010010BDD2685078C00706D533
:10043000107820B90B60F6E7DA68002AF4D16FF083
:100440001200F0E7B45B000030B52A4B0546986A0D
:100450009C6A10F0100F14BF1120102014F0080F28
:100460009C6A18BF1220A4070AD55C6B986A000624
:100470003BD519B1996A21F080019962132001E0FE
:100480006FF015041B4B996A11F0010F996A18BFA0
:10049000142011F0200F996A18BF1520C90602D444
:1004A0009B6A990712D5134B5B681B050ED514F197
:1004B000160F114B1CD09C4208D340339C4205D2EE
:1004C0009D4203D20D4B83F309880220094B996AA0
:1004D000890642BF596A21F400515962996A41F074
:1004E000FF0199620023137030BD6FF01504C5E75A
:1004F0004033E5E700ED00E0801F0020C01F002032
:100500000749D1F890200023C2F3072218469342EE
:1005100000DB7047C1F89830C1F8A0000133F6E75E
:1005200000ED00E0002807DB044A4109012300F048
:100530001F00834042F82130704700BF00E100E017
:1005400000280CDB4309064900F01F00203301227C
:10055000824041F82320BFF34F8FBFF36F8F704766
:1005600000E100E00028ACBF00F16040064B4FEA1C
:100570004111ACBF00F5614000F00F00C9B2B4BF3B
:10058000195480F80013704714ED00E0EFF3058371
:10059000034A103B02EBC30152F833004968084795
:1005A000405F0000084AC2F898000B6823F01F0360
:1005B000034343F01003C2F89C308B6843F00103FF
:1005C000C2F8A030704700BF00ED00E04FF080435C
:1005D00001224FF08051C3F87825D1F83001082866
:1005E00008D1D1F83411052904D80648415C09B175
:1005F000C3F838264FF080430122C3F8802500203D
:10060000704700BF375F0000084B70B5C31A0D4636
:1006100007499B10044659430648402204F0C4FE93
:100620002B4601462046BDE870401847C4150020FF
:10063000B76DDBB6245A000073B50C4C0C4A40234E
:10064000041B00930D460B460A49A410614306465D
:10065000094804F0D5FE011E05DA30462B4602B0EB
:10066000BDE87040184702B070BD00BFC41500203F
:1006700071540000B76DDBB6245A0000F8B50221B2
:1006800005460020FFF76EFF164B1A791ABB164A73
:100690001A6001229A80154B1868104001D1FFF7AB
:1006A00041FF4FF080430024C3F818452B69ABB1DC
:1006B0001C222146184605F07DF90D4F07610126E1
:1006C00006642D691C222146A81805F073F9EF6213
:1006D000EE642046F8BD6FF00400FBE76FF01500F4
:1006E000F8E700BFBC150020ED12000000E100E0BB
:1006F000845C000000F1744000F5A6000A289ABF4F
:10070000024B33F910006FF00F0070474A5E000093
:1007100008B50F4B994210D10169EFF311802023E6
:1007200083F31288BFF36F8F1A460B7833B100231F
:100730000B7080F31188BFF36F8F08BD04F01CFEAF
:10074000EFF3118082F31288BFF36F8FEDE700BFE4
:100750000000AD0B024B0B6001231360704700BF1C
:100760007C5C000000487047745C0000024B0B602A
:1007700001231360704700BF7815002000487047C0
:100780006C5C00004FF08052034B51691960126994
:100790005A600020704700BF781500204FF080534A
:1007A000D3F83031082B20D14FF08042D2F8101509
:1007B000CB071AD5D2F8103501F01E0123F01F0324
:1007C0000B43C2F81035D2F808315BB1D2F81035BE
:1007D00023F01F030B4343F00103C2F810356FF001
:1007E0008B007047024B01221A700020704700BF37
:1007F0003D1700204FF08042D2F81015D2F8103586
:1008000001F01E0123F01F030B4343F00103C2F864
:100810001035024B00221A70704700BF3D170020B0
:100820002DE9F8430F4638461946904604F035FE48
:1008300080B347EA010515F003052BD169B3184EC3
:10084000DFF8609021F00304AC4207D1144AD2F8DB
:100850000034DB07FBD50020BDE8F883FFF79EFFDF
:10086000A8B9012258F80530C6F80425D6F80024A6
:10087000D207FBD57B51BFF35F8F0023C6F8043549
:1008800099F800300BB1FFF7B5FF0435DCE76FF0E6
:100890008B00E1E76FF01500DEE70846DCE700BFFC
:1008A00000E001403D1700202DE9F0410D464FF0DA
:1008B0008057114628463C69164604F0EEFD98B371
:1008C000B5FBF4F304FB135373BBB6FBF4F004FB6A
:1008D000106048BBA64222D33F69154CDFF8548014
:1008E000FFF75CFFE8B94FF080531A69B5FBF2F3EC
:1008F00002FB13535BB90223C4F80435C4F808554E
:10090000D4F80034DB07FBD50023C4F8043598F88D
:1009100000300BB1FFF76EFFF61B3D44E0D1BDE8A0
:10092000F0816FF08B00FAE76FF01500F7E700BF7A
:1009300000E001403D1700200D4B1868010A000639
:10094000BFF35F8F0B4BD3F80435181841F100014A
:10095000B3F5801F0AD2084BD3E90023904271EB14
:10096000030303D210F1807041F10001704700BF12
:100970007415002000100140D8000020F0B58168F7
:1009800085B01039054621F0070404F0D6FC0B4B66
:100990006E4603F1100C324618685968374603C793
:1009A000083363453E46F7D110232146284604F01C
:1009B000AEFC003818BF012005B0F0BD3A5E000063
:1009C0004FF08053D3F83021082A06D1D3F83431C0
:1009D000052B02D8024AD05C70470020704700BF48
:1009E000295F0000024AD2F80034002BFBD0704788
:1009F00000E001402DE9F34101284FF0804115BF8F
:100A00000C2204224FF482734FF4807305460A448B
:100A100003F1804314BF02200120C1F808034FF006
:100A200000044FF0010111601C601B681D4B8DF824
:100A3000071008BF0DF1070442F210774FF080460F
:100A400043F00108012D1AD0D6F8183403F480338E
:100A50003CB91BB14020C047013FF3D102B0BDE813
:100A6000F081D6F8182402F003022260002BF5D0A2
:100A70009DF80730012BEDD0012DEFD106E0D6F81F
:100A80000C3403F480332CB9002BE3D1064B002245
:100A90005A71E3E7D6F80C2402F001022270002B11
:100AA000E6D1F3E7005B0000BC15002010B5EFF3C2
:100AB0001184202383F31288BFF36F8F074A1368D2
:100AC00023F00201DB07116002D40120FFF792FF3F
:100AD00084F31188BFF36F8F10BD00BF1416002080
:100AE000012838B5264C40D04FF08043D3F8181475
:100AF000D3F81824C80320D502F00303012B04D037
:100B000013B10020FFF776FF00234FF08042022050
:100B1000C2F8183508224FF4827303F18043002194
:100B2000196002F180421D6801251560226802B338
:100B30004FF08043C3F804030CE0D3F81424D1072A
:100B4000E2D5D3F81C249207DBD422681AB1022222
:100B5000C3F8042338BDD3F80421002AFBD00022B7
:100B6000C3F80421D3F80431F4E700224FF4807372
:100B7000D3E71A68002AFCD019601B68EAE700BFB7
:100B8000BC150020F8B5114D6C6BB4B14FF47A73FD
:100B90005C430A23B4FBF3F40D4E0E4F46F00106FE
:100BA000D7F8003163B995F839304BB94FF420705C
:100BB000B047013CF4D10848F8BD4CF25034EBE7A3
:100BC00095F83930002BF6D10448F5E78015002060
:100BD000005B0000009002400700AD0B0000AD0B71
:100BE0000A4B10B500220124C3F80045C3F80021C8
:100BF0001C6008B9064810BDFFF7C4FF044B9842BB
:100C0000F9D1044B83F83840F4E700BF009002406C
:100C10000000AD0B8015002070B500F06044B4F109
:100C2000005F5DD184075BD12F4C94F83050012DCB
:100C300005D09D4256D194F83850002D52D02B4DFE
:100C4000022B0BBFC5F81025C5F80425C5F81405FF
:100C5000C5F808050CBFC5F81815C5F80C154FF0F8
:100C6000000684F8396026680CBF08250425BEB943
:100C700094F838306BB11D4B05F1804505F52435EE
:100C80000022C3F8002101232B60BDE87040FFF76C
:100C900079BF0120FFF7A4FF154B9842EBD170BD3F
:100CA000A66826B1E0606161E2611248F7E7A261DF
:100CB0000E4A84F830300123A0602161C2F800613F
:100CC000C2F8043394F8382002F0FF0012B9FFF79D
:100CD00087FFEAE705F1804505F524352B60E4E759
:100CE0000548DCE70548DAE780150020009002405F
:100CF0000700AD0B0000AD0B0A00AD0B0B00AD0BF8
:100D00000A4B002283F83820094B01214FF0805014
:100D1000C3F808131961D0F83001082808BF5965D5
:100D2000C3F80025C3F80021704700BF80150020DC
:100D30000090024003695B6833B9044B93F830308C
:100D4000012B01D1FFF7DCBF704700BF80150020E9
:100D500038B511F0030539D11E4B1A6892B91E4CF3
:100D6000C4F81C15C4F8200583F8392093F83830EE
:100D70001BB30023C4F800310123E360BDE8384011
:100D8000FFF700BF93F83040012C21D1124AC2F87E
:100D90001C150421C2F8200583F8395083F830105F
:100DA000C2F80051C2F8044393F8383003F0FF0052
:100DB00053B9FFF715FF094805E00120FFF710FFC1
:100DC000074B9842D5D138BDD460F4E70548FAE71F
:100DD0000548F8E780150020009002400000AD0BA8
:100DE0000700AD0B0A00AD0B0B00AD0B124B70B53D
:100DF00053F82050013053F82060AE4200D870BD47
:100E00006C68B4B1237FDB0711D4636953B120460A
:100E1000984738B10028B8BF4042E368FF28A8BF10
:100E2000FF201870E268537843F0010353700835CF
:100E3000E3E72B689847FAE74C5C0000084B9A6898
:100E40005A621A699A629A69DA62DA689A6032B109
:100E50005A691A61DA699A610022DA60704770474C
:100E60008015002010B5224BD3F8002192B1214CFF
:100E70000022C3F8002194F8381094F8302071B99A
:100E80000121032A84F8381005D0042A05D0022A4B
:100E900000D1996010BD5960FCE7D960FAE7032AD8
:100EA00019D0042A19D0022A04D1012384F8203051
:100EB000FFF7C4FFA36813B9012384F8303094F816
:100EC000393003F0FF0013B9D4E90031984700230B
:100ED00084F82030DEE70223E8E7032284F82020AC
:100EE000D3F81C256262D3F8203584F82830E1E776
:100EF00000900240801500200268154BFF2A08BFB1
:100F00004FF0FF32C3F824254268FF2A08BF4FF094
:100F1000FF32C3F828258268FF2A08BF4FF0FF324E
:100F2000C3F83025C268FF2A08BF4FF0FF32C3F86C
:100F300034250269FF2A08BF4FF0FF32C3F8382575
:100F40004269FF2A08BF4FF0FF32C3F83C257047C3
:100F50000090024030B5194D0FCD8DB06C460FC4D6
:100F600095E8030084E803001549D1F82435DBB285
:100F70000693D1F82835DBB20793D1F83035DBB2D0
:100F80000893D1F83435DBB20993D1F83835DBB2A8
:100F90000A93D1F83C356846DBB20B93FFF7ACFF00
:100FA0000023C1F8003101230B60D1F80031002B80
:100FB000FBD006A8FFF7A0FF0DB030BDD05A00004F
:100FC000009002402DE9F84F446803460F46002C7C
:100FD0004FD0D4E900459A68002A4CD0D2E900628B
:100FE000002A49D0002D47D0AA4240F09480013514
:100FF000092D00F29080DFF838B19BF8300001280D
:1010000040F0878093F800A09BF83830DFF8149107
:10101000ABB3434B0122C3F808235FFA85F8FFF70F
:1010200099FFACBBFF03002447EA05278BF8394042
:1010300047EA0A07DFF8E8B047F44057CBF8004129
:10104000CBF83476FFF79EFD48451CD0CBF8004125
:10105000002E5CD0A8F10208DBF83C26DBF838361D
:10106000B8F1070F53D8DFE808F0514F4D4B4A480D
:1010700046442546AFE7164601351544B8E7FFF765
:10108000AFFD4845C5D12748BDE8F84FFFF732BB53
:10109000A8F10203072BC5D8DFE803F029272511A3
:1010A00023211F04E3791B06A27943EA02436279F4
:1010B00043EA022322791343194AC2F83C36E37803
:1010C0001B06A27843EA0243627843EA02232278AD
:1010D0001343134AC2F83836A4E70023E4E7002399
:1010E000E5E70023E6E70023EBE70023ECE7002336
:1010F000EDE7110EF171110CB171110A71713271BC
:101100001A0EF2701A0CB2701A0A72703370064816
:10111000BAE70648B8E76FF01500BDE8F88F00BFE2
:10112000009002400700AD0B0000AD0B0B00AD0BB3
:10113000801500202DE9F047C1F30B03D0F804809F
:1011400007460E461546002A65D0C2F30B01194327
:1011500061D1002E5FDBB318D8F82C2093425AD807
:1011600004F0E9F9044600284FD1DFF8B490D8F82C
:101170002C30AB4219D100210220FFF7E9FDAA462D
:10118000044621463846FFF7C3FA4C4522D156445F
:10119000A5EB0A05384604F0E4F9041E31DB14F02F
:1011A0000104F7D1002DE2D118E0B5F5803F09D355
:1011B000B3B2DBB931460120FFF7CAFD4FF4803AE4
:1011C0000446DEE7B5F5805F10D21449134C38466B
:1011D000FFF79EFA2046FFF78DFA044601213846B4
:1011E00004F0A9F9002C08BF04460EE0C6F30B007A
:1011F0000028EAD13146FFF7ABFD4FF4805A044690
:10120000BFE70121384604F096F93846FFF792FD12
:101210002046BDE8F0876FF01504F9E70400AD0B38
:101220000000AD0B30B4104B0C2202FB0033014622
:101230000020D3E90E529863EFF31180202484F349
:101240001288BFF36F8F1C6C04F0C00444F00204DA
:101250001C6480F31188BFF36F8F1DB12B460348C8
:1012600030BC184730BC7047C4150020245A000019
:1012700010B4EFF31182202383F31288BFF36F8F32
:101280001848016841F002040460C80708D482F3DA
:101290001188BFF36F8F01205DF8044BFFF720BC6E
:1012A0004FF08041D1F80C04D1F80C14C907EED5E9
:1012B000EFF3118083F31288BFF36F8F0A490B6C31
:1012C00003F0C00343F002030B6480F31188BFF303
:1012D0006F8F82F31188BFF36F8F00205DF8044B8E
:1012E000FFF7A0BF14160020C415002010B101287C
:1012F00004D07047034B1B6C5B0701D1FFF792BF13
:10130000704700BFC4150020134B9A6A12F0007F8B
:101310009A6A14BF1E201D2012F0807F9A6A18BF9F
:101320001F2012F4002F9A6A18BF212012F4802F78
:101330009A6A18BF222012F4003F9A6A18BF23202D
:1013400012F4803F9A6A6FEA02426FEA12429A628E
:1013500018BF2420704700BF00ED00E010B5184B07
:101360000246986A9C6A10F4805F14BF172016200A
:1013700014F4006F9C6A18BF1820A40508D5986A59
:10138000000404D51AB19A6A22F400429A62192024
:101390000B4B9A6A12F4806F9A6A18BF1A20D20512
:1013A0000CD49B6A13F4005F18BF1C20044A936A94
:1013B00043F47F43936200230B7010BD1B20F5E7BD
:1013C00000ED00E02DE9F84F1C4C1D4D0746884606
:1013D00091469A4600260A9BB34201D8002010E0AD
:1013E0000A9B184AA3EB060BBBF5806F28BF4FF48E
:1013F000806B5B4606EB0901384603F065FF10B1D0
:101400000120BDE8F88F0F4A5B4606EB0A01404613
:1014100003F07DFF0028F3D1C4F800565E44C4F801
:101420000456C4F80856C4F80C56C4F81056C4F84C
:101430001456C4F81856C4F81C56CCE700000140F6
:101440003546526EE800002037B5134B0446C0689D
:10145000DD6D03F0BEFE854203D2E06803F0B9FE05
:101460000546A1684FF4407330396A4603FB1511F5
:10147000204603F009FE002802DA012003B030BD47
:101480000099A268521A05D001232046FEF738FEC3
:10149000C00FF3E71046F1E7EC140020F7B5019018
:1014A00001A81F461646FEF793FE019B9DF82040BB
:1014B000084D00EB83002402D0F800371D4044EAB9
:1014C0008703194341EA46022A43C0F8002703B0C4
:1014D000F0BD00BFF0F8FCFF2DE9FF4705460F46C1
:1014E00040681E469046002A7AD0002B78D0042B04
:1014F00001D9B30774D117F0030171D1002F6FDB4D
:10150000C26ABB1993426BD8284604F014F804460B
:1015100050B10121284604F00EF82846FFF70AFCD6
:10152000204604B0BDE8F087032E1ED803233A46B8
:1015300004216846FFF770FB044601462846FFF782
:10154000E7F8294B9C4236D132464146684604F0C2
:1015500009FA02233A4604216846FFF75DFB044678
:1015600001462846FFF7D4F825E008F06043B3F1C0
:10157000005F02D118F0030F2DD0DFF86CA0102E01
:10158000B14628BF4FF010094A464146684604F06C
:10159000E9F902233A4649466846FFF73DFB04460F
:1015A00001462846FFF7B4F8544504D1B6EB0906C6
:1015B000C8444F44E3D12046FFF79CF8012104467C
:1015C000284603F0B8FF06462846FFF7B3FB002C79
:1015D00008BF3446A4E702233A4631464046BCE7FA
:1015E0006FF015049CE700BF0000AD0B70B5094D0E
:1015F0002B784BB9084C0126C4F8006502F026FD93
:1016000020B92E70C4F80005002070BD4FF0FF30E7
:10161000FBE700BF3F17002000A002502DE9F0417A
:101620002D4C24F00704C4F1005303F58023B3F5D7
:10163000802F2CBF082204229D1A254425F007057F
:101640002D1B0026ED08254BA5602946E6602046A7
:101650001C6004F04CF8421D9200013002F10707B3
:101660004FEAD707A2F110023146B8BF324604F163
:10167000100004F09FF93A463146204603F0E3FD9E
:10168000334632463146204603F0B4FDA5EB070849
:1016900020463146012203F0BEFD4246394603F0A2
:1016A000D2FD3B4632463946204603F0A3FD29468B
:1016B000204603F0C8FD434632462946204603F043
:1016C00099FD20460122294603F0A5FD394604F084
:1016D0001DF83046BDE8F081C747002018160020ED
:1016E0002DE9F043DFF86C9085B00E461F460446A6
:1016F0004FF000086068D8B13FB1411E084223D1C5
:101700001F2821D9236819421ED12368019304F0B0
:101710003FF8A36803430393D9F89050C5F3072516
:10172000D0B2013DA8420FD801A9FEF73BFF421CF1
:10173000B8F1000F0CBF012302239E4204F10C04F8
:101740004FF00108D6DC01E06FF01502104605B03D
:10175000BDE8F08300ED00E0F8B54FF080431C4E8B
:10176000D3F804430125002704B9F8BDB4FA84F086
:10177000C0F11F00830003F580739BB203F1804327
:1017800005FA00F2196892B224EA02040029EBD0AB
:101790001F601B684FF08043012AC3F8082305D05F
:1017A000022A08D03368C0B29847DDE77379002B6E
:1017B000DAD17271F6E7D3F81814D3F81814890740
:1017C000F0D1C3F81855C3F804239D60CCE700BFDF
:1017D000BC1500202DE9F04F814685B00F46164616
:1017E000002A00F08880002B00F081800029C0F2E0
:1017F0008280CA184168C96A8A427CD87C4204F057
:1018000003049C4228BF1C46724202F0030206F009
:10181000030558BF55426D4205F003059D4228BFA0
:101820001D461A1B5B1B23F0030322F00308984597
:10183000C8BF984602F0030AC8BFA2EB030AB8F17A
:10184000000F16D0731901933A19032341467019FA
:10185000FFF7E2F9834601464846FEF759FF274B5A
:101860009B453BD1AC4204D001994246301904F06B
:1018700087F8BCB1C4F1040503237A1B042102A834
:10188000FFF7CAF9834601464846FEF741FF1B4B66
:101890009B4523D105F1080322460DEB0301304699
:1018A00004F060F8BAF1000F16D008213A190323AA
:1018B00042440DEB0100FFF7AFF98346014648466D
:1018C000FEF726FF0D4B9B4508D108EB040052465E
:1018D00002A9304404F046F8DFF820B04846FFF78C
:1018E00029FA584605B0BDE8F04FFEF703BF184689
:1018F00005B0BDE8F08F6FF01500F9E70000AD0B03
:101900002DE9F04F43685A6B5368117A93B08046C3
:1019100003EBC101994205D86FF00104204613B0D2
:10192000BDE8F08F5879002800F03B820833F1E7DA
:101930003B685904C3F3C322C3F3080400F12B82AC
:101940005C451AF802104FEA136313D0222B40F2C1
:10195000FF804E2B40F02282C5F814450CA80C9451
:10196000FEF736FC0C9B012606FA03F3C0F8083597
:10197000304674E1222B40F2E9804E2B40F00E827B
:101980004FF0FF33C5F814350437B945D0D1AB4E0D
:1019900002212920FEF7E6FD96F83030D8F80450F1
:1019A000002B40F07C81D8F81030A54AC6E900230E
:1019B000002D00F0848095F829401CB195F82A305C
:1019C000002B45D16868FF2800F06B81AB68FF2BC6
:1019D00000F06781EB68FF2B00F063812B69FF2B20
:1019E00000F05F8174BB0327234601222146009744
:1019F000FFF754FD0097A868234601222146FFF710
:101A00004DFD0097E868234601222146FFF746FD79
:101A100000972869234601222146FFF73FFD6869A8
:101A2000FF2805D00097234601222146FFF736FD07
:101A3000A869FF2806D0032300930023012219463A
:101A4000FFF72CFD95F82A3013B9281DFFF754FA3B
:101A50006B6A73637B4C95F8293086F83A30012322
:101A6000C4F80833FFF776FA2B68C4F84035AB7F2B
:101A7000697F2A7F9B0143EAC1031343EA7F43EA5C
:101A8000C213C4F84435D4F8002695F8203022F06B
:101A90007F4222F0FF02134395F8212043EA0263BC
:101AA00095F8222043EA426395F8232043EA027323
:101AB000C4F80036336813B12920FEF733FD002344
:101AC000C6E902330122604886F8302086F83830B3
:101AD000FEF710FE041EC0F20F815C4F0FCF0CAC5E
:101AE0000FC497E80300002303AF039384E80300C7
:101AF000C7E90133AB238DF80C30524BD3F82425C2
:101B0000D2B20692D3F82825D2B20792D3F8302564
:101B1000D2B20892D3F83425D2B20992D3F838253C
:101B2000D2B20A92D3F83C350CA8DBB20B93FFF784
:101B3000E3F996F8383003F0FF09002B00F0B3808A
:101B400006A8FFF7D9F96FF00404D5E04FF0FF3491
:101B5000222B00F22381DFE813F02300290030005C
:101B6000330036003D003300210121012101210114
:101B70004F005A00210121012101210121012101F0
:101B80002101210121015D0068006B006E0021012F
:101B9000210121017B009300960099009C009F0089
:101BA000C5F80C45601C7FF4D9AEEDE6C5F81445C8
:101BB000631C3FF4E9AE0026DAE6C5F80845F1E714
:101BC000C5F81045F4E7661CC5F808453FF4DCAEDF
:101BD000002605E0601CC5F80C453FF4D5AE012693
:101BE0000CA80C94FEF7F4FA0C9B0246012000FAB4
:101BF00003F3C2F80C3532E0C5F808450029D7D107
:101C0000621C3FF4C1AE00263046062127E0C5F82D
:101C10000C45F3E7C5F86045621C3B683FF4B4AE81
:101C2000C3F30043002BDAD098E6C5F86445F3E728
:101C3000C5F86845F0E7C5F86C45EDE7801500206C
:101C400085540000009002400000AD0BD05A000007
:101C5000C5F82445661C3FF497AE002001263B687A
:101C6000009103F40042002A08BF0146C3F3412358
:101C70000EBF3246012200212046FFF70FFC83E60B
:101C8000C5F828458EE7C5F83045E3E7C5F8344583
:101C9000E0E7C5F83845DDE7C5F83C4582E746484A
:101CA00016E7464814E70120FEF79AFF014606A80A
:101CB000FFF722F9424B99427FF445AF4946384637
:101CC000FFF780F9041E17DB3E4B4FF40C6043F026
:101CD000010398479F23CDE90C994FF0030A8DF833
:101CE0003030494606AB0CA80697CDF81CA00E93E1
:101CF000FFF768F9041E07DA96F83030012B7FF4FD
:101D00000DAEFEF7FDFF09E65246394605F13000FB
:101D100003F058FE0446002838D1D8F80420537F39
:101D2000023B012B30D9157F023D022D8CBF0025CF
:101D30000125404603F015FC00282ADBC2B2C0F39F
:101D400080108542D8D0002382F04002ADF80830E0
:101D500001210C938DF808200E9302AA06AB0CA863
:101D6000069207918DF830100D93FFF72BF904467A
:101D70000028C1D1404603F0F4FB041E01DBE30759
:101D8000F8D404EAE474B7E70125D2E76FF012044F
:101D9000B2E70446B0E76FF01504BFE56FF08504C5
:101DA000BCE51F6893F804901568DFF81CA007EBEA
:101DB000890940F2FF1BE8E50C00AD0B0400AD0BF8
:101DC0000000AD0B005B00002F5F000030B50D463A
:101DD000816887B0102302AA1039044603F074FA10
:101DE000002802DA012007B030BD102202A92046E7
:101DF00003F06DFB00283FD12049102202A803F018
:101E0000E1FD00280CBF012302232B70A1681839C3
:101E100021F0070101230DF107021039204603F0DC
:101E200053FA0028DEDB9DF8073003F00F021B0990
:101E30006A702B7101220DF10701204603F047FB68
:101E400010B96B78042B03D901236B7000232B711D
:101E5000A268183A22F00702083AA91C204603F0AB
:101E600047FB0028BED1A268183A22F00702E91CFD
:101E7000204603F03DFBB6E70323C6E73A5E0000C9
:101E800030B585B06946032003F092FC00283BD1B1
:101E900002A9012003F08CFC012833D103238DF823
:101EA00008308DF80B309DF800009DF80840224B5B
:101EB00000211A78042A05D0052A27D1421E18BF0E
:101EC000012292B35A78042A05D0052A25D1621E30
:101ED00018BF01224AB39A78042A03D09DF8035010
:101EE000954222D1DA78042A03D09DF80B5095420E
:101EF0001BD11A79042A14D15879831E022B03D8D6
:101F000005B030BD0028CED0FF20F9E7A2EB000CD1
:101F1000DCF1000242EB0C02D3E7151B6A426A4176
:101F2000D8E79DF802509542E6D00131032903F12C
:101F30000603BED10120E3E7115F00001FB5074B88
:101F40001C6AA168204610236A46103903F0BCF9C8
:101F5000002818BF0024204604B010BDEC14002057
:101F60002DE9F7432F4CD4F8043399070BD5D4F857
:101F7000043143B12C4A0023C4F80431D4F80431AD
:101F8000136801331360D4F80433DA0329D5BFF39F
:101F90005B8F264B53E8002F22F0010143E800102D
:101FA0000028F7D1BFF35B8FD30702D4D4F84031B8
:101FB000BBB10025C4F84051D4F84031FEF7BCFC59
:101FC000EFF31182202383F31288BFF36F8F184B36
:101FD000D3E90267B042B94106D282F31188BFF358
:101FE0006F8F03B0BDE8F0834FF0FF384FF0FF393B
:101FF000C3E90289D3E900101D604FF48033C4F8AF
:102000004833C4F84051D4F8403182F31188BFF30B
:102010006F8F0029E5D0009032463B46284688471E
:10202000DFE700BF00100140741500206C15002090
:10203000B800002008B5034801F0B8FCBDE808402E
:1020400001F06ABC645C00002DE9F341204D2C23B3
:1020500003FB00550F46D5F82080B8F1000F01D1E1
:1020600003F051FCEB682E891E4404230DEB0302A0
:102070003146404603F028F9044620B101242046A9
:1020800002B0BDE8F081BDF804206D8946F6081362
:102090009A421AD1BDF806309D4201D00324EEE7E2
:1020A00004230DEB0302A919404603F00DF90028A3
:1020B000E4D1BDF8042046F607139A42EED1BDF8EC
:1020C00006302B4433443B60D9E7002DF1D0E5E7DF
:1020D000EC140020F7B5204C266A0546F06803F0A2
:1020E00078F84FF440735843B3683030984201D9C0
:1020F00003F009FC6979E46D0129297901F1FF31C7
:102100001ABF67004FEA042C274604FB01342B68F2
:1021100008BF4FF0000C241A6444013BF06807FB31
:10212000034403F056F80746304603F006F9072249
:1021300001460DF1010003F03DFC2B798DF80030D4
:102140006A463B462146304603F0E1F8003818BFA6
:10215000012003B0F0BD00BFEC1400202DE9F743CF
:10216000DFF8D89007460E46C84641B100243046F5
:1021700002F0C2FF28B123461C46002124E00B4692
:10218000FAE7FFF7DBFE20B101A903F0B3F805463B
:1021900038B10120012C01D107B9002003B0BDE8FE
:1021A000F083D8F82430019A596803460B449A42C8
:1021B00005F10105FAD87379012B0CD1E4B9326825
:1021C000AA42234698BF21462C2202FB0383186AA9
:1021D000B0B903F098FB022BCDD13368012B04D9A1
:1021E000AB42C8D884F00103C7E7C4D134B1337916
:1021F000023B18BF0123C0E72346BEE72346E3E7BF
:1022000020234A4603F060F80028C2D12EB9012CE1
:10221000C3D009F12C090123AEE7D9F80020064B01
:102220009A4205D1012CB8D009F12C0901249EE76E
:102230004FF0FF30AEE700BF3DB8F396EC1400203E
:102240002DE9F04F00228DB0CDE90622044602F0C0
:1022500053FF454E002839D0444D3368AB4206D178
:1022600007A91046FFF7F0FE08B103F04CFBF36A34
:10227000AB4205D106A90120FFF7E6FE0028F4D104
:10228000DDE90632934288BF0793079BA360736A18
:10229000079AD3F804804FF0000B5B4643449A4200
:1022A000DA460BF1010BF9D8204602F025FF10B3F6
:1022B000F36D4FF44072534303F13002B36A0021CF
:1022C000013B414491420ED2013BFAE7FFF736FE53
:1022D0000028CAD004F1080103F00CF80028C4D18A
:1022E000A3680793D3E75B4505D80123E37100207A
:1022F0000DB0BDE8F08F356A002DB6D0F76C002F19
:10230000B3D063681A4A03F0FF23934221D12368B4
:10231000012B1ED108A93846FFF758FD0028A4D18B
:102320009DF82030032B14D13846FFF78DF8002894
:102330009BD1384603F0A1FA002896D1A16838460F
:1023400003F075FA002890D13846FEF717FB0028F5
:102350008BD16379012B40F08C800AF10203D946BE
:10236000DFF810A004937FE0EC1400203DB8F39652
:1023700000010004E80400202368049AD21A4A45A8
:1023800070D3726A0593116852F8390002EBC902E2
:10239000401A52F8082C0290521A012B039241D194
:1023A000E268022A38D02846FFF74EF800287FF46A
:1023B0005CAFF06C0AA9FFF709FD00287FF455AF68
:1023C000E279012A11D00E2A3FF64FAF8DF8202076
:1023D000A968059B183921F0070108AA1039284679
:1023E00003F0F9F900287FF440AF9DF82B30012B62
:1023F00005D1284603F041FA00287FF436AFA168E2
:10240000284603F014FA00287FF42FAF2846FEF781
:10241000B5FA00287FF429AF3846FFF715F80028F1
:102420007FF423AF0299002342462846FDF768FE59
:1024300000287FF41AAFDDE90232CDF8008029468A
:102440002846FEF7BFFF00287FF40FAF2046FFF7B6
:1024500041FE23680133236020B1DAF800300133F4
:10246000CAF8003009F1FF39B9F1000F84D1012316
:102470002360022363714FF00109D9453FF637AF5E
:1024800023684B4558D8736A4FEAC90253F839108C
:102490000391083A196802919958336D9A581B684C
:1024A000A2EB030A2379012B44D1029B4246C91AAD
:1024B000284600230491FDF723FE00287FF4D5AEC3
:1024C0000499CDF800800B46524629463846FEF75F
:1024D00079FF00287FF4C9AE2046FFF7FBFD0223F9
:1024E000237118B1164A1368013313600023424662
:1024F00051463846FDF704FE00287FF4B6AEDDE90C
:102500000212CDF80080521A534639462846FEF78B
:1025100059FF00287FF4A9AE2046FFF7DBFD2368B2
:10252000013323600123237130B1054A136801335D
:10253000136001E0022BD9D009F101099DE700BF2A
:10254000E80400202DE9F04F4FF0010909FA00F9E5
:10255000DFF87CA1BFF35B8F144685B006461D46AD
:102560006FEA09025AE8003F03EA02014AE8001054
:102570000028F7D1BFF35B8F4E4F4FF4803808FA35
:1025800006F8C7F80883BFF35F8FBFF36F8F09EAC0
:1025900003030293FEF7D0F9A04271EB05034DD27D
:1025A000454B201A65EB0101984271F100017DD283
:1025B000424B03EB0613D3E902239D4208BF94422A
:1025C00049D006F150039B009BB203F1804303F511
:1025D00088334FF0000BC7F84883C3F800B01A687F
:1025E000032224F07F4E019206F5A872F44603926E
:1025F000039933482CF07F4247F82120C7F84483E1
:10260000D7F804156FF00202521A624422F07F429A
:10261000824220D91A685AB1D7F80415A1EB0E02EC
:1026200022F07F42B2F5000F15D9C3F800B01A6846
:10263000019A02EB010C01320192D9E7214BBFF361
:102640005B8F53E8001F41EA090143E80012002AAA
:10265000F7D1BFF35B8F19491B4801EB0612330119
:10266000C2E90245C85000205060029BDBB1BFF3B5
:102670005B8F5AE8003F43EA09034AE80032002A28
:10268000F7D1BFF35B8F0F4BC7F80483BFF35B8FAA
:102690001B68BFF35B8FF340DB0742BF0B4B4FF46C
:1026A0000032C3F8002105B0BDE8F08F6FF01500CF
:1026B000DBE700BF0010014001008000B8000020EF
:1026C000FDFF7F006C150020D526000000E100E032
:1026D000681500202DE9F0413749D1E9006322F067
:1026E0007F45921B140A22F0FF02921943F1000366
:1026F000C1E90023A5F50011B1F5400F0AD22F4919
:1027000009684FEA112C09064E192D494CF10007B2
:10271000C1E9006712F5807243F10003FFF712FF71
:10272000EFF31182202383F31288BFF36F8F254FBD
:10273000254E3868254D3460B84208BF00204FF060
:10274000000894463368D5E9002140B3C4689C4230
:1027500002DDE41AC46022E0A21841EBE471C5E98D
:102760000021D0E90032C0F80C8013605A60C0E943
:1027700000888CF31188BFF36F8F83689847EFF35D
:10278000118C202383F31288BFF36F8F336838686E
:102790001B1BB84262463360D3D1D5E900219A1899
:1027A00041EBE3710023C5E9002133608CF311880C
:1027B000BFF36F8FBDE8F081D000002074150020BA
:1027C000D80000204400002070150020C800002020
:1027D00070B55E4C5E4BC4F80833C4F848335D4BAB
:1027E00000264FF0FF304FF0FF31C4F80865C3E911
:1027F00002014FF48033C4F80433574B02214FF4E5
:102800000032C4F804131120C3F88021FDF7AAFE9A
:102810001120FDF787FE514B0125A5604FF4807212
:10282000256030461D600023FFF78CFEBFF35B8FF1
:102830004B4A52E8003F42E800510029F9D1BFF36A
:102840005B8F3BBB47498D608A684B6002F0030297
:10285000AA42CB601ED1CB608A68032A1AD8EFF354
:102860001185202282F31288BFF36F8F3E48848E39
:1028700004F00702C48E4FF6FF76B44241D0022A1C
:102880002CD10134C48685F31188BFF36F8F1C30BF
:1028900002F0DDFCEFF3058010B9344B1B78ABBBC5
:1028A000EFF31180202383F31288BFF36F8F01248D
:1028B000294D4FF080420121D2F81864D2F8183423
:1028C000F6032AD503F00303012B26D1002C38D0C0
:1028D00080F31188BFF36F8F002070BD5124D44066
:1028E000E4070ED50B60036A43B9C0E9071142B98A
:1028F0001F482A460221FDF77BFCCBE719600162E5
:10290000F5E785F31188BFF36F8FC3E74FF080437E
:102910000222C3F808230446CAE702F02DFDD2F8CC
:102920001835002BC8D1D2F80461002EC4D0C2F8EB
:102930000431D2F80431C2F81815C5F8801191603D
:10294000BAE70223C2F80433C6E700BF0010014013
:1029500003000F00B800002000E100E0681500202F
:102960006415002054150020C41500203C170020D9
:10297000E01500202DE9F04FEBB006460F46FEF7BC
:1029800035FE7E4BDFF804920122C3F8002541A8F2
:1029900001F0BAFA33897289D6F80C80134498444E
:1029A0000024A04500F2B18009A941A801F01EFB56
:1029B000724B0022C3F80025C3F80025002F00F059
:1029C000B680F36834891C4441AA04232146384662
:1029D00002F07AFC0390002840F0A980BDF80411B1
:1029E000738946F60812914240F0AE80BDF8061198
:1029F000994240F09C80042341AA2144384602F0C9
:102A000063FC002840F09380BDF8042146F60713CC
:102A10009A4240F08C80B6F80AA0BDF806315848BA
:102A2000A24453440493436AC16D5A684FF44073FF
:102A300003FB01212F3153421940836A406D013B52
:102A4000534342435B1A521A934228BF1346049AD7
:102A50009A426CD84FF0FF390434C846049BA34215
:102A600040F2628173891BB1A24508BF0AF10404D8
:102A7000042341AA2146384602F026FC002856D1FC
:102A8000211D8A45BDF804B1BDF8065108D83D4A5C
:102A90004FF6FF7032F8023B834248D05B45F9D1D4
:102AA000BBF1100F54D0BBF1220F71D0BBF1010F5D
:102AB00060D1202D3BD82B4621AA384602F004FCD9
:102AC0008146A0BBFEF792FD2C4B41A8C3F800B590
:102AD00001F01AFA5B222C4941A802F0EDFD11A980
:102AE00041A801F083FA254B2A46C3F8009521A995
:102AF000C3F8009511A802F065FFB0F1000918BFF6
:102B00004FF00109C9F1000934E0A8EB0405B5F55F
:102B1000807F28BF4FF480752B464A4621463846B1
:102B200002F0D2FB48B1154B0022C3F800254FF04C
:102B3000FF3840466BB0BDE8F08F2A46494641A8B1
:102B400002F0BAFD2C442CE7002B3FF45DAFEEE71A
:102B5000202DECD12B4621AA384602F0B5FB0028E7
:102B6000E5D12A4621A909A802F02CFF0028DED1D0
:102B70000123039304352C4470E700BF00A00250EA
:102B8000EC1400201C5E0000605E00003C1600207B
:102B9000B9F1000FEED1802DC9D82B4621AA3846B5
:102BA00002F092FB0028C2D162490691302307AAA5
:102BB0005B3106A802F0F9FA002840F0B080DDE9A8
:102BC000062302EB03084146302308AA06A802F0B8
:102BD000ECFA002840F0A3800699A8EB0103002B33
:102BE00040F39D800B781193089B12AA194406A804
:102BF0000623059102F0D9FA002840F09080DDF814
:102C00001890DDF848B00599CDF84C9009EB0B030E
:102C10009942069370D1484B0C221B68002141A8B1
:102C20009847BBF1070F7AD144495A46484602F00B
:102C3000C9FE002873D1429A082A70D140494398AE
:102C400002F0C0FE00286AD1032307AA414606A865
:102C500002F0ABFA002862D1079B002B5FD0DDF8B1
:102C6000189099F800105A1E0792002957D14B442A
:102C700009F101019845069151D1412A4FD121AB6B
:102C800003EB0508089341AA3023414608A802F047
:102C90008CFA002843D1089B419A134498453ED3AF
:102CA000424608A911A802F0C1FC002837D14246CB
:102CB00008A919A802F0BAFC834680BB99F8013034
:102CC000042B2CD1DFF87C80FEF790FC0123C8F8A0
:102CD00000352023009311AA09AB09F1020141A894
:102CE00002F014FEC8F800B5B0F1000818BF4FF0AC
:102CF0000108C8F1000814E019F80B2041920133D3
:102D000042AA06A80693059102F003FA38B9069B79
:102D1000429A0599439313449942069381D04FF008
:102D2000FF384FF0FF3925E7039B002B7FF401AFFD
:102D3000FDE600BF605E000040000020095F00006B
:102D4000005F000000A002502DE9F041294F2C2621
:102D500006FB00760546346A88460CB902F0D3FDBE
:102D6000204602F0EAFA731EF21C13F8011F81429A
:102D70002BD19342F9D185B12046FEF765FB98F837
:102D80000730042B05D1386A0028E7D0FEF75CFB3A
:102D900003E0FFF775F80428F5D00120BDE8F081C5
:102DA000D06813891B181AD25289D21817D2A36877
:102DB0009A4214D240F60C63194210D12146304693
:102DC000FFF7D8FD00B9E9E709E02C236B43FA18B7
:102DD0001169C806CFD4F858074B9842E0D0002DAF
:102DE000DBD0A268002AD8D0002319462046FDF780
:102DF00087F9D2E7EC1400203DB8F3962DE980481E
:102E0000AF4B8BB0012503201D70FDF7EFFF0420B1
:102E1000FDF7ECFFAB4BAC4AC3F80026C3F8042621
:102E2000C3F80826C3F80C26C3F81026C3F81426E6
:102E3000C3F81826C3F81C26A44C602200212046A3
:102E400002F0B8FD032004F12001FDF7DFFA0028AD
:102E500070D104F14C012846FDF7D8FA002869D159
:102E60009B4A626202F500634FF4807606A9032054
:102E70002365069602F090FB28B1012384F85830B0
:102E80008DF81F3051E1069B226DA36206A92846EA
:102E9000069602F081FB00284ED084F8585000219D
:102EA0000846FFF75BF90028E7D1A66A656DAE42D8
:102EB00002D06B1C9E42E0D1B6F5807FDDD8626AFD
:102EC000216D00231F46043204319D423CD1236A08
:102ED000D86802F07EF9E36CD86802F07AF9AE4265
:102EE00005D9636A03EBC5035B68BB42C5D1012307
:102EF000069303F101230793206A002302A9CDE979
:102F00000833FEF763FFA8B9E06C04A9FEF75EFF83
:102F100080B99DF808209DF81030012A1CD19DF839
:102F20000A20032A18D1012B16D0266A02230993FE
:102F3000002E3DD102F0E7FC069B6365236AD8684A
:102F400002F047F9E065AAE752F8337051F8330010
:102F5000874292D10133B8E70023099306A802F013
:102F6000CBF880F0010006A9C0B2FFF7F7F80028FF
:102F700083D106A802F0C0F8002840F0AB8006A874
:102F8000FFF75EF90028D5D19DF81F3084F858303E
:102F9000DA1E012A00F2868002F07DFC9DF81F30C7
:102FA000002870D1023B022B74D994F858307CE091
:102FB000337803F0FD03012B7FF45FAFF068E56D1C
:102FC00002F007F94FF44078B76808FB00F03030A2
:102FD000B842AFD85FFA85F940F2FF2303FB0977C7
:102FE0003F1A4FF0FF35012304AA3946304602F05C
:102FF0006BF90028C24608F1FF38FFF63EAF012208
:1030000004A9304602F063FA18B9B5F1FF3F08BFD2
:103010005546A7EB0907B8F1000FE4D16A1C07D0A9
:10302000FF2D22DC013540F201130695ADF81C306E
:10303000B168183921F00701012304AA103930467C
:1030400002F042F900287FF418AF012204A93046AB
:1030500002F03DFA10B101238DF810309DF81030C8
:1030600003F00F038DF81F3078E70223A5F5807574
:103070008DF81D306B1005F0010501330135069305
:103080008DF81C50D4E7023BFF22022B84F8582015
:103090003FF650AF02F0DAFB002886D0FF2384F819
:1030A000583047E79A1E022AF4D9FF2B3FF442AF6B
:1030B00000210846FFF752F800283FF4DEAE39E75A
:1030C0003C170020000001403546526EEC140020F1
:1030D000EC0400209DF81F60012E34D1FEF7D0FED5
:1030E000831E022B054610D806A93046FFF72CFE9A
:1030F000A8B9E8B284F858008DF81F00012834D828
:1031000013D0FF2384F858300FE0C0B2042884F8AD
:1031100058008DF81F00F1D905281ED0F1E70128CD
:1031200016D184F858008DF81F0094F85830FF2B02
:103130003FF400AF0021012B04912DD00846FFF78A
:103140000DF848B3FEE7012006A9FFF7FDFD48B1E1
:10315000052384F858308DF81F3002F09CFB0028BE
:10316000E3D0CEE79DF81F00D0E706A8FFF768F888
:1031700000287FF4DFAE94F85830DA1E012A08D810
:1031800002F089FB002889D102F060FB002885D17C
:10319000CBE7022BC9D1F7E700210846FFF7D4FDA2
:1031A00000B1CFE7049B01330493049B012B00D0B3
:1031B000FEE7236A5F68784D784E2A6806EB0211B5
:1031C0001301D1F80818C9B2002940F0DC8000B121
:1031D0002A604FF080504FF4E04502690169B5FB69
:1031E000F1F24A43A91A40F0D4800269406942438F
:1031F000AA42C0F0CE8003F1804202F5F0321346BD
:10320000C2F800180221C2F80458C2F80818D2F80F
:103210000058002D40F0BD80D2F80428B2F5E04FF0
:1032200040F0B780D3F80838DBB28B4240F0B18071
:1032300023895B4E5B4CDFF884913B44012733606C
:1032400011206760FDF77CF9574BC4F80833C4F8C8
:103250004833564B4FF40032C3F88021544A4FF0A4
:10326000FF335760C2F84833C2F8083302F5C8325A
:103270006760A846C4F84833AA46C4F808335760C4
:10328000C2F84833C2F8083359F8044B4FF0FF3BFB
:10329000C4F808B344F30730FDF752F96760C4F887
:1032A0004C81D4F84C31C4F81081D4F81031C4F8F2
:1032B0004481D4F84431C4F80085D4F80C35069321
:1032C000D4F814350793D4F808350893D4F810359A
:1032D0000993C4F80CB5C4F814B5C4F808B5C4F81B
:1032E00010B50DF1180B00245BF8040B431C06D03D
:1032F0000023CDF800A001221946FEF7CFF80134D3
:10330000042CF1D1002D45D02A4A4FF0FF33C2F8EA
:1033100008354FF08042C2F80833BFF36F8F72B6A2
:10332000224AC2F88030C2F88430C2F88830C2F82D
:103330008C30C2F89030C2F89430C2F89830C2F89D
:103340009C30C2F88031C2F88431C2F88831C2F8AA
:103350008C31C2F89031C2F89431C2F89831C2F879
:103360009C31FDF7CDF833681B6883F30888002390
:1033700083F31488BFF36F8FBFF36F8F3368586880
:103380000D4B9847FEE70132072A4FF001007FF608
:1033900015AFFEE7012577E74C15002000E001405E
:1033A000501500200010014003000F0000E100E074
:1033B00000B0004000F0014001000020445C00002B
:1033C00030B5394B5B6804468BB0C3F3080300206B
:1033D00080F31188BFF36F8F02F07F45B5F17F4F07
:1033E00008D102F00C05082D04D012F0080F0CBF14
:1033F000204608460022033B8DF80720032B03D804
:10340000DFE803F00A474B4400209DF80730002B0B
:1034100047D102A901F099FF234BDA6A9107F3D44F
:10342000DA6A002AF0DBDA6A5200EDD55A6981695E
:1034300042F480725A61BFF34F8FBFF36F8F5A69A6
:1034400031F8021C22F480725A61BFF34F8FBFF330
:103450006F8F4DF60272914208D09A6AD2B23AB199
:103460000DF107020121FCF7EFFFCEE70068CCE782
:103470009A6A12F47F4F05D00DF107010120FDF784
:103480006DFFC2E79B6AB3F5803FBDD3FDF73CFFFC
:10349000BBE70DF107020021E5E70DF10701002070
:1034A000EDE70BB030BD00BF00ED00E008B572B62F
:1034B000002383F31388FDF723F8144B4FF0FF32FA
:1034C000C3F88020C3F88420C3F88820C3F88C2078
:1034D000C3F89020C3F89420C3F89820C3F89C2028
:1034E000C3F88021C3F88421C3F88821C3F88C2154
:1034F000C3F89021C3F89421C3F89821C3F89C2104
:1035000062B6BFF34F8FBFF36F8F08BD00E100E0DD
:10351000564A08B5564B22F07F029A60BFF34F8F90
:10352000BFF36F8FD3F8882022F47002C3F888208D
:10353000D3F8882042F4A002C3F888204FF040421C
:10354000C3F83422BFF34F8FBFF36F8F0024E1EE37
:10355000104A4848484A2146121A02F02BFA4748B6
:10356000474A4849121A02F0FDF94748474A484974
:10357000121A02F0F7F960B201210134FCF7F2FFF0
:10358000302CF8D10020FDF731FC424B83F3088842
:10359000374C414E636943F4007363610025E023B7
:1035A00084F82230E57725766576A57684F8205074
:1035B000636A43F4E023636284F82350636943F051
:1035C00010036361636923F00803636110232361BF
:1035D0004FF0FF33A362E362D4F890301B0A13F07C
:1035E000FE0F1AD0BFF35F8F2C49C4F894502846C1
:1035F000FCF7D8FF0C310120FCF7D4FF0223337015
:10360000D4F89020C2F30722934229DB0523C4F8A3
:103610009430BFF34F8FBFF36F8F32782048012370
:103620000221FEF75DF830700120FDF7DFFB02207C
:10363000FDF7DCFB0023E1EE103A1A4C1A4D84F33F
:103640000988002004498847184619461A46A847A1
:1036500002488047FEE70000D7580000E558000008
:10366000C4F89830C4F8A0500133C9E70000000046
:1036700000ED00E0B80000204017002040000020CE
:10368000B400002000610000000000204000002085
:10369000C0600000801F00203E170020185B000063
:1036A000905C0000C0470020FD2D000010B54FF0D9
:1036B0008053D3F83021082A4ED14FF080420021A8
:1036C000C2F80C11C2F81011C2F8381502F54042C8
:1036D000D3F80414C2F82015D3F80814C2F824153E
:1036E000D3F80C14C2F82815D3F81014C2F82C150E
:1036F000D3F81414C2F83015D3F81814C2F83415DE
:10370000D3F81C14C2F84015D3F82014C2F844159D
:10371000D3F82414C2F84815D3F82814C2F84C156D
:10372000D3F82C14C2F85015D3F83014C2F854153D
:10373000D3F83414C2F86015D3F83814C2F86415FD
:10374000D3F83C14C2F86815D3F84014C2F86C15CD
:10375000D3F84434C2F87035FDF732F918B1414B53
:10376000414AC3F88C26FDF72BF918B13F4BFB22D9
:10377000C3F81825FDF724F970B14FF080414FF0E0
:103780008053D1F8E42ED3F8583222F00F0203F020
:103790000F031343C1F8E43EFDF712F920B1344B97
:1037A0004FF40072C3F840264FF08053D3F8303105
:1037B000082B09D14FF08043D3F80024D20744BF2F
:1037C0006FF00102C3F800242A4AD2F8883043F48B
:1037D0007003C2F88830BFF34F8FBFF36F8F4FF085
:1037E0008053D3F83021082A0ED1D3F83431052B79
:1037F00002D8214AD35C3BB14FF01023D3F8082202
:103800004FF08043C3F858254FF01023D3F800221F
:10381000002A03DBD3F80432002B22DA17490123F4
:103820004FF01020C1F804351224FDF7DBF8C0F882
:103830000042FDF7D7F8C0F80442FDF7D3F80023A3
:10384000C1F80435FDF7CEF8BFF34F8F09490C4B93
:10385000CA6802F4E0621343CB60BFF34F8F00BF2E
:10386000FDE710BD005000404881030000F000401B
:103870000090024000ED00E0235F000000E0014006
:103880000400FA0530BFFFF7FDBF00BFEFF308806B
:10389000EFF3098101B57246FFF792FD01BD00BF4C
:1038A000002080F31488BFF36F8F0F4880F30888DF
:1038B000FFF7FCFE00200D490860BFF34F8FFFF7B4
:1038C000F5FD202080F3118809484FF40461401869
:1038D00080F30988EFF314800221084380F31488F1
:1038E000BFF36F8FFFF714FE8047002094ED00E0D8
:1038F000401700201EF0040F0CBFEFF30880EFF319
:103900000980816911F8021C0229FFD001B57246B5
:1039100001F0DAFF01BD00BF10B50A4C23681BB1EE
:1039200001232360002010BD00F048F80028F7D0E4
:103930000138062803D8044B53F8200010BD034873
:1039400010BD00BF24160020A85C0000FE8FFFFF02
:10395000BFF34F8F0549064BCA6802F4E062134378
:10396000CB60BFF34F8F00BFFDE700BF00ED00E06D
:103970000400FA0510B40A4B0A490B4C4FF0FE3212
:10398000C3F800244968C3F80424C3F80824C3F822
:103990000C240023C4F800355DF8044B084700BF31
:1039A00000B002504C00002000A00250D0E90012EC
:1039B000014BC3E9001270474C00002038B500F0FD
:1039C0002FF820B1032400F063F8204638BD00F042
:1039D00031F898B900F0ACF898B90F4DD5F82839FE
:1039E0001B0EF02B08D1D5F8242A0C4B9A420AD092
:1039F000072400F017F8E6E70624FAE70424204637
:103A000038BD0024F5E7012000F092F804460028B4
:103A1000F7D1C5F80C0AD8E700B002500000E0204A
:103A20000020704700207047014BC3F8040A70471C
:103A300000B0025010B5114800F048F800B110BDB8
:103A40000F4800F043F80028F9D10E4C204600F052
:103A50003DF80028F3D10C4B0C481C6000F036F800
:103A600001460028EBD100F02DF8044608B12046AD
:103A700010BD00F03FF82046FAE700BF64000020C8
:103A8000600000205C00002054000020580000204E
:103A900008B5084800F024F8074800F021F8074866
:103AA00000F01EF8064800F01BF8BDE8084000F0E2
:103AB0000BB800BF64000020600000205C00002004
:103AC0005800002000207047704700BF08B5034B26
:103AD00002681B6810689847002008BD7C00002021
:103AE00008B5034B02685B6810689847002008BD62
:103AF0007C00002070B5094C094D2069AB689847DF
:103B000018B1084B08485B689847084AEB68206979
:103B100000211160BDE87040184700BF6800002018
:103B20007C0000204C000020C45C0000281600200F
:103B3000F8B51A4D1A4E0446B26828699047E8B99C
:103B4000184F3B684CB1A3B1012B19D0013B3B602E
:103B50002869F36898470020F8BD43B9124A01214B
:103B6000C2F800151149D1F81029002AFBD1013300
:103B70003B60F368286998470020F8BD0C48F8BD01
:103B80000A4AD2F81039002BFBD1074A6FF07E4069
:103B9000C2F80035FFF748FF3B68D7E76800002010
:103BA0007C0000202816002000A0025000B0025027
:103BB000E98FFFFF10B5044650B1636813F0685FEA
:103BC00005D0064A934202D000232360626010BDF4
:103BD000034B04485B689847EFE700BF2C5F5CA984
:103BE0004C000020E45C0000C8B143680D4A9342D9
:103BF00013D013F0685F0ED0012350E8002F194650
:103C000040E8001C9CF0000FF7D1012AF5D0BFF36B
:103C10005F8F0020704704487047044870476FF476
:103C2000E04070472C5F5CA9E98FFFFFEA8FFFFF40
:103C300080B14368094A93420AD013F0685F05D007
:103C4000BFF35F8F00230360184670470448704736
:103C5000044870476FF4E040704700BF2C5F5CA9D8
:103C6000E98FFFFFEA8FFFFF10B5044620B1044B38
:103C700063600022226010BD0248FFF77BFEF6E77A
:103C80003A00003A0C5D000030B10268034B044872
:103C90009A4208BF0020704702487047DD55AABB12
:103CA0008208F0007108F00038B50D460446B0B146
:103CB000A0220021043001F042FE95B108222946DD
:103CC00004F1640001F041FE082205F1200104F135
:103CD000840001F03AFE044B2360002038BD034805
:103CE000FCE70348FAE700BFDD55AABB7108F00006
:103CF0008308F0002DE9F74305460E469946114624
:103D0000FFF7C2FF0446002840F08480002E00F038
:103D10008580002900F08480B9F1200F40F0828076
:103D200005F14404082205F10408204601F00DFEC7
:103D300005F1240708223146404601F006FE06F14F
:103D400020010822384601F000FE02A94FF48070DD
:103D500041F8049D01F0EDFD002865D1334A4FF490
:103D600080731360012193600823314A00F02EFB19
:103D70000121084605232F4A00F028FB082342466C
:103D800001211C2000F022FB08233A4601210320D8
:103D900000F01CFB224608230121022000F016FB44
:103DA0000823254A01211A2000F010FB0523234A8D
:103DB00001211B2000F00AFB0823214A01211420C5
:103DC00000F004FB08231F4A0121152000F0FEFA31
:103DD000082305F164020121162000F0F7FA0823F8
:103DE00005F184020121172000F0F0FA0823164A99
:103DF00001210B2000F0EAFA00F044FB0446019890
:103E000000F0D2FA114B002C18BF1C46A421284602
:103E100001F097FD204603B0BDE8F0830C4CF9E7B4
:103E20000C4CF7E70C4CF5E7084CEFE790B002506C
:103E3000705D0000E85D0000305D0000D45D0000B2
:103E4000945D0000B45D0000505D00008408F00047
:103E50007608F0008008F0008108F0000C4BC26981
:103E60001A60826943F8042C426943F8082C0269FD
:103E700043F80C2CC26843F8102C826843F8142CC9
:103E8000426843F8182C026843F81C2C704700BFA6
:103E90005CB602500C4B1B68C3610C4B1B68836102
:103EA0000B4B1B6843610B4B1B6803610A4B1B6880
:103EB000C3600A4B1B688360094B1B684360094B56
:103EC0001B680360704700BF5CB6025058B60250D2
:103ED00054B6025050B602504CB6025048B602508A
:103EE00044B6025040B6025030B10268034B044859
:103EF0009A4208BF0020704702487047DD55AABBB0
:103F00000202F0000002F00038B5044668B1051D59
:103F10007021284601F015FD28462022044901F0B1
:103F20000CFD044B2360002038BD0348FCE700BFB4
:103F3000FC5D0000DD55AABB0002F0002DE9F04356
:103F4000284B04460E4615460FCB85B06F4687E8D2
:103F50000F002DB94FF00009484605B0BDE8F083C9
:103F60002046FFF7C1FF81460028F5D1231D0193AC
:103F7000636AA3BB236F8BB1C3F14008A84528BF78
:103F8000A84604F1300031461844424601F0D5FC01
:103F9000236F434446442367A5EB0805226F402A5C
:103FA00006D104F13001384600F0AEFB0023236750
:103FB00005F03F0835F03F0505D031462A46384622
:103FC00000F0A2FB2E44B8F1000FC3D042463146A8
:103FD00004F1300001F0B1FCC4F87080BCE7DFF8F8
:103FE0000890B9E7E85A00000C02F0002DE9FF4103
:103FF000144B04460E460FCB6F4687E80F00204651
:10400000FFF772FF8046B0B9CEB1636A251D0195F6
:104010003BB901236362226F04F13001384600F09E
:1040200073FB2B46043E243453F8042B12BAA342EC
:1040300046F8042FF8D1404604B0BDE8F081DFF81F
:104040000880F8E7E85A00000502F000084B1B68FA
:104050001B0EF02B08D1074B1A68074B9A4205D16B
:10406000064B0020186070470520704706207047F7
:1040700028B9025024BA02500000E0200CBA0250C5
:10408000002230B549001346023840F6FC7502F1B3
:10409000A05404F52C44A400904202F10102CABFCE
:1040A000236025605B181E2AF1D1044A13600B447B
:1040B0005360034B034A1A6030BD00BF78B0025012
:1040C00084B0025020F80F0030B51E4B85B01A4660
:1040D000196800910099CC07FAD500F1A05000F5BD
:1040E0002C408000016813680193019BD807FAD522
:1040F000154B164C1868164D1F30202390FBF3F01B
:104100000138002810DA00230130400153B1A0F13A
:1041100020014FF00042134204D1013888424FEA97
:104120005202F8D105B030BD13680393039BDB073F
:10413000FAD5431823602B680293029B002BE3D12E
:104140000138DEE7B4B00250ACB00250E4B0025027
:10415000DCB00250F0B51D6885B001F01F040DB948
:104160001F2C25D1154D2E462F680197019FFF0763
:10417000FAD500F1A05000F52C40800000683568A9
:104180000395039DED07FAD50D4D00EB61102860F6
:104190000C48006802901F2C18BFC94302980FBF3B
:1041A000106001F01F0100FA01F111600021196097
:1041B00010684300C00F136005B0F0BDB4B00250EA
:1041C000E4B00250DCB002500C4B18603F3020F0DD
:1041D0003F008901403058609960D9601961596188
:1041E00099611C330648196082B002680192019AF5
:1041F000D207FAD5196002B0704700BF90B00250E4
:10420000B4B0025038B5A0F12003B3F5426F0546B3
:104210002CD88F2826D800F1470300F16604DB066E
:104220004FEA541400D0013464013F34A40901342E
:1042300011B1A1421AD30C46E3004FF48050B0FBF9
:10424000F3F0202828BF202002B11060084B012283
:104250001A602146FFF714FF28462146FFF7B4FFF6
:10426000002038BD00F11F046409DDE70148F8E7CC
:104270001CB802502221F000F0B5454B89B01D4614
:104280001C680194019CE407FAD5424BDFF80CE16D
:10429000DFF80CC113449B0000241A680B181E2B76
:1042A00088BFC0F11E011F320B1852095343B3F5EA
:1042B000806F82BF4FF48061B1FBF2F1091A00F107
:1042C000A05000F52C402746A14233DC2B68049314
:1042D000049BDB07FAD5304B1B68296805910599CB
:1042E000CF07FAD52D4C2E49236000231E4693425A
:1042F00003F1010040D120F00102294819460026AF
:104300008A423CD8296806910699CE07FAD52549F4
:104310000968286807900798C007FAD521602048E7
:1043200000210C468B422DD11D4900209A422CD8E9
:1043300009B0F0BD2B680293029BDB07FAD5031985
:104340009B001B682E680396039EF607FAD5CEF8ED
:1043500000300023934203F1010306D1164623F0F7
:104360000103B34204D80134AEE7CCF80070F1E7A2
:10437000CCF800700136F4E70E600346B7E706603C
:104380000131BDE704600131CCE708600133CDE7BE
:10439000B4B0025024AC00147CB00250D4B002502F
:1043A000D8B0025078B0025008B540B1202801467C
:1043B0004FF0070228BF20210020FFF75DFF024BCE
:1043C00000221A6008BD00BF1CB80250F0B5294D8C
:1043D00085B02C462E680096009EF607FAD500F1AF
:1043E000A05000F52C4080000568206801900198DD
:1043F000C707FAD52048214F056002EB8306B24279
:1044000029D15A1C1D4E22F0010200279A4227D8BA
:1044100023680293029BDE07FAD5194B0B449B00DD
:104420001B681F335B099A4213D2216803910399D9
:10443000C907FAD5154400219B1A104A05600846A1
:104440008B4210D85A1C0D4922F0010200209A42DA
:104450000CD805B0F0BD52F804CBC7F800C0CEE7C9
:1044600037600133D2E710600131E9E708600133BA
:10447000EDE700BFB4B00250D4B00250D8B0025043
:1044800024AC00142DE9F041814B1D68986820335D
:10449000A0B01E461A680192019AD707FAD57D4B43
:1044A0007D4A1A6032680292029AD407FAD57B4A92
:1044B0001A607B4A1446116803910399C907FAD51B
:1044C000784A1168C1F3402137680497049FFF07B9
:1044D000FAD5754F1F6027680597059FFF07FAD526
:1044E0001768002900F0CF80B90540F1CC80316811
:1044F00006910699CF07FAD56C4919602168079192
:104500000799C907FAD51168C1F3402137680897A0
:10451000089FFF07FAD5664F1F6027680997099F14
:10452000FF07FAD51268002900F0AF80910540F12D
:10453000AC8032680A920A9AD207FAD5564A1A60B3
:1045400032680B920B9AD707FAD55A4A1A6031682B
:104550000C910C99CC07FAD55749196031680D9127
:104560000D99C907FAD55549196031680E910E9910
:10457000CF07FAD55249196031680F910F99CC07CE
:10458000FAD550491960504B1E4619681091109980
:10459000C907FAD53F4C4D4B236033681193119BEB
:1045A000DB07FAD54A4B236033681293129BDF076F
:1045B000FAD5484B23603A4B9846196813911399E2
:1045C000C907FAD5324F386033681493149BDB0760
:1045D000FAD5226033681593159BD807FAD53E4B60
:1045E000236033681693169BD907FAD53B4B23609B
:1045F00033681793179BDA07FAD5394B2360336872
:104600001893189BDB07FAD5364B23603368199350
:10461000199BD807FAD5344B236033681A931A9B39
:10462000D907FAD5314B236033681B931B9BDA07FC
:10463000FAD52F4B236000F01DFC08BBD8F80030E2
:104640001C931C9BDB07F9D53D6033681D931D9BB4
:10465000D907FAD5274B236033681E931E9BDA07D0
:10466000FAD5254B2360D8F800301F931F9BDB073A
:10467000F9D50C4B1B6813F4805F204B08BF18461C
:1046800020B0BDE8F0811E48FAE71E48F8E700BFF9
:1046900090B0025080B0025000100251C01F722929
:1046A000B4B0025088B00250C0CF0129C01F0E29FB
:1046B000C03F002940010249003184A8000016498A
:1046C000400108A180440888B0B00250C0447088FE
:1046D00080077A41C0077E4100006A49800616497A
:1046E00040006E49000200210082202140822021EA
:1046F0008082242140A161A100C861510308F1001A
:104700000108F1000208F1002DE9F74F314B446830
:104710008046924699461A68002AFCD12E4B9B4649
:104720001A68002AFCD14FF0FF30019100F094FC90
:10473000802000F097FC294D294A2A4F2A4E012358
:1047400007202B60A2F59E72C2F83C011360636AD9
:104750003B60A36A3360D8F8003042F8043CD8F8D4
:104760000830204698470199D9F80030002BFBD13A
:10477000BAF1000F20D11D4B04221A60D9F8003085
:10478000002BFBD1DBF800A0BAF1000FFAD1D8F86A
:104790000C30204698473B6863623368A362144B31
:1047A000C3F800A0C3F844A1D9F80030002BFBD116
:1047B0002B6003B0BDE8F08F236A012B04BF0C4AC5
:1047C00013600C4B40201960C3F804A000F050FCAB
:1047D000D4E700BF10B9025020BC025018B80250F4
:1047E00000B90250CCB70250D0B70250C8B702503F
:1047F00084B6025028BC025010B5544B98B01946EC
:104800001A680192019AD207FAD5514B514A1A609F
:104810000A680292029AD407FAD54F4A1A600A68C7
:104820000392039AD007FAD54C4818600A6804929C
:10483000049AD207FAD54A4A1A600A680592059A7C
:10484000D407FAD5474A1A600A680692069AD20730
:10485000FAD5454A1A600A680792079AD407FAD52A
:10486000424A1A600A680892089AD207FAD5404A62
:104870001A600A680992099AD407FAD53D4A1A6063
:104880000A680A920A9AD207FAD53B4A1A600A685D
:104890000B920B9AD407FAD5384A1A600A680C9220
:1048A0000C9AD207FAD5364A1A600A680D920D9A08
:1048B000D407FAD5334A1A600A680E920E9AD207C4
:1048C000FAD5314A1A600A680F920F9AD407FAD5BE
:1048D0002E4A1A600A681092109AD207FAD52C4A0A
:1048E0001A601A4B19461C681194119CE407FAD5FA
:1048F000174B1860086812901298C407FAD51A600E
:104900000A681392139AD007FAD5124A1A600A68F5
:104910001492149AD207FAD51E4A1A600A681592A0
:10492000159AD407FAD51C4A1A600A681692169A84
:10493000D007FAD5194A1A600A681792179AD2074F
:10494000FAD5174A1A6018B010BD00BFB0B00250B7
:1049500080B002500093652100043190409665902C
:104960000083612100C3302100C364900081619005
:1049700000461021008111210041442100C320295B
:104980000C4610C80086312100C3602140C128298F
:10499000409665210013319040962529594614C848
:1049A0004004324910B5494B94B019461A68009238
:1049B000009AD207FAD5464B464A1A600A68019215
:1049C000019AD407FAD5444A1A600A680292029AF8
:1049D000D007FAD5414818600A680392039AD207B3
:1049E000FAD53F4A1A600A680492049AD407FAD5A5
:1049F0003C4A1A600A680592059AD207FAD53A4AE3
:104A00001A600A680692069AD407FAD5374A1A60DD
:104A10000A680792079AD207FAD5354A1A600A68D7
:104A20000892089AD407FAD5324A1A600A6809929D
:104A3000099AD207FAD5304A1A600A680A920A9A85
:104A4000D407FAD52D4A1A600A680B920B9AD2073E
:104A5000FAD52B4A1A600A680C920C9AD407FAD538
:104A6000284A1A600A680D920D9AD207FAD5264A8A
:104A70001A600A680E920E9AD407FAD5234A1A6071
:104A80000A680F920F9AD207FAD5214A1A600F4B83
:104A900019461C681094109CE407FAD50C4B18605A
:104AA000086811901198C407FAD51A600A68129222
:104AB000129AD007FAD5174A1A600A681392139A05
:104AC000D207FAD5144A1A6014B010BDB0B0025023
:104AD00080B0025080906521000409904096659056
:104AE0008080612180200821802064900081619075
:104AF00000461021008111210041442180202029FD
:104B0000024610C800860921802060214021282902
:104B10004096652140962529594614C810B5504B3A
:104B200096B01C461A680192019AD207FAD54D4BED
:104B30004D4A1A6022680292029AD207FAD54B4A6D
:104B40001A604B4A42EA804022680392039AD207D5
:104B5000FAD5186022680492049AD007FAD5454A1B
:104B60001A60A2F5800242EA814122680592059A04
:104B7000D207FAD5196022680692069AD007FAD5AC
:104B80003D4A1A6022680792079AD107FAD53B4A34
:104B90001A6022680892089AD207FAD5384A1A6031
:104BA00022680992099AD007FAD5364A1A60226813
:104BB0000A920A9AD107FAD5334A1A6022680B92F0
:104BC0000B9AD207FAD5314A1A6022680C920C9AD5
:104BD000D007FAD52E4A1A6022680D920D9AD10795
:104BE000FAD52C4A1A6022680E920E9AD207FAD58C
:104BF000294A1A6022680F920F9AD007FAD5274ADD
:104C00001A60216810911099C907FAD51A60144BDF
:104C10001A46196811911199C807FAD5114B204904
:104C20001960116812911299C907FAD51D491960C6
:104C3000116813911399CC07FAD50B4919601168C3
:104C400014911499C807FAD517491960116815917C
:104C50001599C907FAD5154A1A6016B010BD00BFDC
:104C6000B0B0025080B00250400441900086292923
:104C7000D81001C8401441904014212940146521E6
:104C80000034409000310C90C0400C90C03020297E
:104C900040960D9000416090031645C80086112192
:104CA00000416021594644C84014459040142D905D
:104CB00070B5264888B0054604680094009CE60755
:104CC000FAD52348234C0460234C44EA83432C68E0
:104CD0000194019CE407FAD50360930143EA824200
:104CE00042F0104444F4C0442B680293029BDE0758
:104CF000FAD504602B680393039BDB07FAD5174BA7
:104D000003608B0143EA814141F0104343F4C04307
:104D10002E680496049EF607FAD503602B68059367
:104D2000059BDE07FAD5046041F058412B680693D5
:104D3000069BDC07FAD5016042F058422B680793C6
:104D4000079BDB07FAD5026008B070BDB0B0025017
:104D500080B00250C02102298071009880611890B3
:104D6000354B8EB019461A680092009AD207FAD5D0
:104D7000324B334A1A600A680192019AD007FAD579
:104D8000304A1A600A680292029AD207FAD52E4A6D
:104D90001A600A680392039AD007FAD52B4A1A6060
:104DA0000A680492049AD207FAD5294A1A600A6856
:104DB0000592059AD007FAD5264A1A600A68069223
:104DC000069AD207FAD5244A1A600A680792079A07
:104DD000D007FAD5214A1A600A680892089AD207C1
:104DE000FAD51F4A1A600A680992099AD007FAD5BB
:104DF0001C4A1A600A680A920A9AD207FAD51A4A15
:104E00001A6008680B900B98C007FAD51A600A68F8
:104E10000C920C9AD007FAD5144A1A600A680D92BF
:104E20000D9AD207FAD5124A1A600E210D230F22CD
:104E300000200EB0FFF73CBFB0B0025080B002506F
:104E40008043012940633921807001298020542149
:104E500000D13490C0403490C0302029C0530D9010
:104E600000413890832308C880E310210041382195
:104E7000CF4308C82DE9F041012392B0CDE90333B7
:104E8000624B1D461A680592059AD207FAD5604C06
:104E9000604B2360604B19461A680692069AD70742
:104EA000FAD55E4B1A68D60400F1A8802A680792EA
:104EB000079AD007FAD55A4A22600A680892089AD7
:104EC000D207FAD51E68C6F30036002E40F098804F
:104ED0001220FFF7F9F807461320FFF7F5F887428D
:104EE0008CBF12201320FFF7EFF8471EFFF738FFA3
:104EF00003AB01AA39461220FFF72CF904AB804618
:104F000002AA39461320FFF725F900EB48000228D2
:104F100032D003283ED0012874D12B680993099B15
:104F2000DB07FAD53F4B23602B680A930A9BD8070F
:104F3000FAD53D4B23602B680F930F9BD907FAD509
:104F40003A4B23602B681093109BDA07FAD5384B45
:104F500023602B681193119BDB07FAD5354B236037
:104F6000013F25D51023192218210020FFF7A0FEAC
:104F7000304612B0BDE8F0812B680B930B9BD9072C
:104F8000FAD52D4B23602B680C930C9BDA07FAD5CE
:104F90002A4BCFE72B680D930D9BDB07FAD5284BE7
:104FA00023602B680E930E9BD807FAD5254BC1E7DB
:104FB00003AB01AA39461220FFF7CCF804AB044634
:104FC00002AA39461320FFF7C5F810EB440402D1BA
:104FD000FFF712FCC4E7FFF7E5FC022C08D0032C16
:104FE00009D0012C10D117211620FFF797FDB7E744
:104FF00015211420F9E70F210E20F6E7124EB7E72E
:10500000124EB5E7124EB3E7124EB1E7B0B0025000
:1050100080B0025000084A51B4B0025088B002502B
:1050200000084E5100065A4940065E4900044241BC
:105030000014424940042E49000652494006564990
:1050400000063A4940063E490608F1000708F1000B
:105050000408F1000508F100014B1860704700BF1B
:1050600008BA0250014B1860704700BF04BA0250E2
:10507000034A13681842FCD0024A10601846704771
:1050800000BA025008BA0250F7B500290546164684
:1050900028DB83688B4225D96B68C068CC1883688D
:1050A00001AA69465B69984700221146019B581E78
:1050B000019013B96FF0150016E0009847686CB9BD
:1050C0005342D0F800C0634528BF63469C4503FBAC
:1050D00007111A440AD808300090E7E7631AB3FBB7
:1050E000F7F3EEE76FF0210003B0F0BD6B68C91A6B
:1050F000C6E900170020F7E74379012B07D10368C1
:10510000012B04D10079431E5842584170470020BA
:10511000704770B50368CD1A002D02DC6FF05F0098
:1051200070BD93F900601C78002E0ADB5C1C0460E3
:105130001B7813600368C91A13688B42EED80020ED
:10514000EEE704F07F04013C032C2BD8DFE804F0E9
:10515000020A1421012DE1D05B7813600368023349
:105160000360E7E7022DD9DDB3F801305BBA9BB2EB
:10517000136003680333F3E7032DCFDD9C785D787C
:10518000DB78240244EA05442343136003680433B4
:10519000E6E7042DC2DDD3F801301BBA13600368C3
:1051A0000533DDE76FF06300BAE770B404680E1BE7
:1051B000002E07DD26789E4208D10134046070BCC1
:1051C000FFF7A7BF6FF05F0070BC70476FF0610022
:1051D000FAE708B58368DB689847006808BD83680C
:1051E00000EBC101B3F5004F2CBF51F8220031F89C
:1051F0001200704700EBC1018068B0F5004F2CBF72
:1052000041F8223021F81230704708B50122FFF72B
:10521000E6FFD04008BD8368B3F5004F00EBC10145
:1052200008D34B681AB143F001034B60704723F079
:105230000103FAE74B881AB143F001034B80704732
:1052400023F00103FAE753000122FFF7D3BF70B444
:105250008D68CB6005F00305032D4FF0000602D0EA
:105260008E6070BC70474D688E60002DF9D0AC46E2
:1052700070BC6047038B13F0070305D10368002B54
:105280000CBF002003207047022B05D1408BB0FAE1
:1052900080F0400980007047012B05D10368002B86
:1052A0000CBF0020052070470020704710B4EFF3BA
:1052B0001182202484F31288BFF36F8F41615DF85F
:1052C000044B0121FAF794BF002930B404460DDBEA
:1052D000806888420AD9401A834207D8E068646827
:1052E000214484682468A44630BC60476FF01500F0
:1052F00030BC704710B48468183C24F007040A4698
:105300000423A4F118015DF8044BFFF7DDBF002969
:1053100030B404460DDB806888420AD9401A8342C3
:1053200007D8E0686468214484686468A44630BC97
:1053300060476FF0150030BC704708B5C0688368DF
:10534000DB689847407908BDFEE7012801D1EFF3FB
:105350000583EFF31183202383F31288BFF36F8F4C
:10536000EFF3118283F31288BFF36F8FFEE708B566
:1053700000210120FFF7E9FF72B6002383F31188B3
:10538000BFF36F8FBFF34F8F20BF80F31188BFF340
:105390006F8F62B670470369C9B20C2201FB0233FA
:1053A000186C00F00700704770B5C9B20369EFF3DD
:1053B0001185202484F31288BFF36F8F0C2606FB1F
:1053C0000134246C14F0C00408D0A24206D085F346
:1053D0001188BFF36F8F4FF0FF3070BD06FB0133B4
:1053E00001221A6485F31188BFF36F8F436803EBC2
:1053F000C1035B6898470020EFE78022FFF7D4BF26
:10540000F8B5069F0469C9B2EFF31186202585F32C
:105410001288BFF36F8F0C2505FB0144256C05F046
:10542000070CBCF1010F0CD1276486F31188BFF380
:105430006F8FC4E90E23436853F83130984700203A
:10544000F8BD05F0C005AF4286F31188BFF36F8F3A
:105450000CBF6FF077004FF0FF30F1E713B58024F9
:105460000094FFF7CDFF02B010BD6FF085007047CC
:1054700010B40069CBB21C2403FB040000215DF8CA
:10548000044B104708B901230B7070474FF400021A
:105490000023C1E90023002070474FF0805200280C
:1054A0001369526908DB5343984205D21B1A99428B
:1054B0008CBF002001207047002070474FF08052C1
:1054C0000020136952695343C1E90030704738B571
:1054D0000C4615462544FFF730FF214611F8013BE5
:1054E000834203D1A942F9D1012038BD0020FCE755
:1054F00038B50C460123114622460546FFF7E4FE67
:1055000000280FDB012221462846FFF7E0FF38B9CB
:105510002378012B14BF022301232370002038BD00
:105520000323FAE70120FAE700470020FBF762BAFD
:105530000020FBF7D5BA1FB5002399420CBF062205
:105540000422194601A8CDE9013303938DF8042004
:10555000FBF738FD002818BF6FF0040005B05DF8B8
:1055600004FB7FB5FF238DF803300DF10303002109
:1055700001930123CDE9023105238DF80C3003A8F6
:1055800001AB04910593FBF71DFD0028A8BF9DF812
:10559000030007B05DF804FB2DE9F04F85B00D4620
:1055A000C0B201A91646FAF731FF00283BDB019B88
:1055B000002B38D0D868D5F80090D3E901788368FB
:1055C00002A95B6903AA9847DDE9020A00230430B7
:1055D0001C461946B844514502D12B60002012E008
:1055E000D0F800E04FF0000C50F8042C944502D3A2
:1055F00001310830EFE7A74211D8A045EDD9994510
:1056000004D86FF00B0005B0BDE8F08F06EBC302C5
:10561000A4EB070B46F833B0C2F804E0013374443E
:105620000CF1010CE0E76FF01500ECE72DE9F34118
:105630000D4604461146022301AA2846FFF7B5FD90
:10564000064618BB019F1F2F12D92B68A7F1200215
:10565000134403F1200253F8041B44F8041B934243
:10566000F9D12B683B442B60304602B0BDE8F08195
:10567000C7F1200842460146204600F09BF9296800
:105680003A4604EB080000F06DF9EAE76FF0020615
:10569000EAE738B50C46204619461546FFF7FDFEE9
:1056A00038B121B10A462846214600F05BF90020B6
:1056B00038BD6FF01500FBE7F8B5B1F1005F00AF42
:1056C0000546144610D2D31D23F007036E46ADEBFA
:1056D000030D684600F046F9694622462846FEF763
:1056E0002DFCB546BD46F8BDFEF728FCFAE78368F9
:1056F000B3F5004F34BF04230823481C0833A0EB44
:10570000D300B0FA80F0C0F11F0070472DE9F041DE
:105710000D4686680446FFF778FDB6F5004F014652
:1057200001D3012832D02046FFF7E1FF04EB8001CE
:105730000E6996B9E368012282401343E3600222B6
:105740000D612B4629462046FFF754FD03222946CA
:105750002046BDE8F041FFF74DBD0222314620460C
:10576000FFF73DFD2946034607462046FFF742FD69
:105770000322334629462046FFF73CFD39462B4697
:105780002046FFF737FD02223146E1E7BDE8F08110
:10579000202809D9B0F1004F08D80138B0FA80F0BC
:1057A000C0F11F0040007047082070473E2070473E
:1057B00013B50C46C0B201A9FAF728FE30B901981A
:1057C000214602B0BDE81040FCF700BB012002B04A
:1057D00010BDFEF7A1B82DE9F7430646C0681D4687
:1057E0000F469046FFF7F5FC6C1E0444404204400F
:1057F000082C01D900F087F83046FFF79EFD2A46B5
:1058000081464146684600F0ADF8621B49460DEB03
:10581000050000F0CFF823466A4639463046FFF7C8
:1058200076FD003818BF012003B0BDE8F08307B54E
:10583000019181681839042321F007010DEB03025F
:105840001839FFF7C8FF03B05DF804FB07B5032064
:1058500001A9FAF7DBFD70B901988168183921F0C8
:10586000070101236A4608398DF80030FFF7B3FFBE
:1058700003B05DF804FB0120FAE707B58168183929
:10588000012301AA21F007018DF80430FFF7A3FFDF
:1058900003B05DF804FB1FB5032001A9FAF7B6FDBC
:1058A00010B1012004B010BD019C02A92046FCF7F4
:1058B0008DFA0028F5D19DF80B30032BF2D120464C
:1058C000FFF7DBFFEEE7704708B501460068FFF71A
:1058D0003CFDFDF7D7BF61B662B680F31188BFF318
:1058E0006F8F7047EFF31180202383F31288BFF38B
:1058F0006F8F7047002383F31188BFF36F8F0423EA
:10590000184602DF704708B5FFF7F4FF2DE9F041B4
:10591000069F044615461E46FEF7C6F938B93B46B3
:10592000324629462046BDE8F041FEF7E3B9BDE81E
:10593000F0810A460021FEF765BC00F013B800F0C4
:1059400039B80A46002100F035B801EB820204386C
:105950008A4201D10020704752F8043D1BBA40F83A
:10596000043FF5E70A44914200F1FF3300D170474C
:1059700010B511F8014B03F8014F9142F9D110BD58
:10598000884210B501EB020402D98442234607D8AD
:10599000431EA14208D011F8012B03F8012FF8E7AC
:1059A000024401468A4200D110BD13F8014D02F8AD
:1059B000014DF7E702440346934200D1704703F8D4
:1059C000011BF9E710B501390244904201D10020D2
:1059D00005E0037811F8014FA34201D0181B10BD58
:1059E0000130F2E7CD0500000000000000000000DB
:1059F000245A0000D357000000000000D127000007
:105A0000000000001D16000000000000352000000E
:105A10000000000000000000445A000000000000E8
:105A2000645A0000F15E0000085B0000B45A0000F8
:105A3000AC000020C41500207D060000000000001E
:105A400000000000CA5E00007C5B00009C5A000061
:105A5000AE000020E000002001190000000000005E
:105A600000000000D75E000000000000845A000023
:105A7000B0000020000000008507000000000000CA
:105A8000000000009356000021080000A908000053
:105A90007D070000BD5400006D070000D517000011
:105AA000D914000035110000650700008D54000076
:105AB000550700006B540000FB5300005D540000CC
:105AC00000000000975300000000000000000000EC
:105AD000FF000000FF000000FF000000FF000000CA
