:020000040000FA
:100000008061002081630000DF7300006D630000E9
:100010006D6300006D6300006D6300006D630000A0
:10002000000000000000000000000000E16300008C
:100030006D630000000000006D6300006D63000050
:10004000D9090000D9090000D9090000D909000028
:10005000D9090000D9090000D9090000D909000018
:10006000D9090000D9090000D9090000D909000008
:10007000D9090000D9090000D9090000D9090000F8
:10008000D9090000D9090000D9090000D9090000E8
:10009000D9090000D9090000D9090000D9090000D8
:1000A000D9090000D9090000D9090000D9090000C8
:1000B000D9090000D9090000D9090000D9090000B8
:1000C000D9090000D9090000D9090000D9090000A8
:1000D000D9090000D9090000D9090000D909000098
:1000E000D9090000D9090000D9090000D909000088
:1000F000D9090000D9090000D9090000D909000078
:10010000D9090000D9090000D9090000D909000067
:10011000D9090000D9090000D9090000D909000057
:10012000D9090000D9090000D9090000D909000047
:10013000D9090000D9090000D9090000D909000037
:10014000D9090000D9090000D9090000D909000027
:10015000D9090000D9090000D9090000D909000017
:10016000D9090000D9090000D9090000D909000007
:10017000D9090000D9090000D9090000D9090000F7
:10018000D9090000D9090000D9090000D9090000E7
:10019000D9090000D9090000D9090000D9090000D7
:1001A000D9090000F9440000D9090000D90900006C
:1001B000D9090000D9090000D9090000D9090000B7
:1001C000D9090000D9090000D9090000D9090000A7
:1001D000D9090000D9090000D9090000D909000097
:1001E000D9090000D9090000D9090000D909000087
:1004C000D9090000D909000053B94AB9002908BF69
:1004D00000281CBF4FF0FF314FF0FF3000F00CB888
:1004E000ADF1080C6DE904CE00F008F8DDF804E089
:1004F000DDE9022304B07047704700BF2DE9F047E3
:1005000086468C460846089E154674461946002BBA
:1005100040F0C1808542B2FA82F245D94AB1C2F1B7
:10052000200300FA02FC954094402EFA03F343EABC
:100530000C0C4FEA154EA8B2230CBCFBFEF80EFBC8
:1005400018CC08FB00F943EA0C43994528D9EB186D
:1005500008F1FF3704D2994502D9A8F102072B44CC
:10056000A3EB0903A4B2B3FBFEFC0EFB1C330CFB94
:1005700000F044EA0344A04214D92C190CF1FF33D3
:1005800004D2A04202D9ACF102032C44241A43EA5B
:1005900007401EB1D440002334607360BDE8F0878B
:1005A0004746DDE76346F1E792BB431B01214FEA73
:1005B000154EAFB2200CB3FBFEFC0EFB1C330CFB44
:1005C00007F840EA0343984561D9EB180CF1FF3076
:1005D00004D2984502D9ACF102002B44A3EB0803E6
:1005E000A4B2B3FBFEFC0EFB1C330CFB07F744EA82
:1005F0000344A7424DD92C190CF1FF3304D2A74272
:1006000002D9ACF102032C44E41B43EA0040C0E7EA
:10061000C2F120039540944020FA03F12EFA03F32F
:100620004FEA154E9040AFB20343B1FBFEFC0EFB08
:100630001C10190C0CFB07F841EA0041884522D92F
:1006400069180CF1FF3004D2884502D9ACF10200E0
:100650002944A1EB08019BB2B1FBFEFC0EFB1C116F
:100660000CFB07F743EA01439F420ED9EB180CF14C
:10067000FF3104D29F4202D9ACF102012B44DB1BB3
:1006800041EA004193E76046E3E76146F7E76046E9
:10069000A4E76346B8E7834206D916B900210846A5
:1006A0007CE7C6E900E0F9E7B3FA83F78FB9834244
:1006B00001D3724508D8BEEB020460EB03030120AE
:1006C0009C461EB9002169E73846FAE7C6E9004CA6
:1006D000F8E7C7F1200CBB400EFA07F522FA0CF43C
:1006E0002EFA0CF1BA401C4320FA0CF3B8404FEA42
:1006F000144901431FFA84FEB3FBF9F809FB1830D3
:100700000B0C08FB0EFA43EA00439A4540D9E31864
:1007100008F1FF3004D29A4502D9A8F1020023441F
:10072000A3EB0A0389B2B3FBF9F809FB183308FB02
:100730000EFE41EA03418E452CD9611808F1FF33C2
:1007400004D28E4502D9A8F10203214443EA0040B5
:10075000A1EB0E01A0FB02984145CE46434602D3D1
:1007600006D14D4504D20138B9EB020E68EB040303
:10077000002EA7D0B5EB0E0261EB030101FA0CFCD1
:1007800022FA07F3F9404CEA0303C6E9003199E77E
:100790004046C5E74346D9E72DE9F047058B0446B7
:1007A0002807904612D4022905F0070540F0CD80B5
:1007B000204605F0B2FE80B10138218B042800F2FA
:1007C0009F80DFE800F0C29D657D8D0001290CBF90
:1007D00045F0100545F02005258388F31188BFF307
:1007E0006F8FBDE8F08701F007035A1F012A1CD85C
:1007F000002221F00701062B276889B2C4E90022F4
:1008000009D13B4603E0628B013262831B68002BF7
:10081000F9D141F002012046218305F07EFE002837
:1008200000F0A18041F020019CE0042B0AD121F0CE
:10083000070189B22046218305F06FFE10B141F017
:1008400020012183218B01F0070AAA4575D00027DA
:10085000B946A368002B00F08E8041F00801218387
:1008600088F31188BFF36F8FA168002900F08C8096
:100870000D68002900F08880334652462046D1F8A2
:100880000480C047002D48D02B6829461D46F0E75C
:10089000236921F0070141F00601062DD3F80090ED
:1008A000218335D1B9F1000F47D041F008012183F0
:1008B00088F31188BFF36F8F20463D49C84731E068
:1008C00021F00701236941F0040189B2042DD3F816
:1008D00004902183E6D000274FF0040A3E46B8E793
:1008E00021F00701236941F0050189B2052DD3F8F4
:1008F00008902183D6D000274FF0050A3E46A8E78E
:1009000001F0070AAA4518D00027B9463E46A0E7DD
:1009100000274FF0060A3E469BE72B46B5E7B9F1A4
:10092000000FC9D1EFF31188202383F31288BFF39E
:100930006F8F238B23F008032383258BEA062ED5A4
:1009400025F01003238305F007056669218B002E2F
:10095000BFF649AF00232768C4E9003321F007013F
:1009600041F001012183218B4FF0000901F0070ABA
:10097000AA457FF46EAF002F94D041F00801218387
:1009800088F31188BFF36F8F002FC8D03D683946B8
:1009900033465246204605F0AEFD2F46F4E7AB063F
:1009A0007FF51BAF25F02003238305F00705FFE645
:1009B00053650000002318460649D1F89020C2F381
:1009C0000722934200DB7047C1F89830C1F8A000BD
:1009D0000133F6E700ED00E0EFF30583034A103B37
:1009E00002EBC301496852F833000847088E000043
:1009F00030B5104CD4F89030C3F30723013B984234
:100A000015D80D7A0B6805F01F0223F01F031A4357
:100A1000CB686D0923F01F0343EA450343F001034C
:100A2000C4F89800C4F89C20C4F8A03030BD6FF022
:100A30001500FBE700ED00E0244B254A4FF47A61F6
:100A40001A600122234B2448C3F80424D0F824362A
:100A5000C3F30802C3F309434B4382F480721F4976
:100A6000883201FB02334FF4FA215B00B3FBF1F251
:100A700001FB12331A49B3F57A3F28BF0132C1F89E
:100A80000429D0F820364FF47A60C3F30802C3F388
:100A90000943434342F21C5082F4807202F217224F
:100AA00000FB02334FF47A701B0AB3FBF0F200FB39
:100AB0001233B3F5FA7F4FF0010328BF0132C1F8BA
:100AC0001C270020C1F80036704700BF2C0300200F
:100AD0000020A107002008E000C0FF00F82A0080E5
:100AE00000001250084B70B5C31A0D4607499B1001
:100AF000044659434022064805F095FD2B46014621
:100B00002046BDE87040184700250020B76DDBB6D1
:100B100088850000402373B50B4C0093041B0B46E3
:100B20000D460A49A41061430646094A094805F0E2
:100B3000A6FD011E05DA30462B4602B0BDE8704026
:100B4000184702B070BD00BF00250020B76DDBB6AE
:100B5000EF66000088850000014B1B68184700BF46
:100B6000F0240020014B07201B681847F0240020C8
:100B70000023024A0020C1E90023704700D01F0073
:100B80000048704788890000024B0B600123136006
:100B9000704700BF80890000024B034A0020C3F861
:100BA0000C25704700E0045080000080014905F0EA
:100BB000D7BD00BF13790000004870477889000056
:100BC0007F2870B54FEA50110CD80D4A52F82160B9
:100BD00046B13269516829B1012500F01F030C6844
:100BE0009D4001B970BD8A682A4002D030464B68EA
:100BF00098471CB1236821461C46F2E72346FAE7D2
:100C00006889000048B1054B054A1B68B3FBF2F345
:100C10005843044B43F00103184770472C0300204E
:100C200040420F0010870000054BD3F840032928ED
:100C300004D0A0F133035842584170470120704757
:100C400000C0FF0003689A070CD50368DB070DD5C9
:100C50000922074BC3F80C250F22C3F804250122F3
:100C60001A60FEE7034B0360EF3B0360704700BF71
:100C700000801050F000FA5038B504230A4C42F2BC
:100C80001075C4F80833012363610023C4F80831E8
:100C9000D4F80831D4F84C34DB0304D50120FFF735
:100CA000B1FF013DF6D138BD00E0105010B51D4B2D
:100CB0001D4CD3F84C14D3F84C2411F4803F18D0B9
:100CC00002F00302012A03D00AB1FFF7D5FF002288
:100CD000144BC3F840240022C3F80821D3F808219C
:100CE00001221A61226872B9D3F80821002AFBD0C8
:100CF00011E0D3F84824D107E9D5D3F8502492075E
:100D0000E3D422681AB10422C3F8042310BDD3F837
:100D10000821002AFBD00022C3F80821D3F80831AB
:100D2000F4E700BF00E0105084250020034A430987
:100D3000D35C00F01F001844C0B27047788C0000EC
:100D4000F0B58446002587B0DFF848E0124F0191E6
:100D500002AE1EF8013B06AA02EBD30212F8144CB5
:100D600003F00703DC4014F0010406D10135042D23
:100D7000EFD10024204607B0F0BD97E80F0086E8C9
:100D80000F0056F82520136A4CF825301362002B0B
:100D9000ECD0EFE7918C0000E086000070B54B7F4F
:100DA00004460D467BB101236426436000220221E4
:100DB000204605F03FFE20B90120FFF723FF013E4A
:100DC000F4D100236B77AB7F5B070AD50022C4F810
:100DD0000025FFF729FF20B1024B9C4208BFC4F851
:100DE000042C70BD00D00450124B70B553F8205045
:100DF000013053F82060AE4200D870BD6C68B4B1C9
:100E0000237EDB0711D4636953B12046984738B17C
:100E10000028B8BF4042FF28A8BFFF20E368187031
:100E2000E268537843F0010353700835E3E72B6819
:100E30009847FAE74089000048B1094B5B6898423F
:100E400005D003681BB1DA68C1680A44DA60D0E9EA
:100E5000003213605A600023C0E90033704700BFBE
:100E60002403002001680E4A0346914215D1C1694E
:100E7000A2F11022A2F1EF1291420ED18268012A52
:100E80000BD8C26812B101698A4206D0586928B1EC
:100E90009B691B1A5842584170470120704700BF98
:100EA00055AA00FF70B50D4B9E68A6B13046FFF7FE
:100EB000D9FF044678B9F3686BB935690DB9204696
:100EC00070BD2846FFF7CEFF28B9EB68B34202D1C8
:100ED0002E462D69F2E70124F1E700BFC42400206B
:100EE0000022144B10B51A60134B144A00211A60EB
:100EF000134B144A1A60144B13F003020FBF4FF444
:100F0000006402F2FC74C2F104029B1818462246E7
:100F100007F0D8FA0D4A0E49C2E900040160A1F1B8
:100F20001021203CA1F1EF1190604460C161D060BC
:100F3000002010BDD42400200C0300200914000060
:100F400008030020F514000078300020C42400209D
:100F500055AA00FF2DE9F04101263E4C3E4DD4F844
:100F60000C3303F07103EBB901253A4C3B4ED4F836
:100F70000C3303F00C03002B3FD1364AD2F8041394
:100F8000090664D5D2F81C11002960D0C2F81C31C2
:100F9000D2F81C318023C2F80833314BBDE8F04150
:100FA0001B681847B3FA83F30021C3F11F039A00AB
:100FB00002F5807292B202F1A04202F5871211602E
:100FC00006FA03F7042B1268D8B2C4F8087308D0E5
:100FD000062B10D02B689847D4F80C3303F071031C
:100FE000C1E702236B71C4F81411D4F81431202323
:100FF000C4F80433EEE76971ECE7B3FA83F3002732
:10100000C3F11F039A0002F5807292B202F1A0426E
:1010100002F58712176005FA03F1022B1268D8B2A5
:10102000C4F8081310D1D4F84C34D4F84C349F07CA
:101030000AD10423C4F84054C4F804332561D4F819
:101040000C3303F00C0396E733689847F7E7BDE8E5
:10105000F08100BF00E01050F8240020842500201B
:101060007C25002070B5164D1446A84225D8C0F541
:10107000FE1303F580539A421FD8C2B140F2011308
:10108000104DC5F80035A1B107F024FABFF35F8F0A
:10109000D5F81834DA0705D4230703D00123AB6051
:1010A000BFF35F8F4FF48072064BC3F8002500201A
:1010B00070BDFF2107F006FAE8E76FF01500F7E7CB
:1010C000FFCF1F0000E0045010461A46084B10B531
:1010D000994209D8C1F5FE1404F58054A24203D800
:1010E00007F0F8F9002010BD6FF01500FBE700BF16
:1010F000FFCF1F0000220C4BC3F81C21D3F81C218A
:1011000001225A62094A12681AB18022C3F80423E4
:101110007047D3F81C21002AFBD00022C3F81C2101
:10112000D3F81C31704700BF00E010507C25002030
:1011300038B580230A4C42F21075C4F808330123F5
:10114000A3620023C4F81C31D4F81C31D4F86C34E9
:10115000DB0304D50120FFF755FD013DF6D138BD75
:1011600000E0105070B5EFF31185202383F312884F
:10117000BFF36F8F154A136823F0020113F00103C8
:1011800011601AD17121124AC2F80813012151606D
:10119000C2F80031D2F80031FFF746FD00B1D1604E
:1011A00042F210740A4ED6F80C3413F4803309D08E
:1011B0000120FFF727FD013CF5D185F31188BFF32E
:1011C0006F8F70BD034A5371F7E700BF7825002089
:1011D00000E01050F824002010B5EFF31181202317
:1011E00083F31288BFF36F8F2A48026842F002042B
:1011F00012F0010F0460284A23D181F31188BFF354
:101200006F8F0021C2F81011D2F81031C2F81811F6
:10121000D2F81831C2F81411D2F81431FFF704FDD6
:1012200008B1012393601C4BC3F80011D3F80021CF
:1012300001221A60194A12680AB37122C3F8042302
:1012400010BDD2F80C04C003D7D5EFF3118083F39F
:101250001288BFF36F8F124AD36D03F0C00343F0BF
:101260000203D36580F31188BFF36F8F81F3118878
:10127000BFF36F8F0020BDE8104004F06DBCD3F8C1
:101280000021002AFBD00022C3F80021D3F800314E
:10129000D6E700BF7825002000E01050F824002099
:1012A00000250020042805D007280AD002280AD1EA
:1012B000012004E0044BD86D10F0070003D104F0C6
:1012C0004BBC0220FBE7704700250020012270B5CF
:1012D0004649D1E8EF3FC1E8E02F0028F9D13BBBF8
:1012E00043498A608A684B6002F00302012ACB609E
:1012F0001ED1CB608A68032A1AD8EFF31185202209
:1013000082F31288BFF36F8F4FF6FF763948848ED1
:1013100004F00702C48EB4423CD0022A27D1013423
:10132000C48685F31188BFF36F8F1C3005F0E3F896
:10133000EFF3058098B3EFF31180202383F3128835
:10134000BFF36F8F01212C4A2C4CD2F84C54D2F8A9
:101350004C34ED032DD503F00303012B29D10029D3
:101360003FD080F31188BFF36F8F002070BD5124F0
:10137000D440E6070ED50B60036A43B9C0E90711F4
:1013800042B92A4602211E48FFF706FAD0E7196043
:101390000162F5E785F31188BFF36F8FC8E7194B3A
:1013A0001B78002BC7D00422134B0146C3F8082337
:1013B000C9E705F0FEF8D2F8403413F0FF03C4D1BA
:1013C000D2F80851002DC0D0C2F80831D2F8083147
:1013D0004FF480450123C2F84034C4F8A051136192
:1013E000B3E70423C2F80433BFE700BFE8240020BA
:1013F000D82400200025002000E0105000E100E08B
:101400001C25002078380020F8B5384D2B68EE6890
:10141000D3B1AB68C3B1002860D000295ED001FB16
:1014200000F4B4FBF0F0884258D1211D56D8A20731
:101430000CD024F003020432334603E05868904293
:101440004ED29B69002BF9D11846F8BD2246F3E72E
:10145000801A232803F120061CD801229A60D3E9C0
:101460000512A9B18A619A690AB1596951610022CC
:10147000C3E905222B69DB0703D5FFF713FD00281D
:1014800031D122460021304607F01CF80346DBE745
:10149000EA60E8E702F1200C03EB0C012038C1E917
:1014A0000107CB601869124F086143F80C70A7F16F
:1014B0001027A7F1EF17CF6100B1C16058694861EB
:1014C0009F698F6140B18161886900B141610120EC
:1014D0001961C3E90120CAE7E960F5E70023B3E732
:1014E0009F68002FB4D0012004F0BCFFC42400206A
:1014F00055AA00FF70B50546002840D03B4E336822
:10150000002B3CD0B268002A39D0834203D87268DD
:101510001344984202D3012004F0A4FFA0F1200458
:101520002046FFF79FFC0028F5D155F8183C012B09
:10153000F1D155F8143C45F8180C0BB39A68FAB978
:1015400055F81C2C02F120015A680A445A6055E9EA
:1015500005321A6155F8145C2B6903B1DD60202255
:101560000021204606F0AEFF286908B183684BB31E
:1015700033699B0703D5FFF795FC0028CBD170BDDD
:1015800055F8100C00282AD0836843BB4268636872
:1015900013442033636003692361D4E905239AB9B6
:1015A000CBB9436963618269A261B3B19C61A369EC
:1015B00003B15C61236903B1DC602022002106F0E5
:1015C00081FFD5E72C46E1E79361A369002BE8D0C2
:1015D00062695A61E5E7F360F7E7F460E7E7F3680B
:1015E00045F8083C03B15C61F460C1E7C424002005
:1015F000F7B5284B284CD3F82C6304F188070EB9B3
:1016000003B0F0BD96FAA6F00123B0FA80F0834053
:10161000DA43224926EA0306231893F8545083003C
:1016200019440C2303FB0543DB6873B3D7E8EF3F92
:1016300003EA020CC7E8EECFBEF1000FF6D1C340BB
:10164000DB0719D5020102F1A04202F56222D2F8AD
:101650002435D2F82025D1F800C0BCF1000FCED03F
:101660004FF0000CC1F800C00C2101FB05452969B1
:101670000091E9688847C2E705F10C0304EBC30C4D
:1016800054F83320DCF80430E5E70A68002AB6D0C5
:101690000B60B4E700200E50A000002000210E5087
:1016A00038B5044604F002FF25688DB94FF4127274
:1016B0002946201D06F006FF084B284663600123DB
:1016C00084F848328023C4F8C4310523236038BD30
:1016D000204606F0B1FB6FF08800F8E7B8890000FB
:1016E000036803F01F027F2B02604FEA53129ABF78
:1016F000024B53F822000020704700BFA889000069
:101700002DE9F04FD50640F2063548BF4FF00309EA
:10171000D0F8048002EA050598F8103058BFC2F3EB
:10172000401989B001F01F06B5F5837F144646EADB
:1017300043168DF80A9044D00DD8062D43D005D815
:10174000A5B1022D12D06FF0150037E0B5F5807FFE
:10175000F9D101250AE040F202239D4235D0B5F5CA
:10176000407F34D0B5F5007FEDD10425012320035F
:1017700003FA01F12DD5D8F804305960D8F8087073
:101780006FBB05A80596FFF7ABFF059B84F480317E
:1017900000EB8300D0F88020C1F30041C4F3404344
:1017A00043EA410322F4706243EA890322F00F0204
:1017B00043EA05231343C0F88030002009B0BDE898
:1017C000F08F0925D2E70825D0E70625CEE70525C5
:1017D000CCE7620344BFD8F804309960CEE73146C5
:1017E00038460DF10B0205F0DEF814F44039019093
:1017F00031D13046FFF79AFA04B207EB4404A38ACA
:10180000DB0719D5384605F0C0FB3146384605F0F0
:101810008AF840B1A28A3B68520B03EB8203C3F8FB
:101820001095C3F810953846314605F092F800231C
:101830003046A38205F03EF9019B002BBDD1D8F8BC
:1018400008309DF80B1093F8B100314B03EB80008A
:1018500005F027F8B1E7002303AACDE906233846AF
:1018600005AACDE90333059305F0B5FB0028A4DBF9
:1018700014F40033D8F808903CD014F48034304687
:101880000CBF4FF0010A4FF0000AFFF74FFA314644
:10189000074648469DF80AB005F050F820B948467A
:1018A00005F041F8002888D13FB209EB4707BB8A11
:1018B00013F01C0F02D0002C3FF47FAF05A8059653
:1018C000FFF70EFF059B00EB8300D0F8803023F478
:1018D000706323F00F0343EA8B0343EA4A0343EAAE
:1018E000052343F00103C0F88030BB8A43F00303B3
:1018F000BB82A1E7CDE9063331460DF10A03484624
:1019000005AA059305F067FB0028FFF656AF93E79D
:101910001C0300202DE9F04F814659F8043B8DB09F
:10192000D3F8141390F8B14000936C4BC9B241F452
:101930000031804653F83420009804F0CDFF810335
:1019400005463BD51022002108A806F0BBFD634BDD
:1019500008A803EBC4035B6819460193FFF7F0F98D
:10196000042303EBC40303934FF0000B5C4B0DF116
:10197000200A0293029A594912F8013B0292039AF3
:1019800002EBD3028A5C03F0070322FA03F3DA07BF
:101990001AD40BF1010BBBF1040F0AF1040AE9D1CF
:1019A0004FF400310022009804F096FF019908A836
:1019B000FFF7C6F90028D7D125F400350124002D02
:1019C00075D10DB0BDE8F08F464B5B440493DAF857
:1019D00000100029DDD091FAA1F1B1FA81F1049B48
:1019E0001C7841EA44142046FFF7A0F908EB4000B8
:1019F000878AC808BB08059301231AF8002001F064
:101A0000070103FA01F122EA01020AF8002007A8FF
:101A10000794FFF765FE079A059B203250F82220B5
:101A2000C7F382065B073746C2F3014223D5484617
:101A3000D6B221463A4604F0C9FF07A80794FFF73B
:101A40004FFE079B203350F82330C3F301439E42DF
:101A500007D10021204605F085FA3146204605F0E1
:101A600081FA07A80794FFF73BFE0122079B02FAC1
:101A700003F30362ABE7022A0DD10321204605F0F0
:101A800071FA06F00503012BEBD13A462146484690
:101A900004F09CFFE5E702212046059205F062FA7A
:101AA000032EF2D0059A032ADBD1022EECE795FA39
:101AB000A5F3B3FA83F3009904FA03F225EA0205C9
:101AC00003F5A27251F8222008EB43034846B3F80D
:101AD000A010C2F3014204F079FF70E758890000BA
:101AE000918C0000918C0000F0B5466801F01F0455
:101AF000307CB56887B044EA4014002D69D0B2F557
:101B0000001F06D12146284605F03FFA002007B005
:101B1000F0BD0027B2F5800F01A8019747603CD1C6
:101B2000B3F1007F14BF052304238DF80430002394
:101B3000CDE904030393F368CB40D90738D4B2F15D
:101B4000A07F35D168460094FFF7CAFD009B203383
:101B500050F82330DB072BD46A462146284604F090
:101B600022FF16300AD195F8B1001B4B03EB800021
:101B700004F0BEFF0028CADB8DF80000CDF808D0C5
:101B80002146B06803AA05F026FA0028BFDB01222F
:101B90002146B06805F0DAFAB8E7B3F1C06F05D0B6
:101BA000B3F1007F14BF01230223BEE70323BCE788
:101BB0006A462146284604F0F6FE0028E0D195F852
:101BC000B100054B9DF8001003EB800004F069FEA6
:101BD000D6E76FF085009AE71C0300202DE9F0415D
:101BE0002C4C2D4D24F007042D1BB5F5802F2CBF58
:101BF000082204220026AD1A254425F007052D1BD6
:101C0000ED08264B29462046A560E6601C6004F0DE
:101C100060FF421D9200013002F107074FEAD7072B
:101C20003146A2F1100204F11000B8BF324606F0AE
:101C300049FC3A463146204604F059FC33463246C8
:101C40003146204604F048FCA5EB07082046314603
:101C5000012205F0D8FA4246394604F048FC3B46DA
:101C600032463946204604F037FC2946204604F027
:101C70003EFC434632462946204604F02DFC2046D1
:101C80000122294605F0BFFA394605F0D4FA30465C
:101C9000BDE8F0818769002000FC07208C2500202A
:101CA000002310B50B4A147884420AD001330B2B61
:101CB00002F11002F7D16FF0010010BD00200A60A0
:101CC000FBE7D06804F052FC0028F7D16FF0120057
:101CD000F3E700BF8488000030B5394B0C465B68E1
:101CE00000218BB0C3F3080381F31188BFF36F8F1A
:101CF00002F07F45B5F17F4F08D102F00C05082DA9
:101D000004D012F0080F0CBF014621460022033B0D
:101D10008DF80720032B03D8DFE803F00A474B4474
:101D200000209DF80730002B47D102A904F02AFCBF
:101D3000234BDA6A9007F3D4DA6A002AF0DBDA6A16
:101D40005200EDD55A69886942F480725A61BFF336
:101D50004F8FBFF36F8F5A6930F8020C22F48072F4
:101D60005A61BFF34F8FBFF36F8F4DF602729042EF
:101D700008D09A6AD2B23AB101200DF1070103F0FE
:101D800073FFCEE70868CCE79A6A12F47F4F05D05C
:101D900001200DF1070103F033FFC2E79B6AB3F5A1
:101DA000803FBDD303F0FEFEBBE700200DF107012D
:101DB000E5E700200DF10701EDE70BB030BD00BFF6
:101DC00000ED00E010B572B6002484F31388FEF72E
:101DD000F1FD23464FF0FF300C4A03F1200101339F
:101DE000102B42F82100F8D100234FF0FF30074AB2
:101DF00003F160010133102B42F82100F8D162B6E3
:101E0000BFF34F8FBFF36F8F10BD00BF00E100E045
:101E1000002807DB01234109034A00F01F0083402B
:101E200042F82130704700BF00E100E000280CDBE1
:101E300001220649430900F01F008240203341F887
:101E40002320BFF34F8FBFF36F8F704700E100E097
:101E500070B504460068C0F30830FFF7E7FF636819
:101E600043B12146154A51F8043BC3F808232068C2
:101E7000FEF794FF2368D3F80006D3F80456D3F88E
:101E8000086694F82230DB0714D404F01DFE3046B7
:101E900004F01AFE284604F017FE606A04F014FEEF
:101EA0002368D3F80C06D3F8105604F00DFE28462C
:101EB00004F00AFE002384F8203070BD0700F81FEC
:101EC0000028ACBF00F16040064B4FEA4111C9B297
:101ED000ABBF00F5614000F00F0080F8001319540B
:101EE000704700BF14ED00E0274A2DE9F0410221C0
:101EF00006464FF48770FFF7E3FF13791BB16FF0CD
:101F00000400BDE8F081214B136001231371204AC6
:101F100011790029F3D11F49137111601E4A1179FB
:101F20000029ECD11D48137110601D4AC2F84014FD
:101F30001C4A11790029E2D11B4913711B4B116016
:101F40001B6A5B0403D44FF48770FFF761FF3469A9
:101F5000BCB100254FF01C08154F08FB05431C229F
:101F60001846002106F0AEFA0C2303FB05440123BA
:101F7000022D0761E36501D10020C2E73469013514
:101F8000EBE76FF01500BCE7F0240020A51200007D
:101F9000F8240020590B0000842500200167000070
:101FA00000E010507C250020650B000000E100E0FF
:101FB000908900002DE9F04147680646BD688DB361
:101FC00095F8B04074BB8422214605F1140095F8C1
:101FD000B18006F077FA21461A4A2B6852F838C0C9
:101FE0008C4525D14FF0000840F20D14C3F8448110
:101FF000D3F84421144A934214BF2046DB20FFF754
:1020000007FF012385F8B030C5F89C30BB680F4A44
:102010000221DB20C3E90328FFF752FF02212046FB
:10202000FFF74EFF3046BDE8F041094904F098BB88
:10203000CAB2920002F58070442A04BF1C501A589C
:102040000131CDE75889000000A00D50C10B000000
:10205000BF6400008FB5904A904B22F07F029A60D7
:10206000BFF34F8FBFF36F8FD3F888208C4822F4D3
:102070007002C3F888208B4A0021121A06F022FA57
:1020800089488A4A8A49121A06F024FA89488A4AF3
:102090008A49121A06F01EFA002210B201210132FA
:1020A000FFF70EFFB2F5917FF7D10020FEF79CFEFF
:1020B000834B83F30888E022784B824F83F82220F9
:1020C0000022DA771A765A769A7683F82020596AAF
:1020D00041F4E021596283F82320596941F010014D
:1020E0005961596921F008015961102119614FF0B6
:1020F000FF319962D962D3F89010090A11F0FE0FEE
:1021000029D0BFF35F8F7049C3F89420C3F8C01083
:1021100002216E48C3F89820C3F89C10C3F8A000B1
:102120000120C3F8980000F10050C3F89C0000F5AE
:10213000FF2000F2E230C3F8A0003970D3F890001D
:10214000C0F30720814211DB0522C3F89420BFF3BE
:102150004F8FBFF36F8F5E493C784D68002D00F0C4
:1021600081801F2D1ED86FF015047BE0C3F89810F6
:10217000C3F8A0200131E1E72046C3F89880D3F8E6
:102180009C2025F01F0502F01F021543C3F89C5048
:1021900004F027FA62E04E45EED15FFA88F004F0D1
:1021A00020FA5FE0EA06DED10A68D306DBD11046EA
:1021B00004F00EFA154405F1FF398046484604F054
:1021C00007FA8045CFD118F1160FCCD0A045CADA56
:1021D000324BC3F89880D3F89C00C3F89880D3F8AA
:1021E000A06020F01F00824246F01F06D3D0013AC3
:1021F000C3F8988022F01F00D3F8A0204E4502F0CB
:102200001F0242EA0002C3F8A0202046C0D004F01A
:10221000E8F910F1160FA6D0204B013EC3F89880C4
:10222000D3F89C109DF80820013061F304028DF86A
:102230000820D3F8A030009525F01F052E445B0838
:10224000D2B2A6EB090663F3471226F01F066946D1
:10225000C0B28DF808200396FEF7CAFB10F1160FE6
:1022600081D0441C01203C70FEF7BEFD0220FEF729
:10227000BBFD184C0023184D84F309880020044945
:102280008847184619461A46A84702488047FEE77D
:10229000EB730000F97300000000000000ED00E0A7
:1022A000A80300207C390020A0000020A803002003
:1022B0005897000060000020A00000201897000040
:1022C0008069002079380020AAFF4400E1CF1F0078
:1022D0009C89000080610020F92700002DE9F0436F
:1022E00004698046226D4068A36D85B0002A43D101
:1022F000002B00F0FA80068ED4F84C909E4228BF46
:102300001E46676D636DE16C002B55D12666002972
:102310005FD1002694F82130002B40F0E380636801
:1023200013B1012384F82130606AC4E90491421C8E
:10233000C4E9067605D094F822309B0753D505F002
:102340006BF82568B9F1000F04D009F06043B3F1D0
:10235000005F06D1002F49D007F06043B3F1005F62
:1023600044D000236FF00C0184F82130404605B0C2
:10237000BDE8F04304F083BCE16C676D8946068ECE
:10238000B3B1934228BF13469E4228BF1E46002980
:10239000B8D001F06043B3F1005FB3D0082E28BF7E
:1023A0000826A06E324606F095F8D4F86890A9E7A2
:1023B000964228BF1646EAE7A26D42B107F0604296
:1023C000B2F1005F03D0082E28BF0826E76E26660C
:1023D00029B1216D002918BF3146002B99D0A36D7A
:1023E000002B96D096E705F023F8AAE70023C5F85E
:1023F0004C37C5F81437C5F83C97C5F84017C5F8F1
:102400000477C5F80867C5F80831D5F80831D5F85C
:10241000003594F82220073B18BF012363F38202A2
:1024200084F82220CDE90091CDE90276FEF7FCFB8D
:1024300028B12F4B9D4204BF0223C5F8043C07235B
:10244000C5F8003594F82230DF0644BF8223C5F872
:10245000803C94F822301E070CD58223C5F8843CBA
:10246000636853B30023C5F80031D5F80031012368
:10247000C5F80433636803B301232B6063685BBB57
:1024800094F82220D00648BFC5F8803C94F822304A
:10249000190744BF0023C5F8843C606A421C05D07C
:1024A00094F822309B0714D504F0C2FF2846211D62
:1024B00005B0BDE8F043FEF771BC01232B60D5F8F1
:1024C0000831002BFBD06A460421284604F0B2FAFA
:1024D000D4E704F0A1FFE9E70423C5F8043305B00D
:1024E000BDE8F0836FF00F0140E719463EE700BFFB
:1024F00000D004502DE9FF474368027A03EBC20283
:102500009A4204D86FF0010004B0BDE8F0875C790E
:102510008C4200F093800833F2E73268C2F3C323A1
:10252000082BC2F3080400F286804C4508BF4FF028
:10253000FF34B2F1D05F18F803104FEA126310D2E3
:10254000192B12D8DFE803F0141C4A47242D471139
:1025500011111111111111111111111111114D57E9
:102560005A5D382B50D04E2B38D06FF08500CBE71A
:10257000C5F80446601C0FD0204604F04DFF54E01F
:10258000C5F80C46601C07D04FF0000A504612E018
:10259000621CC5F800464BD10436B742BDD10020BD
:1025A000B2E7631CC5F80446F6D04FF0010A204696
:1025B00004F03EFF01203368009103F40042002A3A
:1025C00007BF01465246012200212046C3F34123A2
:1025D00003F056FCE0E7C5F80846D3E7C5F8104617
:1025E000C8E7C5F86045621C3368D5D0C3F3004323
:1025F000002BDAD0C0E7C5F86445F4E7C5F86845B4
:10260000F1E7C5F86C45EEE703A80394FFF768F817
:10261000039B00EB8300D0F8803023F0E04343F0CD
:102620008043C0F88030631CB6D04FF0010AADE79C
:102630004FF0000ABBE76FF0150065E71E681F79D1
:1026400040F2FF190568DFF8088006EB8707A4E76A
:10265000888C00002DE9F04745680769064601218E
:10266000686B86B0FFF746FFD5F83CA0BAF1FF3F94
:1026700031D001238DF8023002238DF804300DF1A2
:10268000030302930DF10203039301AB04930023B0
:10269000D5F83880DFF8A49098F8B100059309EBDD
:1026A000800004F025FA041E10DB5146404603AAC0
:1026B0008DF8034004F08FFC041E0CDA98F8B1008A
:1026C0009DF8031009EB800004F0EBF814F1130FF0
:1026D0002DD0631D2BD0EB6A9847FD6A0835D7E9EA
:1026E0000B3203EBC203A5F1080293420CD807F1A9
:1026F00028000122002104F09CF83046104906B061
:10270000BDE8F04704F02CB855F8080C03F02EFF94
:1027100088B135F8022C55F8080C15F8041C42F461
:10272000B01203F0EFFF041E05F10805D7DA2046CA
:1027300006B0BDE8F0876FF01204F8E71C03002034
:102740008775000030B50D46816887B0102302AA56
:102750001039044604F0B2FD002802DA012007B067
:1027600030BD1022204602A904F01AFF00283FD1F4
:102770001022204902A805F0BAFE00280CBF012350
:1027800002232B70A1680123203921F00F0120467C
:102790000DF10702203904F091FD0028DEDB9DF8E1
:1027A0000730204603F00F021B096A702B710122CB
:1027B0000DF1070104F0F4FE10B96B78042B03D976
:1027C00001236B7000232B71A2682046203A22F06F
:1027D0000F02103AA91C04F0F4FE0028BED1A26832
:1027E0002046203A22F00F02E91C04F0EAFEB6E788
:1027F0000323C6E7E08B000001252DE98048A74BA5
:1028000089B003201D70FEF7EFFA0420FEF7ECFA02
:10281000A34C60220021204605F054FE052004F15F
:102820002001FFF73DFA002870D1284604F14C0141
:10283000FFF736FA002869D14FF40076994A05204F
:1028400002F5805304A962622365049605F0CFFD6A
:1028500028B1012384F858308DF817304FE1049BDC
:102860002846226D04A9A362049605F0C0FD002845
:102870004ED084F858500021084603F031FA002861
:10288000E7D1A66A656DAE4202D06B1C9E42E0D1D4
:10289000B6F5007FDDD800231F46626A216D043241
:1028A00004319D423CD1236AD86804F055FBE36CA7
:1028B000D86804F051FBAE4205D9636A03EBC50347
:1028C0005B68BB42C5D10123049303F10123059347
:1028D00000236946206ACDE90633FFF733FFA8B924
:1028E000E06C02A9FFF72EFF80B99DF800209DF84B
:1028F0000830012A1CD19DF80220032A18D1012B8F
:1029000016D00223266A0793002E3DD105F0D2FD92
:10291000049B6365236AD86804F01EFBE065AAE7A0
:1029200052F8337051F83300874292D10133B8E73F
:102930000023079304A804F095FA80F0010004A98D
:10294000C0B203F0CDF9002883D104A804F08AFABC
:10295000002840F0A98004A803F02AFB0028D5D164
:102960009DF81730DA1E012A84F8583000F287806B
:1029700005F00EFD9DF81730002871D1023B022BA7
:1029800075D994F858307DE0337803F0FB03012BC0
:102990007FF45FAFF0684FF4C068E56D04F0DCFAD7
:1029A00008FB00F0B76850308742AFD340F2FF53C6
:1029B0005FFA85F94FF0FF3503FB09773F1A0123D2
:1029C0003946304602AA04F079FC0028C24608F1D4
:1029D000FF38FFF63EAF0122304602A904F0E0FDC9
:1029E00018B9B5F1FF3F08BF5546A7EB0907B8F185
:1029F000000FE4D1691C08D0B5F5007F22DA40F25F
:102A0000011301350495ADF81430B1680123203964
:102A100021F00F01304602AA203904F04FFC0028B3
:102A20007FF417AF0122304602A904F0B9FD10B1BE
:102A300001238DF808309DF8083003F00F038DF85E
:102A4000173077E70223A5F500758DF815306B1068
:102A500005F001050133013504938DF81450D4E7D6
:102A6000FF22023B022B84F858203FF64FAF05F0BF
:102A7000A7FC002885D0FF2384F8583046E79A1E2B
:102A8000022AF4D9FF2B3FF441AF0021084603F09E
:102A900027F900283FF4DDAE38E700BF7838002082
:102AA00060240020600400209DF81760012E34D1BE
:102AB00003F088F9831E022B054610D8304604A97E
:102AC00003F0FAFBA8B9E8B284F858008DF81700B3
:102AD000012834D813D0FF2384F858300FE0C0B257
:102AE000042884F858008DF81700F1D905281ED065
:102AF000F1E7012816D184F858008DF8170094F8F2
:102B00005830FF2B3FF402AF0021012B02912DD052
:102B1000084603F0E5F848B3FEE7012004A903F0F6
:102B2000CBFB48B1052384F858308DF8173005F0F9
:102B30002FFC0028E3D0CEE79DF81700D0E704A8CB
:102B400003F036FA00287FF4E1AE94F85830DA1E2C
:102B5000012A08D805F01CFC00288CD105F030FCB7
:102B6000002888D1CBE7022BC9D1F7E7002108461E
:102B700003F0A2FB00B1CFE7029B01330293DDF823
:102B80000880B8F1010F00D0FEE7236A5A68724B43
:102B9000D3F874150F2900D0FEE77049C3F870050B
:102BA0006F4FC3F8741523897D686E4E13443360EC
:102BB000ED43672304468246DFF8AC9105F06705D4
:102BC000C9F82833002D40F0A580E420FFF72EF946
:102BD000654BD3F8482722F00102C3F84827D3F801
:102BE000102522F00102C3F81025D3F8102522F099
:102BF0000202C3F8102501225A669A663D70EFF36F
:102C00001182202383F31288BFF36F8F5748818E80
:102C100001F00701022940F09A80C38E013B9BB26C
:102C2000C386002B40F093801C30FDF7B5FD504B60
:102C3000504A1B684FF47A70B3FBF2F34FF0000B6D
:102C400058434D4B4FF0FF3A43F001039847D946A4
:102C5000DFF8288158F8044B04AFC4F808A3C4F384
:102C60000830FFF7E3F80123E362C4F85091D4F889
:102C70005021C4F84C91D4F84C21C4F82491D4F8D4
:102C80002421C4F80095D4F804260492D4F80C2624
:102C90000592D4F810260692D4F808260792C4F8B4
:102CA00004A6C4F80CA6C4F810A6C4F808A600240C
:102CB00057F8040B431C01D003F0FCFE0134042C34
:102CC000F6D10BF1010BBBF1030FC3D14FF0FF3174
:102CD0002B4BC3F80813BFF36F8F72B60023294A3A
:102CE00003F120000133102B42F82010F8D14FF0EF
:102CF000FF3105F160030135102D42F82310F8D1A2
:102D00000022214BC3F80424FDF754FE30681F4B0A
:102D10009847FEE7BB68E1B208FA01F202EA030055
:102D200010F0670F1CBF9343BB607B68DB4303F06D
:102D30006703134208D009EB0113EA07C3F82CA577
:102D400002D5134803F0ADFD6D0801343AE782F374
:102D50001188BFF36F8F6AE700E00450053034003C
:102D6000A0000020C024002000200E5000250020DC
:102D70002C03002040420F00F08600003489000040
:102D800000E0105000E100E0002008E061000020B9
:102D9000A4000020F0B585B06E4681680546103964
:102DA00021F00F0404F0C2FA32460A4B03F1100C72
:102DB000374618685968083303C763453E46F7D15C
:102DC00010232146284604F09BFA003818BF012042
:102DD00005B0F0BDE08B0000012208B52B4BC3F815
:102DE0000028A3F55723D3F80034FDF71DFF10B1D9
:102DF000274BC3F80C242748FDF724FF0830FDF7C4
:102E000021FF0830FDF71EFF0830FDF71BFF00F51E
:102E1000F470FDF717FF204AD2F88C3043F440637A
:102E2000C2F88C300022D30003F57F0303F5404342
:102E3000D3F8001401310AD0D3F8001439B1D3F813
:102E400000140132D3F80434402A0B60EBD1134B49
:102E5000D3F80026D20713D40021114A0E48C2F835
:102E60001815D0F88C3043F44063C0F88C30C2F8A9
:102E7000A015A2F5A042D2F80034012BFBD008BD6A
:102E80006FF00102C3F80026E6E700BF0000125011
:102E90000030055000F50E5000ED00E000E010504D
:102EA00000E004504FF0FF306FF0404130B5054C6A
:102EB000D4E90023904271EB0305F9D31046C3F324
:102EC000130130BD40270E502DE9F3410221E420CB
:102ED000FEF7F6FF824B834CD3F8182722F44032DA
:102EE000C3F818272278002A73D1D3F8101521F0DF
:102EF0000201C3F81015D3F8101541F00101C3F811
:102F000010150521C3F8A4160421C3F8AC16072335
:102F1000672101F001000244013BD2B24FEA5101A6
:102F2000F7D1052A5AD119464FF0010C6D4E0025F4
:102F30006720CFB204E00CFA02F220EA0200013569
:102F400090FAA0F25FFA85FE7745B2FA82F2F2D8E3
:102F5000013132750529224482F8547006F10C06BD
:102F6000E5D10121002560489A0801FA02F212F029
:102F7000670F18BF1D500433302BF5D1E420FEF746
:102F800047FF574B5949D3F8102503F5C07322F07A
:102F90000202C3F8902340F6FF72C3F8A821002272
:102FA0001A60A3F5807004338B420260F8D10127C8
:102FB0004B4D4F4E2F6630684E4BB0FBF3F05D2308
:102FC00058434D4B3B4398472770D5F81035980729
:102FD00007D56FF0770002B0BDE8F0816FF08B008D
:102FE000F9E7D5F8103543F00203C5F81035D5F8E8
:102FF000482712F0010202BFD5F8483743F0010319
:10300000C5F84837364BD3F84017D3F84417490072
:10301000F9D42AB9D3F8482722F00102C3F8482787
:103020003368344A2E4FB3FBF2F303EB4313002B08
:1030300052D0D7F84027D7F8445715F0804517D11C
:103040004FF0FF330193EFF31188202383F31288AD
:10305000BFF36F8F019B626801A81340019303F0D7
:1030600047FD002806DA88F31188BFF36F8FB2E7B7
:10307000013BDCE70126636806FA00F223EA02035B
:1030800063601E4B187288F31188BFF36F8F93F83B
:103090000880A36806FA08F63343A360FFF702FF2F
:1030A000174B20F01F00C3E900014FF0FF324FF033
:1030B000FF3314492846C1E900230C2204EB08031E
:1030C00093F8543002FB03430F4A83F81480C3E99A
:1030D0000325C7F824637EE76FF073007BE700BF2A
:1030E00000200E50A000002000210E50B0210E50F4
:1030F0002C03002040420F00008700001003002036
:10310000B8030020B00300200537000008B50A4BC3
:103110001B6873B9FFF7C6FE084AD2E90032C01A2D
:10312000074B61EB0201C3E90001400940EAC160BD
:1031300008BD0020FCE700BFEC240020B8030020FD
:10314000A803002038B5EFF31185202383F31288FC
:10315000BFF36F8FFFF7DAFF0A4AD2E90034C318D2
:1031600044EBE07485F31188BFF36F8F4FF47A71ED
:10317000A3FB010547F61222002301FB0451FDF7D2
:10318000A3F938BDC00300202DE9F04F046993B0C6
:103190004568079394F86530CDE9051281462A68A1
:1031A0001BB1A36A994200F01581059B9E883105E9
:1031B00005D56FF08505284613B0BDE8F08F16F0F1
:1031C000090F02D06FF01505F5E7C6F34513082B7C
:1031D000F8D1059B98491B688B42F3D99A4228BFC6
:1031E0001A46696809920A91A968B2070B91E968C1
:1031F00095F826B00C91296995F827800391297DCF
:1032000006F004070491A97D0E91A97F0F91296A08
:103210000D9195F82410119195F82510089195F8C5
:103220002810109140F18681002F14BF0327022738
:103230002368D3F80006431C04D0B10700F17E8157
:1032400004F0F6F894F865302BB12046FEF700FE46
:10325000002384F8653094F82030002B40F08A81F8
:10326000764A21687648774B814208BF1346099A0F
:10327000B3FBF2FA02FB1A339A45A3D91AF0010FF5
:10328000A0D1BAF17E0F9DD8BAF1010F9AD06E4B42
:10329000C4E90139089B002B08BF4FF0020BFDF772
:1032A000C3FC28B194F8223043F0100384F8223094
:1032B000664BD3F84023292A18D1D3F84433ABB94D
:1032C000BAF1020F00F03D81FA0700F13A814FEAAE
:1032D0005A030133DBB25B4538BF5B465FFA83FBC1
:1032E00094F8223043F0080384F8223094F8223016
:1032F000049A68F3000362F3410384F82230B8F1C2
:10330000000F22D1012F94BF002301234246012147
:103310000A9805F0B6F84346424601210B9805F09D
:10332000B0F8434641460F9A0C9805F0AAF8049B62
:1033300042460121039883F0010305F0A2F801231E
:10334000424619460D9805F09CF8089B002B00F0AA
:10335000FD804FF0FF33049A63621099236891B99E
:103360000A99C3F800160B99C3F804160C99C3F810
:1033700008160D99C3F80C160399C3F81016C3F874
:10338000B825C3F8B0B50E9A022FC3F8C025C6F30E
:103390000016C3F82CA500F0E780032F00F0E780AB
:1033A000012F01D146F00206119AC3F85465C3F803
:1033B000AC25636823B12068C0F30830FEF728FD10
:1033C000002384F82130012384F8203084F865300C
:1033D000059BA362012384F86430EE6B731C42D01A
:1033E000AF6B3146384603F09EFA002800F0C580E6
:1033F0003046FDF79BFC07EB4000858A6D0BAD0066
:1034000005F5807500223146384603F09FFE002204
:10341000032311463046009202F032FDFFF742FDD1
:1034200080463B685B599BB9FFF73CFDA0EB080069
:10343000C728F6D90CE000BF47E801000020A1072B
:1034400000D004500024F400D574000000C0FF0038
:103450003146384603F099FD0022012311463046DB
:10346000009202F00DFD069B002B40F08980E36383
:103470000023236404F1500204F1400104F13C00F4
:1034800004F073FF079BE064002B40F082806364CC
:103490000023A36404F1580204F1480104F144003C
:1034A00004F063FF002504F128062A460121606527
:1034B000A563304603F0BDF94846FEF70FFF2A46E4
:1034C0002B46206C83426DD100231946A56CA9427E
:1034D0006FD19A4238BF1A464FF4FA535A43A36A3F
:1034E00004F134061B68B2FBF3F202F1C807C932DB
:1034F0006FD1EFF31180202383F31288BFF36F8F16
:103500001A46D6E8AF3F002B5AD00023636380F3FE
:103510001188BFF36F8FA56B15F1740F61D0002D6B
:103520003FF449AE0022D9F810001146283003F0CC
:1035300080F940E6003F18BF012779E603F06CFFF1
:1035400080E694F822306FF3C303CDE6039B049A20
:10355000636294F8223062F3410384F822304FF022
:10356000FF33089A0393F8E646F004061CE746F09A
:10357000060619E76FF077051DE64FF4A27541E7DF
:10358000069B1B68E363002B3FF472AF069B5B68EE
:103590006FE7079B1B686364002B3FF479AF079BC1
:1035A0005B6876E7E16B01EBC301496801330A44CC
:1035B00088E7606C00EBC10040680131034486E796
:1035C00002F0F7FFEFF3118082F31288BFF36F8FE1
:1035D00097E7FFF7B7FD0546D6E8AF3F8BB1636BC2
:1035E000C3B9002520462566FEF732FC84F86550F5
:1035F0006FF07301484603F042FB65636FF073059B
:10360000D9E5FFF79FFD431B9F42E8D90120FDF755
:10361000F9FAE1E7002363637DE700BF064A136818
:10362000934205D023B1DB68181A20EAE070704796
:103630006FF00040704700BF240300202DE9F843DD
:10364000431C0DD172B6002383F31188BFF36F8F33
:10365000BFF34F8F30BF62B6BFF36F8FBDE8F88303
:10366000EFF31188202383F31288BFF36F8F0128B3
:1036700038BF0120441EEFF3118983F31288BFF392
:103680006F8F1E4D2B684BB11D4B28461E684FF0A7
:1036900000479E4223D1FDF7CFFBEF6089F31188ED
:1036A000BFF36F8F002621461448C5E9086602F073
:1036B00001FA88F31188BFF36F8F2022EFF3118096
:1036C00082F31288BFF36F8F2B6813B16B6A6E623F
:1036D0008BB180F31188BFF36F8F0020BEE7FDF739
:1036E000ABFBAE42EF60D9D1FFF710FDFFF796FFBD
:1036F00002F04AF9D2E702F05CFFDFE77C0300202A
:10370000240300202DE9F843324CD4E90065911BD5
:1037100063EB0500490941EAC0614801801945EBA6
:10372000D165C4E90005002400252B48C0E9002329
:103730002A4BC3E90045EFF3118C202383F3128851
:10374000BFF36F8FDFF898804FF00009D8F80000C2
:10375000244E404508BF0020234D31606746D5E91F
:103760000021336828B3C4689C4202DDE41AC460B7
:103770001FE0A21841EBE471C0F80C90C5E90021EC
:10378000FDF75AFB87F31188BFF36F8F8368984763
:10379000EFF31187202383F31288BFF36F8F336811
:1037A000D8F800001B1B4045BC463360D6D1D5E994
:1037B000002100209A1841EBE371C5E90021306037
:1037C000FFF72CFF02F0E0F887F31188BFF36F8F4B
:1037D000BDE8F883B8030020B0030020A803002050
:1037E00024030020EC240020C003002010B5034B6C
:1037F0000A461B6800210446984710BD3403002088
:1038000010B5044610B109B1FFF7F0FF024B204696
:10381000BDE810401B6818470803002070B5446AD3
:1038200005460E4644B9074B01201B68984768625D
:1038300028B12046AE6270BD6FF08A00FBE76FF0E2
:103840008C00F8E70C0300200022074BC3F810217E
:10385000C3F80C21C3F80021C3F80421C3F80821E0
:10386000C3F81821704700BF0090045008B5FFF757
:10387000EBFF01230360104B0A6832B9D3F80C2127
:103880001AB9D3F80821002AF6D00B687BB90B4B84
:1038900099420ED0A3F58473D3F80831002B0CBFE6
:1038A0004FF0FF306FF00200FFF7CEFF08BD0020A1
:1038B000FAE74FF0FF30F7E700900450089104500A
:1038C00038B5064D0C46C5F8000505490548FFF713
:1038D000CDFF10B9D5F80835236038BD00900450ED
:1038E000109104500C90045070B51C4E446802882E
:1038F000B6EB142F43884FEA142513D14069184BB7
:1039000098420BD003F5FF437D330344012B02D8CB
:10391000B2F5105F1AD06FF0860016E047F212136E
:103920009A42F7E70F488542F5D102F44F40B0F5CF
:10393000824F0DD144F21210073382424FEAD30373
:1039400001D15B00013300200B6070BD0223FAE758
:10395000B2F5885FFAD10733DB08F4E7004E800048
:1039600001C0FF7F4B4E800010B5F82004F01FF916
:1039700018B9F92004F01BF910B16FF0920010BDD6
:10398000F823094C09490A48C4F80035FFF76EFFCF
:103990000028F2D1F9230648C4F80035FFF766FF86
:1039A0000028ECD0E9E700BF0090045004910450D7
:1039B0000490045038B52A4B1B7843B1294B1A6840
:1039C000002A3FD01A681968002119602AB9BFF38C
:1039D0005F8F254B9A6ABFF35F8FBFF35F8F224CD7
:1039E000E36BBFF35F8F12F0240F03F023032BD0A0
:1039F000BFF35F8FE569BFF35F8FBFF35F8F102366
:103A00006363BFF35F8F194B1868194BB0FBF3F07A
:103A1000184B43F001039847BFF35F8F00236363A4
:103A2000BFF35F8FBFF35F8FE36BBFF35F8F5B0607
:103A3000F8D425B1BFF35F8FE561BFF35F8F6FF0FF
:103A40001F0038BD20BFBAE74FF0FF30002BF8D180
:103A5000BFF35F8F2063BFF35F8F1846F1E700BFAE
:103A6000783800209C250020000001502C03002005
:103A700040420F0020870000C36870B57BB9C3695E
:103A800000F128021A60C369454A9A604368C26916
:103A9000DB6843F48063D360C3691033C361836A16
:103AA0009B052FD40368C268DD6800F1EC04302D5B
:103AB00034BF082610261D6901366B1E1340EB1A11
:103AC000B34238BF5B191C44D50004F8015C03F114
:103AD000EB045209044400F1ED05A5425CD18022BB
:103AE00080F8EC20426AC469C4322260C2699360E3
:103AF0004468C269E468D460C2691032C261026974
:103B00001A4402610269C469D31C23F003039B1A9F
:103B100054F8042C42EA032244F8042CC26952F8F7
:103B2000084C234443F0005342F8083C026A0368FF
:103B3000DB6811600168026AC96803339160026A38
:103B400023F0030302F1100101620168C968994280
:103B50000BD0002111610168026AC9685B1A43F049
:103B600080439360036A10330362836A13F48063B3
:103B700011D102685169D26891420CD0026A136077
:103B80000268016A5369D2689B1A43F080438B60D4
:103B9000036A1033036270BD04F8012D120A9CE71A
:103BA00004000020BFF35F8F094A1368BFF35F8FE3
:103BB00043F48071BFF35F8F1160BFF35F8F23F415
:103BC0008073BFF35F8F1360BFF35F8F704700BFD9
:103BD00000100150BFF35F8F00220B4BDA61BFF37F
:103BE0005F8FBFF35F8F4FF0FF321A63BFF35F8FBA
:103BF000BFF35F8F3422DA61BFF35F8F012203F5D9
:103C00009223C3F80423704700000150036803F5B2
:103C100080514A68C62A38D0DA68D203F9D4DB6802
:103C200025481840B0F5806F32D017D8402831D0E1
:103C300008D8102830D0202830D0003818BF0120F4
:103C400040007047B0F5807F2AD0B0F5007F29D0C2
:103C5000802808BF0B2018BF02207047B0F5804FA6
:103C600022D00AD8B0F5805F20D0B0F5005F1FD019
:103C7000B0F5006F08BF0620EDE7B0F5004F19D092
:103C8000B0F5803F08BF0320E5E76FF00100704703
:103C9000112070470A2070470C2070470920704798
:103CA0000820704707207047142070470520704790
:103CB000042070470F207047F0FF010010B5154B2E
:103CC000D86C28BB1A684FF0010C91690824C1F325
:103CD0000B02482A1A6528BF482211F4003F5A6592
:103CE00008BF00229A65CA0358BFC3E9140001F453
:103CF0007002B2F5700F08BF586D0029B8BF0022DE
:103D0000C3E918C4B8BFC3E9182201225865DA64B0
:103D1000014810BD6C2A0020B82A002008B5044ACA
:103D200003699A6603F078FFBDE80840FFF76EBFAD
:103D3000008A0000F0B50388C66803F44F42B2F56C
:103D4000824F08BF1C4603F4E04E1D4B18BF0024F1
:103D500000209C46E4B21D78A5421CD1D3E902574D
:103D60000A68BEF5804F08BF3D465F6812B9202D36
:103D700008BF0F600A6897420DD1202D02D06FF066
:103D80008600F0BD142303FB00CC9CF8103043B92F
:103D90006FF08500F5E70130132803F11403DAD141
:103DA000EDE7422C09D1074B9E4206D003F20B13DC
:103DB0009E4202D00A339E42E1D10020E1E700BFDB
:103DC000248A00000008000641281FD019D82228A4
:103DD00009D8112817D91238C3B21548D84000F0B5
:103DE0000100873870472738C3B2092B0BD8114818
:103DF000184100F00100C0F1FF2000F57F007A308B
:103E00007047422810D06FF086007047FF2907D016
:103E1000B1F5E07F0CBF6FF085006FF08600704752
:103E2000054B002013607047FF29F1D1034BF8E7E1
:103E300021020100EEFDFFFF148A0000A08B0000AC
:103E40004368A3F110028A4240D8012243F80C2CA7
:103E500053F8042C42F0200243F8042C53F8082CA9
:103E600042F0005243F8082C836800F11402A3F1D9
:103E7000100191422ED8012243F80C2C53F8042C47
:103E800042F0200243F8042C53F8082C42F0005270
:103E900043F8082CC36803F15402BFF35F8F0F4B44
:103EA0001A60BFF35F8FC2680432BFF35F8F1A617D
:103EB000BFF35F8FBFF35F8F03225A63BFF35F8F40
:103EC000BFF35F8F9A63BFF35F8F7047103141F884
:103ED0000C1CB8E7103242F80C2CCAE70000015065
:103EE00002480B1A58425841704700BF00080006AC
:103EF000034BC3F80005D3F80024D207FBD5704765
:103F000000E00450014608B50120FFF7F1FF064B21
:103F10000648C3F800150649FFF7A8FC0146002033
:103F2000FFF7E6FF084608BD0090045008900450D3
:103F30000891045070B588B001AE182205460C46B1
:103F40003046002104F0BEFA012044EA0524059021
:103F50000794FFF7CDFFBA2309480A49C0F8003596
:103F6000C0F80465FFF782FC01460020FFF7C0FFA0
:103F700081420CBF08466FF0920008B070BD00BFD0
:103F80000090045000910450F8B51E4D064695F877
:103F900080350F467BB300242B462246197FD1B1D2
:103FA0003CB9022905D1196A19B91979002918BF34
:103FB0001C460132202A03F12C03EFD114B96FF013
:103FC0008C0006E0204603F0D9FD204603F0D6FE23
:103FD00010B100240DE01C46237F7BB90123237719
:103FE00036B1094B651BAD105D4305F18045356069
:103FF00000203C60F8BD6FF08800EAE76FF09600A3
:10400000E7E700BFD82A0020A38B2EBA2DE9F0479E
:1040100088B004460D46164603F08DFE78B96369F4
:104020000090C3F3013262F305108DF8000010F028
:10403000300007D1A16889070FD06FF0860008B063
:10404000BDE8F087102808D1BDF8023023F4F873DA
:1040500043F4A873ADF8023070E0E76874498F420A
:1040600047D1238803F44F41B1F5824F44D1D9B2EF
:10407000422941D1A16811F4A05F04D123F0FF03CC
:10408000B3F5E24F38D00A219DF8023061F3030303
:104090008DF8023000234FF0010A9E4619461F4654
:1040A000D4F808C0DFF88C8158F8049B1CEA090F8B
:1040B00008D00AFA07F343EA0E0303F07F0E012348
:1040C00041EA09010137072FEED12BB19DF80330EA
:1040D0006EF347038DF803303CEA01010CD163888D
:1040E000FF2B14D00BD8802B2ED0C02B04D1022351
:1040F0000EE0DBB2F82BCDD06FF085009FE7B3F573
:10410000807F23D0B3F5C07FF6D1062300E00323E0
:104110009DF8021063F306118DF8021010B91CF01F
:10412000030F8AD12379022B1DD011D8012B84D102
:10413000BDF8021063F3C811ADF80210C2B1032A32
:104140007FF47BAF3C4F18E00123E1E70423DFE776
:10415000032B02D0FF2B7FF470AF0221BDF8023099
:1041600061F3C81376E7BDF8023043F4C07371E71A
:104170002388B3F5105FBFD1304F284603F017FDF9
:1041800010B96FF08A005AE7681C03F010FD002890
:10419000F7D002212846FFF7CDFE00287FF44FAF6D
:1041A000009B044607930346DFF89490DFF894A041
:1041B00006970DF10408C446BDF802203344C2F34B
:1041C000C112059203F1100E62461868596808334F
:1041D00003C273459446F7D101206119FFF788FEA9
:1041E000C9F8001516485146C9F80485FFF73EFB8B
:1041F00001460020FFF77CFE21B103F09CFD6FF02B
:1042000092001CE71C21404603F0C5FC44B907F1AD
:10421000100306934FF0FF33012407931023CAE7DE
:10422000BA20FFF76FFE00283FF409AFE7E700BFB1
:1042300000080006C08B00000000002000FF0720DF
:10424000009004500091045008B50F4A1368591C9F
:104250001160BBB90D4A5920D2F8003443F007036E
:10426000C2F80034FDF7D4FDBFF35F8F1522084B71
:104270005A62BFF35F8FBFF35F8F40F237129A62CB
:10428000BFF35F8F08BD00BF682A00200090055073
:1042900000100150B1F5DE7F38B5044624D3036821
:1042A0001D6815F0400522D1FFF7CEFF01212176D0
:1042B000FFF790FC0F4B2846636023680E4A1B688B
:1042C000C4E90355A36204F12C03236204F128031B
:1042D0006362E3671323C4E9212304F18C03E361E0
:1042E000064BA160636138BD6FF02200FBE76FF001
:1042F0000200F8E7B08B000004000020793A0000CB
:1043000010B50C4B04461A68036102605A6842609B
:104310009A68826000229A668264FFF795FF23689C
:1043200003F58051DA68D203FCD44A6A12F4A02F54
:10433000F8D110BD6C2A002010B5124B1C68013C4E
:104340001C60ECB95920FDF771FD07220E4BC3F834
:104350000823D3F8002422F00702C3F80024C3F88E
:104360000041D3F80021C3F80441D3F804214FF0F1
:104370000072C3F80841D3F80831044BC3F8882110
:1043800010BD00BF682A00200090055000E100E049
:104390000422074B10B50446C3F80823FFF7BEFC00
:1043A000FFF7CAFF002322699366636410BD00BF54
:1043B000009005504FF4807313B504460193FFF746
:1043C00043FFFFF707FC214B01AA1A601122204985
:1043D0002048C3E9021240F6110103F110025A60AD
:1043E0001D4AC3E906011A6120321A62212203F133
:1043F00020015961012119485962C3E90A02184A8A
:10440000C2E9011020211460D160BFF35F8F15490C
:104410000B60BFF35F8FBFF35F8F0A61BFF35F8FE6
:10442000BFF35F8F03234B63BFF35F8FBFF35F8FD8
:104430008B63BFF35F8FFFF7BDFA431C0446FAD0CE
:10444000FFF77AFF204602B010BD00BFB025002064
:104450000400002020000020D003002010000020D5
:10446000A0250020000001502DE9F043044600265D
:1044700093B00DF11F05DFF8788025F01F0510229D
:1044800001231C4911F8010D013A03440B704FEA56
:104490001323F7D1A819FFF78DFFA946074618BBCC
:1044A000D8E90C321036013342F10002302EC8E94F
:1044B0000C32E4D154B104F1300299F8003014F810
:1044C000011B4B40A24209F8013BF6D12E46084C95
:1044D0000FCE0FC496E80F00203584E80F0095E852
:1044E0000F00103484E80F00384613B0BDE8F083A5
:1044F000D003002000040020684620F007018D460C
:1045000001B5184BD3F80021D2B1BFF35F8F164924
:104510008A6ABFF35F8FBFF35F8F4FF0FF3008638E
:10452000BFF35F8F0021C3F80011D3F800310F4BA8
:10453000196819680A431A60BDE80140854670474A
:10454000D3F808110029F7D00220094909688860CA
:10455000C3F80821D3F80831064B1A681A6842F0EC
:104560000102E8E700900550000001509C25002062
:104570006C2A0020982500202DE9F84307463025B5
:10458000514CDFF84891202D2E46A8BF2026DFF899
:104590004081FFF759FEFFF705FBBFF35F8FE3682C
:1045A000BFF35F8F9B08013BBFF35F8FA360BFF337
:1045B0005F8FBFF35F8F00232364BFF35F8FBFF371
:1045C0005F8FF1226264BFF35F8FBFF35F8F4FF4A1
:1045D00000726263BFF35F8FBFF35F8FC4F8008028
:1045E000BFF35F8F07E0FFF7A7FE6FF03F05284698
:1045F000BDE8F8830123BFF35F8F226BBFF35F8FAA
:104600005108C2F34202052A5BD011F0060FF2D026
:104610001BBBBFF35F8F6268BFF35F8F032AEAD9CA
:104620002C4BBFF35F8FD4F88020BFF35F8FBFF3B5
:104630005F8F43F8042BBFF35F8F4B45F1D1FFF73A
:10464000B1FABFF35F8F2368BFF35F8F43F00103BD
:10465000BFF35F8F2360BFF35F8F3246BFF35F8F7F
:10466000A368BFF35F8F0133B6EB031FBBD8BFF363
:104670005F8F6368BFF35F8FB6EB830FBAD8BFF36A
:104680005F8FD4F88030BFF35F8F3946081D01F883
:10469000013B81424FEA132302F1FF3208D0002A86
:1046A000F5D1FFF749FEAD1B37447FF46CAF9EE7B1
:1046B000002AF6D0BFF35F8FD4F88030BFF35F8F4E
:1046C000E4E7FFF739FE64E70010015020100150C5
:1046D00001000400101001502C232DE9F341204D5E
:1046E0000F4603FB0055D5F82080B8F1000F01D12B
:1046F00003F0E0FEEB682E8940461E440423314659
:104700000DEB030202F0DAFD044620B1012420463D
:1047100002B0BDE8F08146F60813BDF804206D89AB
:104720009A421AD1BDF806309D4201D00324EEE72B
:10473000042340460DEB0302A91902F0BFFD002837
:10474000E4D146F60713BDF804209A42EED1BDF835
:1047500006302B4433443B60D9E7002DF1D0E5E728
:10476000602400201FB5074B6A461C6A1023A1680D
:104770002046103902F0A2FD002818BF0024204670
:1047800004B010BD602400202DE9F84F06460F4606
:10479000904699460024DDF828A0DFF844B0A245F1
:1047A00001D800200FE0AAEB0405B5F5806F28BF03
:1047B0004FF4806530462B46094A04EB080102F0AD
:1047C0007DFD10B10120BDE8F88F2B465A463846D2
:1047D00004EB090102F094FD0028F3D12C44DEE73C
:1047E000E025002060292DE9F04104460E462FD82F
:1047F0000378033303F00303012B21D86FF021006A
:1048000003F029FB054640B913493246204603F020
:1048100061FE6021104803F0BEF92846BDE8F08132
:10482000637838462B44C8F80035FFF71FF868B99D
:1048300001352378C3F382039D42F1D30020DFE7E3
:104840000025DFF818800649064FF2E70220D7E777
:104850006FF08905E1E700BF0000002000900450E0
:1048600004910450049004502DE9FF478946DDE986
:104870000C7802A9824614461D4603F0C2FA0028AD
:1048800040F0AB80BAF1F80349F1FF39022B79F11E
:104890000009C0F0A58003F04EFA002840F09D808A
:1048A0009DF8089019F00F0240F09D80BDF80A3085
:1048B000C3F3C113013BDBB2022B00F297805349D3
:1048C00009F03009C95C524BB9F1100F43EA0103FA
:1048D00063603BD14F4B2360204601A9FFF704F8EA
:1048E00000287AD1019BBB4200F28C8044F2121264
:1048F00021880298914204BF042205F8012BC8F8D0
:1049000000309DF808302A78C3F3011363F30102E5
:104910002A70214603AA08BF07F1FF3703F051F9B7
:1049200000285AD12B78039A85F801A062F38403FA
:104930002B70238803F44F42B2F5824F4AD1394697
:10494000284604B0BDE8F047FFF74CBF9DF80B10B8
:1049500013461046304A490801BB039003A802F0F1
:10496000EEFA9DF80A30039A03F00F010A29A260BB
:1049700042D147F2421112F4A05F44F2421218BF32
:104980000A46C3F302132280244A013BE260052B4E
:1049900035D8DFE803F01D0D1517341ACE0704D5FE
:1049A000062B26D852F82360304349080133D3E759
:1049B000C0236380B9F1000F8ED16FF096000CE038
:1049C000FF23F6E74FF48073F3E74FF4C073F0E78B
:1049D0008023EEE7B3F5885FB1D004B0BDE8F0877F
:1049E0006FF08600F9E76FF08800F6E76FF091004E
:1049F000F3E76FF08300F0E76FF09200EDE76FF000
:104A00009800EAE76FF08900E7E700BFF98D000042
:104A1000004B4E8001108001C08B00000008000692
:104A200000232DE9F0417F4D0B6095F88025074666
:104A30000E468CB0002A00F0EF8000F140421F2AA1
:104A400066D82C2303FB02552B7F022B55D0314611
:104A50000020FFF799FA0446002870D1012233683C
:104A600001465F61336805A85A6035681C2203F06F
:104A700029FD6F696C4A07F14043A3F580539342C7
:104A8000CDE9024400F2BF80684B9F425BD0013306
:104A90009F4258D0023B9F4255D0FFB2384604A9EE
:104AA00003F0AFF90446002840F08580BDF81230CD
:104AB000C3F3C113013BDBB2022B00F29E805C4AC0
:104AC000D25C5C4B13436A690693DBB20A9203B96A
:104AD0000A900023CDE900443846194605AAFFF79D
:104AE000C3FE10F18A0F044635D03068002C62D125
:104AF00003F044F96FF096042AE06B699842A6D15E
:104B0000284603F03BF80446B0B93560002416E0AF
:104B1000002840F384802A46117F022902D151697E
:104B20008F4205D00133202B02F12C02F4D18EE705
:104B30002C2202FB0355E3E710F18C0F87D02046AF
:104B40000CB0BDE8F081306803F018F96FF085040F
:104B500000233360F3E7069B374A4FEA1328B2EB92
:104B6000132F02D0354B984547D102A905A8FEF76F
:104B7000BBFE0446F8B928460299FEF74FFE0446EC
:104B8000C8B9D5E909322C49884502D04B3188454E
:104B900018D103A9CDE900213846002105AAFFF765
:104BA00063FE044688B1686A10B1A96AFEF728FE60
:104BB0000023C5E90933306803F0E0F814F18C0FE5
:104BC000C6D123E06FF08B04EDE7039B05ACAB622D
:104BD0000FCC0FC594E8070085E80700306808305F
:104BE00002F0ADF933681A7F012A12D0306802F062
:104BF000C5FF0446002889D0AAE7306803F0BEF854
:104C00006FF08604A4E7284603F0B8F86FF0870435
:104C10009EE702221A77E9E76FF088048FE76FF0CA
:104C200087048CE7D82A0020FFDFFF3F02C0FF7F08
:104C3000F98D0000004B4E80004E80004B4E8000EE
:104C40002DE9F041464F96B00DF14F0601F10F08E6
:104C5000D7E90C32134305460C4626F01F064FEAEF
:104C600018183CD0D7E90C2318EB020243F10003DB
:104C7000B2F5803F73F1000313D36846FFF77CFC65
:104C8000002854D16846FFF7EFFB00284AD10346BD
:104C90000DF8003001303028FAD100220023C7E996
:104CA0000C23102CA0464FF0100228BF4FF0100824
:104CB00001232C4911F8010D013A03440B704FEA0E
:104CC0001323F7D13046FFF775FB58BB94BBD7E9E8
:104CD0000C32013342F10002C7E90C32E1E7BA6B52
:104CE000214B9A42DDD000231A46FA540133402B5F
:104CF000FBD16846FFF740FC80B96846FFF7B4FB7C
:104D000098B9034602460DF803200133302BFAD13F
:104D100000230122C7E90C23134BBB6303F09BF86C
:104D200000289FD016B0BDE8F0810E20F6E76FF0A6
:104D30009200F7E742462846314603F0CBFBD7E91D
:104D40000C32013342F10002B4EB0804C7E90C3223
:104D50004544A6D1204616B0BDE8F041FFF784BB1C
:104D6000D003002000040020B4A5B4A52DE9F0472D
:104D7000654C90B062782378022A01D1072B21D0AC
:104D800013F0010608D1614FDFF884813A6842458B
:104D90001DD143F00103237023789F0706D401211E
:104DA0005C4A43F0020382F880152370627823780E
:104DB0001AB9DE0744BF022262705D075CBF43F090
:104DC000040323700025284610B0BDE8F087FFF7E4
:104DD0003BFA514B01211E60504B5920504D1E6033
:104DE000FDF76EF84F4B2D612B6003F5C0436B60F0
:104DF000FEF764FF002877D02B6D2846B3F5007FBF
:104E0000CCBF4FF480634FF40073AB60FFF778FAC8
:104E10002846FEF783FF2846FFF7BAFA1C223146E0
:104E200001A803F04FFBF82002F0C1FE20B9F920E1
:104E300002F0BDFE002863D020210DEB0100FFF73A
:104E4000FFFE0546E8B94FF480736846009302F010
:104E500076F8009BDFF8D0E00393344BF8210493FD
:104E6000334B08AACDE901E3324B01A80693FFF7C3
:104E7000CDF8202105460DEB010002F08CFE002D3F
:104E80003ED0FFF759FA2378580743F0010244BF98
:104E900023F0040343F001029107227017D51D4E41
:104EA0002027B0464FF0010A4FF003093046C6F8FC
:104EB00020A086F81C9002F061FF013F06F12C064D
:104EC000F4D1237888F8807523F00203237000233F
:104ED000042119486370FEF789FC2378DA0744BF80
:104EE00023F0010323706EE70E2002F0B4FF0546A5
:104EF000FFF722FA002DC6D12378C7F8008048E7D3
:104F0000FEF732FDF3E700BF5C30002030030020E5
:104F100011736500D82A00209C25002098250020C8
:104F20006C2A002000200150002400010010C00461
:104F3000014B4E80F800FF7F6030002038B50B4CED
:104F40000546236833B980210948FFF779FE50B937
:104F50002023236000202368054A013B52F82320C8
:104F600023602A6038BD0220FCE700BF642A0020CD
:104F7000E42900202DE9F04F0D46002195B0DDE930
:104F80001E781646814602889B46C8F80010396094
:104F9000002B69D04168484C0B0AB4EB112F24D187
:104FA00002A9D0F814A0FEF79FFC0446C8B9029BE2
:104FB0009B457AD35FFA8AFA2A4651464846FFF75C
:104FC00025F8044668B9214633465046CDE900B776
:104FD00003AAFFF749FC044618B9BDF80E30C8F81B
:104FE0000030204615B0BDE8F08F002B60D122F0D4
:104FF000FF02B2F5E24F1DD14388BBF11F0F0393AF
:1050000053D903A9FEF796FE04460028E9D10246CB
:10501000691E731E1F3511F8010F8D4203F8010F31
:1050200042EA0002F7D1FAB1039BC8F8003020230E
:105030003B60D6E7B2F5824F3AD14288B0F800A083
:1050400002920AF44F42B2F5824F18BF4FF0000AA5
:10505000691E03A81F3511F8014F8D4200F8014B5E
:1050600043EA0403F7D113B96FF08604B9E7BBF143
:105070001F0F1AD9484602A9FEF75CFE0446002815
:10508000AFD15FFA8AF3122BEED0302BECD033463F
:1050900003AA0BAE154603CDB542186059602A46E7
:1050A00003F10803F6D1029BBFE76FF0890498E78C
:1050B0006FF0850495E700BF4B4E80002DE9F0416D
:1050C0001E46124B0C4603604FF4DE7105469046B7
:1050D000069FFFF7DFF8B8B9A8F1040804EB8606CD
:1050E000284658F8042F54F8041B03F01EF858B94A
:1050F000B442F5D13946284603F046F820B928468F
:10510000BDE8F04103F05BB8BDE8F081B88900006C
:1051100020232DE9F04FADF5057D15AD05AE0390CB
:1051200002930F4601232846009602AA03A9FFF71F
:10513000C5FF044608BB33780DF1530123F0070384
:105140003370F37F03F07F0343F04003F3771F23B3
:10515000CA1A013B1470FBD22846FFF7D1F82B691D
:10516000394A28469A663949002203AB02F0D1FE3B
:10517000044638B12846FFF70BF920460DF5057DAA
:10518000BDE8F08F20223146039802F08AFD2022EC
:1051900004980DA902F085FD284602F03DFDFEF7BA
:1051A00035FD04460028E5D12B699A6ED5E9013119
:1051B00054681268D20042BFEA688A1A9B1800221B
:1051C000ACBB4FF02009D5E905BA0DAB0AF00301DD
:1051D000C1F10408C84528BFC8462AF00302126876
:1051E00003A8039201444246184603F073F90346AC
:1051F000B9EB08094344C244E8D19BF8002096F873
:105200003F30284643EAC21386F83F30FFF7C0F824
:105210000DAB1A4603CAAA4238607960134607F1FB
:105220000807F6D14021304602F0B5FCA5E7E007BB
:1052300007D50B2A01D903F03DF905EB8200436144
:1052400001320B446410BBE7EC890000A08B000026
:10525000F0B51D46294BADF50F7DCDE90401CDE933
:105260000235222120230FAFCDE90613CDE9083204
:1052700006460323009707AA03A91FA8FFF71EFFEE
:105280000446002835D11FA8FFF73AF8239B1C4A93
:105290001C499A66F27FEB7FD209DB094FEA427222
:1052A00018BF42F080420AAB1FA802F032FE04464B
:1052B000E0B9202239460A9802F0F3FC20220B982C
:1052C00017A902F0EEFC30460C9902F018FD2022DE
:1052D0000D98A91802F0E5FC28460E9902F00FFD82
:1052E0001FA802F099FCFEF791FC04461FA8FFF7E7
:1052F0004FF820460DF50F7DF0BD00BF480300209C
:10530000D8890000A08B00002DE9F04383B09846B7
:105310000B880D4623F0FF09B9F5824F164600AF02
:1053200032D1AA68002838D112F4005F4CD0D8B22C
:105330004228698834D101F10804E40800230734C5
:1053400024F00704ADEB040D3A1D6C467B60FEF7BC
:105350003BFDF0B96A681F4BB3EB122F17D0B9F5BC
:10536000824F28D142463146684603F0B3F87B6845
:105370005B68202B2BD1D7E90B232046B96AFFF7B6
:1053800067FF02F068FD04E0B9F5E24FC9D06FF0A5
:1053900085000C37BD46BDE8F08312F4006FC5E709
:1053A000CC1D41284FEAD40402D064000134C5E783
:1053B000002CC3D1EBE769463046FFF7A9FE02F0A7
:1053C0004AFD0028D3D0E4E76FF08600E1E76FF0F4
:1053D0009400DEE7004E80007FB5104E4568B6EBC6
:1053E000152F4FEA152403D00D4DAC4200D094B9CF
:1053F000048804F44F44B4F5824F0CD1089C029405
:105400004024CDE9003413460A4601460120FFF747
:105410007BFF04B070BD6FF08500FAE7004E80009E
:105420004B4E80002DE9F04F06460024ADF54F7D30
:105430003BA80F46FCF734F933897289D6F80C8003
:105440001344DFF8C4919844A04500F2A5801BA93D
:105450003BA801F070FC3BA802F0EEFC002F00F02E
:10546000AC80F368348938461C44214604233BAAA7
:1054700001F024FF0490002840F09F8046F60812B7
:10548000BDF8EC107389914240F0A580BDF8EE1094
:10549000994240F09280042338463BAA214401F00F
:1054A0000DFF002840F0898046F60713BDF8EC2078
:1054B0009A4240F082807389544823440393039AAC
:1054C000BDF8EE30C16D13440693436A5A684FF439
:1054D000C06303FB012153424F311940836A406D81
:1054E000013B534342435B1A521A934228BF13466F
:1054F000069A9A4261D84FF0FF38C1460434069BA1
:10550000A34240F2378273891BB1039BA34208BFB9
:105510001C1D0423214638463BAA01F0CFFE00287B
:105520004BD1039A211D8A42BDF8EC30BDF8EE50F4
:1055300008D84FF6FF7C364830F8022B62453CD045
:105540009A42F9D1122B4AD0242B65D0012B58D185
:10555000402D32D82B4638460BAA01F0AFFE60BB77
:105560003BA8FCF79DF82C222A493BA802F03FFEFD
:105570002BA93BA801F0DFFB3BA802F05DFC2A460B
:105580000BA92BA802F0B3FFB0F1000818BF4FF031
:105590000108C8F1000834E0A8EB0405B5F5807FE8
:1055A00028BF4FF480754A462B462146384601F005
:1055B00085FE48B13BA802F03FFC4FF0FF3948465A
:1055C0000DF54F7DBDE8F08F2A4649463BA802F015
:1055D0000EFE2C4438E7002B3FF466AFEDE7402D7C
:1055E000EBD12B4638460BAA01F068FE0028E4D127
:1055F0002A460BA91BA802F07AFF0028DDD101235F
:10560000049304352C447AE77A3800206024002083
:10561000F08B0000F68C0000B8F1000FF1D1402DA6
:10562000CBD12B4638460BAA01F048FE0028C4D146
:10563000A8493023089109AA2C3108A801F06BFC75
:10564000002840F0C480DDE9082302EB030841464E
:1056500030230AAA08A801F05EFC002840F0B780B9
:10566000089BA8EB0302002A40F3B1801A7808A82F
:105670002B920A9A03EB020B594606232CAA01F03F
:105680004AFC002840F0A380DDF820A0DDF8B090AF
:10569000CDF8B4A00AEB09039B45089340F0848041
:1056A0000C213BA8FEF7A2F8B9F1030F40F08F8060
:1056B0004A465046884902F01AFF002840F0878089
:1056C0004B46414609AA08A801F025FC00287ED1D6
:1056D000099B002B7BD0DDF820905A1E99F800B072
:1056E0000992BBF1000F72D14B4409F1010A9845B0
:1056F000CDF820A06BD1202A69D11C2259463BA8A5
:1057000002F0E0FEFFF732FB002860D144F24213C2
:10571000ADF8EC304FF400632BA82B9301F00FFC95
:105720006E4A2B9B3E923D93CDF828B009F12002A2
:1057300019F8011F4A454BEA010BF9D1BBF1000FE3
:1057400045D023F0031828F47F48B8F1000F26D184
:105750000AA92BA8FEF718FC08BBDDF828900DF16C
:10576000EC0CCE46BCE80F00AEE80F009CE807004A
:105770008EE807002B9BC9F81430D9F828305BB3AA
:1057800009F128030DF1AC0BCDF804B0009351469C
:10579000D9E909233BA8FFF7EDFB059018B30A9858
:1057A000A8B102F0EBFA12E01AF8092001333B929B
:1057B00059463CAA08A8089301F061FB38B9089B38
:1057C0003C9A3D9313449B4508933FF46DAF4FF0D3
:1057D000FF394FF0FF3814E720214846FEF71EF846
:1057E0000028CDD0DBE7B9F80220DBF80030002A32
:1057F0006BD1A9F802304FF6F8729342CFD844F239
:105800004213B9F800209A42C9D199F81C20D9F85E
:1058100014A0012A0792C2D102235946504689F8A2
:105820001C30FFF7FDF8079A002863D0BAF1000F8B
:10583000CDD0504609A9FFF7F3F8002841D1DDF893
:10584000249099F81C30022B38D10323D9F8040096
:1058500089F81C30C1B2FF2930D0D9F81420DFF804
:1058600080C002F14043A3F58053634526D81D4B09
:10587000B3EB102F22D1032920D05FFA82FA5046D1
:105880002BA902F0BEFAC8B949462B980AAA02F021
:1058900098F998B9144B1549DDF828B0D8455CD370
:1058A000FEF762F818B96021114802F074F9594600
:1058B0005046FEF73FFB08B902F03DFA484602F0B9
:1058C0007DFA059B03F1FF3983E79A427FF467AFC6
:1058D00091E700BFF68C0000E38D00000008000691
:1058E000FFDFFF3F4B4E80000090045004910450B6
:1058F00000000020DBF80090D9F80830B9F800B0BB
:105900001B050BD55846D9F80C10FEF7E9FA48B933
:105910005846D9F81010FEF7E3FA18B9484602F0D5
:105920004DFA83E70BAB0093D9E9091248461BAB4C
:10593000FFF752FD8346484602F040FA8146BBF12C
:10594000000F7FF473AF00287FF470AFBAF1000F3F
:105950003FF43FAF012305936BE708EB0A020848C9
:10596000C3F80025FDF782FF0028A7D1054B08F1F9
:10597000010891E7049B002B7FF421AE1DE600BFD8
:1059800004900450009004502DE9F0414249434DE9
:10599000D1E90024D5E90065AC4208BFB242404BD2
:1059A000404D1B7A25D1B0F1806F22D240010128F1
:1059B00038BF0120121844F10004C1E90024EA189C
:1059C00092F854201B010C3255F8321005EBC20638
:1059D0007468091803F1A04344F1000440F000404A
:1059E00003F5622345F832107460C3F82805BDE85A
:1059F000F0812D4EDFF8B4E0D6E9007CDEE9006EE0
:105A0000BF194CEB0E0C3E464FF0200EE046C0FB9B
:105A10000E68C1E90068E91891F85400B24274EBCD
:105A2000080EC8F3130100F10C001BB20FD305EBF5
:105A3000C00245F83060C2F804801B0103F1A043A6
:105A400003F56223C3F82065C3F82415CFE7D21B02
:105A500064EB0C04C82A05EBC00E74F1000445F891
:105A60003060CEF80480E8DA1A01114C02F1A0424D
:105A700002F562229B00C2F820651C44C2F824157E
:105A80002368002BB3D0FDF70DFAB04271EB08018B
:105A9000ADD200232360AAE7C8030020B003002092
:105AA00010030020A0000020B8030020A80300205D
:105AB00000210E50F8B54B1C04460D4641D0224B38
:105AC0008360EFF31186202383F31288BFF36F8F77
:105AD000FDF71CFB1D4B1E4A1B6801350544E560A4
:105AE0001D441368D2F804C0934208BF00232BB9A9
:105AF000C4E9002CCCF8004054600AE0DF68E1689B
:105B00008F4218DD7F1A5968DF60C4E900310C60EC
:105B10005C601368934208D09C4206D10D4B1B6811
:105B20001BB9FDF77BFDFFF72FFF86F31188BFF34D
:105B30006F8F2846F8BDC91B6345E160D8D01B684C
:105B4000D5E70025F5E700BF296C0000C003002061
:105B500024030020EC2400200C22104B014602FB01
:105B60000033002030B4D3E915525865EFF31180AB
:105B7000202484F31288BFF36F8FDC6D04F0C0041F
:105B800044F00204DC6580F31188BFF36F8F1DB110
:105B90002B4630BC0248184730BC70470025002017
:105BA00088850000154B9A6A12F0007F9A6A14BF2C
:105BB0001E201D2012F0807F9A6A18BF1F2012F449
:105BC000801F9A6A18BF202012F4002F9A6A18BF0B
:105BD000212012F4802F9A6A18BF222012F4003F6D
:105BE0009A6A18BF232012F4803F9A6A18BF2420B3
:105BF0006FEA02426FEA12429A62704700ED00E0DB
:105C000010B5184B0246986A9C6A10F4805F14BF66
:105C10001720162014F4006F9C6A18BF1820A405E2
:105C200008D5986A000404D51AB19A6A22F4004291
:105C30009A6219200B4B9A6A12F4806F9A6A18BF05
:105C40001A20D2050CD49B6A13F4005F18BF1C20E5
:105C5000044A936A43F47F43936200230B7010BDA0
:105C60001B20F5E700ED00E010B51C4B0246986ADA
:105C70009C6A10F0100F14BF1120102014F0080FB0
:105C80009C6A18BF1220A40709D5586B986A0006B1
:105C900004D51AB19A6A22F080029A6213200F4B3F
:105CA0009A6A12F0010F9A6A18BF142012F0200F9E
:105CB0009A6A18BF1520D40658BF9B6A074B9A6A88
:105CC000920642BF5A6A22F400525A629A6A42F01D
:105CD000FF029A6200230B7010BD00BF00ED00E0D0
:105CE0002DE9F743DFF8D49007460E46C84641B188
:105CF0000024304601F0B6F828B123461C460021A6
:105D000024E00B46FAE7FEF72DFD20B101A901F0D2
:105D1000EBFA054638B10120012C01D107B900206A
:105D200003B0BDE8F083D8F82430019A59680346DF
:105D30000B449A4205F10105FAD87379012B0CD175
:105D4000E4B932682346AA4298BF21462C2202FBBE
:105D50000383186AB0B902F0ADFB022BCDD13368D2
:105D6000012B04D9AB42C8D884F00103C7E7C4D1E2
:105D700034B13379023B18BF0123C0E72346BEE7A5
:105D80002346E3E720234A4601F098FA0028C2D1CF
:105D90002EB9012CC3D0012309F12C09AEE7D9F8A3
:105DA0000020074B9A4205D1012CB8D0012409F1FB
