:020000040000FA
:10000000A8600020AD6300006D79000099630000D6
:1000100099630000996300009963000099630000F0
:100020000000000000000000000000000D6400005F
:1000300099630000000000009963000099630000CC
:10004000D9090000D9090000D9090000D909000028
:10005000D9090000D9090000D9090000D909000018
:10006000D9090000D9090000D9090000D909000008
:10007000D9090000D9090000D9090000D9090000F8
:10008000D9090000D9090000D9090000D9090000E8
:10009000D9090000D9090000D9090000D9090000D8
:1000A000D9090000D9090000D9090000D9090000C8
:1000B000D9090000D9090000D9090000D9090000B8
:1000C000D9090000D9090000D9090000D9090000A8
:1000D000D9090000D9090000D9090000D909000098
:1000E000D9090000D9090000D9090000D909000088
:1000F000D9090000D9090000D9090000D909000078
:10010000D9090000D9090000D9090000D909000067
:10011000D9090000D9090000D9090000D909000057
:10012000D9090000D9090000D9090000D909000047
:10013000D9090000D9090000D9090000D909000037
:10014000D9090000D9090000D9090000D909000027
:10015000D9090000D9090000D9090000D909000017
:10016000D9090000D9090000D9090000D909000007
:10017000D9090000D9090000D9090000D9090000F7
:10018000D9090000D9090000D9090000D9090000E7
:10019000D9090000D9090000D9090000D9090000D7
:1001A000D9090000FD450000D9090000D909000067
:1001B000D9090000D9090000D9090000D9090000B7
:1001C000D9090000D9090000D9090000D9090000A7
:1001D000D9090000D9090000D9090000D909000097
:1001E000D9090000D9090000D9090000D909000087
:1004C000D9090000D909000053B94AB9002908BF69
:1004D00000281CBF4FF0FF314FF0FF3000F00CB888
:1004E000ADF1080C6DE904CE00F008F8DDF804E089
:1004F000DDE9022304B07047704700BF2DE9F047E3
:1005000086468C460846089E154674461946002BBA
:1005100040F0C1808542B2FA82F245D94AB1C2F1B7
:10052000200300FA02FC954094402EFA03F343EABC
:100530000C0C4FEA154EA8B2230CBCFBFEF80EFBC8
:1005400018CC08FB00F943EA0C43994528D9EB186D
:1005500008F1FF3704D2994502D9A8F102072B44CC
:10056000A3EB0903A4B2B3FBFEFC0EFB1C330CFB94
:1005700000F044EA0344A04214D92C190CF1FF33D3
:1005800004D2A04202D9ACF102032C44241A43EA5B
:1005900007401EB1D440002334607360BDE8F0878B
:1005A0004746DDE76346F1E792BB431B01214FEA73
:1005B000154EAFB2200CB3FBFEFC0EFB1C330CFB44
:1005C00007F840EA0343984561D9EB180CF1FF3076
:1005D00004D2984502D9ACF102002B44A3EB0803E6
:1005E000A4B2B3FBFEFC0EFB1C330CFB07F744EA82
:1005F0000344A7424DD92C190CF1FF3304D2A74272
:1006000002D9ACF102032C44E41B43EA0040C0E7EA
:10061000C2F120039540944020FA03F12EFA03F32F
:100620004FEA154E9040AFB20343B1FBFEFC0EFB08
:100630001C10190C0CFB07F841EA0041884522D92F
:1006400069180CF1FF3004D2884502D9ACF10200E0
:100650002944A1EB08019BB2B1FBFEFC0EFB1C116F
:100660000CFB07F743EA01439F420ED9EB180CF14C
:10067000FF3104D29F4202D9ACF102012B44DB1BB3
:1006800041EA004193E76046E3E76146F7E76046E9
:10069000A4E76346B8E7834206D916B900210846A5
:1006A0007CE7C6E900E0F9E7B3FA83F78FB9834244
:1006B00001D3724508D8BEEB020460EB03030120AE
:1006C0009C461EB9002169E73846FAE7C6E9004CA6
:1006D000F8E7C7F1200CBB400EFA07F522FA0CF43C
:1006E0002EFA0CF1BA401C4320FA0CF3B8404FEA42
:1006F000144901431FFA84FEB3FBF9F809FB1830D3
:100700000B0C08FB0EFA43EA00439A4540D9E31864
:1007100008F1FF3004D29A4502D9A8F1020023441F
:10072000A3EB0A0389B2B3FBF9F809FB183308FB02
:100730000EFE41EA03418E452CD9611808F1FF33C2
:1007400004D28E4502D9A8F10203214443EA0040B5
:10075000A1EB0E01A0FB02984145CE46434602D3D1
:1007600006D14D4504D20138B9EB020E68EB040303
:10077000002EA7D0B5EB0E0261EB030101FA0CFCD1
:1007800022FA07F3F9404CEA0303C6E9003199E77E
:100790004046C5E74346D9E72DE9F047058B0446B7
:1007A0002807904612D4022905F0070540F0CD80B5
:1007B000204606F016F880B10138218B042800F29B
:1007C0009F80DFE800F0C29D657D8D0001290CBF90
:1007D00045F0100545F02005258388F31188BFF307
:1007E0006F8FBDE8F08701F007035A1F012A1CD85C
:1007F000002221F00701062B276889B2C4E90022F4
:1008000009D13B4603E0628B013262831B68002BF7
:10081000F9D141F002012046218305F0E2FF0028D2
:1008200000F0A18041F020019CE0042B0AD121F0CE
:10083000070189B22046218305F0D3FF10B141F0B2
:1008400020012183218B01F0070AAA4575D00027DA
:10085000B946A368002B00F08E8041F00801218387
:1008600088F31188BFF36F8FA168002900F08C8096
:100870000D68002900F08880334652462046D1F8A2
:100880000480C047002D48D02B6829461D46F0E75C
:10089000236921F0070141F00601062DD3F80090ED
:1008A000218335D1B9F1000F47D041F008012183F0
:1008B00088F31188BFF36F8F20463D49C84731E068
:1008C00021F00701236941F0040189B2042DD3F816
:1008D00004902183E6D000274FF0040A3E46B8E793
:1008E00021F00701236941F0050189B2052DD3F8F4
:1008F00008902183D6D000274FF0050A3E46A8E78E
:1009000001F0070AAA4518D00027B9463E46A0E7DD
:1009100000274FF0060A3E469BE72B46B5E7B9F1A4
:10092000000FC9D1EFF31188202383F31288BFF39E
:100930006F8F238B23F008032383258BEA062ED5A4
:1009400025F01003238305F007056669218B002E2F
:10095000BFF649AF00232768C4E9003321F007013F
:1009600041F001012183218B4FF0000901F0070ABA
:10097000AA457FF46EAF002F94D041F00801218387
:1009800088F31188BFF36F8F002FC8D03D683946B8
:1009900033465246204605F012FF2F46F4E7AB06D9
:1009A0007FF51BAF25F02003238305F00705FFE645
:1009B0001B680000002318460649D1F89020C2F3B6
:1009C0000722934200DB7047C1F89830C1F8A000BD
:1009D0000133F6E700ED00E0EFF30583034A103B37
:1009E00002EBC301496852F83300084770950000D4
:1009F00030B5104CD4F89030C3F30723013B984234
:100A000015D80D7A0B6805F01F0223F01F031A4357
:100A1000CB686D0923F01F0343EA450343F001034C
:100A2000C4F89800C4F89C20C4F8A03030BD6FF022
:100A30001500FBE700ED00E0244B254A4FF47A61F6
:100A40001A600122234B2448C3F80424D0F824362A
:100A5000C3F30802C3F309434B4382F480721F4976
:100A6000883201FB02334FF4FA215B00B3FBF1F251
:100A700001FB12331A49B3F57A3F28BF0132C1F89E
:100A80000429D0F820364FF47A60C3F30802C3F388
:100A90000943434342F21C5082F4807202F217224F
:100AA00000FB02334FF47A701B0AB3FBF0F200FB39
:100AB0001233B3F5FA7F4FF0010328BF0132C1F8BA
:100AC0001C270020C1F80036704700BF0C0300202F
:100AD0000020A107002008E000C0FF00F82A0080E5
:100AE00000001250084B70B5C31A0D4607499B1001
:100AF000044659434022064805F0E2FE2B460146D3
:100B00002046BDE870401847AC240020B76DDBB626
:100B100014890000402373B50B4C0093041B0B4653
:100B20000D460A49A41061430646094A094805F0E2
:100B3000F3FE011E05DA30462B4602B0BDE87040D8
:100B4000184702B070BD00BFAC240020B76DDBB603
:100B50008969000014890000014B1B68184700BF19
:100B60009C240020014B07201B6818479C24002070
:100B70000023024A0020C1E90023704700D01F0073
:100B800000487047048D0000024B0B600123136086
:100B9000704700BFFC8C0000024B034A0020C3F8E2
:100BA0000C25704700E0045080000080014905F0EA
:100BB00024BF00BF1172000000487047F48C000091
:100BC0004209022A034670B503D0012A18D0CAB1DF
:100BD00070BD0E4E326951680029F9D0012503F02D
:100BE0001F030C689D400029F2D08A682A4002D079
:100BF00030464B6898473CB1236821461C46F2E7D3
:100C0000034EE7E7034EE5E72346F6E75489000085
:100C1000348900007489000003689A070CD50368C2
:100C2000DB070DD50922074BC3F80C250F22C3F8AB
:100C3000042501221A60FEE7034B0360EF3B0360CB
:100C4000704700BF00801050F000FA50034A43097B
:100C5000D35C00F01F001844C0B2704792910000AE
:100C6000F0B58446002587B0DFF848E0124F0191C7
:100C700002AE1EF8013B06AA02EBD30212F8144C96
:100C800003F00703DC4014F0010406D10135042D04
:100C9000EFD10024204607B0F0BD97E80F0086E8AA
:100CA0000F0056F82520136A4CF825301362002BEC
:100CB000ECD0EFE7AB910000708A00000123044AFA
:100CC00003FA00F0936823EA00039360704700BFC3
:100CD000800000204FF0FF306FF0404130B5054CF0
:100CE000D4E90023904271EB0305F9D31046C3F316
:100CF000130130BD40270E5038B5EFF31185202386
:100D000083F31288BFF36F8F144B1B681BBBFFF775
:100D1000E1FF134AD2E90032C01A124B61EB020123
:100D2000C3E90001400940EAC1630F4AD2E9000467
:100D3000181844EBE37485F31188BFF36F8F4FF4F9
:100D40007A71A0FB010547F61222002301FB045132
:100D5000FFF7BAFB38BD0023E7E700BF9824002067
:100D60007803002070030020800300202DE9F84F55
:100D70007C4DDFF8F4A1D5E90064911B63EB04001E
:100D8000CAE9002300220023490941EAC061480161
:100D90008019DFF8D88144EBD164C5E90004C8E9C3
:100DA0000023EFF3118C202383F31288BFF36F8F9E
:100DB000DFF8BCB1DFF8BC91DBF800006E4F58459E
:100DC00008BF0020C9F800106646D7E9001CD9F812
:100DD000003060B3C4689C4202DDE41AC46026E0BF
:100DE00061184CEBE473C260C7E90013D0E900312D
:100DF0000B605960C0E9002286F31188BFF36F8F42
:100E000083689847EFF31186202383F31288BFF39A
:100E10006F8FD9F80030DBF800001B1B5845B44633
:100E20004FF00002C9F80030CED1D7E9001C5918A4
:100E30004CEBE373C7E900130023C9F800304F4BB4
:100E4000DFF82CC11B7A4E4FDCF80020F918DFF8D0
:100E500034E191F854106245DAE9009A01F10C0C82
:100E6000DEE900042ED06AB3A24508BF8145D2F85E
:100E70000CB02BEAEB7227D1BBF1806F24DA520160
:100E8000012A38BF0122101844F1000457F83C1021
:100E9000CEE9000407EBCC0460681B01891803F15C
:100EA000A04340F1000042F0004203F5622347F8FE
:100EB0003C106060C3F8282586F31188BFF36F8F5C
:100EC000BDE8F88F6FF00042D5E9009AD8E90058E4
:100ED00019EB05054AEB080A4FF0200BA846D1464E
:100EE000C2FB0B894045CEE9008974EB090EC9F3BA
:100EF00013021BB20FD307EBCC0147F83C80C1F8BB
:100F000004901B0103F1A04303F56223C3F820857D
:100F1000C3F82425D0E7401B01F10C0164EB0A045F
:100F2000C82807EBC10C74F1000447F83180CCF8F5
:100F30000490E6DA1901144C01F1A04101F5622197
:100F40009B00C1F820851C44C1F824252368002B90
:100F5000B2D0FFF7BFFE404571EB0901ACD20023D0
:100F60002360A9E7780300206803002070030020B5
:100F7000F00200209824002080030020F8020020C6
:100F8000800000206003002000210E5048B1054B76
:100F9000054A1B68B3FBF2F35843044B43F00103CB
:100FA000184770470C03002040420F00908A000051
:100FB00038B504230A4C42F21075C4F808330123F3
:100FC00063610023C4F80831D4F80831D4F84C34F4
:100FD000DB0304D5012005F097FE013DF6D138BDB5
:100FE00000E0105010B51D4B1D4CD3F84C14D3F835
:100FF0004C2411F4803F18D002F00302012A03D0E0
:101000000AB1FFF7D5FF0022144BC3F84024002299
:10101000C3F80821D3F8082101221A61226872B9A5
:10102000D3F80821002AFBD011E0D3F84824D107D7
:10103000E9D5D3F850249207E3D422681AB10422E8
:10104000C3F8042310BDD3F80821002AFBD00022E6
:10105000C3F80821D3F80831F4E700BF00E01050CE
:1010600030250020124B70B553F82050013053F852
:101070002060AE4200D870BD6C68B4B1237FDB073E
:1010800011D4636953B12046984738B10028B8BFDE
:101090004042FF28A8BFFF20E3681870E268537839
:1010A00043F0010353700835E3E72B689847FAE7EC
:1010B000BC8C000001680E4A0346914215D1C169FB
:1010C000A2F11022A2F1EF1291420ED18268012A00
:1010D0000BD8C26812B101698A4206D0586928B19A
:1010E0009B691B1A5842584170470120704700BF46
:1010F00055AA00FF70B50D4B9E68A6B13046FFF7AC
:10110000D9FF044678B9F3686BB935690DB9204643
:1011100070BD2846FFF7CEFF28B9EB68B34202D175
:101120002E462D69F2E70124F1E700BF702400206C
:101130000022144B10B51A60134B144A00211A6098
:10114000134B144A1A60144B13F003020FBF4FF4F1
:10115000006402F2FC74C2F104029B181846224695
:1011600007F060FB0D4A0E49C2E900040160A1F1DD
:101170001021203CA1F1EF1190604460C161D0606A
:10118000002010BD80240020EC0200203D1600004D
:10119000E802002029170000A42F0020702400205E
:1011A00055AA00FF2DE9F04101263E4C3E4DD4F8F2
:1011B0000C3303F07103EBB901253A4C3B4ED4F8E4
:1011C0000C3303F00C03002B3FD1364AD2F8041342
:1011D000090664D5D2F81C11002960D0C2F81C3170
:1011E000D2F81C318023C2F80833314BBDE8F041FE
:1011F0001B681847B3FA83F30021C3F11F039A0059
:1012000002F5807292B202F1A04202F587121160DB
:1012100006FA03F7042B1268D8B2C4F8087308D092
:10122000062B10D02B689847D4F80C3303F07103C9
:10123000C1E702236B71C4F81411D4F814312023D0
:10124000C4F80433EEE76971ECE7B3FA83F30027DF
:10125000C3F11F039A0002F5807292B202F1A0421C
:1012600002F58712176005FA03F1022B1268D8B253
:10127000C4F8081310D1D4F84C34D4F84C349F0778
:101280000AD10423C4F84054C4F804332561D4F8C7
:101290000C3303F00C0396E733689847F7E7BDE893
:1012A000F08100BF00E01050A42400203025002071
:1012B0002825002070B5164D1446A84225D8C0F543
:1012C000FE1303F580539A421FD8C2B140F20113B6
:1012D000104DC5F80035A1B107F0C6FABFF35F8F16
:1012E000D5F81834DA0705D4230703D00123AB60FF
:1012F000BFF35F8F4FF48072064BC3F800250020C8
:1013000070BDFF2107F08EFAE8E76FF01500F7E7F0
:10131000FFCF1F0000E0045010461A46084B10B5DE
:10132000994209D8C1F5FE1404F58054A24203D8AD
:1013300007F09AFA002010BD6FF01500FBE700BF20
:10134000FFCF1F0000220C4BC3F81C21D3F81C2137
:1013500001225A62094A12681AB18022C3F8042392
:101360007047D3F81C21002AFBD00022C3F81C21AF
:10137000D3F81C31704700BF00E010502825002032
:1013800038B580230A4C42F21075C4F808330123A3
:10139000A3620023C4F81C31D4F81C31D4F86C3497
:1013A000DB0304D5012005F0AFFC013DF6D138BDCB
:1013B00000E0105070B5EFF31185202383F31288FD
:1013C000BFF36F8F164A136823F00201116013F008
:1013D00001021CD17121134B42F21074C3F808139F
:1013E00001215960C3F80021D3F800210E4A0D4EA7
:1013F000D2F84023292A08BFD960D6F80C3413F458
:10140000803309D0012005F07FFC013CF5D185F344
:101410001188BFF36F8F70BD044A5371F7E700BFA7
:101420002425002000E0105000C0FF00A42400206C
:1014300010B4EFF31182202181F31288BFF36F8F74
:101440002B48036843F0020413F0010F0460294B9A
:1014500026D182F31188BFF36F8F0022C3F81021C9
:10146000D3F81011C3F81821D3F81811C3F81421B8
:10147000D3F814112049D1F84013292904BF0121C0
:1014800099601C4BC3F80021D3F8002101221A6097
:101490001A4A12680AB37122C3F8042310BC7047B9
:1014A000D3F80C04C003D4D5EFF3118081F3128874
:1014B000BFF36F8F1249CB6D03F0C00343F00203FB
:1014C000CB6580F31188BFF36F8F82F31188BFF370
:1014D0006F8F002010BC04F0E5BAD3F80021002A79
:1014E000FBD00022C3F80021D3F80031D6E700BFBB
:1014F0002425002000E0105000C0FF00A42400209C
:10150000AC240020012270B54549D1E8EF3FC1E885
:10151000E02F0028F9D13BBB42498A608A684B60C2
:1015200002F00302012ACB601ED1CB608A68032A35
:101530001AD8EFF31185202282F31288BFF36F8F40
:101540004FF6FF763848848E04F00702C48EB4420A
:101550003FD0022A2AD10134C48685F31188BFF313
:101560006F8F1C3005F02BF9EFF3058010B92F4B6E
:101570001B789BBBEFF31180202383F31288BFF30A
:101580006F8F01212A4A2B4CD2F84C54D2F84C349C
:10159000ED0329D503F00303012B25D100293BD00E
:1015A00080F31188BFF36F8F002070BD5124D440A9
:1015B000E6070ED50B60036A43B9C0E9071142B9CB
:1015C0002A4602211C48FFF7E7F8CDE719600162BF
:1015D000F5E785F31188BFF36F8FC5E70422144B3D
:1015E0000146C3F80823CDE705F030F9D2F84034BE
:1015F00013F0FF03C8D1D2F80851002DC4D0C2F8AF
:101600000831D2F808314FF480450123C2F8403444
:10161000C4F8A0511361B7E70423C2F80433C3E749
:101620009424002084240020AC240020A43700202F
:1016300000E0105000E100E0C8240020F8B5384D6B
:101640002B68EE68D3B1AB68C3B1002860D0002925
:101650005ED001FB00F4B4FBF0F0884258D1211DAC
:1016600056D8A2070CD024F003020432334603E01C
:10167000586890424ED29B69002BF9D11846F8BDAC
:101680002246F3E7801A232803F120061CD8012202
:101690009A60D3E90512A9B18A619A690AB15969B8
:1016A00051610022C3E905222B69DB0703D5FFF74F
:1016B00021FD002831D122460021304607F0B2F842
:1016C0000346DBE7EA60E8E702F1200C03EB0C01DC
:1016D0002038C1E90107CB601869124F086143F84F
:1016E0000C70A7F11027A7F1EF17CF6100B1C1600F
:1016F000586948619F698F6140B18161886900B113
:10170000416101201961C3E90120CAE7E960F5E7F9
:101710000023B3E79F68002FB4D0012005F002F842
:101720007024002055AA00FF70B50546002840D05F
:101730003B4E3368002B3CD0B268002A39D083423C
:1017400003D872681344984202D3012004F0EAFFE0
:10175000A0F120042046FFF7ADFC0028F5D155F894
:10176000183C012BF1D155F8143C45F8180C0BB37B
:101770009A68FAB955F81C2C02F120015A680A44FB
:101780005A6055E905321A6155F8145C2B6903B1AA
:10179000DD6020220021204607F044F8286908B1C6
:1017A00083684BB333699B0703D5FFF7A3FC00287D
:1017B000CBD170BD55F8100C00282AD0836843BBEC
:1017C0004268636813442033636003692361D4E98A
:1017D00005239AB9CBB9436963618269A261B3B148
:1017E0009C61A36903B15C61236903B1DC602022C1
:1017F000002107F017F8D5E72C46E1E79361A369CC
:10180000002BE8D062695A61E5E7F360F7E7F4601E
:10181000E7E7F36845F8083C03B15C61F460C1E7B1
:1018200070240020F7B5284B284CD3F82C6304F122
:1018300088070EB903B0F0BD96FAA6F00123B0FAFE
:1018400080F08340DA43224926EA0306231893F8FE
:101850005450830019440C2303FB0543DB6873B326
:10186000D7E8EF3F03EA020CC7E8EECFBEF1000F66
:10187000F6D1C340DB0719D5020102F1A04202F5FF
:101880006222D2F82435D2F82025D1F800C0BCF16C
:10189000000FCED04FF0000CC1F800C00C2101FBAE
:1018A000054529690091E9688847C2E705F10C03FD
:1018B00004EBC30C54F83320DCF80430E5E70A6885
:1018C000002AB6D00B60B4E700200E508000002044
:1018D00000210E5038B5044604F048FF25688DB944
:1018E0004FF412722946201D06F09CFF084B284633
:1018F0006360012384F848328023C4F8C43105238F
:10190000236038BD204606F01FFD6FF08800F8E721
:10191000248D00002DE9F0412C4C2D4D24F00704BE
:101920002D1BB5F5802F2CBF082204220026AD1AEE
:10193000254425F007052D1BED08264B294620469A
:10194000A560E6601C6005F036FA421D9200013089
:1019500002F107074FEAD7073146A2F1100204F15E
:101960001000B8BF324606F05DFF3A4631462046C9
:1019700004F01DFF334632463146204604F00CFF8A
:10198000A5EB070820463146012205F0FEFE42463F
:10199000394604F00CFF3B4632463946204604F0F7
:1019A000FBFE2946204604F002FF43463246294604
:1019B000204604F0F1FE20460122294605F0E5FE0E
:1019C000394605F0FAFE3046BDE8F081AF680020E8
:1019D00000FC0720382500200FB430B587B00AACD2
:1019E00054F8045B1022002102A8019406F01AFFAB
:1019F00002238DF80A30064B2246294602A803939B
:101A000004F046FD07B0BDE8304004B0704700BFA9
:101A1000BB67000005460C4608B599B1D1E9012322
:101A200013480968FFF7D8FFD4E90423E168114897
:101A3000FFF7D2FFE1691048FFF7CEFFA1690F4819
:101A4000FFF7CAFF012D05D1EFF305810C481039CE
:101A5000FFF7C2FFEFF31183202383F31288BFF354
:101A60006F8FEFF3118283F31288BFF36F8FFEE75E
:101A70005E8F00008E8F0000BE8F0000CE8F0000B2
:101A8000FD8F0000002310B50B4A147884420AD061
:101A900001330B2B02F11002F7D16FF0010010BDE2
:101AA00000200A60FBE7D06804F0C4FE0028F7D1EC
:101AB0006FF01200F3E700BF0C8C00002DE9F0413D
:101AC0005B4B04465F6800258AB0C7F3080685F3C0
:101AD0001188BFF36F8F02F07F43B3F17F4F06D1C0
:101AE00002F00C03082B13D15248FFF775FF0025B5
:101AF0002C464FF00008F31E8DF80780092B00F2EA
:101B00008380DFE803F00A777B7381818181817FA5
:101B100010074CBF0C460125EBE74748444EFFF742
:101B20005BFF8DF80780F36A9A0704D54348FFF7F7
:101B300053FF00232FE0F36A002B01DA4048F6E759
:101B4000F36A5B00F5D53F48FFF746FF7369A2696A
:101B500043F480737361BFF34F8FBFF36F8F73696B
:101B600032F8022C23F480737361BFF34F8FBFF3FD
:101B70006F8F4DF602739A4208D0B36ADBB23BB363
:101B800001200DF1070104F033F931E021682E48FE
:101B9000FFF722FF23689DF80720002A45D102AEF7
:101BA00004F12007324620686168083403C2BC4251
:101BB0001646F7D1099A9DB3C2F3080121B96FEA1D
:101BC00052226FEA42220992184602A9FFF722FF29
:101BD000B36A13F47F4F05D001200DF1070104F023
:101BE000ABF805E0B36AB3F5803FA2D304F050F838
:101BF0000346D0E700200DF10701C4E700200DF1F6
:101C00000701ECE7114892E7114B17F4F87F1149EF
:101C1000114818BF1946A6F11002FFF7DDFE88E74C
:101C200022F4FF7222F00102CDE70AB0BDE8F08194
:101C300000ED00E03F9000006B90000083900000FA
:101C4000A5900000B4900000D4900000F190000036
:101C500026900000119000001691000010B572B699
:101C6000002484F31388FEF7A5FE23464FF0FF30CF
:101C70000C4A03F120010133102B42F82100F8D166
:101C800000234FF0FF30074A03F160010133102BAE
:101C900042F82100F8D162B6BFF34F8FBFF36F8FC8
:101CA00010BD00BF00E100E0002807DB012341096F
:101CB000034A00F01F00834042F82130704700BF04
:101CC00000E100E000280CDB01220649430900F096
:101CD0001F008240203341F82320BFF34F8FBFF312
:101CE0006F8F704700E100E070B504460068C0F3F4
:101CF0000830FFF7E7FF636843B12146154A51F802
:101D0000043BC3F80823206805F002F82368D3F8E1
:101D10000006D3F80456D3F8086694F82230DB079F
:101D200014D405F0A8FB304605F0A5FB284605F0C5
:101D3000A2FB606A05F09FFB2368D3F80C06D3F87A
:101D4000105605F098FB284605F095FB002384F813
:101D5000203070BD0700F81F0028ACBF00F16040C4
:101D6000064B4FEA4111C9B2ABBF00F5614000F02C
:101D70000F0080F800131954704700BF14ED00E005
:101D8000274A2DE9F041022106464FF48770FFF7FC
:101D9000E3FF13791BB16FF00400BDE8F081214B24
:101DA000136001231371204A11790029F3D11F49CF
:101DB000137111601E4A11790029ECD11D4813716D
:101DC00010601D4AC2F840141C4A11790029E2D162
:101DD0001B4913711B4B11601B6A5B0403D44FF446
:101DE0008770FFF761FF3469BCB100254FF01C0814
:101DF000154F08FB05431C221846002106F012FD72
:101E00000C2303FB05440123022D0761E36501D187
:101E10000020C2E734690135EBE76FF01500BCE73D
:101E20009C240020F5710000A4240020590B000020
:101E3000302500209B69000000E01050282500207C
:101E4000650B000000E100E00C8D00002DE9F04181
:101E500047680646BD688DB395F8B04074BB8422D0
:101E6000214605F1140095F8B18006F0DBFC21460F
:101E70001A4A2B6852F838C08C4525D14FF000081B
:101E800040F20D14C3F84481D3F84421144A93421C
:101E900014BF2046DB20FFF707FF012385F8B03091
:101EA000C5F89C30BB680F4A0221DB20C3E9032838
:101EB000FFF752FF02212046FFF74EFF3046BDE8F4
:101EC000F041094904F099BDCAB2920002F5807050
:101ED000442A04BF1C501A580131CDE7D48C0000AD
:101EE00000A00D50C10B00007F6700002DE9F341F9
:101EF0000221E420FFF730FF774B784DD3F8182705
:101F000022F44032C3F818272A7822B16FF0770004
:101F100002B0BDE8F081D3F81015072621F00201C8
:101F2000C3F81015D3F8101541F00101C3F81015CE
:101F30000521C3F8A4160421C3F8AC16672303F0E7
:101F400001010A44013ED2B24FEA5303F7D1052AF8
:101F500040F0BA8032464FF0010C604C00206721FF
:101F6000D7B204E00CFA03F321EA0301013091FA3D
:101F7000A1F35FFA80FEBE45B3FA83F3F2D30132D8
:101F80002375052A2B4483F8547004F10C04E5D121
:101F9000012200205249B30802FA03F313F0670F3D
:101FA00018BF70500436302EF5D1E420FFF77CFEC8
:101FB000494B0027D3F8102503F5C07322F0020225
:101FC000C3F8902340F6FF72C3F8A821454A1F606A
:101FD000A3F58071043393420F60F8D14FF00108EC
:101FE0003D4C414EC4F860803068404BB0FBF3F08C
:101FF0005D2358433E4B43EA080398476B6801A8AA
:1020000003EA080385F80080019304F0E3FE00284A
:10201000FFF67EAF374B28751F726B6823F0010304
:102020006B60AB6843F00103AB60D4F810359807E0
:102030003FF56CAFD4F8103543F00203C4F8103507
:10204000D4F8482712F0010202BFD4F8483743F011
:102050000103C4F84837204BD3F84017D3F844178E
:102060004900F9D42AB9D3F8482722F00102C3F86D
:10207000482733681D4A184EB3FBF2F303EB4313B2
:102080003BB3D6F84027D6F8444714F080441ED11D
:10209000FEF720FE184B20F01F00C3E900014FF0AF
:1020A000FF304FF0FF310C22144BC3E9000195F8CB
:1020B0005430204602FB0353114A1C75C3E9032424
:1020C0000123C6F8243323E76FF08B0020E7013BA0
:1020D000D6E76FF073001BE700200E508000002051
:1020E00000210E50B0210E500C03002040420F0082
:1020F000A08A0000F8020020780300206803002076
:102100006D0D00008FB5904A904B22F07F029A60CF
:10211000BFF34F8FBFF36F8FD3F888208C4822F422
:102120007002C3F888208B4A0021121A06F07AFB4D
:1021300089488A4A8A49121A06F096FB89488A4ACF
:102140008A49121A06F090FB002210B201210132D6
:10215000FFF702FEB2F5917FF7D10020FEF782FF74
:10216000834B83F30888E022784B824F83F8222048
:102170000022DA771A765A769A7683F82020596AFE
:1021800041F4E021596283F82320596941F010019C
:102190005961596921F008015961102119614FF005
:1021A000FF319962D962D3F89010090A11F0FE0F3D
:1021B00029D0BFF35F8F7049C3F89420C3F8C010D3
:1021C00002216E48C3F89820C3F89C10C3F8A00001
:1021D0000120C3F8980000F10050C3F89C0000F5FE
:1021E000FF2000F2E230C3F8A0003970D3F890006D
:1021F000C0F30720814211DB0522C3F89420BFF30E
:102200004F8FBFF36F8F5E493C784D68002D00F013
:1022100081801F2D1ED86FF015047BE0C3F8981045
:10222000C3F8A0200131E1E72046C3F89880D3F835
:102230009C2025F01F0502F01F021543C3F89C5097
:1022400004F01CFB62E04E45EED15FFA88F004F02A
:1022500015FB5FE0EA06DED10A68D306DBD1104643
:1022600004F003FB154405F1FF398046484604F0AD
:10227000FCFA8045CFD118F1160FCCD0A045CADAB0
:10228000324BC3F89880D3F89C00C3F89880D3F8F9
:10229000A06020F01F00824246F01F06D3D0013A12
:1022A000C3F8988022F01F00D3F8A0204E4502F01A
:1022B0001F0242EA0002C3F8A0202046C0D004F06A
:1022C000DDFA10F1160FA6D0204B013EC3F898801E
:1022D000D3F89C109DF80820013061F304028DF8BA
:1022E0000820D3F8A030009525F01F052E445B0888
:1022F000D2B2A6EB090663F3471226F01F06694621
:10230000C0B28DF808200396FEF772FB10F1160F8D
:1023100081D0441C01203C70FEF7A4FE0220FEF791
:10232000A1FE184C0023184D84F3098800200449AD
:102330008847184619461A46A84702488047FEE7CC
:1023400079790000877900000000000000ED00E0CE
:1023500060030020A8380020800000205C030020DB
:10236000C09E00004000002080000020809E0000F1
:10237000A8680020A5370020AAFF4400E1CF1F0075
:10238000188D0000A86000205130000008B50548F5
:10239000FFF722FB002383F31188BFF36F8F042321
:1023A000184602DF2A910000036803F01F027F2B0A
:1023B00002604FEA53129ABF024B53F822000020EA
:1023C000704700BFE48C00002DE9F04F814659F8BA
:1023D000043B8DB0D3F8141390F8B14000936C4BCC
:1023E000C9B241F40031804653F83420009804F01B
:1023F00089FB810305463BD51022002108A806F081
:1024000011FA634B08A803EBC4035B6819460193F8
:10241000FEF726FC042303EBC40303934FF0000BE9
:102420005C4B0DF1200A0293029A594912F8013BC4
:102430000292039A02EBD3028A5C03F0070322FAAA
:1024400003F3DA071AD40BF1010BBBF1040F0AF105
:10245000040AE9D14FF400310022009804F052FB45
:10246000019908A8FEF7FCFB0028D7D125F4003518
:102470000124002D75D10DB0BDE8F08F464B5B44B3
:102480000493DAF800100029DDD091FAA1F1B1FA35
:1024900081F1049B1C7841EA44142046FEF7D6FBE8
:1024A00008EB4000878AC808BB08059301231AF887
:1024B000002001F0070103FA01F122EA01020AF803
:1024C000002007A80794FFF76FFF079A059B2032AB
:1024D00050F82220C7F382065B073746C2F3014259
:1024E00023D54846D6B221463A4604F085FB07A8D4
:1024F0000794FFF759FF079B203350F82330C3F3AD
:1025000001439E4207D10021204605F044FA31469E
:10251000204605F040FA07A80794FFF745FF01227F
:10252000079B02FA03F30362ABE7022A0DD10321F2
:10253000204605F030FA06F00503012BEBD13A46B0
:102540002146484604F058FBE5E702212046059263
:1025500005F021FA032EF2D0059A032ADBD1022ED0
:10256000ECE795FAA5F3B3FA83F3009904FA03F2C2
:1025700025EA020503F5A27251F8222008EB430375
:102580004846B3F8A010C2F3014204F035FB70E7EF
:10259000D48C0000AB910000AB910000F0B5466810
:1025A00001F01F04307CB56887B044EA4014002D68
:1025B00069D0B2F5001F06D12146284605F0FEF984
:1025C000002007B0F0BD0027B2F5800F01A80197E9
:1025D00047603CD1B3F1007F14BF052304238DF87D
:1025E00004300023CDE904030393F368CB40D907FB
:1025F00038D4B2F1A07F35D168460094FFF7D4FEFD
:10260000009B203350F82330DB072BD46A46214649
:10261000284604F0DEFA16300AD195F8B1001B4BBB
:1026200003EB800004F0D6FB0028CADB8DF8000025
:10263000CDF808D02146B06803AA05F03CFA00287E
:10264000BFDB01222146B06805F0DEF9B8E7B3F13F
:10265000C06F05D0B3F1007F14BF01230223BEE792
:102660000323BCE76A462146284604F0B2FA002854
:10267000E0D195F8B100054B9DF8001003EB800008
:1026800004F027FAD6E76FF085009AE704030020EC
:102690002DE9F04FD50640F2063548BF4FF003094B
:1026A000D0F8048002EA050598F8103058BFC2F34C
:1026B00040198BB001F01F06B5F5837F144646EA3A
:1026C00043168DF8129044D00DD8062D43D005D86E
:1026D000A5B1022D12D06FF0150037E0B5F5807F5F
:1026E000F9D101250AE040F202239D4235D0B5F52B
:1026F000407F34D0B5F5007FEDD1042501232003C0
:1027000003FA01F12DD5D8F804305960D8F80870D3
:102710006FBB07A80796FFF747FE079B84F480313D
:1027200000EB8300D0F88020C1F30041C4F34043A4
:1027300043EA410322F4706243EA890322F00F0264
:1027400043EA05231343C0F8803000200BB0BDE8F6
:10275000F08F0925D2E70825D0E70625CEE7052525
:10276000CCE7620344BFD8F804309960CEE7314625
:1027700038460DF1130204F02CFA14F4403903909A
:1027800034D13046FEF762FA04B207EB4404A38A60
:10279000DB071CD5384605F011F93146384604F000
:1027A000D8F940B1A28A3B68520B03EB8203C3F80D
:1027B0001095C3F810953146384604F0E0F900232F
:1027C0000122A38219463046009303F06FFB039B5E
:1027D000002BBAD1D8F808309DF8131093F8B10047
:1027E000314B03EB800004F074F9AEE7002305AA37
:1027F000CDE90823384607AACDE90533079305F04C
:102800005AF90028A1DB14F40033D8F808903CD022
:1028100014F4803430460CBF4FF0010A4FF0000A28
:10282000FEF714FA3146074648469DF812B004F008
:102830009BF920B9484604F08CF9002885D13FB2B5
:1028400009EB4707BB8A13F01C0F02D0002C3FF4A2
:102850007CAF07A80796FFF7A7FD079B00EB830057
:10286000D0F8803023F4706323F00F0343EA8B0326
:1028700043EA4A0343EA052343F00103C0F88030EA
:10288000BB8A43F00303BB82A1E7CDE9083331469D
:102890000DF11203484607AA079305F00CF900282A
:1028A000FFF653AF93E700BF040300202DE9F04F7C
:1028B000046993B04568079394F86530CDE9051233
:1028C00081462A681BB1A36A994200F01B81059BCF
:1028D0009E88310505D56FF08505284613B0BDE803
:1028E000F08F16F0090F02D06FF01505F5E7C6F36B
:1028F0004513082BF8D1059B9B491B688B42F3D9E4
:102900009A4228BF1A46696809920A91A968B207D3
:102910000B91E96895F826B00C91296995F8278004
:102920000391297D06F004070491A97D0F91A97FE9
:102930001091296A0D9195F824100E9195F82510A3
:10294000089195F82810119140F18C81002F14BF47
:10295000032702272368D3F80006431C04D0B107DD
:1029600000F1848105F06EF994F865302BB12046B2
:10297000FFF7BAF9002384F8653094F82030002B73
:1029800040F09081794A216879487A4B814208BFAA
:102990001346099AB3FBF2FA02FB1A339A45A3D9FC
:1029A0001AF0010FA0D1BAF17E0F9DD8BAF1010F34
:1029B0009AD0714BC4E90139089B002B6F4B08BFBB
:1029C0004FF0020BD3F84023292A27D1D3F8442310
:1029D000012A09D894F8222042F0100284F822201B
:1029E000D3F84033292B19D1644BD3F84433ABB916
:1029F000BAF1020F00F03D81FA0700F13A814FEA87
:102A00005A030133DBB25B4538BF5B465FFA83FB99
:102A100094F8223043F0080384F8223094F82230EE
:102A2000049A68F3000362F3410384F82230B8F19A
:102A3000000F22D1012F94BF002301234246012120
:102A40000A9805F0CEFE4346424601210B9805F058
:102A5000C8FE43464146109A0C9805F0C2FE049BFE
:102A600042460121039883F0010305F0BAFE0123D9
:102A7000424619460D9805F0B4FE089B002B00F065
:102A8000FD804FF0FF33049A63621199236891B976
:102A90000A99C3F800160B99C3F804160C99C3F8E9
:102AA00008160D99C3F80C160399C3F81016C3F84D
:102AB000B825C3F8B0B50F9A022FC3F8C025C6F3E6
:102AC0000016C3F82CA500F0E780032F00F0E78084
:102AD000012F01D146F002060E9AC3F85465C3F8DF
:102AE000AC25636823B12068C0F30830FFF7DCF839
:102AF000002384F82130012384F8203084F86530E5
:102B0000059BA362012384F86430EE6B731C42D0F2
:102B1000AF6B3146384604F01CF8002800F0C58041
:102B20003046FEF793F807EB4000858A6D0BAD0049
:102B300005F5807500223146384604F065FF002215
:102B4000032311463046009203F0B0F9FEF7C2F8B5
:102B500080463B685B599BB9FEF7BCF8A0EB0800C8
:102B6000C728F6D90CE000BF47E801000020A10704
:102B700000D004500024F400E97E000000C0FF00F3
:102B80003146384604F01AFF002201231146304630
:102B9000009203F08BF9069B002B40F08980E363E1
:102BA0000023236404F1500204F1400104F13C00CD
:102BB00005F08BFD079BE064002B40F0828063648E
:102BC0000023A36404F1580204F1480104F1440015
:102BD00005F07BFD002504F128062A4601216065E9
:102BE000A563304604F0B0F8484605F07DF82A4663
:102BF0002B46206C83426DD100231946A56CA94257
:102C00006FD19A4238BF1A464FF4FA535A43A36A17
:102C100004F134061B68B2FBF3F202F1C807C932B3
:102C20006FD1EFF31180202383F31288BFF36F8FEE
:102C30001A46D6E8AF3F002B5AD00023636380F3D7
:102C40001188BFF36F8FA56B15F1740F61D0002D44
:102C50003FF443AE0022D9F810001146283004F0AA
:102C600073F83AE6003F18BF012773E604F0DEFF71
:102C70007AE694F822306FF3C303CDE6039B049AFF
:102C8000636294F8223062F3410384F822304FF0FB
:102C9000FF33089A0393F8E646F004061CE746F073
:102CA000060619E76FF0770517E64FF4A27541E7BE
:102CB000069B1B68E363002B3FF472AF069B5B68C7
:102CC0006FE7079B1B686364002B3FF479AF079B9A
:102CD0005B6876E7E16B01EBC301496801330A44A5
:102CE00088E7606C00EBC10040680131034486E76F
:102CF00003F0ACFDEFF3118082F31288BFF36F8F06
:102D000097E7FDF7F9FF0546D6E8AF3F8BB1636B58
:102D1000C3B9002520462566FEF7E6FF84F8655016
:102D20006FF07301484604F0B2FB65636FF0730502
:102D3000D3E5FDF7E1FF431B9F42E8D9012003F0F3
:102D4000E3FFE1E7002363637DE700BF2DE9FF4771
:102D50004368027A03EBC2029A4204D86FF0010082
:102D600004B0BDE8F0875C798C4200F093800833B2
:102D7000F2E73268C2F3C323082BC2F3080400F25F
:102D800086804C4508BF4FF0FF34B2F1D05F18F891
:102D900003104FEA126310D2192B12D8DFE803F0A8
:102DA000141C4A47242D4711111111111111111131
:102DB0001111111111114D575A5D382B50D04E2B56
:102DC00038D06FF08500CBE7C5F80446601C0FD003
:102DD000204604F02BFF54E0C5F80C46601C07D0D9
:102DE0004FF0000A504612E0621CC5F800464BD175
:102DF0000436B742BDD10020B2E7631CC5F80446D3
:102E0000F6D04FF0010A204604F01CFF0120336881
:102E1000009103F40042002A07BF014652460122F6
:102E200000212046C3F3412303F040F8E0E7C5F852
:102E30000846D3E7C5F81046C8E7C5F86045621CE8
:102E40003368D5D0C3F30043002BDAD0C0E7C5F810
:102E50006445F4E7C5F86845F1E7C5F86C45EEE769
:102E600003A80394FFF7A0FA039B00EB8300D0F8BC
:102E7000803023F0E04343F08043C0F88030631C8F
:102E8000B6D04FF0010AADE74FF0000ABBE76FF094
:102E9000150065E71E681F7940F2FF190568DFF825
:102EA000088006EB8707A4E7A29100002DE9F04710
:102EB0004568076906460121686B86B0FFF746FF43
:102EC000D5F83CA0BAF1FF3F31D001238DF8023094
:102ED00002238DF804300DF1030302930DF1020378
:102EE000039301AB04930023D5F83880DFF8A49056
:102EF00098F8B100059309EB800003F06BFF041E06
:102F000010DB5146404603AA8DF8034004F0D3FD80
:102F1000041E0CDA98F8B1009DF8031009EB80004C
:102F200003F0D7FD14F1130F2DD0631D2BD0EB6AE6
:102F30009847FD6A0835D7E90B3203EBC203A5F1C8
:102F4000080293420CD807F128000122002103F067
:102F5000FBFE3046104906B0BDE8F04703F04DBD1A
:102F600055F8080C03F066FC88B135F8022C55F8CA
:102F7000080C15F8041C42F4B01203F010FD041EF6
:102F800005F10805D7DA204606B0BDE8F0876FF0F6
:102F90001204F8E7040300209B7F000030B50D46C3
:102FA000816887B0102302AA1039044604F04DFC52
:102FB000002802DA012007B030BD1022204602A905
:102FC00005F00AF800283FD11022204902A805F098
:102FD00058FC00280CBF012302232B70A168012399
:102FE000203921F00F0120460DF10702203904F0AD
:102FF0002CFC0028DEDB9DF80730204603F00F0292
:103000001B096A702B7101220DF1070104F0E4FF26
:1030100010B96B78042B03D901236B7000232B713B
:10302000A2682046203A22F00F02103AA91C04F0B0
:10303000E4FF0028BED1A2682046203A22F00F0209
:10304000E91C04F0DAFFB6E70323C6E7308F00007F
:1030500001252DE98048A74B89B003201D70FEF79C
:1030600001F80420FDF7FEFFA34C6022002120465A
:1030700005F0D8FB052004F12001FEF703FD002830
:1030800070D1284604F14C01FEF7FCFC002869D100
:103090004FF40076994A052002F5805304A9626234
:1030A0002365049605F053FB28B1012384F85830BA
:1030B0008DF817304FE1049B2846226D04A9A362C6
:1030C000049605F044FB00284ED084F858500021A7
:1030D000084602F00DFD0028E7D1A66A656DAE42F4
:1030E00002D06B1C9E42E0D1B6F5007FDDD80023F4
:1030F0001F46626A216D043204319D423CD1236A2D
:10310000D86804F036FBE36CD86804F032FBAE42BA
:1031100005D9636A03EBC5035B68BB42C5D10123D4
:10312000049303F10123059300236946206ACDE946
:103130000633FFF733FFA8B9E06C02A9FFF72EFFB3
:1031400080B99DF800209DF80830012A1CD19DF817
:103150000220032A18D1012B16D00223266A0793D6
:10316000002E3DD105F056FB049B6365236AD868A9
:1031700004F0FFFAE065AAE752F8337051F8330023
:10318000874292D10133B8E70023079304A804F0E3
:1031900076FA80F0010004A9C0B202F0A9FC002870
:1031A00083D104A804F06BFA002840F0A98004A899
:1031B00002F014FF0028D5D19DF81730DA1E012A3D
:1031C00084F8583000F2878005F092FA9DF81730A5
:1031D000002871D1023B022B75D994F858307DE05C
:1031E000337803F0FB03012B7FF45FAFF0684FF4FB
:1031F000C068E56D04F0BDFA08FB00F0B768503018
:103200008742AFD340F2FF535FFA85F94FF0FF35A5
:1032100003FB09773F1A01233946304602AA04F01E
:1032200014FB0028C24608F1FF38FFF63EAF01222A
:10323000304602A904F0D0FE18B9B5F1FF3F08BF2F
:103240005546A7EB0907B8F1000FE4D16A1C08D076
:10325000B5F5007F22DA40F2011301350495ADF88F
:103260001430B1680123203921F00F01304602AA41
:10327000203904F0EAFA00287FF417AF0122304623
:1032800002A904F0A9FE10B101238DF808309DF8C1
:10329000083003F00F038DF8173077E70223A5F508
:1032A00000758DF815306B1005F0010501330135FF
:1032B00004938DF81450D4E7FF22023B022B84F8CC
:1032C00058203FF64FAF05F02BFA002885D0FF239A
:1032D00084F8583046E79A1E022AF4D9FF2B3FF4AF
:1032E00041AF0021084602F003FC00283FF4DDAEA8
:1032F00038E700BFA43700200C2400200C04002075
:103300009DF81760012E34D102F064FC831E022B5D
:10331000054610D8304604A902F0E4FFA8B9E8B287
:1033200084F858008DF81700012834D813D0FF23F3
:1033300084F858300FE0C0B2042884F858008DF8A3
:103340001700F1D905281ED0F1E7012816D184F81D
:1033500058008DF8170094F85830FF2B3FF402AF57
:103360000021012B02912DD0084602F0C1FB48B389
:10337000FEE7012004A902F0B5FF48B1052384F857
:1033800058308DF8173005F0B3F90028E3D0CEE7B8
:103390009DF81700D0E704A802F020FE00287FF473
:1033A000E1AE94F85830DA1E012A08D805F0A0F9E9
:1033B00000288CD105F0B4F9002888D1CBE7022B86
:1033C000C9D1F7E70021084602F08CFF00B1CFE732
:1033D000029B01330293029E012E00D0FEE7236A76
:1033E0005A68944BD3F874150F2900D0FEE7924920
:1033F000DFF84882C3F87005C3F874152389D8F83C
:1034000004501344ED43672204468D4F05F06705D1
:103410003B608C4BC3F82823002D5BD1E420FEF7E2
:1034200051FC884BD3F8482722F00102C3F8482703
:10343000D3F8102522F00102C3F81025D3F8102587
:1034400022F00202C3F8102501225A669A6688F813
:103450000050EFF31182202383F31288BFF36F8FA4
:103460007948818E01F00701022958D1C38E013BB2
:103470009BB2C386002B52D11C30FDF78DF9734BE4
:10348000734A1B684FF47A70B3FBF2F35843714BE5
:10349000002443F0010398476723DFF8A891DFF881
:1034A000B8B1DFF8B8A1C9F828330126A64016F054
:1034B000670FE1B238D0D8F80430DB4303F067037C
:1034C000334240F099800846FDF7F8FB584603F078
:1034D00000FB2CE0D8F80830E1B206FA01F909EA5D
:1034E000030313F0670F17D00846FDF7E7FBD8F882
:1034F0000430DB4303F0670313EA090F0CD000220A
:103500000B0103F1A04303F56223C3F82C25EB075D
:1035100002D5514803F0DDFA6D0801347CE782F3EF
:103520001188BFF36F8FAAE70846FDF7C7FB013488
:10353000072CBAD14FF0FF3800244FF00109484E54
:10354000E420FEF7BFFBC6F80883C620FEF7BAFBEF
:10355000C6F82C90C6F85041D6F85031C6F84C4108
:10356000D6F84C31C6F82441D6F82431C6F80045C7
:1035700006F578364FF48270C6F80883FEF7A2FB92
:10358000C6F82C90C6F85041D6F85031C6F84C41D8
:10359000D6F84C31C6F82441D6F82431314BC6F860
:1035A0000045C3F80883BFF36F8F72B62E4B04F14A
:1035B00020020134102C43F82280F8D14FF0FF3163
:1035C00005F160020135102D43F82210F8D10024D6
:1035D000264BC3F80444FDF7EDF93B681B6883F301
:1035E000088884F31488BFF36F8FBFF36F8F3B6835
:1035F00058681F4B9847FEE7D8F80830334013F05F
:10360000670F3FF460AF0846FDF758FB002209EB57
:103610000413C3F82C25D9F820331E423FF453AFCE
:10362000C9F828635AF82430002B3FF44CAF4AF80D
:10363000242048E700E004500530340080000020DA
:103640006C24002000200E50AC2400200C0300202D
:1036500040420F00808A00008400002000210E50AC
:1036600000600C5000E0105000E100E0002008E095
:1036700041000020F0B585B06E46816805461039DE
:1036800021F00F0404F019F932460A4B03F1100C33
:10369000374618685968083303C763453E46F7D173
:1036A00010232146284604F0F2F8003818BF012004
:1036B00005B0F0BD308F000008B501232C4A2D481D
:1036C000C2F80038A2F55722D2F800242A4AD2F8CC
:1036D0004023292A04BF294AC2F80C34FDF79CFA7A
:1036E0000830FDF799FA0830FDF796FA0830FDF733
:1036F00093FA00F5F470FDF78FFA214AD2F88C3076
:1037000043F44063C2F88C300022D30003F57F03FA
:1037100003F54043D3F8001401310AD0D3F8001464
:1037200039B1D3F800140132D3F80434402A0B60C5
:10373000EBD1144BD3F80026D20713D40021124A40
:103740000F48C2F81815D0F88C3043F44063C0F825
:103750008C30C2F8A015A2F5A042D2F80034012B9B
:10376000FBD008BD6FF00102C3F80026E6E700BFFA
:103770000000125000F50E5000C0FF000030055050
:1037800000ED00E000E0105000E0045010B5034BE5
:103790000A461B6800210446984710BD1403002008
:1037A00010B5044610B109B1FFF7F0FF024B2046F7
:1037B000BDE810401B681847E802002070B5446A55
:1037C00005460E4644B9074B01201B6898476862BE
:1037D00028B12046AE6270BD6FF08A00FBE76FF043
:1037E0008C00F8E7EC020020302816D00DD81238F3
:1037F000C0B2192806D801231C4A83401A408ABB4C
:10380000DB071ED46FF086007047412821D0422884
:10381000F8D1FF291FD1164B21E0B1F5A07F21D0AF
:1038200004D8E0291ED0B1F5807F04E0B1F5C07F57
:1038300018D0B1F5007F0CBF6FF085006FF08600E7
:103840007047B1F5C07F0DD0EBD940F20923994202
:10385000F1E7FF2902D0B1F5E07FECE7054B00204E
:10386000136070476FF08500704700BF200221028F
:10387000208F0000148F000010B51E4C4368B4EB7D
:10388000132F4FEA132215D142691B4B9A420CD0D9
:1038900003F5FF437D331344012B03D80388B3F5AD
:1038A000105F1DD06FF0860019E047F212130288F6
:1038B0009A42F6E7114B9A42F4D1028802F44F4340
:1038C000B3F5824F0ED1438844F21210073382427F
:1038D0004FEAD30301D15B00013300200B6010BD20
:1038E0000223FAE7B2F5885FFAD143880733DB0891
:1038F000F3E700BF004E800001C0FF7F4B4E800009
:103900000022074BC3F81021C3F80C21C3F8002193
:10391000C3F80421C3F80821C3F81821704700BF79
:103920000090045008B5FFF7EBFF01230360104B34
:103930000A6832B9D3F80C211AB9D3F80821002A41
:10394000F6D00B687BB90B4B99420ED0A3F584736C
:10395000D3F80831002B0CBF4FF0FF306FF002009E
:10396000FFF7CEFF08BD0020FAE74FF0FF30F7E782
:10397000009004500891045038B5064D0C46C5F827
:10398000000505490548FFF7CDFF10B9D5F8083502
:10399000236038BD00900450109104500C900450E6
:1039A00010B5F82004F0B9FB18B9F92004F0B5FB04
:1039B00010B16FF0920010BDF823094C09490A4874
:1039C000C4F80035FFF7AEFF0028F2D1F92306480E
:1039D000C4F80035FFF7A6FF0028ECD0E9E700BFE8
:1039E00000900450049104500490045038B52A4BC0
:1039F0001B7843B1294B1A68002A3FD01A6819680E
:103A0000002119602AB9BFF35F8F254B9A6ABFF373
:103A10005F8FBFF35F8F224CE36BBFF35F8F12F0BA
:103A2000240F03F023032BD0BFF35F8FE569BFF3AF
:103A30005F8FBFF35F8F10236363BFF35F8F194BFB
:103A40001868194BB0FBF3F0184B43F0010398478B
:103A5000BFF35F8F00236363BFF35F8FBFF35F8F9D
:103A6000E36BBFF35F8F5B06F8D425B1BFF35F8FC5
:103A7000E561BFF35F8F6FF01F0038BD20BFBAE76D
:103A80004FF0FF30002BF8D1BFF35F8F2063BFF3FF
:103A90005F8F1846F1E700BFA437002048250020BB
:103AA000000001500C03002040420F00B08A0000CB
:103AB000C36870B57BB9C36900F128021A60C36995
:103AC000454A9A604368C269DB6843F48063D36007
:103AD000C3691033C361836A9B052FD40368C2682E
:103AE000DD6800F1EC04302D34BF082610261D6976
:103AF00001366B1E1340EB1AB34238BF5B191C44EE
:103B0000D50004F8015C03F1EB045209044400F110
:103B1000ED05A5425CD1802280F8EC20426AC469A0
:103B2000C4322260C26993604468C269E468D460A8
:103B3000C2691032C26102691A4402610269C46931
:103B4000D31C23F003039B1A54F8042C42EA0322EB
:103B500044F8042CC26952F8084C234443F0005343
:103B600042F8083C026A0368DB6811600168026A77
:103B7000C96803339160026A23F0030302F1100164
:103B800001620168C96899420BD000211161016886
:103B9000026AC9685B1A43F080439360036A10337A
:103BA0000362836A13F4806311D102685169D26899
:103BB00091420CD0026A13600268016A5369D268AC
:103BC0009B1A43F080438B60036A1033036270BD1D
:103BD00004F8012D120A9CE704000020BFF35F8F58
:103BE000094A1368BFF35F8F43F48071BFF35F8F9F
:103BF0001160BFF35F8F23F48073BFF35F8F136097
:103C0000BFF35F8F704700BF00100150BFF35F8F9D
:103C100000220B4BDA61BFF35F8FBFF35F8F4FF072
:103C2000FF321A63BFF35F8FBFF35F8F3422DA6115
:103C3000BFF35F8F012203F59223C3F8042370477B
:103C400000000150036803F580514A68C62A38D045
:103C5000DA68D203F9D4DB6825481840B0F5806FE4
:103C600032D017D8402831D008D8102830D020289A
:103C700030D0003818BF012040007047B0F5807F79
:103C80002AD0B0F5007F29D0802808BF0B2018BFAC
:103C900002207047B0F5804F22D00AD8B0F5805F7F
:103CA00020D0B0F5005F1FD0B0F5006F08BF062030
:103CB000EDE7B0F5004F19D0B0F5803F08BF032005
:103CC000E5E76FF001007047112070470A20704748
:103CD0000C20704709207047082070470720704764
:103CE0001420704705207047042070470F2070474C
:103CF000F0FF0100144B4FF0010C1A680820916985
:103D0000C3E919C0C1F30B02482A5A6528BF4822EB
:103D100011F4003F9A6508BF0022DA6511F4803281
:103D200008BFC3E9152201F47002B2F5700F14BF89
:103D300000229A6D00299A65BCBF0022C3E91922AE
:103D400001221A65704700BF94290020F0B503884E
:103D5000C76803F44F42B2F5824F08BF1D4603F413
:103D6000E0441F4B18BF002500201A46EDB21E7814
:103D7000AE4223D1D3E9026CD1F800E0B4F5804F14
:103D800008BF6646BEF1000F0BD1202E09D11423C7
:103D900003FB002253680B60137CABB96FF0850006
:103DA000F0BDD3F804C0E64508D1202E02D06FF054
:103DB0008600F5E7142303FB0022EDE7013013280A
:103DC00003F11403D3D1F2E7422D06D1054B9F42F4
:103DD00003D003F20B139F42E9D10020E0E700BFBC
:103DE0006C8D0000000800064368A3F110028A42AF
:103DF00040D8012243F80C2C53F8042C42F0200246
:103E000043F8042C53F8082C42F0005243F8082CD5
:103E1000836800F11402A3F1100191422ED801220F
:103E200043F80C2C53F8042C42F0200243F8042CE5
:103E300053F8082C42F0005243F8082CC36803F1F1
:103E40005402BFF35F8F0F4B1A60BFF35F8FC268DE
:103E50000432BFF35F8F1A61BFF35F8FBFF35F8FD1
:103E600003225A63BFF35F8FBFF35F8F9A63BFF381
:103E70005F8F7047103141F80C1CB8E7103242F8E0
:103E80000C2CCAE70000015002480B1A5842584156
:103E9000704700BF00080006034BC3F80005D3F8C5
:103EA0000024D207FBD5704700E00450014608B556
:103EB0000120FFF7F1FF064B0648C3F8001506493D
:103EC000FFF730FD01460020FFF7E6FF084608BD7A
:103ED00000900450089004500891045070B588B0C8
:103EE00001AE182205460C463046002104F09AFC2B
:103EF000012044EA052405900794FFF7CDFFBA237B
:103F000009480A49C0F80035C0F80465FFF70AFD02
:103F100001460020FFF7C0FF81420CBF08466FF04A
:103F2000920008B070BD00BF009004500091045092
:103F3000F8B51E4D064695F880350F467BB3002434
:103F40002B462246197FD1B13CB9022905D1196A05
:103F500019B91979002918BF1C460132202A03F12A
:103F60002C03EFD114B96FF08C0006E0204604F06A
:103F7000BBF8204604F08AF910B100240DE01C467D
:103F8000237F7BB90123237736B1094B651BAD1025
:103F90005D4305F18045356000203C60F8BD6FF061
:103FA0008800EAE76FF09600E7E700BF042A0020E8
:103FB000A38B2EBA2DE9F04788B004460D4616466D
:103FC00004F041F978B963690090C3F3013262F3F8
:103FD00005108DF8000010F0300007D1A1688907A6
:103FE0000FD06FF0860008B0BDE8F087102808D128
:103FF000BDF8023023F4F87343F4A873ADF802302F
:104000006DE0E76871498F4247D1238803F44F413F
:10401000B1F5824F44D1D9B2422941D1A16811F4FE
:10402000A05F04D123F0FF03B3F5E24F38D00A219B
:104030009DF8023061F303038DF8023000234FF046
:10404000010A9E4619461F46D4F808C0DFF8808151
:1040500058F8049B1CEA090F08D00AFA07F343EA50
:104060000E0303F07F0E012341EA09010137072FF8
:10407000EED12BB19DF803306EF347038DF803307A
:104080003CEA01010CD16388FF2B11D00BD8802BA7
:104090002BD0C02B04D102230BE0DBB2F82BCDD008
:1040A0006FF085009FE7B3F5807FF9D1042300E02E
:1040B00003239DF8021063F306118DF8021010B966
:1040C0001CF0030F8DD12379022B1BD00FD8012BAD
:1040D00087D1BDF8021063F3C811ADF80210B2B178
:1040E000032A7FF47EAF3B4F16E00123E1E7032B69
:1040F00002D0FF2B7FF475AF0221BDF8023061F3CF
:10410000C8137BE7BDF8023043F4C07376E7238819
:10411000B3F5105FC4D1304F284603F0FEFF10B94D
:104120006FF08A005FE7681C03F0F7FF0028F7D004
:1041300002212846FFF7D2FE00287FF454AF009BEF
:10414000044607930346DFF89490DFF894A006979F
:104150000DF10408C446BDF802203344C2F3C11275
:10416000059203F1100E624618685968083303C2BD
:1041700073459446F7D101206119FFF78DFEC9F808
:10418000001516485146C9F80485FFF7CBFB0146D8
:104190000020FFF781FE21B104F055F86FF0920086
:1041A00021E71C21404603F0ACFF44B907F110039E
:1041B00006934FF0FF33012407931023CAE7BA2078
:1041C000FFF774FE00283FF40EAFE7E70008000693
:1041D000F88E00000000002000FF0720009004502F
:1041E0000091045008B50F4A1368591C1160BBB9FF
:1041F0000D4A5920D2F8003443F00703C2F80034C6
:10420000FDF752FDBFF35F8F1522084B5A62BFF3D3
:104210005F8FBFF35F8F40F237129A62BFF35F8FF9
:1042200008BD00BF902900200090055000100150EB
:10423000B1F5DE7F38B5044624D303681D6815F058
:10424000400522D1FFF7CEFF01212176FFF7DEFCEA
:104250000F4B2846636023680E4A1B68C4E9035568
:10426000A36204F12C03236204F128036362E36771
:104270001323C4E9212304F18C03E361064BA160FD
:10428000636138BD6FF02200FBE76FF00200F8E7D2
:10429000E88E000004000020B13A000038B50A4D55
:1042A0000446C5E90415FFF79DFF2A6802F5805111
:1042B000D368DB03FCD44B6A13F4A023F8D1C4E920
:1042C0000053204638BD00BF9429002010B5124B82
:1042D0001C68013C1C60ECB95920FDF7F3FC072277
:1042E0000E4BC3F80823D3F8002422F00702C3F8CA
:1042F0000024C3F80041D3F80021C3F80441D3F8E7
:1043000004214FF00072C3F80841D3F80831044B80
:10431000C3F8882110BD00BF9029002000900550EF
:1043200000E100E00422054B10B5C3F80823044661
:10433000FFF7CCFF00232361A36410BD009005505C
:104340002DE9F04F90469B4642690369D0F84CA096
:104350009D680446D0E901730E46D2F86C9085B092
:10436000BAF1000F06D0FFF7DDFF1025284605B093
:10437000BDE8F08F4F490A6D22B90193FFF7BAFCEF
:104380004C49019B326810064CBFCA6D4A6D70687B
:10439000904204DD2046FFF7C5FF0D25E6E72269C0
:1043A000E060B9F1000F02D0116948EA01083168F4
:1043B00012680138114341EA0021226841EA0801EC
:1043C000516022691268D10002D5E2689A1A174436
:1043D0009DBB336813F4700F3AD0B9F1000FC5D00C
:1043E00023691B69002BC1D0D9F80830484698478B
:1043F000D4E901672369CDE902011B68E26813F083
:10440000805F06EB071642D0C1F3076100F03F035F
:1044100041F0010143F020038DF80F10B01AA2F112
:1044200008018DF8083003F090FE083E082230465F
:104430000DEB020103F0B0FE98E7EA0748BF4BF826
:104440002A704FEA650548BF0AF1010A1F44BFE719
:104450002369D6F808801B68D4E9017BDB0042BFE2
:104460007368ABEB0303FF18B8F1000FB5D04FF042
:10447000000ABAF1060FB0D041463846726803F020
:104480008BFE73685F4498440AF1010AF1E7C1F3B7
:10449000056141F02001F61B40F001038DF80F107B
:1044A00006F10800A2F108018DF8083003F04DFE76
:1044B000BCE700BF942900204FF4807313B5044675
:1044C0000193FFF78FFEFFF7A1FB214B01AA1A60B2
:1044D000112220492048C3E9021240F6110103F1DC
:1044E00010025A601D4AC3E906011A6120321A629D
:1044F000212203F120015961012119485962C3E9C0
:104500000A02184AC2E9011020211460D160BFF3E9
:104510005F8F15490B60BFF35F8FBFF35F8F0A6139
:10452000BFF35F8FBFF35F8F03234B63BFF35F8FD7
:10453000BFF35F8F8B63BFF35F8FFFF757FA431CA7
:104540000446FAD0FFF7C2FE204602B010BD00BFFD
:104550005C250020040000202000002088030020AB
:10456000100000204C250020000001502DE9F043F0
:104570000446002693B00DF11F05DFF8788025F082
:104580001F05102201231C4911F8010D013A0344B3
:104590000B704FEA1323F7D1A819FFF78DFFA94637
:1045A000074618BBD8E90C321036013342F100023D
:1045B000302EC8E90C32E4D154B104F1300299F83C
:1045C000003014F8011B4B40A24209F8013BF6D120
:1045D0002E46084C0FCE0FC496E80F00203584E815
:1045E0000F0095E80F00103484E80F00384613B030
:1045F000BDE8F08388030020B8030020684620F05F
:1046000007018D4601B5184BD3F80021D2B1BFF395
:104610005F8F16498A6ABFF35F8FBFF35F8F4FF0DA
:10462000FF300863BFF35F8F0021C3F80011D3F898
:1046300000310F4B196819680A431A60BDE8014040
:1046400085467047D3F808110029F7D002200949A0
:1046500009688860C3F80821D3F80831064B1A6846
:104660001A6842F00102E8E700900550000001508E
:104670004825002094290020442500202DE9F843F6
:1046800007463025514CDFF84891202D2E46A8BF13
:104690002026DFF84081FFF7A5FDFFF79FFABFF363
:1046A0005F8FE368BFF35F8F9B08013BBFF35F8FB2
:1046B000A360BFF35F8FBFF35F8F00232364BFF35B
:1046C0005F8FBFF35F8FF1226264BFF35F8FBFF331
:1046D0005F8F4FF400726263BFF35F8FBFF35F8F32
:1046E000C4F80080BFF35F8F07E0FFF7EFFD6FF0C6
:1046F0003F052846BDE8F8830123BFF35F8F226B97
:10470000BFF35F8F5108C2F34202052A5BD011F05C
:10471000060FF2D01BBBBFF35F8F6268BFF35F8FE2
:10472000032AEAD92C4BBFF35F8FD4F88020BFF364
:104730005F8FBFF35F8F43F8042BBFF35F8F4B4551
:10474000F1D1FFF74BFABFF35F8F2368BFF35F8FA1
:1047500043F00103BFF35F8F2360BFF35F8F3246E7
:10476000BFF35F8FA368BFF35F8F0133B6EB031F07
:10477000BBD8BFF35F8F6368BFF35F8FB6EB830F68
:10478000BAD8BFF35F8FD4F88030BFF35F8F39465C
:10479000081D01F8013B81424FEA132302F1FF3269
:1047A00008D0002AF5D1FFF791FDAD1B37447FF407
:1047B0006CAF9EE7002AF6D0BFF35F8FD4F880304D
:1047C000BFF35F8FE4E7FFF781FD64E7001001505E
:1047D0002010015001000400101001502C232DE97D
:1047E000F341204D0F4603FB0055D5F82080B8F16A
:1047F000000F01D104F00EF8EB682E8940461E44EC
:10480000042331460DEB030203F01FF8044620B1E8
:104810000124204602B0BDE8F08146F60813BDF839
:1048200004206D899A421AD1BDF806309D4201D00C
:104830000324EEE7042340460DEB0302A91903F01D
:1048400004F80028E4D146F60713BDF804209A4284
:10485000EED1BDF806302B4433443B60D9E7002D40
:10486000F1D0E5E70C2400201FB5074B6A461C6A0F
:104870001023A1682046103902F0E7FF002818BF76
:104880000024204604B010BD0C2400202DE9F84F70
:1048900006460F46904699460024DDF828A0DFF82A
:1048A00044B0A24501D800200FE0AAEB0405B5F5FD
:1048B000806F28BF4FF4806530462B46094A04EBD1
:1048C000080102F0C2FF10B10120BDE8F88F2B46AD
:1048D0005A46384604EB090102F0D9FF0028F3D10B
:1048E0002C44DEE78C2500202DE9F04FA64CA1B02A
:1048F00062780DF1770323F01F03022A01932378D6
:1049000001D1072B22D013F0010609D1DFF87C92E8
:104910009F49D9F800208A421ED143F00103237039
:1049200023789F0706D401219A4A43F0020382F8B4
:1049300080152370627823781AB9DE0744BF0222FB
:1049400062705D075CBF43F0040323704FF0000A00
:10495000504621B0BDE8F08FFFF744FC8E4B01219B
:104960001E608E4B59208E4D1E60FDF7F5F98D4B64
:10497000EE662B6003F5C0436B602B6D0BB9FFF740
:10498000B9F96B6D1C22B3F5007FCCBF4FF4806387
:104990004FF40073002103A8AB6003F043FFF8203D
:1049A00003F0BBFB28B9F92003F0B7FB002800F0A7
:1049B000DD807D4DD5E90C3213432CD0D5E90C3286
:1049C000023342F10002B3F5803F72F100027ED261
:1049D00020260DF1280B102EB0464FF0010228BF03
:1049E0004FF010081027714911F8010D013F0244E2
:1049F0000A704FEA1222F7D10198FFF75DFD824657
:104A000070BB002E7CD1D5E90C21013241F10001AF
:104A1000C5E90C21DFE7AA6B654B9A42D8D0002389
:104A20001A46EA540133402BFBD10AAE3046FFF759
:104A300025FE80B93046FFF799FD002845D1034691
:104A40000246F2540133302BFBD100230122C5E989
:104A50000C23574BAB6303F086FC82460028ADD095
:104A6000FFF734FC2378580743F0010144BF23F0DB
:104A7000040343F001012170890719D5454D002633
:104A80002F464FF001094FF003082846C5F8209043
:104A900085F81C80013603F0F9FB202E05F12C056A
:104AA000F3D1002387F88035237823F002032370A5
:104AB000002304213F486370FEF768FE2378DA077D
:104AC00044BF23F00103237042E70E20C3E70AAE80
:104AD0003046FFF7D3FD80B93046FFF747FD8246E9
:104AE0000028BDD102460346B3540132302AFBD11F
:104AF00000220023C5E90C236AE76FF0920AAFE7B2
:104B000042465846019903F0AFFED5E90C21013227
:104B100041F10001B6EB0806C5E90C21C3447FF45E
:104B20005AAF3846FFF722FD8246002898D14FF44D
:104B3000807302A8029302F00FFE029BDFF878E078
:104B400005931E4BF82106931D4B0AAACDE903E3FA
:104B50001C4B03A80893FFF72DFA824620210AA8D0
:104B600003F0CFFABAF1000F7FF47AAFFEF718FF27
:104B70008246FFF7ABFBBAF1000F7FF473AF044B33
:104B8000C9F800302378C8E6882F002010030020E1
:104B900011736500042A00204825002044250020C8
:104BA000942900200020015088030020B803002031
:104BB000B4A5B4A58C2F0020002400010010C0046F
:104BC000014B4E80F800FF7F40292DE9F04104465B
:104BD0000E462FD80378033303F00303012B21D8AB
:104BE0006FF0210003F0BFFB054640B91349324680
:104BF000204603F039FE4021104803F082FA28468F
:104C0000BDE8F081637838462B44C8F80035FEF7DC
:104C100089FE68B901352378C3F382039D42F1D33D
:104C20000020DFE70025DFF818800649064FF2E78D
:104C30000220D7E76FF08905E1E700BF0000002000
:104C40000090045004910450049004502DE9F3475F
:104C50000E46DDE90A79694682461446984603F015
:104C600058FB002852D1BAF1F80346F1FF36022B67
:104C700076F10006C0F0B68003F0E5FA002845D1D1
:104C80009DF8006016F00F0240F0AF80BDF80230D2
:104C9000C3F3C113013BDBB2022B00F2A9805A49D6
:104CA00006F03006C95C594B102E43EA01036360DD
:104CB0002FD1574B2360204601A9FEF7DDFD28BB0D
:104CC000019BBB4200F29D8044F212122188914266
:104CD00004BF042208F8012BC9F800309DF8003009
:104CE00098F80020C3F3011363F3010288F8002051
:104CF0009DF8022008BF07F1FF37C2F30212042A11
:104D000049D8012A4BD851D06FF0980002B0BDE8C5
:104D1000F0879DF80310134610463E4A4908F9B93A
:104D2000019001A802F018FD9DF80230019A03F0ED
:104D30000F010A29A26061D147F2421112F4A05F6B
:104D400044F2421218BF0A46C3F302132280324AC9
:104D5000013BE260032B0FD8DFE803F00C16181AB2
:104D6000CD0704D5062B46D852F8235028434908CE
:104D70000133D4E7802363809DF8003013F0300FB7
:104D800099D16FF09600C1E7C023F4E7FF23F2E763
:104D90004FF48073EFE7052AB6D1032206E044F210
:104DA000121322889A4214BF02220422202E00D11C
:104DB000023298F8003088F801A062F3840388F882
:104DC0000030238803F44F42B2F5824F06D13946B2
:104DD000404602B0BDE8F047FFF7F6BEB3F5885F86
:104DE00094D1F4E76FF0860090E76FF088008DE7CC
:104DF0006FF091008AE76FF0830087E76FF0920011
:104E000084E76FF0890081E75D950000004B4E80DC
:104E100001108001F88E00000008000600232DE933
:104E2000F0417F4D0B6095F8802507460E468CB00B
:104E3000002A00F0EF8000F140421F2A66D82C23A0
:104E400003FB02552B7F022B55D031460020FFF784
:104E50006FF80446002870D10122336801465F6173
:104E6000336805A85A6035681C2203F0DBFC6F69C3
:104E70006C4A07F14043A3F580539342CDE90244C5
:104E800000F2BF80684B9F425BD001339F4258D0F5
:104E9000023B9F4255D0FFB2384604A903F039FACD
:104EA0000446002840F08580BDF81230C3F3C113DA
:104EB000013BDBB2022B00F29E805C4AD25C5C4B71
:104EC00013436A690693DBB20A9203B90A9000237E
:104ED000CDE900443846194605AAFFF7B7FE10F1A0
:104EE0008A0F044635D03068002C62D103F0CEF929
:104EF0006FF096042AE06B699842A6D1284603F029
:104F0000F3F80446B0B93560002416E0002840F3F9
:104F100084802A46117F022902D151698F4205D02F
:104F20000133202B02F12C02F4D18EE72C2202FB5C
:104F30000355E3E710F18C0F87D020460CB0BDE895
:104F4000F081306803F0A2F96FF08504002333602C
:104F5000F3E7069B374A4FEA1328B2EB132F02D030
:104F6000354B984547D102A905A8FEF785FC0446B4
:104F7000F8B928460299FEF721FC0446C8B9D5E9DC
:104F800009322C49884502D04B31884518D103A9F4
:104F9000CDE900213846002105AAFFF757FE044657
:104FA00088B1686A10B1A96AFEF7FAFB0023C5E967
:104FB0000933306803F06AF914F18C0FC6D123E08D
:104FC0006FF08B04EDE7039B05ACAB620FCC0FC514
:104FD00094E8070085E807003068083002F0BCFB61
:104FE00033681A7F012A12D0306803F07DF8044636
:104FF000002889D0AAE7306803F048F96FF08604EA
:10500000A4E7284603F042F96FF087049EE70222E6
:105010001A77E9E76FF088048FE76FF087048CE771
:10502000042A0020FFDFFF3F02C0FF7F5D950000E4
:10503000004B4E80004E80004B4E80002DE9F04F1B
:105040000D46002195B0DDE91E781646814602889E
:105050009B46C8F800103960002B69D04168484C65
:105060000B0AB4EB112F24D102A9D0F814A0FEF73B
:1050700003FC0446C8B9029B9B457AD35FFA8AFABF
:105080002A4651464846FEF795FF044668B9214630
:1050900033465046CDE900B703AAFFF7D7FD0446D3
:1050A00018B9BDF80E30C8F80030204615B0BDE87C
:1050B000F08F002B60D122F0FF02B2F5E24F1DD13C
:1050C0004388BBF11F0F039353D903A9FEF73EFE9C
:1050D00004460028E9D10246691E731E1F3511F8E7
:1050E000010F8D4203F8010F42EA0002F7D1FAB135
:1050F000039BC8F8003020233B60D6E7B2F5824F0F
:105100003AD14288B0F800A002920AF44F42B2F5B8
:10511000824F18BF4FF0000A691E03A81F3511F80F
:10512000014F8D4200F8014B43EA0403F7D113B954
:105130006FF08604B9E7BBF11F0F1AD9484602A9E0
:10514000FEF704FE04460028AFD15FFA8AF3122B63
:10515000EED0302BECD0334603AA0BAE154603CD70
:10516000B542186059602A4603F10803F6D1029B44
:10517000BFE76FF0890498E76FF0850495E700BFFB
:105180004B4E80002DE9F0411E46124B0C46036049
:105190004FF4DE7105469046069FFFF749F8B8B90F
:1051A000A8F1040804EB8606284658F8042F54F8A2
:1051B000041B03F06FF958B9B442F5D139462846BB
:1051C00003F097F920B92846BDE8F04103F0ACB9E7
:1051D000BDE8F081248D00002DE9F0431E462C4BE4
:1051E000ADF50D7DCDE90701CDE90536222120235E
:1051F0000DF13408CDE90913CDE90B32074603233D
:10520000CDF800800AAA06A91DA8FFF7BBFF044637
:10521000002837D1FD7FF37FED09DB091D494FEAF7
:10522000457503A818BF45F08045FFF737F8DDE95D
:1052300003943CBB2A46484617491DABFFF780F84C
:105240000446F8B9202241461D9802F0A5FF20220D
:105250001E9815A902F0A0FF38461F9902F0C8FF5A
:1052600020222098B11802F097FF3046219902F0D1
:10527000BFFF484602F0D8FFFEF7E4FC044648466C
:10528000FFF750F820460DF50D7DBDE8F08300BF17
:1052900028030020448D0000208F00002DE9F04FEE
:1052A00006460024ADF5617D02AF07F59670F96200
:1052B000FCF710FB33897289D6F80C801344DFF8B1
:1052C000FC919844A04500F2B68007F1AC0107F5C7
:1052D000967002F038F907F5967003F035F8FB6A1E
:1052E000002B00F0BA80F3683489F86A1C44214628
:1052F000042307F5967202F0A8FAB861002840F07E
:10530000AC8046F60812B7F82C117389914240F030
:10531000B480B7F82E11994240F09F800423F86AB8
:1053200007F59672214402F090FA002840F095802B
:1053300046F60713B7F82C219A4240F08E80738905
:105340005F4823443B623A6AB7F82E31C16D13447B
:10535000FB60436A5A684FF4C06303FB0121534268
:105360004F311940836A406D013B534342435B1AFE
:10537000521A934228BF1346FA689A426DD8231DE9
:105380004FF0FF34A046BB62FB68BA6A934240F21A
:105390007383738923B13B6A934204BF0433BB62B6
:1053A0000423D7E90A1007F5967202F04EFA002896
:1053B00053D1BA6AB7F82C31111D3A6AB7F82EB139
:1053C0008A4208D84FF6FF753E4830F8022BAA42B1
:1053D00043D09A42F9D1122B53D0242B76D0012BF3
:1053E00065D1BBF1400F38D85B46F86A07F16C0213
:1053F00002F02BFA88BB07F59670FCF76BFA2C22AB
:10540000314907F5967003F0A7F807F1EC0107F5AD
:10541000967002F098F807F5967002F095FF5A46DC
:1054200007F16C0107F1EC0003F02BFA041E18BF22
:10543000012464423BE0A8EB0405B5F5807F28BF5A
:105440004FF480754A462B462146F86A02F0FDF972
:1054500058B107F5967002F077FF4FF0FF384046DD
:1054600007F55F77BD46BDE8F08F2A46494607F548
:10547000967003F071F82C4424E7002B3FF458AFEA
:10548000EBE7BBF1400FE8D15B46F86A07F16C022D
:1054900002F0DBF90028E0D15A4607F16C0107F170
:1054A000AC0003F0EEF90028D7D10123BB61BA6A42
:1054B0000BF104031A44BA6266E700BFA637002066
:1054C0000C240020408F00001B940000002CEED123
:1054D000BBF1400FC1D15B46F86A07F16C0202F0E4
:1054E000B4F90028B9D1B7493023796307F14002F4
:1054F0002C3107F1340002F01BF9002840F0D7806E
:105500003B6C7D6B07F150021D442946302307F1A7
:10551000340002F00DF9002840F0C9807B6BEA1AD4
:10552000002A40F3C4801A7807F13400C7F8EC2051
:105530003A6D03EB02094946062307F1F00202F037
:10554000F7F8002840F0B380D7F83480D7F8F0405F
:10555000C7F8F48008EB040399457B6340F08F8023
:105560000C2107F59670FEF711F9032C40F09F808F
:1055700022464046944903F084F9002840F0978081
:105580002346294607F1400207F1340002F0D0F823
:10559000002840F08C803B6C002B00F08880D7F80E
:1055A00034805A1E98F800903A64B9F1000F7ED109
:1055B000434408F1010A9D42C7F834A077D1202A5C
:1055C00075D11C22494607F1500003F02BF9FFF773
:1055D0008BF900286BD144F24213A7F850304FF4F6
:1055E000006307F59670C7F82C3102F0B5F8774BD9
:1055F000D7F82C51FB65BD65C7F8EC9008F1200386
:1056000018F8012F984549EA0209F9D1B9F1000FBC
:105610004DD025F0031525F47F4555BB07F1EC016E
:1056200007F59670FEF784FC18BBD7F8EC8007F1FD
:10563000500EC446BEE80F00ACE80F009EE807001D
:105640008CE80700D7F82C31C8F81430D8F8283087
:1056500093B308F1280307F59679CDF804900093E9
:105660005146D8E9092307F15000FFF7E7FC7861BC
:1056700048B3D7F8EC00D0B102F008FE17E018F8F4
:1056800004200133C7F82C21494607F5987207F129
:1056900034007B6302F000F848B97B6BD7F8302107
:1056A000C7F83431134499457B633FF45EAF4FF044
:1056B000FF384FF0FF34FAE620214046FEF77EF82F
:1056C0000028C6D0D5E7B8F80220D9F80030002A63
:1056D00060D1A8F802304FF6F8729342C9D844F26C
:1056E0004213B8F800209A42C3D1D8F81430FB61B5
:1056F00098F81C30012BBCD10223F86988F81C30C3
:1057000007F13801FFF78AFB002847D0FB69002B1F
:10571000CDD0F86907F1EC01FFF780FBB0BBD7F8FB
:10572000EC8098F81C30022B2DD10323D8F804000C
:1057300088F81C30C1B2FF2925D0D8F81420DFF832
:1057400090C002F14043A3F5805363451BD8214B21
:10575000B3EB102F17D1032915D05FFA82F9484611
:1057600007F5967102F0D5FD68B997F82E31D7F894
:105770002C21C3F30213042B00F24A81012B00F207
:10578000708100F07781404602F0A0FD7B6903F153
:10579000FF388EE79A427FF46CAF9CE7BA6B916852
:1057A000B2F800A0080509D55046D168FEF76CFB99
:1057B00090B950461169FEF767FB68B9104602F0D0
:1057C00085FDA3E71B940000479500000008000634
:1057D000FFDFFF3F4B4E8000536A5168A948BB6012
:1057E000936AB0EB112F7B604FEA112905D0A649CF
:1057F000894502D0B9F1000FE0D10AF44F41B1F56B
:10580000824F5AD12AF0FF08B8F5824FC7F824D04A
:1058100002D0B8F5E24F50D15FFA8AF042285188A1
:1058200042D101F10802D208073222F00702ADEBA3
:10583000020D02AB3B61002307F13C02FB63FDF765
:10584000D3FF002837D18F4B994534D0B8F5824F1C
:1058500038D1D7E90121386903F006F8FB6B5B68A2
:10586000202B28D1402207F16C03386907F1AC01E5
:10587000FFF7B2FC02F077FD10F1860F8146D7F8F2
:1058800024D01AD0B86B02F021FD8046B9F1000F88
:105890007FF43CAF00287FF439AFFB69002B3FF465
:1058A00008AF01237B6134E7CA1D41284FEAD202C9
:1058B00005D1002AB8D1D7F824D0B86B7FE75200C1
:1058C0000132B1E7BB6807F1EC0A3B64202307F122
:1058D00044027B6407F140010123CDF800A007F5E5
:1058E0009670FFF74FFC8046002840F08A809AF8B7
:1058F000003007F22B1123F007038AF800309AF8E2
:105900001F3003F07F0343F040038AF81F301F234A
:10591000CA1A013B82F80080FAD25C4907F14800BC
:10592000FEF7BCFCD7E91298B8F1000F69D14246E6
:105930004846574907F59673FEF702FD8046002852
:105940005FD120225146D7F82C0102F025FC2022FD
:1059500007F58671D7F8300102F01EFC484602F0C8
:1059600063FCFEF76FF9D9F810108046D9E90130D1
:105970004A680968C90003D5D9F80C10411A0B44CC
:1059800000210DE012F0010F08D00B2901D902F01F
:1059900041FF01F1060C49F82C300131034452104B
:1059A000002AEFD1D9E906E307F5867C03F1200A46
:1059B000624618685968083303C253459446F7D1C4
:1059C0009EF8002097F82B31484643EAC21387F827
:1059D0002B31FEF7A7FCB8F1000F12D13A6907F599
:1059E000867C07F5967E634603CB73451060516055
:1059F0009C4602F10802F6D1402107F1EC0002F0CA
:105A000080FB404602F0AFFC00283FF427AF52E78E
:105A1000052B7FF4B8AE02F03003202BDFF874A022
:105A20001D4908BF023409EB05031C48CAF80035BC
:105A3000FDF778FF00287FF4A6AE0135AC42F2D125
:105A4000FDF7AEFF18B94021154802F05AFB294670
:105A50004846FEF743FA00287FF495AE02F0F3FBC8
:105A600091E644F21213B8F800409C4214BF02249D
:105A70000424D0E70124CEE7BB69002B7FF4EFAC10
:105A8000EBE400BF004E80004B4E8000588D0000BC
:105A9000208F0000009004500491045004900450A2
:105AA000000000200C22104B014602FB00330020B6
:105AB00030B4D3E915525865EFF31180202484F3F4
:105AC0001288BFF36F8FDC6D04F0C00444F0020451
:105AD000DC6580F31188BFF36F8F1DB12B4630BC9E
:105AE0000248184730BC7047AC24002014890000DD
:105AF0002DE9F743DFF8D49007460E46C84641B17A
:105B00000024304601F0BBFD28B123461C4600218D
:105B100024E00B46FAE7FEF7A7FE20B101A901F049
:105B2000AAFE054638B10120012C01D107B9002099
:105B300003B0BDE8F083D8F82430019A59680346D1
:105B40000B449A4205F10105FAD87379012B0CD167
:105B5000E4B932682346AA4298BF21462C2202FBB0
:105B60000383186AB0B902F055FE022BCDD1336819
:105B7000012B04D9AB42C8D884F00103C7E7C4D1D4
:105B800034B13379023B18BF0123C0E72346BEE797
:105B90002346E3E720234A4601F057FE0028C2D1FE
:105BA0002EB9012CC3D0012309F12C09AEE7D9F895
:105BB0000020074B9A4205D1012CB8D0012409F1ED
:105BC0002C099EE74FF0FF30AEE700BF0C24002009
:105BD0003DB8F39630B585B06946052002F029FA44
:105BE00000283BD1012002A902F023FA012833D179
:105BF00003238DF808308DF80B3000219DF800004C
:105C00009DF80840214B1A78042A05D0052A27D18F
:105C1000421E18BF012292B35A78042A05D0052AE1
:105C200025D1621E18BF01224AB39A78042A03D0F4
:105C30009DF80350954222D1DA78042A03D09DF8CA
:105C40000B5095421BD11A79042A14D15879831E1E
:105C5000022B03D805B030BD0028CED0FF20F9E7D5
:105C6000A2EB000CDCF1000242EB0C02D3E7151BA7
:105C70006A426A41D8E79DF802509542E6D0013168
:105C8000032903F10603BED10120E3E74B95000091
:105C900010B5204C2048FBF79FFEA36A990137D529
:105CA0001E48FBF799FE1E20A36ADA0103D51C48A3
:105CB000FBF792FE1F20174CA36ADB0203D519489D
:105CC000FBF78AFE2020A36A1C0303D51648FBF7C6
:105CD00083FE21200F4CA36A590303D51348FBF719
:105CE0007BFE2220A36A9A0303D51148FBF774FEBA
:105CF0002320084CA36ADB0303D50E48FBF76CFE98
:105D00002420A36A6FEA03436FEA1343A36210BD22
:105D10001D20C9E700ED00E0AF910000C891000030
:105D2000DC910000F79100002292000041920000F7
:105D3000679200008292000070B5244C0646244809
:105D40000D46FBF749FEA36AD90435D52148FBF778
:105D500043FE1720A36A1A0503D51F48FBF73CFE34
:105D600018201A4CA36A9B050FD51C48FBF734FE7C
:105D7000A16BA36A180407D51948FBF72DFE1EB1C5
:105D8000A36A23F40043A3621920104CA36A5905A7
:105D900003D51448FBF720FE1A20A36ADA050DD5B7
:105DA0001148FBF719FE1B20084A936A43F47F430E
