:020000040000FA
:10000000D85F002079680000977D000065680000D7
:1000100065680000656800006568000065680000AC
:10002000000000000000000000000000D96800008F
:100030006568000000000000656800006568000059
:100040008D0900008D0900008D0900008D09000058
:100050008D0900008D0900008D0900008D09000048
:100060008D0900008D0900008D0900008D09000038
:100070008D0900008D0900008D0900008D09000028
:100470008D0900008D0900008D09000053B94AB9AB
:10048000002908BF00281CBF4FF0FF314FF0FF309C
:1004900000F00CB8ADF1080C6DE904CE00F008F8DE
:1004A000DDF804E0DDE9022304B07047704700BFC7
:1004B0002DE9F04786468C460846089E1546744648
:1004C0001946002B40F0C1808542B2FA82F245D92C
:1004D0004AB1C2F1200300FA02FC954094402EFA82
:1004E00003F343EA0C0C4FEA154EA8B2230CBCFBF5
:1004F000FEF80EFB18CC08FB00F943EA0C439945C3
:1005000028D9EB1808F1FF3704D2994502D9A8F190
:1005100002072B44A3EB0903A4B2B3FBFEFC0EFBC2
:100520001C330CFB00F044EA0344A04214D92C19FC
:100530000CF1FF3304D2A04202D9ACF102032C44E7
:10054000241A43EA07401EB1D4400023346073608C
:10055000BDE8F0874746DDE76346F1E792BB431B02
:1005600001214FEA154EAFB2200CB3FBFEFC0EFB8F
:100570001C330CFB07F840EA0343984561D9EB189C
:100580000CF1FF3004D2984502D9ACF102002B44A3
:10059000A3EB0803A4B2B3FBFEFC0EFB1C330CFB65
:1005A00007F744EA0344A7424DD92C190CF1FF3355
:1005B00004D2A74202D9ACF102032C44E41B43EA63
:1005C0000040C0E7C2F120039540944020FA03F1B7
:1005D0002EFA03F34FEA154E9040AFB20343B1FB3E
:1005E000FEFC0EFB1C10190C0CFB07F841EA004145
:1005F000884522D969180CF1FF3004D2884502D908
:10060000ACF102002944A1EB08019BB2B1FBFEFC56
:100610000EFB1C110CFB07F743EA01439F420ED966
:10062000EB180CF1FF3104D29F4202D9ACF1020168
:100630002B44DB1B41EA004193E76046E3E7614658
:10064000F7E76046A4E76346B8E7834206D916B9E0
:10065000002108467CE7C6E900E0F9E7B3FA83F732
:100660008FB9834201D3724508D8BEEB020460EB18
:10067000030301209C461EB9002169E73846FAE7CA
:10068000C6E9004CF8E7C7F1200CBB400EFA07F5AD
:1006900022FA0CF42EFA0CF1BA401C4320FA0CF3A7
:1006A000B8404FEA144901431FFA84FEB3FBF9F83E
:1006B00009FB18300B0C08FB0EFA43EA00439A457D
:1006C00040D9E31808F1FF3004D29A4502D9A8F1C5
:1006D00002002344A3EB0A0389B2B3FBF9F809FB38
:1006E000183308FB0EFE41EA03418E452CD96118F0
:1006F00008F1FF3304D28E4502D9A8F10203214448
:1007000043EA0040A1EB0E01A0FB02984145CE4612
:10071000434602D306D14D4504D20138B9EB020E4F
:1007200068EB0403002EA7D0B5EB0E0261EB0301CA
:1007300001FA0CFC22FA07F3F9404CEA0303C6E97C
:10074000003199E74046C5E74346D9E72DE9F04730
:10075000058B04462807904612D4022905F00705A8
:1007600040F0CD80204606F0A0FA80B10138218B00
:10077000042800F29F80DFE800F0C29D657D8D00B7
:1007800001290CBF45F0100545F02005258388F3AD
:100790001188BFF36F8FBDE8F08701F007035A1F80
:1007A000012A1CD8002221F00701062B276889B2F4
:1007B000C4E9002209D13B4603E0628B0132628327
:1007C0001B68002BF9D141F002012046218306F07D
:1007D0006CFA002800F0A18041F020019CE0042B7D
:1007E0000AD121F0070189B22046218306F05DFA83
:1007F00010B141F020012183218B01F0070AAA45A5
:1008000075D00027B946A368002B00F08E8041F018
:100810000801218388F31188BFF36F8FA168002935
:1008200000F08C800D68002900F088803346524625
:100830002046D1F80480C047002D48D02B682946B7
:100840001D46F0E7236921F0070141F00601062D5E
:10085000D3F80090218335D1B9F1000F47D041F092
:100860000801218388F31188BFF36F8F20463D492B
:10087000C84731E021F00701236941F0040189B242
:10088000042DD3F804902183E6D000274FF0040A0A
:100890003E46B8E721F00701236941F0050189B21E
:1008A000052DD3F808902183D6D000274FF0050AF4
:1008B0003E46A8E701F0070AAA4518D00027B94626
:1008C0003E46A0E700274FF0060A3E469BE72B4630
:1008D000B5E7B9F1000FC9D1EFF31188202383F3F5
:1008E0001288BFF36F8F238B23F008032383258B9C
:1008F000EA062ED525F01003238305F00705666967
:10090000218B002EBFF649AF00232768C4E90033CE
:1009100021F0070141F001012183218B4FF00009F3
:1009200001F0070AAA457FF46EAF002F94D041F082
:100930000801218388F31188BFF36F8F002FC8D07F
:100940003D68394633465246204606F09CF92F460C
:10095000F4E7AB067FF51BAF25F02003238305F0FA
:100960000705FFE6E36C0000002318460649D1F8AE
:100970009020C2F30722934200DB7047C1F8983001
:10098000C1F8A0000133F6E700ED00E0EFF30583C6
:10099000034A103B02EBC301496852F83300084791
:1009A00088A7000030B5104CD4F89030C3F307236B
:1009B000013B984215D80D7A0B6805F01F0223F011
:1009C0001F031A43CB686D0923F01F0343EA450355
:1009D00043F00103C4F89800C4F89C20C4F8A03088
:1009E00030BD6FF01500FBE700ED00E0244B254A19
:1009F0004FF47A611A600122234B2448C3F804247F
:100A0000D0F82436C3F30802C3F309434B4382F4FE
:100A100080721F49883201FB02334FF4FA215B00D8
:100A2000B3FBF1F201FB12331A49B3F57A3F28BF49
:100A30000132C1F80429D0F820364FF47A60C3F3AC
:100A40000802C3F30943434342F21C5082F480720C
:100A500002F2172200FB02334FF47A701B0AB3FB39
:100A6000F0F200FB1233B3F5FA7F4FF0010328BF19
:100A70000132C1F81C270020C1F80036704700BFC2
:100A80007C0100200020A107002008E000C0FF003A
:100A9000F82A008000001250084B70B5C31A0D46AA
:100AA00007499B10044659434022064806F06CF95A
:100AB0002B4601462046BDE8704018471024002010
:100AC000B76DDBB628880000402373B50B4C00934C
:100AD000041B0B460D460A49A41061430646094A09
:100AE000094806F07DF9011E05DA30462B4602B0B2
:100AF000BDE87040184702B070BD00BF1024002050
:100B0000B76DDBB6516E0000288800000023024A52
:100B10000020C1E90023704700D01700004870474B
:100B2000008C0000024B0B6001231360704700BF74
:100B3000F88B0000024B034A0020C3F80C257047D5
:100B400000B0045080000080014906F0B8B900BF31
:100B5000E375000000487047F08B00004209022A4C
:100B6000034670B503D0012A18D0CAB170BD0E4E2D
:100B7000326951680029F9D0012503F01F030C6880
:100B80009D400029F2D08A682A4002D030464B6846
:100B900098473CB1236821461C46F2E7034EE7E73D
:100BA000034EE5E72346F6E7688800004888000022
:100BB0008888000070B5EFF31181202383F3128839
:100BC000BFF36F8F4FF0FF346FF04040074DD5E912
:100BD0000023944270EB0306F9D381F31188BFF32D
:100BE0006F8F1046C3F3130170BD00BF40270E5036
:100BF00038B5EFF31185202383F31288BFF36F8F8D
:100C0000124B1B6803BBFFF7D5FF114AD2E9003234
:100C1000C01A61EB0201400940EAC1630D4AD2E902
:100C20000004181844EBE37485F31188BFF36F8F49
:100C30004FF47A71A0FB010547F61222002301FB55
:100C40000451FFF71BFC38BD0023E7E70424002014
:100C5000D0010020D8010020064BD3F840231C2AE5
:100C600005D1D3F84403431E584258417047002031
:100C7000704700BF00C0FF00034BD3F84003A0F152
:100C80001C0358425841704700C0FF0003689A0790
:100C90000CD50368DB070DD50922074BC3F80C25DB
:100CA0000F22C3F8042501221A60FEE7034B0360FC
:100CB000EF3B0360704700BF00801050F000FA5017
:100CC00010B50368CB40DB0710D401238B400268CA
:100CD00043EA0201D0E8EF4F944204D1C0E8EC1F90
:100CE000BCF1000FF6D1F2D1014810BD0148FCE77C
:100CF0000000AD0B0400AD0B034A4309D35C00F0C8
:100D00001F001844C0B27047ADA3000010B50446E0
:100D10000846FFF7F1FF3C22237902FB0300034B57
:100D2000083033F81000C0F3401010BD1423002029
:100D300010B504460846FFF7DFFF3C22237902FB8B
:100D40000300034B083033F81000C0F3400010BD1F
:100D50001423002010B504460846FFF7CDFF3C22BF
:100D6000237902FB0300034B083033F81000400BDB
:100D700010BD00BF1423002070B505460846FFF7DC
:100D8000BBFF3C212A79184B01FB0202083233F8E1
:100D90001200C10526D578240026C0F3432120F493
:100DA000F85023F812002A7904FB02340E3434F888
:100DB000020F10F4807F03D0C0F34320814211D092
:100DC0000136232EF3D10020C2EB02120A4443F86D
:100DD000320078202A79BDE8704000FB0230603094
:100DE000FFF76EBF70BD00BF1423002070B505462D
:100DF0001446FFF78BFF70B10846FFF77DFF3C22DA
:100E00002B7902FB0300054B083033F810300448FF
:100E10005B0B237070BD0348FCE700BF1423002068
:100E20000000AD0B0400AD0BF0B50646002487B002
:100E3000114F019117F8012B06AB03EBD20313F806
:100E4000143C02F00702D34013F0010306D1013431
:100E5000032CEFD10023184607B0F0BD074A03ADBD
:100E600007CA85E8070055F824100A6A46F82420C6
:100E70000A62002AEBD0EEE7AAA3000080890000F6
:100E8000012303FA00F010F0670F0AD0064B5B68ED
:100E9000DB4303F067030342044B054818BF1846C1
:100EA00070470448704700BF800000200000AD0B71
:100EB0000400AD0B0800AD0B48B1054B054A1B689B
:100EC000B3FBF2F35843044B43F001031847704758
:100ED0007C01002040420F00908900000128F7B5F6
:100EE000054615BF04207120142204222C4918BF86
:100EF0004FF48473C1F808034FF0010008BF4FF4AA
:100F0000807302F1A04202F587121060002203F103
:100F1000A04303F587131A601B68FFF7ADFE044674
:100F200028B1012D1AD1CD600DF1070401E0012D8A
:100F3000FAD0002342F21076194F8DF80730012DB8
:100F40001CD0D7F84C3403F480334CB923B10120C2
:100F5000FFF7B2FF013EF2D103B0F0BD1446E8E75F
:100F6000D7F84C2402F003022270002BF4D09DF835
:100F70000730002BEBD0012DEED106E0D7F80C3472
:100F800003F480332CB9002BE1D10022054B5A71B8
:100F9000E2E7002B0CBF012300232370E7D1F4E725
:100FA00000E010500824002010B5EFF31184202336
:100FB00083F31288BFF36F8F074A136823F002018F
:100FC000DB07116002D40120FFF788FF84F311884A
:100FD000BFF36F8F10BD00BF60240020012838B51B
:100FE000304A0546304C40D0D2F84C14D2F84C343C
:100FF000C80322D503F00303012B04D013B1002052
:10100000FFF76CFF2B46274A0420C2F84034102219
:101010004FF48473002103F1A04303F58713196093
:101020001D68012502F1A04202F5871215602268B1
:101030008AB31C4BC3F804030CE0D2F84834D90738
:10104000E0D5D2F850349B07D9D423681BB10423D0
:10105000C2F8043338BDD2F80831002BFBD000238E
:10106000C2F80831D2F80831F4E70023C2F8103191
:10107000D2F81011C2F81831D2F81811C2F8143190
:10108000D2F81431FFF7F8FD00B1956000224FF45B
:1010900080737120BEE71A68002AFCD019601B68B3
:1010A000D8E700BF00E0105008240020124B70B5B4
:1010B00053F82050013053F82060AE4200D870BD84
:1010C0006C68B4B1237FDB0711D4636953B1204648
:1010D000984738B10028B8BF4042FF28A8BFFF207A
:1010E000E3681870E268537843F0010353700835E1
:1010F000E3E72B689847FAE7BC8B000001680E4ACB
:101100000346914215D1C169A2F11022A2F1EF125A
:1011100091420ED18268012A0BD8C26812B10169CE
:101120008A4206D0586928B19B691B1A5842584117
:1011300070470120704700BF55AA00FF70B50D4BE6
:101140009E68A6B13046FFF7D9FF044678B9F36828
:101150006BB935690DB9204670BD2846FFF7CEFF43
:1011600028B9EB68B34202D12E462D69F2E701247B
:10117000F1E700BFC82200200022144B10B51A600E
:10118000134B144A00211A60134B144A1A60144B73
:1011900013F003020FBF4FF4006402F2FC74C2F1BB
:1011A00004029B181846224607F0C7FA0D4A0E495A
:1011B000C2E900040160A1F11021203CA1F1EF116E
:1011C00090604460C161D060002010BDD822002032
:1011D0005C010020CD16000058010020B917000066
:1011E000D02E0020C822002055AA00FF30B5046888
:1011F000ACB1B4FA84F30122C3F11F03DBB29A400D
:1012000024EA0202D0E8EF5FA54204D1C0E8EC2F47
:10121000BCF1000FF6D1EAD102480B7030BD024894
:10122000FCE700BF0000AD0B0200AD0B70B5002560
:101230001E4C1F4ED4F80C3303B970BDB3FA83F3C0
:10124000C3F11F039A0002F5807292B202F1A0422C
:1012500002F58712156012680122D8B202FA03F370
:10126000DBB2102BC4F8083311D0402B1BD0042B59
:1012700016D1D4F84C14D4F84C14890710D1C4F802
:101280004024C4F804332261D4F80C33D4E7022399
:101290007371C4F81451D4F814312023C4F8043302
:1012A00033689847F0E77571FAE700BF00E0105027
:1012B0000824002070B5164D1446A84225D8C0F564
:1012C000BE1303F580539A421FD8C2B140F20113F6
:1012D000104DC5F80035A1B107F051FABFF35F8F8B
:1012E000D5F81834DA0705D4230703D00123AB60FF
:1012F000BFF35F8F4FF48072064BC3F800250020C8
:1013000070BDFF2107F019FAE8E76FF01500F7E765
:10131000FFCF170000B0045010461A46084B10B516
:10132000994209D8C1F5BE1404F58054A24203D8ED
:1013300007F025FA002010BD6FF01500FBE700BF95
:10134000FFCF170010B4EFF31182202383F312882C
:10135000BFF36F8F1648016841F002040460C807AC
:1013600007D482F31188BFF36F8F012010BCFFF701
:1013700035BE1049D1F80C14C903F2D5EFF3118032
:1013800083F31288BFF36F8F0B490B6C03F0C0031C
:1013900043F002030B6480F31188BFF36F8F82F375
:1013A0001188BFF36F8F002010BC04F0DFBD00BFB9
:1013B0006024002000E0105010240020012270B5AD
:1013C0004549D1E8EF3FC1E8E02F0028F9D13BBB08
:1013D00042498A608A684B6002F00302012ACB60AE
:1013E0001ED1CB608A68032A1AD8EFF31185202218
:1013F00082F31288BFF36F8F4FF6FF763848848EE2
:1014000004F00702C48EB4423FD0022A2AD101342C
:10141000C48685F31188BFF36F8F1C3005F033FC51
:10142000EFF3058010B92F4B1B789BBBEFF31180B6
:10143000202383F31288BFF36F8F01212A4A2B4C9C
:10144000D2F84C54D2F84C34ED0329D503F0030301
:10145000012B25D100293AD080F31188BFF36F8F7B
:10146000002070BD5124D440E6070ED50B60036AFE
:1014700043B9C0E9071142B92A4602211C48FFF7C7
:1014800065F9CDE719600162F5E785F31188BFF3CF
:101490006F8FC5E70422144B0146C3F80823CDE73C
:1014A00005F038FCD2F8403413F0FF03C8D1D2F86D
:1014B0000851002DC4D0C2F80831D2F808312025D7
:1014C0000123C2F84034C4F8A0511361B8E70423E3
:1014D000C2F80433C4E700BFEC220020DC22002065
:1014E00010240020D036002000E0105000E100E081
:1014F0002C2400202DE9F04714461E46FFF75AFB26
:10150000A042B141C0F0CA80674DD5E90012641A0B
:1015100024F01F0366EB02065B1842EB0602C5E9E6
:101520000032EFF31182202383F31288BFF36F8F11
:10153000DFF878914FF0000AD9F800005C4F484579
:1015400008BF0020640944EAC6645A4E3C609046D5
:10155000D6E900213B6848B3C4689C4202DDE41A26
:10156000C46023E0A21841EBE471C0F80CA0C6E906
:101570000021D0E9003213605A60C0E900AA88F364
:101580001188BFF36F8F83689847EFF3118820238A
:1015900083F31288BFF36F8F3B68D9F800001B1BE1
:1015A000484542463B60D2D1D6E900219A1841EB2A
:1015B000E37100233B60D9F80030C6E900214B45B8
:1015C0006ED0002B6CD0DC6824EAE474FFF7F2FAEA
:1015D000D5E900252026801A61EB0501C4FB060130
:1015E000354C4028277A71F1000328BF20F01F06F0
:1015F000384638BF0021FFF743FC304B984249D1B1
:101600004FF0000E2E4BDFF8BCC0961903EB07021B
:1016100092F854000CEB0712C2F82CE54FF00C02C4
:1016200045EB0101012502FB003022680775C2600D
:10163000626802619A6805FA07F002439A60EFF364
:101640001180202282F31288BFF36F8F277A1E4AFF
:10165000BF0042F807E0227AC1F31301120102F140
:10166000A04202F56222C2F82065C2F8241580F378
:101670001188BFF36F8F227A883305FA02F2D3E81C
:10168000EF0F1043C3E8E10F0029F8D1237A9D4002
:10169000CCF8245388F31188BFF36F8FBDE8F0872F
:1016A0006FF0004492E700BFD001002060010020ED
:1016B00004240020D8010020680100200000AD0BA8
:1016C0008000002000200E5000210E50F8B5384D4B
:1016D0002B68EE68D3B1AB68C3B1002860D0002995
:1016E0005ED001FB00F4B4FBF0F0884258D1211D1C
:1016F00056D8A2070CD024F003020432334603E08C
:10170000586890424ED29B69002BF9D11846F8BD1B
:101710002246F3E7801A232803F120061CD8012271
:101720009A60D3E90512A9B18A619A690AB1596927
:1017300051610022C3E905222B69DB0703D5FFF7BE
:10174000FDFC002831D122460021304606F0F5FF8D
:101750000346DBE7EA60E8E702F1200C03EB0C014B
:101760002038C1E90107CB601869124F086143F8BE
:101770000C70A7F11027A7F1EF17CF6100B1C1607E
:10178000586948619F698F6140B18161886900B182
:10179000416101201961C3E90120CAE7E960F5E769
:1017A0000023B3E79F68002FB4D0012005F020FA92
:1017B000C822002055AA00FF70B50546002840D079
:1017C0003B4E3368002B3CD0B268002A39D08342AC
:1017D00003D872681344984202D3012005F008FA36
:1017E000A0F120042046FFF789FC0028F5D155F828
:1017F000183C012BF1D155F8143C45F8180C0BB3EB
:101800009A68FAB955F81C2C02F120015A680A446A
:101810005A6055E905321A6155F8145C2B6903B119
:10182000DD6020220021204606F087FF286908B1EC
:1018300083684BB333699B0703D5FFF77FFC002810
:10184000CBD170BD55F8100C00282AD0836843BB5B
:101850004268636813442033636003692361D4E9F9
:1018600005239AB9CBB9436963618269A261B3B1B7
:101870009C61A36903B15C61236903B1DC60202230
:10188000002106F05AFFD5E72C46E1E79361A369F2
:10189000002BE8D062695A61E5E7F360F7E7F4608E
:1018A000E7E7F36845F8083C03B15C61F460C1E721
:1018B000C8220020F7B5284B284CD3F82C6304F13C
:1018C00088070EB903B0F0BD96FAA6F00123B0FA6E
:1018D00080F08340DA43224926EA0306231893F86E
:1018E0005450830019440C2303FB0543DB6873B396
:1018F000D7E8EF3F03EA020CC7E8EECFBEF1000FD6
:10190000F6D1C340DB0719D5020102F1A04202F56E
:101910006222D2F82435D2F82025D1F800C0BCF1DB
:10192000000FCED04FF0000CC1F800C00C2101FB1D
:10193000054529690091E9688847C2E705F10C036C
:1019400004EBC30C54F83320DCF80430E5E70A68F4
:10195000002AB6D00B60B4E700200E5080000020B3
:1019600000210E5038B5044605F066F925688DB99A
:101970004FF412722946201D06F0DFFE084B284660
:101980006360012384F848328023C4F8C4310523FE
:10199000236038BD204606F062FC6FF08800F8E74F
:1019A000208C00002DE9F0412D4C002624F0070486
:1019B000C4F1005303F58023B3F5802F2CBF082218
:1019C00004229D1A254425F007052D1BED08254B03
:1019D00029462046A560E6601C6005F0F3FB421D29
:1019E0009200013002F107074FEAD7073146A2F112
:1019F000100204F11000B8BF324606F09EFE3A46CF
:101A00003146204605F037F9334632463146204606
:101A100005F026F9A5EB070820463146012206F01D
:101A20009CF84246394605F026F93B46324639468F
:101A3000204605F015F92946204605F01CF94346D5
:101A400032462946204605F00BF920460122294658
:101A500006F083F8394606F098F83046BDE8F08184
:101A6000DF670020642400200FB430B587B00AACD3
:101A700054F8045B1022002102A8019406F05DFED8
:101A800002238DF80A30064B2246294602A803930A
:101A900004F064FF07B0BDE8304004B0704700BFF9
:101AA000836C000005460C4608B599B1D1E90123C5
:101AB00013480968FFF7D8FFD4E90423E168114807
:101AC000FFF7D2FFE1691048FFF7CEFFA1690F4889
:101AD000FFF7CAFF012D05D1EFF305810C4810393E
:101AE000FFF7C2FFEFF31183202383F31288BFF3C4
:101AF0006F8FEFF3118283F31288BFF36F8FFEE7CE
:101B000076A10000A6A10000D6A10000E6A1000079
:101B100015A20000002310B50B4A147884420AD0A5
:101B200001330B2B02F11002F7D16FF0010010BD51
:101B300000200A60FBE7D06805F0E0F80028F7D144
:101B40006FF01200F3E700BF0C8B00002DE9F041AD
:101B50005B4B04465F6800258AB0C7F3080685F32F
:101B60001188BFF36F8F02F07F43B3F17F4F06D12F
:101B700002F00C03082B13D15248FFF775FF002524
:101B80002C464FF00008F31E8DF80780092B00F259
:101B90008380DFE803F00A777B7381818181817F15
:101BA00010074CBF0C460125EBE74748444EFFF7B2
:101BB0005BFF8DF80780F36A9A0704D54348FFF767
:101BC00053FF00232FE0F36A002B01DA4048F6E7C9
:101BD000F36A5B00F5D53F48FFF746FF7369A269DA
:101BE00043F480737361BFF34F8FBFF36F8F7369DB
:101BF00032F8022C23F480737361BFF34F8FBFF36D
:101C00006F8F4DF602739A4208D0B36ADBB23BB3D2
:101C100001200DF1070104F04FFB31E021682E484F
:101C2000FFF722FF23689DF80720002A45D102AE66
:101C300004F12007324620686168083403C2BC42C0
:101C40001646F7D1099A9DB3C2F3080121B96FEA8C
:101C500052226FEA42220992184602A9FFF722FF98
:101C6000B36A13F47F4F05D001200DF1070104F092
:101C7000C7FA05E0B36AB3F5803FA2D304F06CFA6B
:101C80000346D0E700200DF10701C4E700200DF165
:101C90000701ECE7114892E7114B17F4F87F11495F
:101CA000114818BF1946A6F11002FFF7DDFE88E7BC
:101CB00022F4FF7222F00102CDE70AB0BDE8F08104
:101CC00000ED00E057A2000083A200009BA20000EC
:101CD000BDA20000CCA20000ECA2000009A30000FD
:101CE0003EA2000029A200002EA3000010B572B68B
:101CF000002484F31388FEF737FE23464FF0FF30AD
:101D00000C4A03F120010133102B42F82100F8D1D5
:101D100000234FF0FF30074A03F160010133102B1D
:101D200042F82100F8D162B6BFF34F8FBFF36F8F37
:101D300010BD00BF00E100E0002807DB01234109DE
:101D4000034A00F01F00834042F82130704700BF73
:101D500000E100E000280CDB01220649430900F005
:101D60001F008240203341F82320BFF34F8FBFF381
:101D70006F8F704700E100E02DE9F84304460679D3
:101D800000681E4DC0F30830FFF7E4FF24237343BF
:101D9000EB5853B123681A4A06EBC601C3F808236F
:101DA000206805EB810105F0F2F9242707FB0657AF
:101DB0002368D3F80006D3F80486D3F80896BB7FCF
:101DC000DB0714D405F040FD484605F03DFD4046D4
:101DD00005F03AFD386A05F037FD2368D3F80C06A4
:101DE000D3F8104605F030FD204605F02DFD2423E4
:101DF00003FB065500232B77BDE8F883F022002073
:101E00000700F81F0028ACBF00F16040064B4FEA06
:101E10004111C9B2ABBF00F5614000F00F0080F87E
:101E200000131954704700BF14ED00E0F8B502210B
:101E3000054640F20510FFF7E5FF174B1A7922BB64
:101E4000164A1A6001221A71154B1B6A9B0603D4AD
:101E500040F20510FFF770FF0024124BC3F8404416
:101E60002B69ABB11C222146184606F066FC012600
:101E70001C220D4F066407612D692146A81806F043
:101E80005CFC2046EF62EE64F8BD6FF00400FBE7F7
:101E90006FF01500F8E700BF08240020CF750000A0
:101EA00000E100E000E01050088C00002DE9F04156
:101EB000466807463369002B3AD0782096F814809C
:101EC000234D00FB085393F874408CBB1846462200
:101ED0002146103006F031FC317D1E4A336952F83C
:101EE00031C021468C4529D10024C3F84441D3F8A0
:101EF0004421C3F30833581CFFF71EFF7823012247
:101F000003FB085888F87420C8F86020327D124915
:101F100003FB02529160327D022103FB0255DB205C
:101F2000EC60FFF76FFF022140F20D10FFF76AFF30
:101F30003846BDE8F041094904F0C1BFCAB2920079
:101F400002F58070442A04BF1C501A580131C9E7B9
:101F500014230020D48B00005D0B0000916F000063
:101F60002DE9F3410221E420FFF74CFF6E4B6F4C4B
:101F7000D3F8182722F44032C3F818272278002A11
:101F800040F0C580D3F8101521F00201C3F81015F8
:101F9000D3F8101541F00101C3F810150521C3F85D
:101FA000A4160421C3F8AC160723672101F0010031
:101FB0000244013BD2B24FEA5101F7D1052A40F069
:101FC000A68019464FF0010C584E00256720CFB26D
:101FD00004E00CFA02F220EA0200013590FAA0F2C5
:101FE0005FFA85FE7745B2FA82F2F2D80131327596
:101FF0000529224482F8547006F10C06E5D101212E
:1020000000254B489A0801FA02F212F0670F18BF38
:102010001D500433302BF5D1E420FFF78DFE424BE9
:102020000027D3F8102503F5C07322F00202C3F88D
:10203000902340F6FF72C3F8A8213E4A1F60A3F523
:102040008071043393420F60F8D14FF00108364D90
:10205000394EC5F860803068384BB0FBF3F05D2333
:102060005843374B43EA080398476368354903EA06
:10207000080301A8019384F80080FFF7B7F8324BFA
:1020800098424BD1314B1F72636823F001036360A8
:10209000A36843F00103A360D5F81035980736D440
:1020A000D5F8103543F00203C5F81035D5F84827A8
:1020B00012F0010202BFD5F8483743F00103C5F81A
:1020C0004837194BD3F84017D3F844174900F9D4CF
:1020D0002AB9D3F8482722F00102C3F84827174A43
:1020E0003368B3FBF2F3104A03EB43137BB1D2F82E
:1020F0004017D2F8444714F080440DD1FEF75AFD42
:10210000134B20F01F00C3E90001204601E04FF00F
:10211000FF3002B0BDE8F081013BE7E70D4B98428C
:10212000F5D16FF00B00F4E700200E508000002086
:1021300000210E50B0210E507C01002040420F00C3
:10214000A0890000940000200000AD0B6801002071
:10215000D00100200200AD0B8FB5914A914B22F0C7
:102160007F029A60BFF34F8FBFF36F8FD3F8882041
:102170008D4822F47002C3F888208C4A0021121A7C
:1021800006F0DBFA8A488B4A8B49121A06F0F7FAF6
:102190008A488B4A8B49121A06F0F1FA40F20F1462
:1021A000002210B201210132FFF72CFEA242F8D129
:1021B0000020FEF77BFF844B83F30888E022794BF5
:1021C000824F83F822200022DA771A765A769A769E
:1021D00083F82020596A41F4E021596283F82320D2
:1021E000596941F010015961596921F0080159619B
:1021F000102119614FF0FF319962D962D3F8901024
:10220000090A11F0FE0F29D0BFF35F8F7049C3F8A0
:102210009420C3F8C01002216E48C3F89820C3F878
:102220009C10C3F8A0000120C3F8980000F10050F2
:10223000C3F89C0000F57F3000F2E230C3F8A00044
:102240003970D3F89000C0F30720814211DB0522DA
:10225000C3F89420BFF34F8FBFF36F8F5E493C7874
:102260004D68002D00F081801F2D1ED86FF01504E1
:102270007BE0C3F89810C3F8A0200131E1E72046C5
:10228000C3F89880D3F89C2025F01F0502F01F02A8
:102290001543C3F89C5004F055FD62E04E45EED165
:1022A0005FFA88F004F04EFD5FE0EA06DED10A68CE
:1022B000D306DBD1104604F03CFD154405F1FF398F
:1022C0008046484604F035FD8045CFD118F1160F01
:1022D000CCD0A045CADA334BC3F89880D3F89C0021
:1022E000C3F89880D3F8A06020F01F00824246F027
:1022F0001F06D3D0013AC3F8988022F01F00D3F80C
:10230000A0204E4502F01F0242EA0002C3F8A020BE
:102310002046C0D004F016FD10F1160FA6D0214BB8
:10232000013EC3F89880D3F89C109DF80820013036
:1023300061F304028DF80820D3F8A030009525F051
:102340001F052E445B08D2B2A6EB090663F34712C1
:1023500026F01F066946C0B28DF808200396FEF7E6
:1023600021FB10F1160F81D0441C01203C70FEF7B8
:102370009DFE0220FEF79AFE184C0023184D84F3B0
:102380000988002004498847184619461A46A84774
:1023900002488047FEE70000A37D0000B17D0000F9
:1023A0000000000000ED00E0D0010020D437002044
:1023B00080000020CC01002040B000004000002040
:1023C0008000002000B00000D8670020D136002037
:1023D000AAFF4400E1CF1700148C0000D85F002052
:1023E0009D36000008B50548FFF73EFB002383F348
:1023F0001188BFF36F8F0423184602DF42A3000049
:10240000036803F01F025F2B02604FEA53129ABF6A
:10241000024B53F822000020704700BFE48B0000FD
:102420002DE9F34104461746FEF770FC0D46266879
:1024300000B32046FEF77CFC8046D8B92046FEF764
:1024400089FC05B2AD0005F5807246F8028021686E
:10245000B2582944D1F8102542F00102C1F81025E4
:102460002FB10122216802FA00F3C1F8143302B03F
:10247000BDE8F081D6F8143328469B035CBF4FF4C7
:102480000033C6F81433FEF737FC3C22237902FBF5
:1024900003000F4B083033F81030C3F38203042BD2
:1024A00011D0052B11D001A80195FFF7A9FF019BC1
:1024B000C168D94001F001010231284602B0BDE8EF
:1024C000F04105F07DBC0321F7E70221F5E700BFED
:1024D0001423002078232DE9F04F6F4C0E460C1B7F
:1024E000B4FBF3F4D0F81413DFF8B0B1C9B28BB079
:1024F00041F400315BF83420009004F05FFD81036B
:10250000054638D50023E7000BEBC404CDE90733BB
:102510000993636807A819460193FEF785FC3B1DE4
:1025200003934FF0000A5E4B0DF11C090293029ACF
:1025300012F8013B0292039A02EBD3021BF802202D
:1025400003F0070322FA03F3DA071AD40AF1010AA7
:10255000BAF1030F09F10409E9D14FF40031002267
:10256000009804F02BFD019907A8FEF75DFC0028F8
:10257000D7D125F400350124002D76D10BB0BDE86C
:10258000F08F484B53440493D9F800100029DDD054
:1025900091FAA1F1B1FA81F1049B1C7841EA44144B
:1025A0002046FEF7A9FB083036F81080C8084FEA2D
:1025B00098030593012319F8002001F0070103FA9D
:1025C00001F122EA010209F8002006A80694FFF7AB
:1025D00017FF069A059B203250F82220C8F3820785
:1025E0005B07B846C2F3014223D53046D7B2214635
:1025F000424604F00AFD06A80694FFF701FF069B79
:10260000203350F82330C3F301439F4207D1002108
:10261000204605F0D5FB3946204605F0D1FB06A83B
:102620000694FFF7EDFE0122069B02FA03F3036214
:10263000AAE7022A0DD10321204605F0C1FB07F0CD
:102640000503012BEBD142462146304604F0DDFC68
:10265000E5E702212046059205F0B2FB032FF2D0F8
:10266000059A032ADBD1022FECE795FAA5F3B3FA1A
:1026700083F3009904FA03F225EA020503F5A27236
:1026800051F8222006EB43033046B3F86410C2F33E
:10269000014204F0BAFC6FE714230020D48B000041
:1026A000AAA30000AAA3000001490248FFF712BF35
:1026B0001423002000A00D5001490248FFF70ABF73
:1026C0008C23002000C010502DE9F74F904604469F
:1026D0000846FEF711FBD8F800900D46074626790C
:1026E000B9F1000F29D02046FEF722FB38B1204671
:1026F000FEF70CFB18B1684803B0BDE8F08F01A8E5
:102700000195FFF77DFE019B99F8002000EB830007
:10271000D0F88030614923F00F0343EA8203C0F808
:1027200080303C2303FB0673083331F8132022F07A
:10273000020242F0010221F81320D8F80430C3B19C
:102740002946204693F80090D3F804A0FEF7F0FA4B
:10275000A8B1BAF1000FCED13C2303FB06764F4A55
:10276000083632F8163023F01C0343EA890322F8B6
:102770001630D8F80830002B50D14948BCE73C222D
:102780007243DFF818E102EB070C0CF1080C3EF87D
:102790001C3023F02003DB04DB0C2EF81C30BAF1D4
:1027A000000FD9D0B9F1030FA5D8D8F804102068CC
:1027B000496891F800A000EB8A00B9F1000F04D13C
:1027C000C0F81095C0F81095C6E7D0F810B552447F
:1027D0002BF0030BC0F810B5206843EA4A3300EB36
:1027E0008A01D1F810050EEB420220F4473020F4A4
:1027F0007C70C1F8100541F6F070D1F810B500EA10
:10280000051040EA094040EA0B0043F02003C1F8FC
:102810001005A2F864502EF81C309DE72946D3E934
:1028200000862046FEF7A8FAB8F1000FA5D078235D
:1028300020791A4D4343EA18EB58984504D1536860
:102840009E4201D100220CE0782303FB005001A935
:102850006030FEF7CBFC124B98427FF44DAF9DF8F1
:1028600004203C212379C3EB0313134445F8338040
:102870002379C3EB0313134405EBC3035E60237991
:1028800001FB0373083335F8131041EA422242F486
:10289000807225F8132070E70400AD0B142300208C
:1028A0000000AD0BF0B5456801F01F04287B87B030
:1028B00044EA4014286900286FD0B2F5001F05F1E2
:1028C000100606D12146304605F08DFA002007B0EB
:1028D000F0BD0027B2F5800F01A80197476033D102
:1028E000B3F1007F14BF052304238DF804300023C7
:1028F000CDE904030393AB68CB40D9073CD4B2F1D4
:10290000A07F39D168460094FFF77AFD009B203301
:1029100050F82330DB072FD46A4621463046FEF7B5
:1029200065FA214B98421AD0CDF808D0214630469E
:1029300003AAFFF7C9FE1D4B984231D1012221465F
:102940003046FFF76DFDC1E7B3F1C06F05D0B3F1BD
:10295000007F14BF01230223C7E70323C5E7144BFD
:10296000287D694603EB8000FEF740FC0F4B984240
:10297000DAD06FF00B00AAE76A4621463046FEF730
:1029800035FA0A4B9842D1D1287D094B9DF80010A9
:1029900003EB8000FEF794F9C8E76FF0850096E737
:1029A0006FF0150093E700BF0400AD0B0000AD0B06
:1029B000740100202DE9F04FD50640F2063548BFDE
:1029C0004FF00308476802EA05053B7B58BFC2F396
:1029D000401889B001F01F06B5F5837F144646EA1A
:1029E00043168DF80A8041D00DD8062D40D005D869
:1029F000A5B1022D12D06FF0150034E0B5F5807F3F
:102A0000F9D101250AE040F202239D4232D0B5F50A
:102A1000407F31D0B5F5007FEDD1042520032DD5C1
:102A200001237A688B4053603B6973BB05A8059608
:102A3000FFF7E6FC059B84F4803100EB8300D0F8BF
:102A40008020C1F30041C4F3404343EA410322F430
:102A5000706243EA880322F00F0243EA052313431E
:102A6000C0F88030002009B0BDE8F08F0925D5E717
:102A70000825D3E70625D1E70525CFE7620341BF47
:102A800001237A688B409360CEE707F11008314646
:102A900040460DF10B02FEF7A9F914F440398246C5
:102AA0003FD13046FEF728F93C223B7D514D02FBD9
:102AB0000303083335F813300446DB0725D54046B9
:102AC00005F091F931464046FEF720F958B14046ED
:102AD000FEF740F9D7F810B000B20BEB8003C3F853
:102AE0001095C3F8109531464046FEF745F93C2253
:102AF0003B7D304602FB03440023083425F81430A4
:102B000001221946009303F035FC3B4B9A45A9D1AD
:102B1000387D3A4B9DF80B1003EB8000FEF7D0F8A0
:102B2000A0E7002303AACDE90623404605AACDE984
:102B300003330593FFF7C8FD2F4B814698427FF47E
:102B40005AAF14F4003347D03046FEF7D5F831467B
:102B5000814640469DF80AB004F48034FEF7E8F858
:102B600028B94046FEF7D2F800287FF444AF3C2253
:102B70003B7D204902FB0393083331F8133013F0F7
:102B80001C0F02D0002C3FF436AF05A80596FFF7C6
:102B900037FCB4FA84F43C22059B640900EB830003
:102BA000D0F8803023F4706323F00F0343EA8B03E3
:102BB00043EA440343EA052343F00103C0F88030AD
:102BC0003B7D02FB039909F1080931F8193043F004
:102BD000030321F8193098E7CDE9063331460DF1AA
:102BE0000A03404605AA0593FFF76EFD48458CD0C1
:102BF00001E700BF142300200000AD0B740100208A
:102C000010B5FEF739F8A8B11B4B9B7F180711D5FB
:102C10001A4BD3F80423D1070CD5D3F800214AB1BD
:102C20000022C3F80021D3F80011C3F8842C01223C
:102C3000C3F808230421124A104804F01AFAC8B154
:102C40000D4C206A421C04D0A37F9B070FD505F0D2
:102C5000F9F8637F1BB10849084804F098FA00238B
:102C600023720848D4E90031BDE81040184705F048
:102C7000DDF8EEE710BD00BFF022002000A00450F8
:102C8000FC220020F82200202DE9F04F046987B0D3
:102C9000A66AD0F804A0226B0190002E53D1002A1E
:102CA00000F0F980BAF83850616A954228BF15469D
:102CB000D4F82C80E06A676A002862D1A563002FEF
:102CC0006DD1002524229AF80490744E02FB09F27B
:102CD000B018447F09EBC90B4FEA8B0B5CBBB258B1
:102CE0000AB1012242770BF10C02B150B018242234
:102CF00002FB09621761C0F80880106A9561431CE5
:102D000004D0927F940754D505F090F8DAF800408B
:102D100021B101F06043B3F1005F07D1B8F1000FBA
:102D20004AD008F06043B3F1005F45D0242300226D
:102D300003FB09635A776FF00401019807B0BDE8FF
:102D4000F04F04F08DBD606AD4F82C800146BAF8CB
:102D5000385012B1964228BF1646B54228BF3546B4
:102D60000028A7D000F06042B2F1005FA2D0082D89
:102D700028BF082501462A46206C05F000FD216C7D
:102D800098E7226B4AB108F06042B2F1005F04D0CC
:102D9000082D28BF0825D4F84480A5632FB1A76A61
:102DA000002F18BF2F4600288BD0226B002A88D016
:102DB00088E705F047F8A9E70022C4F84C27C4F8D3
:102DC0001427C4F83C17C4F84077C4F80487C4F843
:102DD0000857C4F80821D4F808310723C4F800358F
:102DE000CDE90217CDE90485FDF746FF002837D06D
:102DF000242303FB09F3F118897F080730D58221CA
:102E0000F358C4F8841C8BB3C4F80021D4F8003103
:102E10000123C4F8043301232360242303FB09F3B3
:102E2000F258F1188ABBFDF727FF20B18B7F1907F5
:102E300048BFC4F8842C242303FB0969D9F8200077
:102E4000421C05D099F81E309B071BD504F0FAFFF1
:102E5000204606EB0B0107B0BDE8F04F04F097B930
:102E6000242303FB09F3F358002BD4D1012323605F
:102E7000D4F80831002BFBD00421204602AA04F02C
:102E8000F8F8CAE704F0D2FFE2E70423C4F80433F9
:102E900007B0BDE8F08F11464FE700BFF0220020D9
:102EA0002DE9F04F046995B04568099394F83D30D9
:102EB000CDE907120390AA681BB12368994200F07C
:102EC0004581079BB3F804B01BF4006F05D06FF089
:102ED0008506304615B0BDE8F08F1BF0090F02D013
:102EE0006FF01506F5E7CBF34513082BF8D1079BD8
:102EF000AF491B688B42F3D99A4228BF1A46E9684A
:102F00001BF0020F0B91296990460C91696995F8A5
:102F10002F700D91A9690BF004030591297F06918B
:102F2000A97F119195F826101291A96A0E9195F832
:102F30002C100F9195F82D10109195F82E100491EA
:102F400095F83010139100F0AE81002B14BF4FF0B4
:102F500003094FF002092B68D3F80006431C05D083
:102F60001BF0020F40F0A58104F06CFF94F83D3097
:102F70002BB12846FEF700FF002384F83D302B7963
:102F80008C4A19460A93242303FB01FE02EB0E0A26
:102F90009AF81C30002B40F0AB812868DFF818C28B
:102FA0008649874E604518BF0E46B6FBF8F308FB0E
:102FB0001366B34240F29C81DE0700F199817E2BBB
:102FC00000F29681604514BF022004208342C0F0C5
:102FD0008F817C4B039842F80E30109BCAF8040096
:102FE000002B049B08BF0223754804932B6814BF71
:102FF0004FF0010A4FF0000A634508BF01462E79E1
:10300000B1FBF8F8FDF738FEC0B1B8F1020F40F29D
:10301000538119F0010F40F04F814FEA5803049992
:103020000133DBB28B4238BF0B46D9B2242303FBFA
:103030000622937F049143F00803937724225D4B8B
:1030400002FB0631887F67F300008877297902FB4D
:10305000013306999A7F61F341029A771FBBB9F158
:10306000010F94BF002301233A4601210B9805F07C
:1030700043FB3B463A4601210C9805F03DFB3B469D
:103080003946129A0D9805F037FB069B3A46012106
:10309000059883F0010305F02FFB01233A461946FA
:1030A0000E9805F029FB2423424FBAF1000F00F0DF
:1030B0000C814FF0FF3203FB0673DDF818A01A6293
:1030C000139B2A689BB90B9BC2F800360C9BC2F875
:1030D00004360D9BC2F808360E9BC2F80C36059BD1
:1030E000C2F81036049BC2F8B8A5C2F8B035119BDF
:1030F000B9F1020FC2F8C035C2F82C85CBF300132A
:1031000000F0F080B9F1030F00F0EF80B9F1010F8A
:1031100001D143F00203C2F854350F9BC2F8AC351D
:1031200024222B795343FB5823B12868C0F308307D
:10313000FEF702FE24230A9A03FB027700237B7723
:1031400001233B7784F83D30079B2360012384F8FB
:103150003C302E6C731C42D005F144073146384692
:10316000FDF7D4FD002800F0C6803846FDF7F2FDDB
:1031700000B2800000F580701FFA80F8002231460E
:103180003846FFF74DF900220323114630460092DE
:1031900003F0F0F803F002FF81466B6C53F808303F
:1031A00093B903F0FBFEA0EB0900C728F5D90BE0AB
:1031B00047E80100F022002000A004500024F400A1
:1031C0000020A1075D7E00003146384604F00BFE6A
:1031D0000022012311463046009203F0CBF8089BF1
:1031E000002B40F08B8063610023A36104F128026F
:1031F00004F1180104F1140005F0F2F9099B606272
:10320000002B40F08480E3610023236204F130024C
:1032100004F1200104F11C0005F0E2F9002601216F
:103220003246E0622661204603F07DFF0398FFF7F7
:103230002BFD32463346A069834271D100231946E3
:10324000266AB14273D19A4238BF1A4626464FF4D5
:10325000FA535A4356F80C3B1B68B2FBF3F202F1E7
:10326000C807C93273D1EFF31180202383F312888A
:10327000BFF36F8F1A46D6E8AF3F002B5ED0002316
:10328000E36080F31188BFF36F8F266916F1740F26
:1032900065D0002E3FF41DAE0022039B1146186935
:1032A00003F041FF15E6B3F1000918BF4FF0010923
:1032B00051E604F0BBFD59E62422374B02FB0633EE
:1032C0009A7F6FF3C3029A77B8E603FB0676059BF5
:1032D000069A3362B37F62F34103B3774FF0FF3353
:1032E0000593EDE643F0040315E743F0060312E708
:1032F0006FF00406EDE54FF4A2783FE7089B1B68EA
:103300006361002B3FF470AF089B5B686DE7099B1E
:103310001B68E361002B3FF477AF099B5B6874E7A0
:10332000616901EBC301496801330A4484E7E0693C
:1033300000EBC10040680131034482E703F0EAFC7E
:10334000EFF3118082F31288BFF36F8F93E7FDF7DD
:103350004FFC8046D6E8AF3F8BB1E368CBB900267F
:103360002846A663FEF708FD84F83D606FF0730100
:10337000039804F075FAE6606FF07306A9E5FDF7AF
:1033800037FCA0EB08039F42E7D90120FDF794FD2D
:10339000E0E70023E36078E7F02200202DE9FF4713
:1033A0004368027A03EBC2029A4204D86FF001002C
:1033B00004B0BDE8F0875C798C4200F0938008335C
:1033C000F2E73268C2F3C323082BC2F3080400F209
:1033D00086804C4508BF4FF0FF34B2F1D05F18F83B
:1033E00003104FEA126310D2192B12D8DFE803F052
:1033F000141C4A47242D47111111111111111111DB
:103400001111111111114D575A5D382B50D04E2BFF
:1034100038D06FF08500CBE7C5F80446601C0FD0AC
:10342000204604F003FD54E0C5F80C46601C07D0AC
:103430004FF0000A504612E0621CC5F800464BD11E
:103440000436B742BDD10020B2E7631CC5F804467C
:10345000F6D04FF0010A204604F0F4FC0120336856
:10346000009103F40042002A07BF014652460122A0
:1034700000212046C3F3412302F07CFFE0E7C5F8BA
:103480000846D3E7C5F81046C8E7C5F86045621C92
:103490003368D5D0C3F30043002BDAD0C0E7C5F8BA
:1034A0006445F4E7C5F86845F1E7C5F86C45EEE713
:1034B00003A80394FEF7A4FF039B00EB8300D0F85E
:1034C000803023F0E04343F08043C0F88030631C39
:1034D000B6D04FF0010AADE74FF0000ABBE76FF03E
:1034E000150065E71E681F7940F2FF190568DFF8CF
:1034F000088006EB8707A4E7BDA300002DE9F0478D
:103500004468066905460121E06B86B0FFF746FF77
:10351000D4F84090B9F1FF3F33D001238DF8023049
:1035200002238DF804306B44039301AB0493002312
:1035300094F84800DFF8A4800DF1030108EB800047
:1035400005930291FDF752FE254B0746984204F180
:10355000440A02D06FF0120010E04946504603AA18
:10356000FFF7B2F8B8420CD094F848009DF8031069
:1035700008EB8000FDF7A4FB6FF0040006B0BDE887
:10358000F087636B984774680834A4F10802D6E9A1
:10359000013103EBC1039A420BD3304601220021D3
:1035A00003F0C1FD28460F4906B0BDE8F04703F01F
:1035B00086BC54F8080C03F0A1FB0028CAD034F8EC
:1035C000022C54F8080C14F8041C42F4B01203F056
:1035D00048FC002804F10804D7DACFE77401002082
:1035E0000000AD0B0F7F000030B50D46816887B03D
:1035F000102302AA1039044604F00FFB002802DA57
:10360000012007B030BD1022204602A904F091FB32
:1036100000283FD11022204902A805F0BDF800285B
:103620000CBF012302232B70A1680123203921F054
:103630000F0120460DF10702203904F0EEFA0028B0
:10364000DEDB9DF80730204603F00F021B096A708D
:103650002B7101220DF1070104F06BFB10B96B789F
:10366000042B03D901236B7000232B71A268204621
:10367000203A22F00F02103AA91C04F06BFB00283C
:10368000BED1A2682046203A22F00F02E91C04F0C5
:1036900061FBB6E70323C6E748A10000012580B51A
:1036A000A64B88B003201D70FDF700FD0420FDF738
:1036B000FDFCA34C60220021204605F03EF80520C9
:1036C00004F12001FEF726FA002870D1284604F103
:1036D0004C01FEF71FFA002869D14FF40076994A91
:1036E000052002F5805304A962622365049604F064
:1036F000B9FF28B1012384F858308DF817304EE116
:10370000049B2846226D04A9A362049604F0AAFF34
:1037100000284ED084F858500021084602F04CFC96
:103720000028E7D1A66A656DAE4202D06B1C9E42AE
:10373000E0D1B6F5007FDDD800231F46626A216D17
:10374000043204319D423CD1236AD86804F0F9F96F
:10375000E36CD86804F0F5F9AE4205D9636A03EB6F
:10376000C5035B68BB42C5D10123049303F1012368
:10377000059300236946206ACDE90633FFF734FF3D
:10378000A8B9E06C02A9FFF72FFF80B99DF80020CF
:103790009DF80830012A1CD19DF80220032A18D177
:1037A000012B16D00223266A0793002E3DD104F088
:1037B000BCFF049B6365236AD86804F0C2F9E06526
:1037C000AAE752F8337051F83300874292D101339F
:1037D000B8E70023079304A804F039F980F001004A
:1037E00004A9C0B202F0E8FB002883D104A804F0C9
:1037F0002EF9002840F0A88004A802F053FE00280B
:10380000D5D19DF81730DA1E012A84F8583000F21D
:10381000878004F0F8FE9DF81730002871D1023B34
:10382000022B75D994F858307DE0337803F0FB0310
:10383000012B7FF45FAFF0684FF4C068E56D04F0D2
:1038400080F908FB00F0B7685030B842AFD840F2BA
:10385000FF535FFA85F94FF0FF3503FB09773F1AF5
:1038600001233946304602AA04F0D7F90028C2469F
:1038700008F1FF38FFF63EAF0122304602A904F0FE
:1038800058FA18B9B5F1FF3F08BF5546A7EB09072D
:10389000B8F1000FE4D16B1C08D0B5F5007F22DA37
:1038A00040F2011301350495ADF81430B1680123DD
:1038B000203921F00F01304602AA203904F0ADF979
:1038C00000287FF417AF0122304602A904F031FA34
:1038D00010B101238DF808309DF8083003F00F0374
:1038E0008DF8173077E70223A5F500758DF81530B0
:1038F0006B1005F001050133013504938DF8145068
:10390000D4E7FF22023B022B84F858203FF64FAF4A
:1039100004F091FE002885D0FF2384F8583046E754
:103920009A1E022AF4D9FF2B3FF441AF002108462A
:1039300002F042FB00283FF4DDAE38E7D03600202D
:1039400064220020640200209DF81760012E34D10B
:1039500002F0A4FB831E022B054610D8304604A9B2
:1039600002F024FFA8B9E8B284F858008DF81700D7
:10397000012834D813D0FF2384F858300FE0C0B2A8
:10398000042884F858008DF81700F1D905281ED0B6
:10399000F1E7012816D184F858008DF8170094F843
:1039A0005830FF2B3FF403AF0021012B02912DD0A3
:1039B000084602F001FB48B3FEE7012004A902F02B
:1039C000F5FE48B1052384F858308DF8173004F01F
:1039D0001AFE0028E3D0CEE79DF81700D0E704A830
:1039E00002F060FD00287FF4E2AE94F85830DA1E51
:1039F000012A08D804F007FE00288DD104F01BFE30
:103A0000002889D1CBE7022BC9D1F7E7002108466E
:103A100002F0CCFE00B1CFE7029B01330293029B80
:103A2000012B00D0FEE7236A5A685E4BD3F8741569
:103A30000F2900D0FEE7D3F86C150F29FAD101F554
:103A4000F91101F6F671C3F86805C3F86C154FF467
:103A5000F841C3F870155449544EC3F874152389BE
:103A60000446134467223360514B524D524FC3F802
:103A70002823E1B20846FDF703FA0122DFF83CE112
:103A8000A24070456FEA020CAB6819D102EA03004C
:103A900010F0670F14D000200CEA0303AB60444B16
:103AA00003EB041ECEF82C05D3F820E312EA0E0F28
:103AB00006D0C3F8282357F824300BB147F8240068
:103AC000AB6812F0670F03EA0C03AB6002D03C480E
:103AD000FDF7F6F80134072CCBD14FF0FF37002467
:103AE0004FF00108374DE420FEF734F9C5F80873AC
:103AF000C620FEF72FF9C5F82C80C5F85041D5F83F
:103B00005031C5F84C41D5F84C31C5F82441D5F8B1
:103B10002431C5F8004505F578354FF48270C5F8B5
:103B20000873FEF717F9C5F82C80C5F85041D5F891
:103B30005031C5F84C41D5F84C31C5F82441D5F881
:103B40002431214BC5F80045C3F80873BFF36F8FCC
:103B500072B61E4B04F120020134102C43F822707F
:103B6000F8D100234FF0FF30184A03F16001013310
:103B7000102B42F82100F8D10024154BC3F804445F
:103B8000FCF7F2FE33681B6883F3088884F314881B
:103B9000BFF36F8FBFF36F8F336858680D4B984733
:103BA000FEE700BF00B0045005301500C42200201D
:103BB00000200E508000002000210E500000AD0BB0
:103BC0008400002000600C5000E0105000E100E094
:103BD000002008E041000020F0B585B06E46816805
:103BE0000546103921F00F0404F04FF832460A4B15
:103BF00003F1100C374618685968083303C763454A
:103C00003E46F7D110232146284604F028F8003814
:103C100018BF012005B0F0BD48A10000012208B581
:103C20003C4BC3F80028FDF727F810B13A4BC3F816
:103C30000C243A48FDF72AF80830FDF727F8083039
:103C4000FDF724F80830FDF721F800F5F470FDF7D2
:103C50001DF8334AD2F88C3043F44063C2F88C30FC
:103C60000022D30003F57F0303F54043D3F800148B
:103C700001310AD0D3F8001439B1D3F8001401325D
:103C8000D3F80434402A0B60EBD1224BD3F8402404
:103C9000002A3BD0FCF7E0FF48B1224BD3F8342395
:103CA000214B9A429EBF1B4B204AC3F84026FCF78B
:103CB000D3FF18B11E4B1F4AC3F8AC27FCF7CCFF4B
:103CC00048B13422134BC3F82426D3F83C2622F4FF
:103CD0000022C3F83C26FCF7CFFF40B1164BD3F8C7
:103CE0000026D20744BF6FF00102C3F80026032369
:103CF000124A0B49C2F81835D1F88C3043F44063AE
:103D0000C1F88C300023C2F8A03508BDC822C3F822
:103D10004024BFE7000012500030055000C50D5090
:103D200000ED00E000C0FF00001D0A1840E0A91EE1
:103D300000A0085078000A0400E0105000B00450C1
:103D400010B5034B0A461B6800210446984710BD76
:103D50008401002010B5044610B109B1FFF7F0FF4F
:103D6000024B2046BDE810401B6818475801002050
:103D700070B5446A05460E4644B9074B01201B68DE
:103D80009847686228B12046AE6270BD6FF08A0025
:103D9000FBE76FF08C00F8E75C010020302817D0BB
:103DA0000ED81238C0B2192807D80123214A8340FF
:103DB0001A40002A3AD1DB0720D46FF08600704702
:103DC00041282AD04228F8D1FF2928D11A4B2AE0CD
:103DD000B1F5A07F2AD00BD821F02003C02B25D02D
:103DE000B1F5807F0CBF6FF085006FF086007047E3
:103DF000B1F5C07F1AD0B1F5007FF3E7B1F5807F50
:103E000014D003D821F02001C029EBE7B1F5C07F21
:103E10000CD040F209239942E4E7FF2902D0B1F522
:103E2000E07FDFE7054B0020136070476FF08500EF
:103E3000704700BF200221021C8E0000108E00007F
:103E400010B51E4C4368B4EB132F4FEA132215D163
:103E500042691B4B9A420CD003F5FF437D33134458
:103E6000012B03D80388B3F5105F1DD06FF08600D7
:103E700019E047F2121302889A42F6E7114B9A4270
:103E8000F4D1028802F44F43B3F5824F0ED1438838
:103E900044F21210073382424FEAD30301D15B0090
:103EA000013300200B6010BD0223FAE7B2F5885FF2
:103EB000FAD143880733DB08F3E700BF004E8000E8
:103EC00001C0FF7F4B4E80000022074BC3F810213A
:103ED000C3F80C21C3F80021C3F80421C3F808215A
:103EE000C3F81421704700BF0050045008B5FFF715
:103EF000EBFF01230360104B0A6832B9D3F80C21A1
:103F00001AB9D3F80821002AF6D00B687BB90B4BFD
:103F100099420ED0A3F58473D3F80831002B0CBF5F
:103F20004FF0FF306FF00200FFF7CEFF08BD00201A
:103F3000FAE74FF0FF30F7E7005004500851045003
:103F400038B5064D0C46C5F8000505490548FFF78C
:103F5000CDFF10B9D5F80835236038BD00500450A6
:103F6000105104500C500450254B1B7843B1254B85
:103F70001A68002A38D019681A6800221A6031B904
:103F8000BFF35F8F4FF0A343996ABFF35F8FBFF317
:103F90005F8F4FF0A343DA6BBFF35F8F11F0240FF5
:103FA00002F0230222D0BFF35F8FDA69BFF35F8F85
:103FB000BFF35F8F10215963BFF35F8FBFF35F8F34
:103FC00000215963BFF35F8FBFF35F8FD96BBFF3DE
:103FD0005F8F4906F8D422B1BFF35F8FDA61BFF378
:103FE0005F8F6FF01F00704720BFC1E74FF0FF30B9
:103FF0002AB9BFF35F8F1863BFF35F8F1046704716
:10400000D036002074240020C36870B57BB9C36922
:1040100000F128021A60C369454A9A604368C26980
:10402000DB6843F48063D360C3691033C361836A80
:104030009B052FD40368C268DD6800F1EC04302DC5
:1040400034BF082610261D6901366B1E1340EB1A7B
:10405000B34238BF5B191C44D50004F8015C03F17E
:10406000EB045209044400F1ED05A5425CD1802225
:1040700080F8EC20426AC469C4322260C26993604D
:104080004468C269E468D460C2691032C2610269DE
:104090001A4402610269C469D31C23F003039B1A0A
:1040A00054F8042C42EA032244F8042CC26952F862
:1040B000084C234443F0005342F8083C026A03686A
:1040C000DB6811600168026AC96803339160026AA3
:1040D00023F0030302F1100101620168C9689942EB
:1040E0000BD0002111610168026AC9685B1A43F0B4
:1040F00080439360036A10330362836A13F480631E
:1041000011D102685169D26891420CD0026A1360E1
:104110000268016A5369D2689B1A43F080438B603E
:10412000036A1033036270BD04F8012D120A9CE784
:1041300004000020BFF35F8F094A1368BFF35F8F4D
:1041400043F48071BFF35F8F1160BFF35F8F23F47F
:104150008073BFF35F8F1360BFF35F8F704700BF43
:1041600000108051BFF35F8F4FF0A3430022DA614C
:10417000BFF35F8FBFF35F8F4FF0FF321A63BFF360
:104180005F8FBFF35F8F3422DA61BFF35F8F01224D
:10419000014BC3F80423704700800450174BD3F839
:1041A0000021C2B1BFF35F8F4FF0A3418A6ABFF312
:1041B0005F8FBFF35F8F4FF0FF300863BFF35F8FF8
:1041C0000021C3F80011D3F800310D4B19681968AC
:1041D0000A431A607047D3F808110029FAD0022068
:1041E000084909688860C3F80821D3F80831064BEC
:1041F0001A681A6842F00102EBE700BF0080045021
:1042000074240020C0280020702400200368DA688D
:10421000D203FCD4DB6824481840B0F5806F2FD05F
:1042200017D840282ED008D810282DD020282DD0DF
:10423000003818BF012040007047B0F5807F27D0BC
:10424000B0F5007F26D0802808BF0B2018BF0220C1
:104250007047B0F5804F1FD00AD8B0F5805F1DD0F1
:10426000B0F5005F1CD0B0F5006F08BF0620EDE789
:10427000B0F5004F16D0B0F5803F08BF0320E5E74A
:10428000112070470A2070470C20704709207047A2
:10429000082070470720704714207047052070479A
:1042A000042070470F207047F0FF0100144B4FF0BF
:1042B000010C1A6808209169C3E919C0C1F30B0207
:1042C000482A5A6528BF482211F4003F9A6508BF62
:1042D0000022DA6511F4803208BFC3E9152201F427
:1042E0007002B2F5700F14BF00229A6D00299A6512
:1042F000BCBF0022C3E9192201221A65704700BF22
:10430000C0280020F0B50388C76803F44F42B2F517
:10431000824F08BF1D4603F4E0441F4B18BF002521
:1043200000201A46EDB21E78AE4223D1D3E9026CCA
:10433000D1F800E0B4F5804F08BF6646BEF1000F2B
:104340000BD1202E09D1142303FB002253680B60EC
:10435000137CABB96FF08500F0BDD3F804C0E6451F
:1043600008D1202E02D06FF08600F5E7142303FB5E
:104370000022EDE70130132803F11403D3D1F2E753
:10438000422D06D1054B9F4203D003F20B139F42EF
:10439000E9D10020E0E700BF688C000000080006BB
:1043A00002480B1A58425841704700BF00080006E7
:1043B000034BC3F80005D3F80024D207FBD57047A0
:1043C00000B00450014608B50120FFF7F1FF064B8D
:1043D0000648C3F800150649FFF788FD014600208E
:1043E000FFF7E6FF084608BD00500450085004508F
:1043F0000851045070B588B001AE182205460C462D
:104400003046002104F099F9012044EA0524059082
:104410000794FFF7CDFFBA2309480A49C0F80035D1
:10442000C0F80465FFF762FD01460020FFF7C0FFFA
:1044300081420CBF08466FF0920008B070BD00BF0B
:104440000050045000510450F8B51E4D064695F832
:1044500080350F467BB300242B462246197FD1B10D
:104460003CB9022905D1196A19B91979002918BF6F
:104470001C460132202A03F12C03EFD114B96FF04E
:104480008C0006E0204603F0BCFD204603F05DFEF4
:1044900010B100240DE01C46237F7BB90123237754
:1044A00036B1094B651BAD105D4305F180453560A4
:1044B00000203C60F8BD6FF08800EAE76FF09600DE
:1044C000E7E700BF30290020A38B2EBA2DE9F04783
:1044D00088B004460D46164603F014FE78B96369A9
:1044E0000090C3F3013262F305108DF8000010F064
:1044F000300007D1A16889070FD06FF0860008B09F
:10450000BDE8F087102808D1BDF8023023F4F87315
:1045100043F4A873ADF802306DE0E76871498F424B
:1045200047D1238803F44F41B1F5824F44D1D9B22A
:10453000422941D1A16811F4A05F04D123F0FF0307
:10454000B3F5E24F38D00A219DF8023061F303033E
:104550008DF8023000234FF0010A9E4619461F468F
:10456000D4F808C0DFF8808158F8049B1CEA090FD2
:1045700008D00AFA07F343EA0E0303F07F0E012383
:1045800041EA09010137072FEED12BB19DF8033025
:104590006EF347038DF803303CEA01010CD16388C8
:1045A000FF2B11D00BD8802B2BD0C02B04D1022392
:1045B0000BE0DBB2F82BCDD06FF085009FE7B3F5B1
:1045C000807FF9D1042300E003239DF8021063F3F8
:1045D00006118DF8021010B91CF0030F8DD123794C
:1045E000022B1BD00FD8012B87D1BDF8021063F32B
:1045F000C811ADF80210B2B1032A7FF47EAF3B4F71
:1046000016E00123E1E7032B02D0FF2B7FF475AF07
:104610000221BDF8023061F3C8137BE7BDF8023018
:1046200043F4C07376E72388B3F5105FC4D1304FED
:10463000284603F0FFFC10B96FF08A005FE7681CA2
:1046400003F0F8FC0028F7D002212846FFF7D2FE3D
:1046500000287FF454AF009B044607930346DFF81D
:104660009490DFF894A006970DF10408C446BDF8B5
:1046700002203344C2F3C112059203F1100E6246C8
:1046800018685968083303C273459446F7D101206E
:104690006119FFF78DFEC9F8001516485146C9F893
:1046A0000485FFF723FC01460020FFF781FE21B1BE
:1046B00003F028FD6FF0920021E71C21404603F033
:1046C000ADFC44B907F1100306934FF0FF3301240A
:1046D00007931023CAE7BA20FFF774FE00283FF4BF
:1046E0000EAFE7E700080006F48D00000000002090
:1046F000400081510050045000510450074A136893
:10470000591C11604BB9064A4820D2F8003443F0D6
:104710000703C2F80034FDF70FBB7047BC28002028
:1047200000800450B1F5DE7F38B5044624D3036819
:104730001D6815F0400522D1FFF7E0FF0121217629
:10474000FFF710FD0F4B2846636023680E4A1B6875
:10475000C4E90355A36204F12C03236204F1280386
:104760006362E3671323C4E9212304F18C03E3614B
:10477000064BA160636138BD6FF02200FBE76FF06C
:104780000200F8E7E48D000004000020094000006A
:1047900038B5114D0446C5E90415FFF7AFFF0422F3
:1047A00000210E4BC3F804230D4A2B68D868C003C0
:1047B0000AD403F580535B6A13F4A02304D1C4E93F
:1047C0000053204638BD20BF1368002BFBD0136870
:1047D00013681160E9E700BFC02800200080045082
:1047E0007024002010B5124B1C68013C1C60ECB911
:1047F0004820FDF7AFFA07220E4BC3F80823D3F881
:10480000002422F00702C3F80024C3F80041D3F8C3
:104810000021C3F80441D3F804214FF48072C3F897
:104820000841D3F80831044BC3F8882110BD00BFFC
:10483000BC2800200080045000E100E00422054B69
:1048400010B5C3F808230446FFF7CCFF002323610B
:10485000A36410BD008004502DE9F04F90469B46A4
:1048600042690369D0F84CA09D680446D0E9017301
:104870000E46D2F86C9085B0BAF1000F06D0FFF763
:10488000DDFF1025284605B0BDE8F08F4F490A6DC1
:1048900022B90193FFF70AFD4C49019B32681006CB
:1048A0004CBFCA6D4A6D7068904204DD2046FFF728
:1048B000C5FF0D25E6E72269E060B9F1000F02D0DF
:1048C000116948EA0108316812680138114341EA68
:1048D0000021226841EA0801516022691268D10072
:1048E00002D5E2689A1A17449DBB336813F4700F1F
:1048F0003AD0B9F1000FC5D023691B69002BC1D094
:10490000D9F8083048469847D4E90167CDE9020153
:104910002369E2681B6806EB071613F0805F42D03C
:10492000C1F3076100F03F0341F0010143F02003B0
:104930008DF80F10B01AA2F108018DF8083003F0BD
:1049400039FC083E082230460DEB020103F050FC12
:1049500098E7EA0748BF4BF82A704FEA650548BF59
:104960000AF1010A1F44BFE72369D6F808801B68D3
:10497000D4E9017BDB0042BF7368ABEB0303FF1894
:10498000B8F1000FB5D04FF0000ABAF1060FB0D061
:1049900041463846726803F02BFC73685F449844C4
:1049A0000AF1010AF1E7C1F3056141F02001F61BAC
:1049B00040F001038DF80F1006F10800A2F1080184
:1049C0008DF8083003F0F6FBBCE700BFC0280020DC
:1049D0004FF4807313B504460193FFF78FFEFFF782
:1049E000C1FB214B01AA1A60112220492048C3E9CA
:1049F000021240F6110103F110025A601D4AC3E988
:104A000006011A6120321A62212203F12001596144
:104A1000012119485962C3E90A02184AC2E9011082
:104A200020211460D160BFF35F8F4FF0A3410B6072
:104A3000BFF35F8FBFF35F8F0A61BFF35F8FBFF379
:104A40005F8F03234B63BFF35F8FBFF35F8F8B6376
:104A5000BFF35F8FFFF788FA431C0446FAD0FFF7D5
:104A6000C1FE204602B010BD8824002004000020B2
:104A700020000020E0010020100000207824002009
:104A80002DE9F0430446002693B00DF11F05DFF831
:104A9000788025F01F05102201231C4911F8010D13
:104AA000013A03440B704FEA1323F7D1A819FFF71B
:104AB0008FFFA946074618BBD8E90C3210360133E0
:104AC00042F10002302EC8E90C32E4D154B104F1B5
:104AD000300299F8003014F8011B4B40A24209F84B
:104AE000013BF6D12E46084C0FCE0FC496E80F00BE
:104AF000203584E80F0095E80F00103484E80F009B
:104B0000384613B0BDE8F083E00100201002002019
:104B10002DE9F04107463025514CDFF84881202D22
:104B20002E46A8BF2026FFF7E9FDFFF703FBBFF3E2
:104B30005F8FE368BFF35F8F9B08013BBFF35F8F1D
:104B4000A360BFF35F8FBFF35F8F00232364BFF3C6
:104B50005F8FBFF35F8FF1226264BFF35F8FBFF39C
:104B60005F8F4FF400726263BFF35F8FBFF35F8F9D
:104B7000C4F80080BFF35F8F07E0FFF733FE6FF0EC
:104B80003F052846BDE8F0810123BFF35F8F226B0C
:104B9000BFF35F8F5108C2F34202052A5CD011F0C7
:104BA000060FF2D023BBBFF35F8F6268BFF35F8F46
:104BB000032AEAD92C4B2D4ABFF35F8FD4F880101B
:104BC000BFF35F8FBFF35F8F43F8041BBFF35F8FAB
:104BD0009342F1D1FFF7AEFABFF35F8F2368BFF3C3
:104BE0005F8F43F00103BFF35F8F2360BFF35F8FDD
:104BF0003246BFF35F8FA368BFF35F8F0133B6EB1D
:104C0000031FBAD8BFF35F8F6368BFF35F8FB6EB44
:104C1000830FB9D8BFF35F8FD4F88030BFF35F8FB5
:104C20003946081D01F8013B81424FEA132302F186
:104C3000FF3208D0002AF5D1FFF7D4FDAD1B374471
:104C40007FF46DAF9DE7002AF6D0BFF35F8FD4F8F5
:104C50008030BFF35F8FE4E7FFF7C4FD63E700BF79
:104C6000001080510100040010108051201080516C
:104C70002C232DE9F341204D0F4603FB0055D5F8B9
:104C80002080B8F1000F01D103F04FFDEB682E89B1
:104C900040461E44042331460DEB030202F0BDFFE3
:104CA000044620B10124204602B0BDE8F08146F65A
:104CB0000813BDF804206D899A421AD1BDF8063058
:104CC0009D4201D00324EEE7042340460DEB03028E
:104CD000A91902F0A2FF0028E4D146F60713BDF897
:104CE00004209A42EED1BDF806302B4433443B6099
:104CF000D9E7002DF1D0E5E7642200201FB5074B6E
:104D00006A461C6A1023A1682046103902F085FF0C
:104D1000002818BF0024204604B010BD64220020E3
:104D20002DE9F84F06460F46904699460024DDF8D7
:104D300028A0DFF844B0A24501D800200FE0AAEB7C
:104D40000405B5F5806F28BF4FF4806530462B46CB
:104D5000094A04EB080102F060FF10B10120BDE830
:104D6000F88F2B465A46384604EB090102F077FFCC
:104D70000028F3D12C44DEE7B82400202DE9F04FC1
:104D8000A64CA1B062780DF1770323F01F03022A2D
:104D90000193237801D1072B5DD013F0010544D195
:104DA000DFF87C929F49D9F800208A423AD0FFF779
:104DB000A5FC9D4B01211D609C4B48201D60FDF70B
:104DC00021F89B4A9B4B9C4952F8040B43F8040B77
:104DD0008B42F9D10023994DEB66994B2B6003F57B
:104DE000C0436B602B6D0BB9FFF760FA6B6D1C2233
:104DF000B3F5007FCCBF4FF480634FF40073002104
:104E000003A8AB6003F099FCF82003F013F940BB52
:104E1000F92003F00FF920BBFFF7E4FC814BC9F840
:104E20000030237843F00103237023789E0706D4D3
:104E30000121844A43F0020382F8801523706278CE
:104E400023781AB9DD0744BF0222627058075CBF9D
:104E500043F0040323704FF0000A504621B0BDE830
:104E6000F08F794DD5E90C3213432AD0D5E90C32B5
:104E7000023342F10002B2F5803F7AD220260DF1D2
:104E8000280B102EB0464FF0010228BF4FF010083B
:104E900010276E4911F8010D013F02440A704FEAD4
:104EA0001222F7D10198FFF793FD824670BB002EC6
:104EB00078D1D5E90C21013241F10001C5E90C217D
:104EC000DFE7AA6B624B9A42D8D000231A46EA5415
:104ED0000133402BFBD10AAE3046FFF719FE80B9F3
:104EE0003046FFF7CDFD002841D103460246F2547B
:104EF0000133302BFBD100230122C5E90C23544B95
:104F0000AB6303F0BBF982460028AFD0FFF76AFC21
:104F100023785F077FD443F001039907237019D5E5
:104F2000484D00262F464FF001094FF00308284650
:104F3000C5F8209085F81C80013603F006F9202E74
:104F400005F12C05F3D1002387F88035237823F071
:104F500002032370002304213E486370FEF7F0FE35
:104F60002378DA0744BF23F00103237075E70E208E
:104F7000C7E70AAE3046FFF7CBFD80B93046FFF7F2
:104F80007FFD82460028C1D102460346B354013258
:104F9000302AFBD100220023C5E90C236EE76FF015
:104FA000920AB3E742465846019903F0E8FBD5E977
:104FB0000C21013241F10001B6EB0806C5E90C21D4
:104FC000C3447FF45EAF3846FFF75AFD824600289F
:104FD0009CD14FF4807302A8029302F0A5FD029BBE
:104FE000DFF874E005931D4BF82106931C4B0AAAC9
:104FF000CDE903E31B4B03A80893FFF767FA82464A
:1050000020210AA803F00AF8FFF7ECFBBAF1000F21
:105010007FF47EAF02E723F004037CE7B42E002088
:10502000800100201173650074240020702400208A
:10503000288E000000C080511CD38051C028002061
:105040000020805130290020E001002010020020C3
:10505000B4A5B4A5B82E0020002400010010C0049F
:10506000014B4E80F800FF7F40292DE9F0410446B6
:105070000E462FD80378033303F00303012B21D806
:105080006FF0210003F0FAF8054640B913493246A3
:10509000204603F074FB4021104802F0BFFF284671
:1050A000BDE8F081637838462B44C8F80035FEF738
:1050B0001DFF68B901352378C3F382039D42F1D304
:1050C0000020DFE70025DFF818800649064FF2E7E9
:1050D0000220D7E76FF08905E1E700BF000000205C
:1050E0000050045004510450045004502DE9F3477B
:1050F0000E46DDE90A79694682461446984603F071
:1051000093F8002852D1BAF1F80346F1FF36022B8A
:1051100076F10006C0F0B68002F0F4FF002845D119
:105120009DF8006016F00F0240F0AF80BDF802302D
:10513000C3F3C113013BDBB2022B00F2A9805A4931
:1051400006F03006C95C594B102E43EA0103636038
:105150002FD1574B2360204601A9FEF771FE28BBD3
:10516000019BBB4200F29D8044F2121221889142C1
:1051700004BF042208F8012BC9F800309DF8003064
:1051800098F80020C3F3011363F3010288F80020AC
:105190009DF8022008BF07F1FF37C2F30212042A6C
:1051A00049D8012A4BD851D06FF0980002B0BDE821
:1051B000F0879DF80310134610463E4A4908F9B996
:1051C000019001A802F0B0FC9DF80230019A03F0B2
:1051D0000F010A29A26061D147F2421112F4A05FC7
:1051E00044F2421218BF0A46C3F302132280324A25
:1051F000013BE260032B0FD8DFE803F00C16181A0E
:10520000CD0704D5062B46D852F823502843490829
:105210000133D4E7802363809DF8003013F0300F12
:1052200099D16FF09600C1E7C023F4E7FF23F2E7BE
:105230004FF48073EFE7052AB6D1032206E044F26B
:10524000121322889A4214BF02220422202E00D177
:10525000023298F8003088F801A062F3840388F8DD
:105260000030238803F44F42B2F5824F06D139460D
:10527000404602B0BDE8F047FFF7F6BEB3F5885FE1
:1052800094D1F4E76FF0860090E76FF088008DE727
:105290006FF091008AE76FF0830087E76FF092006C
:1052A00084E76FF0890081E774A70000004B4E800F
:1052B00001108001F48D00000008000600232DE994
:1052C000F0417F4D0B6095F8802507460E468CB067
:1052D000002A00F0EF8000F140421F2A66D82C23FC
:1052E00003FB02552B7F022B55D031460020FFF7E0
:1052F000ABF80446002870D10122336801465F6193
:10530000336805A85A6035681C2203F016FA6F69E5
:105310006C4A07F14043A3F580539342CDE9024420
:1053200000F2BF80684B9F425BD001339F4258D050
:10533000023B9F4255D0FFB2384604A902F074FFE9
:105340000446002840F08580BDF81230C3F3C11335
:10535000013BDBB2022B00F29E805C4AD25C5C4BCC
:1053600013436A690693DBB20A9203B90A900023D9
:10537000CDE900443846194605AAFFF7B7FE10F1FB
:105380008A0F044635D03068002C62D102F0DDFE71
:105390006FF096042AE06B699842A6D1284602F085
:1053A00030FE0446B0B93560002416E0002840F312
:1053B00084802A46117F022902D151698F4205D08B
:1053C0000133202B02F12C02F4D18EE72C2202FBB8
:1053D0000355E3E710F18C0F87D020460CB0BDE8F1
:1053E000F081306802F0B1FE6FF085040023336075
:1053F000F3E7069B374A4FEA1328B2EB132F02D08C
:10540000354B984547D102A905A8FEF719FD04467A
:10541000F8B928460299FEF7ABFC0446C8B9D5E9AD
:1054200009322C49884502D04B31884518D103A94F
:10543000CDE900213846002105AAFFF757FE0446B2
:1054400088B1686A10B1A96AFEF784FC0023C5E937
:105450000933306802F079FE14F18C0FC6D123E0D5
:105460006FF08B04EDE7039B05ACAB620FCC0FC56F
:1054700094E8070085E807003068083002F054FB24
:1054800033681A7F012A12D0306802F0BAFD044650
:10549000002889D0AAE7306802F057FE6FF0860432
:1054A000A4E7284602F051FE6FF087049EE702222F
:1054B0001A77E9E76FF088048FE76FF087048CE7CD
:1054C00030290020FFDFFF3F02C0FF7F74A70000EC
:1054D000004B4E80004E80004B4E80002DE9F04F77
:1054E0000D46002195B0DDE91E78164681460288FA
:1054F0009B46C8F800103960002B69D04168484CC1
:105500000B0AB4EB112F24D102A9D0F814A0FEF796
:1055100097FC0446C8B9029B9B457AD35FFA8AFA86
:105520002A4651464846FEF7D1FF044668B921464F
:1055300033465046CDE900B703AAFFF7D7FD04462E
:1055400018B9BDF80E30C8F80030204615B0BDE8D7
:10555000F08F002B60D122F0FF02B2F5E24F1DD197
:105560004388BBF11F0F039353D903A9FEF7CAFE6B
:1055700004460028E9D10246691E731E1F3511F842
:10558000010F8D4203F8010F42EA0002F7D1FAB190
:10559000039BC8F8003020233B60D6E7B2F5824F6A
:1055A0003AD14288B0F800A002920AF44F42B2F514
:1055B000824F18BF4FF0000A691E03A81F3511F86B
:1055C000014F8D4200F8014B43EA0403F7D113B9B0
:1055D0006FF08604B9E7BBF11F0F1AD9484602A93C
:1055E000FEF790FE04460028AFD15FFA8AF3122B33
:1055F000EED0302BECD0334603AA0BAE154603CDCC
:10560000B542186059602A4603F10803F6D1029B9F
:10561000BFE76FF0890498E76FF0850495E700BF56
:105620004B4E80002DE9F0411E46124B0C460360A4
:105630004FF4DE7105469046069FFFF773F8B8B940
:10564000A8F1040804EB8606284658F8042F54F8FD
:10565000041B02F0AAFE58B9B442F5D139462846D7
:1056600002F0D2FE20B92846BDE8F04102F0E7BEC4
:10567000BDE8F081208C00002DE9F0431D46324B3F
:10568000ADF50D7DCDE90701CDE9053522212023BA
:105690000DF13408CDE90913CDE90B320746032398
:1056A000CDF800800AAA06A91DA8FFF7BBFF044693
:1056B000002843D1FE7FEB7FF609DB0923494FEA3F
:1056C000467603A818BF46F08046FFF761F8DDE98B
:1056D00003949CBB324648461D491DABFFF7BCF8FE
:1056E000044658BB202241461D9802F081FD20222D
:1056F0001E9815A902F07CFD1F9C202220463946E9
:1057000002F076FD2022FB7FA91803F07F03E377E8
:10571000209802F06DFD219C20222046294602F0AF
:1057200067FDEB7F484603F07F03E37702F08CFCD4
:10573000FEF76CFD04464846FFF780F820460DF55D
:105740000D7DBDE8F08300BF98010020408C000073
:105750001C8E00002DE9F04F0024ADF5617D02AFF5
:10576000C7E9091007F59670FCF7FCF8BB6ABA6A3E
:105770001B895289DFF804821344BA6AD6681E4432
:10578000A64200F2BA8007F1AC0107F5967002F06C
:10579000C2F807F5967002F062FD7B6A002B00F0FC
:1057A000BD80BB6A786A1C89DB6807F596721C4469
:1057B0002146042302F031FA3861002840F0AE801F
:1057C00046F60812B7F82C11BB6A91425B8940F08B
:1057D000B580B7F82E11994240F0A0800423786A72
:1057E00007F59672214402F018FA002840F09680DE
:1057F00046F60713B7F82C219A4240F08F80BB6A17
:105800005F485B89C16D2344BB61BA69B7F82E312B
:1058100013447B60436A5A684FF4C06303FB012161
:1058200053424F311940836A406D013B5343424319
:105830005B1A521A934228BF13467A689A426DD86F
:10584000231D4FF0FF3426463B627B683A6A934241
:1058500040F27783BB6A5B8923B1BB69934204BF83
:1058600004333B620423D7E9081007F5967202F06F
:10587000D4F9002852D13A6AB7F82C31111DB7F883
:105880002E21FA62BA698A4208D84FF6FF753D4860
:1058900030F8022BAA4241D09A42F9D1122B51D0B2
:1058A000242B73D0012B62D1FB6A402B36D8786A47
:1058B00007F16C0202F0B1F980BB07F59670FCF7B6
:1058C00051F82C22304907F5967002F0D0FD07F10F
:1058D000EC0107F5967002F01EF807F5967002F0DD
:1058E000BEFCFA6A07F16C0107F1EC0002F054FF0C
:1058F000041E18BF0124644239E0351BB5F5807FD2
:1059000028BF4FF4807542462B462146786A02F044
:1059100084F958B107F5967002F0A1FC4FF0FF36FC
:10592000304607F55F77BD46BDE8F08F2A46414611
:1059300007F5967002F09BFD2C4421E7002B3FF405
:1059400057AFEBE7FB6A402BE8D1786A07F16C02AE
:1059500002F063F90028E1D1FA6A07F16C0107F15E
:10596000AC0002F019FF0028D8D101233B61FB6A8B
:105970003A6A04331A443A6267E700BFD23600201D
:105980006422002058A1000032A60000002CEED1B5
:10599000FB6A402BC2D1786A07F16C0202F03DF934
:1059A0000028BBD1B3493023796307F140022C3181
:1059B00007F1340002F0A4F8002840F0D4803B6CDA
:1059C0007D6B07F150021D442946302307F1340056
:1059D00002F096F8002840F0C6807B6BEA1A002A95
:1059E00040F3C1801A7807F13400C7F8EC203A6D13
:1059F00003EB02084146062307F1F00202F080F8AB
:105A0000002840F0B0807E6BD7F8F040C7F8F46013
:105A1000331998457B6340F08F800C2107F5967011
:105A2000FEF78EF9032C40F09E80224630469249C4
:105A300002F0B2FE002840F096802346294607F186
:105A4000400207F1340002F05BF8002840F08B8040
:105A50003B6C002B00F08780D7F834805E1E98F8EE
:105A600000903E64B9F1000F7DD1434408F1010A72
:105A70009D42C7F834A076D1202E74D11C2249460D
:105A800007F1500002F059FEFFF778F900286AD1BB
:105A900044F24213A7F850304FF4006307F59670B4
:105AA000C7F82C3102F040F8744BD7F82C51FB6545
:105AB000BD65C7F8EC9008F1200318F8012F4345A5
:105AC00049EA0209F9D1B9F1000F4CD025F00315CC
:105AD00025F47F4555BB07F1EC0107F59670FEF7FD
:105AE000B3FC18BBD7F8EC8007F1500EC446BEE8F3
:105AF0000F00ACE80F009EE807008CE80700D7F81D
:105B00002C31C8F81430D8F828308BB308F12803AA
:105B100007F59679CDF8049000935146D8E909230A
:105B200007F15000FFF7DAFCF86040B3D7F8EC005B
:105B3000C8B102F00AFB16E0325D0133C7F82C2130
:105B4000414607F5987207F134007B6301F08CFF42
:105B500048B97B6BD7F83021C7F8343113449845E6
:105B60007B633FF45FAF4FF0FF364FF0FF34FEE64C
:105B700020214046FEF7FCF80028C7D0D6E7B8F849
:105B80000220D9F80030002A5BD1A8F802304FF685
:105B9000F8729342CAD844F24213B8F800209A42ED
:105BA000C4D1D8F814307B6198F81C30012BBDD1DA
:105BB0000223786988F81C3007F13801FFF77EFB73
:105BC000002842D07B69002BCDD0786907F1EC0129
:105BD000FFF774FB90BBD7F8EC60337F022B2AD120
:105BE000032370683377C1B2FF2924D07269DFF8CC
:105BF00090C002F14043A3F5805363451BD8214B6D
:105C0000B3EB102F17D1032915D05FFA82F8404665
:105C100007F5967102F008FB68B997F82E31D7F8AE
:105C20002C21C3F30213042B00F24281012B00F25A
:105C30007E8100F08481304602F0A7FAFB685E1E88
:105C400093E79A427FF472AFA1E7BA6B9168B2F81A
:105C500000A0080509D55046D168FEF7A1FB98B908
:105C600050461169FEF79CFB70B9104602F08DFAA0
:105C7000A8E700BF32A600005EA7000000080006EB
:105C8000FFDFFF3F4B4E80005168B048D2E909B3B7
:105C9000B0EB112F3B604FEA112905D0AC49894583
:105CA00002D0B9F1000FE0D10AF44F41B1F5824FB3
:105CB0005AD12AF0FF08B8F5824FC7F81CD002D09D
:105CC000B8F5E24F50D15FFA8AF04228518842D1AC
:105CD00001F10802D208073222F00702ADEB020DF3
:105CE00002ABBB60002307F13C02FB63FEF756F8F2
:105CF000002837D1954B994534D0B8F5824F38D12B
:105D000059463A68B86802F03AFDFB6B5B68202B95
:105D100028D1402207F16C03B86807F1AC01FFF706
:105D2000ABFC02F0ABFA10F1860F8046D7F81CD01E
:105D30001AD0B86B02F029FA0646B8F1000F7FF4CA
:105D400041AF00287FF43EAF7B69002B3FF40DAFDD
:105D50000123FB6039E7CA1D41284FEAD20205D171
:105D6000002AB8D1D7F81CD0B86B7FE752000132B7
:105D7000B1E7202307F5967A07F1EC09C7F840B0A0
:105D80007B6450460123CDF8009007F1440207F1EF
:105D90004001FFF747FC8346002875D199F8003091
:105DA00023F0070389F8003099F81F3003F07F03D0
:105DB00043F0400389F81F30AAEB0603013E83F845
:105DC00000B0F9D1634907F14800FEF7E1FCD7E9DB
:105DD000128BBBF1000F57D15346324640465E4905
:105DE000FEF73AFD834600284ED120224946DAF8D4
:105DF000000002F0FDF92022DAF8040007F58671B0
:105E000002F0F6F9404602F01FF9FEF7FFF9D8F864
:105E100010108346D8E901304A680968C90003D5E3
:105E2000D8F80C10411A0B44AABBD8E906C307F5F1
:105E3000867603F1200E324618685968083303C28B
:105E400073451646F7D19CF8002097F82B31404651
:105E500043EAC21387F82B31FEF7F0FCBBF1000FC9
:105E600012D1BA6807F5867607F5967C334603CBE0
:105E70006345106051601E4602F10802F6D14021D0
:105E800007F1EC0002F0CAF8584602F0F7F90028D2
:105E90003FF43BAF66E7D10707D50B2E01D902F0DF
:105EA00044FCB11D48F82130013603445210BBE7D1
:105EB000052B7FF4C0AE02F03003202BDFF89C905E
:105EC0002749DFF8A0A008BF023405EB08035046BD
