:020000040100F9
:10000000C80D002105100001713E0001F10F000133
:10001000F10F0001F10F0001F10F000100000000DD
:10002000000000000000000000000000A910000116
:10003000F10F000100000000F10F0001F10F0001BD
:10004000CD110001CD110001CD110001CD11000134
:10005000CD110001CD110001CD110001CD11000124
:10006000CD110001CD110001CD110001CD11000114
:10007000CD110001CD110001CD110001CD11000104
:10008000CD110001CD110001CD110001CD110001F4
:10009000CD110001CD110001CD110001CD110001E4
:1000A000CD110001CD110001CD110001CD110001D4
:1000B000CD110001CD110001000000000000000082
:1000C0000000000000000000000000000000000030
:1000D0000000000000000000000000000000000020
:1000E0000000000000000000000000000000000010
:1000F0000000000000000000000000000000000000
:1001000000000000000000000000000000000000EF
:1001100000000000000000000000000000000000DF
:1001200000000000000000000000000000000000CF
:1001300000000000000000000000000000000000BF
:1001400000000000000000000000000000000000AF
:10015000000000000000000000000000000000009F
:10016000000000000000000000000000000000008F
:10017000000000000000000000000000000000007F
:10018000000000000000000000000000000000006F
:10019000000000000000000000000000000000005F
:1001A000000000000000000000000000000000004F
:1001B000000000000000000000000000000000003F
:1001C000000000000000000000000000000000002F
:1001D000000000000000000000000000000000001F
:1001E000000000000000000000000000000000000F
:1001F00000000000000000000000000000000000FF
:10020000DEE61E284CBBCE8F023500003C0000000D
:100210004852000001000000000000010000000141
:10022000FFFF02910000000000000000000000003D
:1002300000000000000000000000000030B44FF09B
:10024000000310F8014B11F8015B013A84EA050440
:1002500043EA0403F5D1A3F101034FEAD37030BCA4
:10026000704700BF4FF0000310F8012B013943EA3B
:100270000203F9D1A3F101034FEAD370704700BF25
:1002800030B411F8014B12F8015B6C4000F8014BDF
:10029000013BF6D130BC70472DE9F04F90E8F00FEC
:1002A00000F140004FF0040E59E0F0B4826BC36BD4
:1002B00004680525242687593C444FEA724787EA9B
:1002C000F24787EA92273C4442684FEAF21787EAEE
:1002D000B24787EAD2073C4440F8044B032D08BFDD
:1002E0006FF01B0687593A444FEA734787EAF34792
:1002F00087EA93273A4443684FEAF31787EAB347FC
:1003000087EAD3073A4440F8042B87593B444FEA25
:10031000744787EAF44787EA94273B4444684FEAE6
:10032000F41787EAB44787EAD4073B4440F8043B14
:10033000013DC0D1A0F13C00076A3C444FEA72473E
:1003400087EAF24787EA92273C4402684FEAF217AD
:1003500087EAB24787EAD2073C44C463F0BC4FF057
:10036000020288EA781C8CEAF84C0BEBBC1C8AEA87
:10037000090303EA080383EA0A039C4450F8043B98
:100380009C4451F8043B9C44674444EA050B0BEA47
:10039000060B04EA05034BEA030BE34484EAF42367
:1003A00083EA34530BEBB30B87EA771C8CEAF74CE8
:1003B0000AEBBC1C89EA080303EA070383EA090382
:1003C0009C4450F8043B9C4451F8043B9C446644D4
:1003D0004BEA040A0AEA050A0BEA04034AEA030A9A
:1003E000E2448BEAFB2383EA3B530AEBB30A86EA37
:1003F000761C8CEAF64C09EBBC1C88EA070303EA7E
:10040000060383EA08039C4450F8043B9C4451F8DB
:10041000043B9C4465444AEA0B0909EA04090AEAD8
:100420000B0349EA0309E1448AEAFA2383EA3A53CF
:1004300009EBB30985EA751C8CEAF54C08EBBC1C8A
:1004400087EA060303EA050383EA07039C4450F89E
:10045000043B9C4451F8043B9C44644449EA0A0828
:1004600008EA0B0809EA0A0348EA0308E04489EAB3
:10047000F92383EA395308EBB30884EA741C8CEA45
:10048000F44C07EBBC1C86EA050303EA040383EA89
:1004900006039C4450F8043B9C4451F8043B9C44A4
:1004A000E34448EA090707EA0A0708EA090347EAB2
:1004B0000307674488EAF82383EA385307EBB30756
:1004C0008BEA7B1C8CEAFB4C06EBBC1C85EA040324
:1004D00003EA0B0383EA05039C4450F8043B9C4465
:1004E00051F8043B9C44E24447EA080606EA090640
:1004F00007EA080346EA0306664487EAF72383EA25
:10050000375306EBB3068AEA7A1C8CEAFA4C05EB01
:10051000BC1C84EA0B0303EA0A0383EA04039C4439
:1005200050F8043B9C4451F8043B9C44E14446EAA7
:10053000070505EA080506EA070345EA03056544D9
:1005400086EAF62383EA365305EBB30589EA791C7C
:100550008CEAF94C04EBBC1C8BEA0A0303EA09039E
:1005600083EA0B039C4450F8043B9C4451F8043B41
:100570009C44E04445EA060404EA070405EA06034D
:1005800044EA0304644485EAF52383EA355304EB23
:10059000B304013A7FF4E5AEA0F14000BEF1010ED4
:1005A0007FF483AEA0F1400C9CE80F0000194919BC
:1005B0009219DB19ACE80F009CE80F004044494455
:1005C00052445B44ACE80F00BDE8F08F2DE9F043E6
:1005D00085B0304803F0E4FE30B92F4803F0E0FA6C
:1005E000002005B0BDE8F0834FF408414FF0807063
:1005F00003F02EFE28B1294803F0D2FA01F0F0FFF3
:10060000EEE701F0E7FF054601F0F2FFE8B903F07D
:100610008AFE04460146284603F048FE10B92146EA
:100620001F4805E01B4802F007F8014618B11D48B5
:1006300003F0B6FAE2E72946284603F037FE10B188
:1006400002F020F8FEE72946EAE74FF45E3116484B
:1006500003F0FEFD014608B11448E9E70446DFF85F
:100660005090DFF8508001AF59F8046B98E807000C
:100670002E4487E807000C223946304603F0CDFEB1
:1006800000B91EB90134072CEED10026304601F026
:1006900067FDA5E7784500011049000128490001E0
:1006A0005649000180490001008800019F4900016E
:1006B00018470001D0460001B2F5802F2DE9F04126
:1006C0000CD2042A20D83F4940F21A223E4803F0B7
:1006D0007DFA40F21A213B4803F06FFA0823D21A40
:1006E000CC1D114424F0070421F00701091B172930
:1006F0004FEAD1060AD8334940F22322324803F0A8
:1007000065FA40F22321E6E70423E8E700250460C8
:1007100031462046A660E56003F0EFF9B6F5004FDC
:100720002CBF08230423421D92000833D11DDB088F
:1007300003EBD103B3424FEAD10739D80130294640
:10074000A2F1100204F11000B8BF2A4603F05DFECA
:100750003A462946204603F0CCF92B462A4629463C
:10076000204603F09DF9A6EB070820462946012202
:1007700003F0A7F94246394603F0BBF93B462A4647
:100780003946204603F08CF93146204603F0B1F992
:1007900043462A463146204603F082F93146204638
:1007A000012203F08EF93946BDE8F04103F0B4B9F7
:1007B00004494FF40E72044803F008FA4FF40E7126
:1007C00089E700BFC1490001E4490001014B1B68F2
:1007D000184700BF1C000021014B1860704700BF84
:1007E0001C00002130B585B004460D4610220021C2
:1007F000684603F00AFE02238DF80230044B2A46B5
:1008000021466846019302F0E5FE05B030BD00BF09
:10081000CD0700012DE9F0471646028B044610076C
:1008200012D4022902F007025BD1204603F0DBF963
:1008300088B10138042800F21081DFE810F052007E
:100840000E017400B300E00001290CBF42F0100259
:1008500042F02002228386F31188BFF36F8FBDE838
:10086000F08703F00701481F01281ED80020062941
:100870002768C4E9000014D1394603E0608B0130D9
:10088000608309680029F9D123F0070343F00201CE
:100890002046218303F0A7F990B341F02001218382
:1008A0002EE023F0070399B2F2E7042930D123F0B8
:1008B000070399B22046218303F095F910B141F066
:1008C00020012183238B03F00709914540F0CE805E
:1008D000228BD10640F1F48022F01003238302F032
:1008E0000702D4F81480238BB8F1000FB9DA002185
:1008F000276823F00703C4E9001143F001032383B1
:10090000238B03F00709914500F0E380002536E0D2
:100910007B4940F21B127B4803F058F940F21B114F
:10092000774803F04AF942B175494FF4AB72754804
:1009300003F04CF94FF4AB71F2E7236843B9704907
:1009400040F257126F4803F041F940F25711E7E7C0
:1009500023691D6845B96A494FF4AD72694803F0CF
:1009600035F94FF4AD71DBE7174690464FF00609B5
:10097000238B23F0070343F006039BB22383A26873
:10098000002A76D1002F40F0A880002DA0D043F09F
:100990000803238386F31188BFF36F8F20465A49DB
:1009A000A84781E0022A08D0554940F25D12554817
:1009B00003F00CF940F25D11B2E7678B47B1504983
:1009C0004FF4AF724F4803F001F94FF4AF71A7E74E
:1009D00023695D6845B94A4940F26112494803F00C
:1009E000F5F840F261119BE7238BB84623F007032B
:1009F00043F004039BB24FF004092383BFE7012AAD
:100A000008D03F494FF4B2723E4803F0DFF84FF48C
:100A1000B27185E7236843B9394940F26512394814
:100A200003F0D4F840F265117AE723699D6845B96F
:100A300033494FF4B472334803F0C8F84FF4B4713B
:100A40006EE70027238BB84623F0070343F0050326
:100A50009BB24FF00509238391E7294940F26B12BD
:100A6000284803F0B3F840F26B1159E700273D46E0
:100A700085E743F00803238386F31188BFF36F8F64
:100A8000A16889B30E6879B343464A462046D1F837
:100A900004A0D0471EB1336831461E46F3E7334603
:100AA000FAE7002D7FF47AAFEFF31186202383F36A
:100AB0001288BFF36F8F238B23F00803238307E78C
:100AC00093067FF5C8AE22F02003238302F00702CD
:100AD000ABE6002F3FF4FCAE002543F00803238370
:100AE00086F31188BFF36F8F002FDAD03E68394646
:100AF00043464A46204603F0A2F83746F4E700BFD3
:100B0000FC490001E44900016B3C000170B5054659
:100B10000E4603F084F8041E14DBEFF31182202349
:100B200083F31288BFF36F8F4FF6FF716B8B2C8BA3
:100B30008B4204F0070407D182F31188BFF36F8F53
:100B40006FF00A04204670BD022C0CD101336B8378
:100B500082F31188BFF36F8F002322463146284667
:100B600003F06DF8EEE7062C11D8DFE804F0041E60
:100B7000101004250400002333606B6893B9C5E9A5
:100B8000006604BB02212846FFF744FEDAE710495D
:100B900010484FF4E47203F019F84FF4E4710C4874
:100BA00003F00BF81E606E60EBE782F31188BFF371
:100BB0006F8F6FF00404C5E782F31188BFF36F8F66
:100BC0006FF08504BEE782F31188BFF36F8FB9E73A
:100BD000FC490001E449000108B54268034602F0FF
:100BE0000302032A816002D02AB1002000E00068DD
:100BF00000225A6008BD04490448452202F0E6FF7D
:100C00004521014802F0D9FF214A0001E4490001D1
:100C10002DE9F7430D46DDE90A9790461E46044646
:100C200010B96FF00D003DE00029FAD0002AF8D08D
:100C30008B680846DB6898470368B6FBF3F203FB52
:100C40001262002AEDD1B9FBF3F203FB1292002AE3
:100C5000E7D1002FE5D0B7FBF3F103FB11710029B9
:100C6000DFD1C4E90086C4E905972161A160E56090
:100C700003686A4663620C9BC4E907314379CDE996
:100C800000612846094984F8283003F0E9F9019AFF
:100C9000002AC6D0D4E905310B449A422CBF00206B
:100CA0006FF00D0003B0BDE8F08300BFE93C000128
:100CB00008B5044802F074FFBDE80840024802F09D
:100CC0006FBF00BF474A00017D4A000108B50348D5
:100CD000034A0021121A03F0BDF808BD5800002194
:100CE000C4010021074808B5074A0849121A03F051
:100CF000B3F8BDE808400648064A0749121A03F04F
:100D0000ABB800BF1C0000215800002108520001B0
:100D1000000000211C000021EC51000130BFFFF752
:100D2000FDBF00BF154B9A6A12F0007F9A6A14BF8C
:100D30001E201D2012F0807F9A6A18BF1F2012F417
:100D4000801F9A6A18BF022012F4002F9A6A18BFF7
:100D5000212012F4802F9A6A18BF222012F4003F3B
:100D60009A6A18BF232012F4803F9A6A18BF242081
:100D70006FEA02426FEA12429A62704700ED00E0A9
:100D800010B5164B9A6A9C6A12F4805F14BF172242
:100D9000162214F4006F9C6A18BF1822A40509D506
:100DA0009A6B9A6A120404D518B19A6A22F4004226
:100DB0009A621922094B986A10F4806F986A18BFDA
:100DC0001A2210F4807F986A40F47F4098624FF0B6
:100DD00000030CBF10461B200B7010BD00ED00E09F
:100DE00010B51E4B0246986A9C6A10F0100F14BF93
:100DF0001120102014F0080F9C6A18BF1220A407BD
:100E000009D5586B986A000604D51AB19A6A22F07F
:100E100080029A621320114B9A6A12F0010F9A6AAB
:100E200018BF1420D40602D49B6A9A070ED50B4B28
:100E30009B6ADB060AD50A490A4840F22D1202F0E5
:100E4000C5FE40F22D11064802F0B7FE034A936A30
:100E500043F0FF03936200230B7010BD00ED00E030
:100E6000AB4A0001E4490001F0B5564B04465B680B
:100E700000258BB0C3F3080385F31188BFF36F8F90
:100E800002F07F40B0F17F4F08D102F00C0008283B
:100E900004D012074CBF0C46012554B94A4940F210
:100EA00014424A4802F092FE40F21441464802F0D1
:100EB00084FE0022033B8DF80720032B7BD8DFE85C
:100EC00003F00272765D3F4AD36A13F0020372D1D7
:100ED000D16A00291ADBD36A5B005BD55369A1692B
:100EE00043F480735361BFF34F8FBFF36F8F536928
:100EF00031F8021C23F480735361BFF34F8FBFF3AB
:100F00006F8F4DF60273994220D123689DF8072018
:100F1000D2B9224602AE04F1200734461068516867
:100F2000083203C4BA422646F7D1099A002D44D0AC
:100F3000C2F3080121B96FEA52226FEA42220992F4
:100F4000184602A902F08AFF0BB0F0BD936ADBB22B
:100F500033B101200DF10701FFF742FF0346D5E74A
:100F6000936A13F47F4F05D001200DF10701FFF7BD
:100F700007FFF3E7936AB3F5803F02D3FFF7D2FE92
:100F8000ECE7114940F2ED22104802F01FFE40F25A
:100F9000ED218BE70C494FF43C720C4802F016FE31
:100FA0004FF43C7182E700200DF10701D4E70020E7
:100FB0000DF10701DBE70023A8E722F4FF7222F01E
:100FC0000102BCE700ED00E0AB4A0001E44900018A
:100FD000064B5A6942F010025A615A6942F4806223
:100FE0005A615A6922F008025A61704700ED00E028
:100FF000EFF30880EFF3098101B57246FFF734FF84
:1010000001BD00BF002080F31488BFF36F8F002064
:1010100080F30A8880F30B880F4880F3088801F07A
:10102000F9FB00200D490860BFF34F8F00F01AF85C
:10103000202080F311880A484FF40061401880F3A3
:101040000988EFF314800221084380F31488BFF36A
:101050006F8F02F019FF0000C80D002194ED00E031
:10106000C801002172B6002383F313884FF0FF30CC
:101070000C4A03F120010133102B42F82100F8D172
:1010800000234FF0FF30074A03F160010133102BBA
:1010900042F82100F8D162B6BFF34F8FBFF36F8FD4
:1010A000704700BF00E100E01EF0040F0CBFEFF33B
:1010B0000880EFF30980816911F8021C0229FFD032
:1010C00001B5724602F0D0FE01BD00BF40B200285B
:1010D00007DB01234109034A00F01F00834042F867
:1010E0002130704700E100E0054B420953F822200F
:1010F000012300F01F0003FA00F01040704700BF0A
:1011000000E100E00131072908B508D90D490E4872
:101110006B2202F05BFD6B210A4802F04EFD40B2EB
:101120000028ACBF00F16040084B4FEA4111C9B242
:10113000ABBF00F5614000F00F0080F800131954B8
:1011400008BD00BFDD4A0001E449000114ED00E0E4
:10115000044B054A23F07F039360BFF34F8FBFF327
:101160006F8F70470000000100ED00E0154680B56C
:1011700006460C46002282F30B880A4FA7F58068CA
:1011800088F30B8887F309880020044988472046A4
:1011900029461A46B04702488047FEE79F3E0001B5
:1011A000AD3E0001C80D00211022014B1A617047AD
:1011B00000ED00E0002320210348C21801331E2B5C
:1011C00082F80013F9D1704700E100E008B5EFF3B1
:1011D0000583064A103B02EBC30152F8330049680D
:1011E0008847BDE8084002F04ABE00BF98450001AC
:1011F00008B5024B1B689847002008BD000100217C
:10120000034B044A1860937843F0020393707047CD
:10121000000100212000002108B50649064821F000
:101220000701C1F1045202F58032FFF745FA0020B0
:1012300008BD00BFCF0D002104010021064AD2F8ED
:10124000AC3123F00043C2F8AC310022034BC3F8A9
:101250004C21D3F84C31704700200141006001411E
:1012600073B5354BD3E84F3F00233449CDE9003304
:10127000334BD3F80445BFF35F8FD1F80465BFF358
:101280005F8FD3F804259442F3D16B4622460121A7
:101290002B4802F036FE324605460F21274801ABA7
:1012A00002F02FFEE0B1019B0DB9009302E0009A1D
:1012B0009342FAD3009B22481C44013CD0F84C35A1
:1012C00024F07F449C421F4932D0FFF7B7FFC0F89B
:1012D0004C451D4B009A9A4218D901230B7001E02E
:1012E000002DE7D1194AD2F8AC3143F00043C2F8DF
:1012F000AC31134BD3F84C2132B90121144A51605F
:10130000D3F84C3103B1116001230DE0BFF35F8FBF
:10131000D0F80435E41A24F07F440E4B033C9C4281
:10132000DBD900230B7000230B4A137002B070BD91
:101330000B78002BF7D0D5E7C00100210010014148
:1013400000600141BE010021FEFF7F00002001413D
:1013500000B00041FBFF7F00BF010021F8B51E492E
:101360000023C1E8423F52BB1C4B1D783DB305230F
:101370001B4E1C4F34780134B4FBF3F303EB8303AF
:10138000E41A02F061FF184A137823B157F82430A9
:10139000C01A072813D9154BD3F8141141B10021F5
:1013A000C3F81411D3F8143134700CB9012313703D
:1013B000347802F049FF47F824002846F8BD0C4A6B
:1013C0000025D2F8AC3123F00043C2F8AC31012241
:1013D000084B5A60F1E700BFC0010021BF010021A6
:1013E000BD01002110010021BC010021005000417D
:1013F0000020014100B000410122024BC3F840250A
:10140000704700BF000008415023142213B5234C3D
:101410000DF10700C4F80C35214BC3F820214FF41F
:101420000062204BC3F8BC254FF48062C3F8382516
:1014300001F0A6FA1C4B98420AD01C491C4840F205
:101440003A2202F0C3FB40F23A21184802F0B5FB01
:101450009DF80700174901F06BFA9DF8070016493F
:1014600001F07AFA9DF80700144901F061FA21466B
:101470009DF8070001F070FA01209DF807309840B0
:1014800001F050FA4FF400220D4BC3F84423002220
:10149000C3F84C21D3F84C3102B010BD00B000416C
:1014A00000302041002001410000AD0B144B000131
:1014B000E44900014C610141282001412C210141F6
:1014C0000060014120B1034B800143F00103184744
:1014D000704700BF10470001BFF34F8F0549064B0F
:1014E000CA6802F4E0621343CB60BFF34F8F00BFC2
:1014F000FDE700BF00ED00E00400FA05402373B5EE
:101500000B4C0093041B0B460D460A49A410614383
:101510000646094A094802F025FD011E05DA304653
:101520002B4602B0BDE87040184702B070BD00BF46
:1015300038010021B76DDBB6D33F0001384500010B
:10154000C9B2012908B508D9084909487F2202F023
:101550003DFB7F21054802F030FB0C22036901FBB3
:101560000233186C00F0070008BD00BF3E4B0001BD
:10157000E449000170B5C9B2012903690AD91849C3
:1015800018484FF4EC7202F021FB4FF4EC71144850
:1015900002F013FBEFF31185202484F31288BFF3CC
:1015A0006F8F0C2606FB0134246C14F0C00408D0A5
:1015B000A24206D085F31188BFF36F8F4FF0FF3042
:1015C00070BD012271430B441A6485F31188BFF387
:1015D0006F8F43680B445B6898470020F0E700BFBB
:1015E0003E4B0001E4490001084B70B5C31A0D469B
:1015F00007499B100446594340220648FFF7BAFFAB
:101600002B4601462046BDE87040184738010021AE
:10161000B76DDBB63845000170B5002201210446E4
:101620000520FFF76FFD0F4801F026FA0E4B984298
:1016300015D101F031FA26690C49304602F022FB3F
:1016400000280BDB012535642469084904F11C00DE
:1016500002F018FB002801DB0020E56470BD6FF08C
:101660000400FBE7F11600010000AD0B3447000158
:1016700010B5EFF31184202383F31288BFF36F8F2B
:10168000074A136823F00201DB07116002D401202E
:1016900001F09EFA84F31188BFF36F8F10BD00BF75
:1016A000880100210C22104B014602FB0033002070
:1016B00030B4D3E90E529863EFF31180202484F301
:1016C0001288BFF36F8F1C6C04F0C00444F0020456
:1016D0001C6480F31188BFF36F8F1DB12B4630BCA3
:1016E0000248184730BC70473801002138450001D6
:1016F000012808B506D0072808D090B90E4B1B6CFE
:101700005B0717D1BDE80840FFF7CCBF0B4940F29B
:10171000FF220B4802F05AFA40F2FF21074802F07C
:101720004CFA064940F20932054802F04FFA40F2FD
:101730000931F3E708BD00BF380100213E4B00012D
:10174000E449000110B4EFF31182202383F31288DF
:10175000BFF36F8F1748016841F002040460C807A7
:1017600007D482F31188BFF36F8F012010BC01F002
:10177000BBB91149D1F80C04D1F80C14C907F0D544
:10178000EFF3118083F31288BFF36F8F0B490B6C5B
:1017900003F0C00343F002030B6480F31188BFF32E
:1017A0006F8F82F31188BFF36F8F002010BCFFF79B
:1017B00079BF00BF8801002100500041380100219D
:1017C0002DE9F843012206463D49D1E8EF3FC1E843
:1017D000E02F0028F9D19BB93A493B484B60CB60D8
:1017E0008A60FFF793F900280ADA384940F2AB2201
:1017F000374802F0EBF940F2AB21344802F0DDF952
:101800006EB3731E012B52D8012E06D1314BD3F883
:101810001C3403F00303022B21D002F0CCFD05465B
:10182000F8B92D4B1B78E3B102220746294BC3F8C8
:1018300008234FF00008274CDFF8A090D4F81824B4
:10184000D4F81834D20315D503F00303022B01D0CA
:10185000012E0FD135B387F31188BFF36F8FBDE829
:10186000F883EFF31187202383F31288BFF36F8F80
:101870000125DEE7384602F021FBD4F81835DBB24B
:10188000012BDBD1D4F80421002AD7D0C4F804817D
:10189000D4F804210222C4F818252022C9F8802196
:1018A000A360CBE702220B4BC3F80423D7E7074919
:1018B00040F2BD22064802F089F940F2BD219CE7C2
:1018C0003401002124010021540100213E4B00017C
:1018D000E449000100500041C301002100E100E0A3
:1018E00008B5074802F05CFD38B10648FFF788FCF0
:1018F0000448FEF771FF002008BD6FF01200FBE7FF
:1019000058450001091900010A2838B50446074D59
:1019100004D1AB680D2128465B689847AB68034843
:101920005B68E1B29847204638BD00BF58450001CA
:10193000024B0B6001231360704700BF8C01002134
:10194000004870475847000110B502F023FD034CD2
:10195000206002F01CFD6060002010BD8C010021A1
:10196000F8B50E461946304617461C4602F0ADFB48
:10197000C8B106F1807646EA040515F0030512D1D8
:1019800054B124F00304A54206EB050006D1074A32
:10199000D2F80034DB07FBD50020F8BD795901F0FF
:1019A000BFF90435EFE76FF01500F6E700000841D6
:1019B00008B503680246590913D0012906D14FF62C
:1019C000FF7103F01F03D940C80711D40A490B481F
:1019D00040F2CA3202F0FAF840F2CA31064802F088
:1019E000ECF84FF0FF31D940C907EFD5044800E0CB
:1019F0000448136008BD00BFB04B0001E44900017A
:101A000000058C4100088C412DE9F04F9346824639
:101A100040F2FF17DFF8CC9085B000EB8106B245AD
:101A200003D1002005B0BDE8F08FDAF80030C3F331
:101A3000C322082AC3F308044DD82B491B0EBC420D
:101A400008BF4FF0FF348D5C032B47D8DFE803F06D
:101A500002093336CBF80C45631C32D10AF1040A73
:101A6000DDE7CBF81445621CF8D00021DAF800302D
:101A700003A803F40042002A16BF002188464FF055
:101A80000108019300910394FFF792FF039C019BCF
:101A900000EB8400D0F80042C3F3412C00992B02E4
:101AA00043EA8C030B4304EA0904234343EA480353
:101AB000C0F80032D2E7CBF80845CDE7CBF81045A7
:101AC000D1E703A80394FFF773FF0121039B01FAF9
:101AD00003F38360CAE76FF01500A3E76FF085009A
:101AE000A0E700BFF0F0FCFFE34B00012DE9F0415F
:101AF00004460D46476802F05EFC4FF0200868B9C6
:101B0000244B1B7853B16426606802F059FBD0B9AE
:101B1000012002F018FC013EF6D1F4E7EFF3118644
:101B2000314688F31288BFF36F8F606802F048FB7C
:101B3000A8B986F31188BFF36F8FEFE786F311889A
:101B4000BFF36F8FDFE7EFF31186314688F312881A
:101B5000BFF36F8F606802F033FB0028EED0FB69A3
:101B600000201D706368FA691B68C3F844250122D0
:101B7000C3F84825C3F82001D3F82041C3F8580121
:101B8000D3F858019A6081F31188BFF36F8FBDE8D5
:101B9000F08100BFC3010021F8B5054600220121F4
:101BA0001320FFF7AFFA1320FFF790FA6C680121BA
:101BB000E06802F036FB6B6819682369C1F82435C8
:101BC000A27D637D207D1343228B02431343C1F822
:101BD0006C356E68D6E9004313F0010342D02F69DB
:101BE00007F1080000F0CCFE2D4B984254D1387A12
:101BF00004F10C0204F5907102F0A7FB387A01277A
:101C000007FA00F000F08EFE0823C4F80035F369EF
:101C1000C4F844350023C4F84835A760D4F85831D7
:101C2000002BFBD00026C4F800656B683146D868ED
:101C300002F0F7FA6D683146E8682C6802F0F1FAB4
:101C40000823C4F800352A7A52B92B6AC4F834350F
:101C50000123C4F83835C4F81021D4F810212360CA
:101C60000020F8BD0822C4F80025F269C4F8442514
:101C7000C4F848350123A360D4F82031002BFBD0F1
:101C80000023C4F82031D4F820310123E3604FF45D
:101C90008073C4F80433C1E76FF00400E1E700BFCC
:101CA0000000AD0B0D4B1868010A0006BFF35F8FF3
:101CB0000B4BD3F80435181841F10001B3F5801F20
:101CC0000AD2084BD3E90023904271EB030303D2FD
:101CD00010F1807041F10001704700BFA8010021A0
:101CE00000600141700000212DE9F74302F038F94E
:101CF0002E4BD3F8042390070BD5D3F8042142B11F
:101D00000022C3F804212A4AD3F8043113680133AE
:101D10001360264AD2F80433D90326D5254BD3E8DD
:101D2000EF1F21F00100C3E8E40F002CF7D1CB072F
:101D300002D4D2F84031C3B100251C4CC4F8405144
:101D4000D4F84031FFF7AEFFEFF31182202383F385
:101D50001288BFF36F8F184BD3E90267B042B941C5
:101D600006D282F31188BFF36F8F03B0BDE8F08312
:101D70004FF0FF38D3E900104FF0FF391D60C3E981
:101D800002894FF48033C4F84833C4F84051D4F882
:101D9000403182F31188BFF36F8F0029E5D00090A6
:101DA00032463B4628468847DFE700BF00600141D6
:101DB000A8010021A0010021580000212DE9F74FC2
:101DC0004FF0010808FA00F8144606461D466FEA6F
:101DD0000802DFF830A1DAE8EF3F03EA0201CAE8BF
:101DE000E01F0028F7D14FF48037DFF81C91B7408F
:101DF000C9F80873BFF35F8FBFF36F8F08EA03035F
:101E00000093FFF74FFFA04271EB05034BD23F4B0E
:101E1000201A65EB0101984271F1000156D23C4B4A
:101E200003EB0613D3E902239D4208BF944243D03B
:101E30004FF0000B24F07F4EF446032006F15003D0
:101E40009B009BB203F1824303F5B033C9F848739A
:101E5000C3F800B01A6806F5A872019201992CF037
:101E60007F4249F821206FF00202C9F84473D9F883
:101E70000415521A6244DFF89CC022F07F4262458A
:101E80001AD91A685AB1D9F80415A1EB0E0222F03A
:101E90007F42B2F5000F0FD9C3F800B01A6800EB0B
:101EA000010C0130DAE71C4BD3E8EF1F41EA0801CF
:101EB000C3E8E21F002AF7D1154918483301C8507A
:101EC000002301EB0612C2E902455360009BABB14F
:101ED000DAE8EF3F43EA0803CAE8E23F002AF7D115
:101EE000094BC3F804730C4BD3E8AF3FF340DB0757
:101EF00042BF4FF480020A4BC3F8002103B0BDE893
:101F0000F08F00BFA40100210060014101008000AA
:101F100058000021FDFF7F00A0010021A51F000146
:101F200000E100E070B54FF0FF3000254FF0FF31C9
:101F3000174C184B0226C4F80833C4F84833164B24
:101F4000C4F80855C3E902014FF480334FF480020E
:101F5000C4F80433114B0121C4F804631620C3F8FC
:101F600080212A46FFF7CEF81620FFF7AFF80123AD
:101F70000B4AA3602846236013604FF4807200234D
:101F8000FFF71CFF3046FFF71BFC284670BD00BF63
:101F90000060014103000F005800002100E100E053
:101FA000A4010021F8B5144922F07F45D1E900636E
:101FB000921B140A22F0FF02921943F10003C1E9B7
:101FC0000023A5F50011B1F5400F0AD20B490968AD
:101FD0004FEA112C09064E1909494CF10007C1E9D5
:101FE000006712F5807243F10003FFF7E7FE204619
:101FF000BDE8F84000F0C6BF68000021A80100213C
:102000007000002130B5024600240B490B4D0B68CF
:1020100005EB0310D0F80808C0B218B904B10B6082
:10202000002007E00133072B4FF00104F0D96FF0D7
:102030001B000B60136030BDAC01002100000841A3
:10204000F7B5434D0646D5F820320C46B3F5006F80
:10205000174608D03F494048212201F0B7FD212111
:102060003C4801F0AAFD01A8FFF7CCFF002867D18A
:10207000D5F82022B6FBF2F302FB1363002B61D1EB
:10208000D5F82022B4FBF2F302FB1343002B59D105
:10209000D5F82022D5F824325343A34252D3002C42
:1020A00050D0019B072B07D92C4977222A4801F0F1
:1020B0008DFD77212948D4E7D5F82012B6FBF1F23F
:1020C00001FB126232B125497822234801F07EFDDE
:1020D0007821EFE7D5F82022D5F824124A4394421C
:1020E00006D91E4979221C4801F070FD7921E1E7EB
:1020F000D5F82012B4FBF1F201FB124232B11749BC
:102100007B22154801F062FD7B21D3E71B0103F11F
:10211000824101F50021C1F80068C1F80448C1F806
:102120000878D1F8002896420FD1D1F804289442BB
:102130000BD1D1F80838DBB29F4218BF6FF00D0009
:1021400003B0F0BD6FF01500FAE76FF00D00F7E790
:102150000000FF01FA4B0001E4490001264C000198
:1021600030B50446816985B04C4801F019FD012164
:10217000204600F0DFFA28B9494805B0BDE83040F4
:1021800001F00EBD00226846464B474DC3F80025BE
:10219000D3F80C150091D3F814150191D3F8081554
:1021A0000291D3F81035039350F8043B591C1DD00D
:1021B00059090CD0012967D03C493D4840F2CA3248
:1021C00001F004FD40F2CA31384801F0F6FC4FF04E
:1021D000FF31D940C907EFD5364901EB8303D3F866
:1021E0000012294041F00201C3F800120132042A12
:1021F000DAD14FF0FF32304BC3F80823BFF36F8FB3
:1022000072B600232D4903F120000133102B41F851
:102210002020F8D100234FF0FF30284A03F160015D
:102220000133102B42F82100F8D14FF0E0230022B7
:102230001A61D3F8042D03F5506342F000725A601E
:102240005A6A22F4E0225A62EFF31482920707D509
:10225000EFF3148222F0020282F31488BFF36F8F2F
:10226000BFF34F8FBFF36F8FA2699A60A2690023FB
:1022700083F30B8883F30A88116881F3088883F35A
:1022800009880F4B506898474FF6FF7103F01F0302
:10229000D940C90790D50B499FE700BF584C0001B2
:1022A0006A4C000100300141F0F0FCFFB04B00012E
:1022B000E449000100058C410050004100E100E0CC
:1022C0000100002100088C411FB50446074A01ABFC
:1022D00007CA83E807000C221946204602F09DF841
:1022E00000280CBF2046002004B010BDDC460001D1
:1022F00070B505460024054E56F8040B2844FFF738
:10230000E3FF10B90134072CF6D170BDC0470001BE
:1023100037B5054690B101200DF1060102F000F835
:10232000044630B14521074801F0D1FC204603B0F6
:1023300030BDBDF806305B082B80F7E76FF0150461
:10234000F4E700BF9F4C00012DE9F04F814685B0B6
:102350001046884615461F46D4681669FFF7B4FF35
:1023600040B91FB94521704801F0B1FC002005B00B
:10237000BDE8F08FA869484504D0002FF6D145216B
:102380006A48F1E727B940451ED045216848EBE788
:102390004046FFF7ADFF8542E8D12A6A654B9A4275
:1023A000E4D10DF10200FFF7B3FF00283DD1BDF8E5
:1023B00002206B699A42D9D86419D7D216EB080368
:1023C0003ED3002FD2D12DE0FFF792FF854202D0FD
:1023D00045215948C8E72A6A564B9A4211D14921EA
:1023E000564801F074FC0DF10200FFF791FF024620
:1023F00060B96A69BDF80230934233D86419DDD3FD
:1024000010E045214E4801F062FCAFE745214D4800
:1024100001F05DFC49214C4801F059FC6419ADF80C
:10242000027024D3452149489EE700236419ADF882
:10243000023028BF0123002B98D116EB080395D258
:102440004545BED39D42BCD2013CA045B9D89C4273
:10245000B7D216EB0906EB690DD3002F86D14521C3
:102460003B4881E745213B4801F031FC7EE716EB14
:102470000903E5D3D6E74B45EFD3B342EDD243444E
:10248000A3EB09035B684B4505D2002F7FF46EAFC9
:102490004521314868E7B342F7D2D5F81090DFF80C
:1024A000BCA009EB080404F1050B01AE9AE8070093
:1024B00086E807000C223146204601F0AEFF00B945
:1024C0001CBB01345C45F1D1002F7FF44FAF452197
:1024D000234849E7002F7FF449AF4521214843E7CE
:1024E00004F110024946404601F0C4FE024628B1FC
:1024F000002F7FF43BAF45211B4884E71FB94921DA
:102500001A4801F0E4FB012031E7E268AB699A4226
:10251000E0D101F0A8FE02460028E1D0002F7FF4B0
:1025200025AF452112486EE7C44C0001E74C00017D
:102530001D4D0001FFFF02914D4D0001A34D000113
:10254000794D0001C74D0001F14D00017A4E0001A7
:10255000AA4E0001374E0001D94E0001E8460001A5
:10256000094F00013D4F0001964F0001C54F00018A
:10257000734F000114222DE9F041144B144DD3F890
:10258000B035074602FB0355284600F0F7FB01284B
:1025900003D000242046BDE8F0814FF000082C1D38
:1025A000AE1C304600F0EAFB4045F2D9A01C00F01A
:1025B000E5FB0546204600F0E1FB8742EAD0023504
:1025C00004EB450408F10108EBE700BF00800001BF
:1025D000B4850001014BD3F8A805704700800001C5
:1025E0004FF00053014A1A60704700BF15FCBA252E
:1025F0004FF0005318680D4B984210D003F11C5354
:10260000A3F58B13A3F6CC5398420AD0084B9842FB
:1026100009D0084B98420CBF0420022070470020CC
:102620007047032070470120704700BFB6B3B4B5B0
:102630005DCE03F1EC49F2B610B54FF00054104BEB
:10264000226801469A42ADF5107D16D14FF45E33F3
:102650000022CDE90132E36810AA009305A84FF4E7
:102660000073FEF7D5FA28B9D4E90112012305A8B1
:1026700001F0ACFB0DF5107D10BD6FF00D00F9E71A
:10268000B6B3B4B54FF00053014A1A60704700BFAB
:102690005DCE03F12DE9F043224885B001F047FEFD
:1026A000002604461F4B204FD3F83880DFF87C907B
:1026B000B04503D8002005B0BDE8F083636A97E811
:1026C00007001D6801AB83E807000C221946284665
:1026D00001F0A3FE78B975B122692B699A420AD13B
:1026E000AB69A2699A4206D8E2699A4203D9636942
:1026F0006A6993430CD0256A75B10D4801F050FA10
:10270000002383F31188BFF36F8F0423184602DF81
:10271000E36801361C44CBE7484601F041FA636A9E
:102720001D60F5E700020001F446000119500001A8
:10273000F04F00012DE9F04F87B00646009198B3A5
:1027400001F0F5FD00270446B36BBB424ED94FF0B4
:102750000008DFF8ACA04FF000095AF8043BDFF89E
:10276000A4B05BF8045B01931D44274B93E807007A
:1027700003AB83E8070019460C22284601F04DFE02
:10278000019B00B9A5B909F10109B9F1070FE8D119
:102790001E4B08F101089845DDD3009B13B10022C0
:1027A000636A1A60236A3BB3002007B0BDE8F08F6C
:1027B0002B6A174A9342EBD1AE42E9D0696B05F11F
:1027C0003C038842E4D025691A6995420AD19A6986
:1027D000A569954206D8E569954203D962695D69A4
:1027E000AA4305D0DA6801301344EAE70120DCE7A8
:1027F000009A0AB1626A1360E36801371C44A3E7D8
:10280000E8510001DC470001004700010100000021
:10281000FFFF02910022D30003F1FF7303F5803321
:10282000D3F80013013107D0D3F800130132D3F8E5
:102830000433202A0B60EED1224BD3E94C32072B14
:1028400026D1023A032A204B28D9D3F80024D107F5
:1028500032D41C4BD3F83021072A19D1D3F83431A4
:10286000023B032B02D8194AD35C8BB17F23184A51
:102870001849C2F818310023C1F8043EC1F8083ED7
:10288000C2F82431C2F82C3102F57F22C2F810318F
:10289000114B1A68114BC3F84425704710498A5CE4
:1028A000002AD2D0D3F80024D207CED50022C3F814
:1028B0001421C3F81821C8E76FF00102C3F80024FF
:1028C000C7E700BF0000FF01005000414C5000016D
:1028D00000200041000008410080FF01006000412D
:1028E0005050000130B50468ACB1B4FA84F3012251
:1028F000C3F11F03DBB29A4024EA0202D0E8EF5F83
:10290000A54204D1C0E8EC2FBCF1000FF6D1EAD10A
:1029100002480B7030BD0248FCE700BF0000AD0B61
:102920000200AD0B014BC3F80405704700F00041F5
:1029300008B541B906490748482201F047F948213E
:10294000034801F03AF940F00040C1F8800008BDAA
:1029500087500001E449000108B541B9064907481C
:102960004E2201F033F94E21034801F026F940F0E0
:102970000040C1F8800008BD87500001E449000113
:102980000146014800F088B930000021F7B506463D
:1029900060B1012834D0344934484FF4867201F0D4
:1029A00015F94FF48671304801F007F90C224FF405
:1029B000827302212E480025C0F80813012142F23B
:1029C000107402F1824203F1824303F5A04302F541
:1029D000A04211601D608E421B68254F8DF80710C4
:1029E00008BF0DF107053EB3012E14D021491F4841
:1029F00040F2EE4201F0EAF840F2EE411D48D3E722
:102A000004224FF480730146D4E70BB3012001F098
:102A10009AFC013C1CD0D7F80C3403F48033002D11
:102A2000F3D0D7F80C2402F001020FE083B10120AB
:102A300001F089FC013C0BD0D7F8183403F4803343
:102A4000002DF3D0D7F8182402F003022A700BB936
:102A500003B0F0BD9DF807000128F9D101F073FC27
:102A6000013CC0D1F4E700BFC4500001E4490001BB
:102A70000050004101510001044B1A7922B9012292
:102A800018601A710248704702487047B00100216F
:102A90000000AD0B0C00AD0B08B50F4B1A7952B905
:102AA0000E490F484FF4B67201F090F84FF4B6712A
:102AB0000A4801F082F81B6833B10520FEF714FBC9
:102AC00010B90520FEF702FB0122064BC3F81825BA
:102AD000C3F8142508BD00BFB0010021C450000197
:102AE000E44900010050004138B5354C237953B911
:102AF000344940F2C112344801F068F840F2C11183
:102B0000304801F05AF850B101284ED02D4940F21A
:102B10001D222D4801F05AF840F21D21F0E72B4B01
:102B2000D3F81814D3F81824C90323D502F00303EB
:102B3000022B05D0012B02D00020FFF727FF012335
:102B4000224A0220C2F8183508224FF4827300216D
:102B500003F1824303F5A04319601D68012502F1CA
:102B6000824202F5A0421560226812B3174BC3F8E7
:102B700004030FE0D3F81424D207E0D5D3F81C24C3
:102B800002F00302013A012AD6D822681AB10222C1
:102B9000C3F8042338BDD3F80421002AFBD0002257
:102BA000C3F80421D3F80431F4E700224FF4807312
:102BB000CDE71A68002AFCD019601B68EAE700BF5D
:102BC000B0010021C4500001E4490001005000415F
:102BD00008B5094B1B7953B90849094840F2372217
:102BE00000F0F4FF40F23721044800F0E6FFBDE8B2
:102BF0000840FFF7CBBE00BFB0010021C450000168
:102C0000E4490001F8B501261F4C204FD4F80453C5
:102C100005B9F8BDB5FA85F0C0F11F00830003F5D2
:102C200080739BB203F1824303F5A04306FA00F2DE
:102C30001968D2B225EA02050029E9D00021012A4B
:102C400019601B68C4F808231AD0022A0DD1D4F8E1
:102C50001834D4F8183403F00303012B10D1C4F84E
:102C60001825C4F80423A360D2E7094909484FF4A2
:102C70006F7200F0ABFF4FF46F71054800F09DFFDD
:102C80003B68C0B29847C3E700500041B001002143
:102C9000C4500001E44900010079024B03EB00102D
:102CA000FFF720BE38000021044AD2F80034DB07C9
:102CB000FBD50160BFF35F8F704700BF0000084184
:102CC00008B500F17F43B3F5802F04D2C0F30A03A7
:102CD00063B10E4819E00E490E4840F2071200F0A9
:102CE00075FF40F207110A4800F067FF02220A4B05
:102CF000C3F804254FF0FF320260D3F80024D20756
:102D0000FBD500220548C3F8042508BD0A00AD0B19
:102D100035510001E4490001000008410000AD0BFD
:102D2000F8B50D460121044601F01AFB50B91049CF
:102D300040F295120F4800F049FF40F295110C48FF
:102D400000F03BFF14F0030708D009494FF4CB72A1
:102D5000084800F03BFF4FF4CB71F0E7064E2046E9
:102D6000C6F804152946FFF79FFFC6F80475F8BD9D
:102D700035510001E449000100000841C10708B5D0
:102D80000AD5094909484FF4F67200F01FFF4FF4C5
:102D9000F671054800F011FF20F003031B6882075D
:102DA0000CBF98B2180C08BD35510001E449000170
:102DB00010B5436904463BB90020E26840425378AD
:102DC00043F00103537010BD98470028F4D000F180
:102DD000FF03FE2B08D9064906482E2200F0F6FE16
:102DE0002E21034800F0E9FEE36840421870E4E752
:102DF00071510001E449000138B50446EFF3118533
:102E0000202383F31288BFF36F8F01F024FA042C80
:102E100008D107490748872200F0D8FE87210448D7
:102E200000F0CBFE85F31188BFF36F8F38BD00BF74
:102E300094510001E449000138B50A4B53F8204091
:102E4000013053F82050A54200D838BD606830B139
:102E5000037FDB0701D4FFF7ABFF0834F3E72368F8
:102E60009847FAE7F8470001012208B5094B03200B
:102E70001A70FFF7E1FFFEF7C7FAFDF719FF04200C
:102E8000FFF7DAFFFDF7A2FB034A137B23F00103F0
:102E9000137308BDC30100217800002108B500208C
:102EA000FFF7CAFF1E4B03F5006282F3088883F325
:102EB0000A88E0231B4C84F822300023E377237632
:102EC0006376A37684F82030626A42F4E02262627C
:102ED00084F82330FEF77CF8FEF766F94FF0FF33F5
:102EE000114AA362E362114B93420AD91049114877
:102EF000CC2200F06BFECC210D4800F05EFE2033AA
:102F0000F2E7FCD3FEF778FA0120FFF795FF0220E5
:102F1000FFF792FF002308481A461946FEF726F9E4
:102F2000C801002100ED00E098450001384500018E
:102F3000B6510001E4490001692E0001024B1868F6
:102F4000984208BF002070474800002130B570B19A
:102F50000B4B5B6898420AD0036843B1D3E9042164
:102F6000D0E90445121941EB0501C3E90421D0E978
:102F7000003213605A600023C0E9003330BD00BF47
:102F8000480000212DE9F047EFF31185202383F35A
:102F90001288BFF36F8FDFF89C900026C9F80000FD
:102FA0000027FFF7CBFFDFF89080D9F80030D8E991
:102FB00000ECD91750B1D0E90442A34271EB020AE8
:102FC00019DAE41A62EB0102C0E90442002413EBAF
:102FD0000E034CEB01012046C8E90031C9F800405E
:102FE00001F0EFF9214601F02EF985F31188BFF3C6
:102FF0006F8FBDE8F08714EB0E024CEBE473C0E971
:103000000467C8E90023FFF7A1FF85F31188BFF328
:103010006F8F83689847EFF31185202383F312881D
:10302000BFF36F8FD9F800301B1BC9F80030FFF7D2
:1030300085FFBAE7B8010021F80000213F2A2DE9F9
:10304000F041904652D905460C46A2F1400626F0C2
:103050003F064036274F0E44236840341BBA2B648A
:1030600054F83C3C39461BBA6B6454F8383C28464B
:103070001BBAAB6454F8343C1BBAEB6454F8303CD4
:103080001BBA2B6554F82C3C1BBA6B6554F8283CD2
:103090001BBAAB6554F8243C1BBAEB6554F8203CD2
:1030A0001BBA2B6654F81C3C1BBA6B6654F8183CD0
:1030B0001BBAAB6654F8143C1BBAEB6654F8103CD0
:1030C0001BBA2B6754F80C3C1BBA6B6754F8083CCE
:1030D0001BBAAB6754F8043C1BBAEB67FDF7DCF88E
:1030E000B442B9D108F03F00BDE8F0811046BDE818
:1030F000F08100BF104800010A4610B514681A4953
:1031000024BA0464546824BA4464946824BA846475
:10311000D46824BAC464146924BA0465546924BA0E
:103120004465946924BA8465D46924BAC465146A70
:1031300024BA0466546A24BA4466946A24BA84663B
:10314000D46A24BAC466146B24BA0467546B24BAD4
:103150004467946B24BA8467D26B12BAC267FDF7D6
:103160009BF8002010BD00BF104800012DE9F04180
:103170000027B54CB54BB2B0CDE90043B44BB54ECA
:103180000293B54B1446CDE90363B44B0546059352
:10319000B34B3097069303F17453A3F52303A3F6BF
:1031A000924331920793002A40F0848080224FF0AE
:1031B0003A0C01236E460DEB02078DF880200020AB
:1031C0004FEA9C0203F1800E012A06EB0E0146F83D
:1031D0000E0024D0022A486021D0032A88601ED025
:1031E000042AC8601BD0052A086118D0062A486145
:1031F00015D0072A886112D0082AC8610FD0092A81
:1032000008620CD00A2A486209D00B2A886206D0CC
:103210000C2AC86203D00E2A086308BF48631CF05A
:10322000030F16D02CF0030C6344002103F1C802F5
:103230006A443A2B02F8481C0BD003F1C9026A44D5
:10324000392B02F8481C04D0CA330DEB030202F8F4
:10325000481C0023620F62F30703620D62F30F2321
:10326000620B62F317436209394662F31F6330460B
:10327000E400CDF8BB308DF8BF40FFF73DFFDDE93E
:103280000001DDE9022306BA14BA18BA09BADDE969
:10329000042312BA69602A6119BADDE9062312BA59
:1032A0001BBA2E60AC60E8606961AA61EB6132B064
:1032B000BDE8F0816E4630468846FFF7BFFE241A0F
:1032C00008EB0403002800F0F580421E022A53D9BF
:1032D00058F8042020928208012A00F0E6805968FC
:1032E000022A219100F0BE809968032A229100F001
:1032F000E780D968042A239100F0E7801969052A3C
:10330000249100F0E7805969062A259100F0E780B2
:103310009969072A269100F0E780D969082A279140
:1033200000F0E780196A092A289100F0ED80596AB7
:103330000A2A299100F0B180996A0B2A2A9100F09B
:10334000F480D96A0C2A2B9100F00381196B0D2AA5
:103350002C9100F00981596B0E2A2D9106D00F2A6D
:10336000996B18BFDA6B2E9118BF2F9220F00307CC
:1033700082073B4400F0DE80197807F1C8026A44F6
:1033800002F8481C7A1C90420FD9591C0978C8329F
:1033900002376A44B84202F8481C06D99B7807F104
:1033A000C8020DEB020707F8483C8021431C00F1DE
:1033B000C8026A44382B309002F8481C6AD93F2B67
:1033C0002CD80022C8336B443E2803F8482C25D063
:1033D00000F1CA030DEB03013D2801F8482C1DD074
:1033E00000F1CB036B443C2803F8482C16D000F1C5
:1033F000CC036B443B2803F8482C0FD000F1CD03DD
:103400006B443A2803F8482C08D000F1CE036B44F3
:10341000382803F8482C01D18DF8BF2020AF394659
:103420003046FFF769FE3A2803463CD8319CC3F189
:103430003A02022A7FF6F9AE5A1C3B2AC3F13B0C32
:1034400088BF4FF0010CBAE667E6096A85AE67BB34
:1034500072F36E3C3AF54FA57F520E518C68059B76
:10346000ABD9831F082854D008273B4419467A1C3F
:1034700011F801CB07F1C8046C44904204F848CC21
:1034800084D8802100F1C8030DEB03023090431C67
:1034900002F8481C319C20AFC9E7282800F088803A
:1034A00028273B44E2E7319CD3E6042826D00427B2
:1034B0003B44DBE78022012330908DF88020E9E750
:1034C0000C282CD00C273B44D0E710283BD01027E9
:1034D0003B44CBE7142841D014273B44C6E71828C7
:1034E00047D018273B44C1E71C2849D01C273B4440
:1034F000BCE7202850D020273B44B7E78022052393
:1035000030908DF88420C5E724283FD024273B4401
:10351000ACE78022092330908DF88820BAE780221A
:103520000D2330908DF88C20B4E72C283AD02C272E
:103530003B449BE7802100F1C8026A443090431C61
:1035400002F8481C3BE78022112330908DF8902030
:10355000A0E7302832D030273B4487E7802215236C
:1035600030908DF8942095E734282DD034273B44B3
:103570007CE718218022192330918DF8982089E763
:1035800080221D2330908DF89C2083E78022252304
:1035900030908DF8A4207DE78022212330908DF893
:1035A000A02077E780222D2330908DF8AC2071E7A2
:1035B0008022292330908DF8A8206BE780223123C8
:1035C00030908DF8B02065E78022352330908DF85B
:1035D000B4205FE72DE9F04F43688DB01546804673
:1035E000029383789A0740F10D8100240E78002E13
:1035F00000F00A81252E0BD04B1C03930134414669
:103600003046029B98470028C0F2F6800399EDE708
:103610004E788B1C252E0393F0D00027B946BB466D
:10362000BBF11F0F38D8A6F12003102B0AD8DFE812
:1036300003F02A0909300909092109090928092D76
:1036400009091F00A6F13003092B33D92A2E37D1DF
:103650001BF0400F55F8043B40F08280002BA7BFC1
:103660004BF0200B9946C3F100094BF0280B01E009
:103670004BF0010B039B13F8016B0393002ECFD18A
:1036800030E04BF0020B4BF0040BF3E74BF0080B70
:10369000F0E74BF0100BEDE7BBF17F0F19D8A6F167
:1036A0003003092BD2D81BF0400F03D00A2101FBB5
:1036B0000737DFE70A214BF0200B01FB0939D9E777
:1036C0002E2E06D11BF0400F40F09E804BF0400B99
:1036D000D0E76C2E31D02BD8682E36D06A2E3CD055
:1036E0004C2E3AD0002F46F02003B8BF2BF04002FA
:1036F000A3F16501BCBF00271FFA82FB022901D993
:10370000612B2FD107350727DFF8ACA225F007057D
:1037100008351BF0080F66D00AEB070B56465E45CE
:1037200063D1A4EB0A0AA9EB070906EB0A026FE1D1
:10373000742E9FD07A2E9DD0D4E71BF0800F18BF37
:103740004BF4007B4BF0800B94E71BF4807F18BF99
:103750004BF4007B4BF4807B8CE74BF4207B89E7B8
:103760001F4687E7A6F16301122900F2F080DFE827
:1037700011F013004F00EE00EE00EE00EE004F00DF
:10378000EE00EE00EE00EE00EE00FE00E900EE00BE
:10379000EE001B00EE00AF0055F8043B01270DF1D1
:1037A000180A8DF81830B4E755F804AB834BBAF11A
:1037B000000F08BF9A461BF0400F504614BF394611
:1037C0004FF0FF3100F039FE0746A2E741462020C6
:1037D000029B984700280FDB013EB742F6D34C44CA
:1037E000B146A41B98E74E46F7E7414616F8010B91
:1037F000029B9847002892DA98F8023043F00403BD
:1038000088F802304FF0FF3420460DB0BDE8F08F4D
:103810001BF0800F34D01BF4007F2CD0073525F02F
:103820000705AA4669685AF8080B2BF0100500290D
:10383000ADB237DA404245F4806561EB41010DF1EC
:10384000180B0A235A4600F004FEA0EB0B03019369
:103850006B0662D5019B25F001019F4289B240F3BE
:10386000A180002E00F0998015F0100240F09C809D
:10387000BB460D4623E0AA465AF8040BC117D4E70D
:10388000AA461BF4807F5AF8041B01D10846F5E7CD
:103890001BF4007F19BF48B241F3C01108B241F3D5
:1038A000C031C2E750EA0103C9D11BF0400FC6D0B6
:1038B000002FC4D12BF01102BB46019795B240F204
:1038C000064115EA01021CBF0BF1010B00222CE09E
:1038D0002BF010020A231FFA82FB1BF0800C49D048
:1038E0001BF4007115BF0735AA4625F007055AF8E5
:1038F000040B1EBFAA4669685AF8080B50EA010576
:1039000045D12BF016051BF0400FADB242D0002F71
:1039100040D12BF01702019795B215F0100248D054
:10392000019B002E42D103F1010B29075AD4EB076A
:1039300006D5D9456FDDA9EB0B030199CB465F187E
:103940005B4649E04BF0100B10237826C5E7782B37
:1039500004D1C6F1780343F01003BEE741462520A9
:10396000029B98470028FFF647AF023447E608233A
:103970000026B2E7AA461BF480715AF8040BBDD0AA
:103980001BF400711ABFC0B2614680B2B6E72BF0DB
:10399000060295B20DF1180B54E725F01105BB4650
:1039A000ADB28CE70D46B8E73B460D4603F1020B7E
:1039B000BBE7DDF804B082E7DE510001D75100011A
:1039C000CDE9043241462020029B98470028FFF6AB
:1039D00013AF049B059A01339945F1DCA4EB0B016D
:1039E0009B46CC180AB341463020029B98470028DA
:1039F000FFF602AF8EB901342744391B019B99426F
:103A000024DC1D4655BB019AA9EB0B0955462244FF
:103A10001446914433E0019F92E702344146304618
:103A2000029B98470028E7DAE6E640F206410D429D
:103A3000E2D015F0020F04F10104414614BF2B201F
:103A4000202015F4806F18BF2D20E9E74146302073
:103A5000029B013498470028CFDACDE606AB013D42
:103A60004146585D029B98470028CBDAC4E64146A0
:103A70002020029B013498470028FFF6BDAEA9EB39
:103A80000403002BF3DCC1E57047836800EBC10140
:103A9000B3F5004F2CBF51F8220031F812007047E7
:103AA00000EBC1018068B0F5004F2CBF41F8223017
:103AB00021F812307047012208B5FFF7E6FFD04029
:103AC00008BD836800EBC101B3F5004F08D34B6814
:103AD0001AB143F001034B60704723F00103FAE78A
:103AE0004B881AB143F001034B80704723F0010368
:103AF000FAE753000122FFF7D3BF8368481CB3F5F0
:103B0000004F34BF042308230833A0EBD300B0FADE
:103B100080F0C0F11F0070472DE9F0410D46866826
:103B20000446FFF7C8FFB6F5004F014601D3012850
:103B300032D02046FFF7E1FF04EB80010E6996B911
:103B40000122E36882401343E36002220D612B46A9
:103B500029462046FFF7A4FF032229462046BDE858
:103B6000F041FFF79DBF022231462046FFF78DFF4F
:103B70000746034629462046FFF792FF03223346B5
:103B800029462046FFF78CFF39462B462046FFF793
:103B900087FF02223146E1E7BDE8F081002070474F
:103BA0000FB407B504A951F8040B0191FCF71AFEF4
:103BB00003B05DF804EB04B07047002383F3118871
:103BC000BFF36F8F0423184602DF70470FB407B5A9
:103BD00004A951F8040B0191FCF704FE03B05DF851
:103BE00004EB04B07047038B13F0070305D103689F
:103BF000002B0CBF002003207047022B05D1408B07
:103C0000B0FA80F0400980007047012B05D10368AD
:103C1000002B0CBF0020052070470020704710B516
:103C20000C4600B111B96FF0150010BD081D00F071
:103C30003CF80028F9D1A368032BF6D9F3E72DE966
:103C4000F0410D4607461946281D90461E46FCF7D2
:103C5000C3FF044638B13346424629463846A44697
:103C6000BDE8F0416047BDE8F08110B4EFF3118288
:103C7000202484F31288BFF36F8F416110BC0121AF
:103C8000FCF7C8BD38B50C46054658B151B10B68B4
:103C900043B14B6833B11C22002100F0B6FB002079
:103CA0002C6138BD6FF01500FBE7034658B1426840
:103CB00002F00302012A03D0032A04D1026812B1E0
:103CC0000020986070476FF01500704770470FB480
:103CD00007B504A951F8040B0191FCF783FD03B06B
:103CE0005DF804EB04B0704743680A689A428FBFDE
:103CF00000234A6801209B1888BF18464B60704714
:103D0000F0B58368044685B0002B3CD0D0E9046749
:103D1000016A33448B4215D98269934235D8C06811
:103D200001AA394400F098F9002835D1DDE90112E3
:103D3000E06883689B6863B3984768BB236A029A0C
:103D400013442362626AA368B3FBF2F502FB1535E4
:103D50003DB12068551B2A4694F82810184400F0FD
:103D600054FBA368E06822683E442B4481684D6898
:103D70003146A84758B9E369ABB92369A26813442F
:103D800023610023A360002001E06FF0210005B053
:103D9000F0BD6FF05700FAE70028F8DBD2E7135CBC
:103DA000DB4313540130A36822688342F7D8E068EC
:103DB00081680D683146A8470028E8D13246E3699A
:103DC000A168206898470028D7D0E0E72DE9F047A0
:103DD000894616469846044698B382680369134498
:103DE00082693344934230D80025D4E90170A6EBB0
:103DF000050A3F1ABA4515D2B54209D22368524680
:103E0000184409EB050100F0F3FAA3685344A360DA
:103E1000B8F1000F1CD0A068A8B12046BDE8F0475B
:103E2000FFF76EBF23683A46184409EB050100F01E
:103E3000DFFA63682046A360FFF762FF18B93D44CC
:103E4000D3E76FF00D00BDE8F0876FF00B00FAE7E5
:103E50004046F8E700F0D9BA00F0CABA012801D10B
:103E6000EFF30583FEF7C8BF01460068FFF7F6BF12
:103E700008B5FCF753FFBDE8084000F000B87047F4
:103E800000210120FFF7EABF08B5FDF761F9FCF753
:103E90001DFFFCF727FFFDF78DF9FEF7FFFF61B669
:103EA00062B680F31188BFF36F8F7047EFF3118014
:103EB000202383F31288BFF36F8F704710B5044639
:103EC000FDF7CEF972B6002383F31188BFF36F8F2D
:103ED000FDF744FA50B1BFF34F8F20BF00BF00BFC2
:103EE00000BF00BF00BF00BF00BF00BF84F3118848
:103EF000BFF36F8F62B610BD08B5FDF779F90020EA
:103F000008BDF0B5D0F80473064617F002001CBFD8
:103F1000C2F1807018604FF0000518BF01204FF00B
:103F2000010C4FF4803E0CFA05F40C4214D00EFA4A
:103F300005F43C4210D005F5A87456F82440A41AA4
:103F400034F07F4408BF4FF0807408B91C6002E071
:103F50001868A042FAD801200135042DE3D1F0BD44
:103F6000FDF76CB9F8B5069F0469C9B2EFF3118685
:103F7000202585F31288BFF36F8F0C2569430C440D
:103F8000256C05F0070CBCF1010F0BD1276486F3FB
:103F90001188BFF36F8FC4E90E2343685B589847BD
:103FA0000020F8BD05F0C005AF4286F31188BFF3CD
:103FB0006F8F0CBF6FF077004FF0FF30F1E713B554
:103FC00080240094FFF7CEFF02B010BD6FF0850093
:103FD000704710B41C240069CBB203FB040000211D
:103FE00010BC10470020FEF77FBD0020FEF7F0BD9B
:103FF0008022FDF7BFBAF7B51C460023164682683B
:104000002360A3600D465369694601AA9847019B46
:104010005A1E01921BB96FF0150003B0F0BD009855
:10402000A26847682168676085B9B31AD0F800C0F4
:10403000634528BF634603FB07111A442160A26051
:1040400002689A4206D808300090E0E76B1AB3FB8A
:10405000F7F3EBE70020E0E713460022FFF7CBBFC2
:104060002DE9F0470024836886B0884691465B6955
:1040700002AA01A99847A2462546029BAB4202D854
:1040800006B0BDE8F0870026019F07EBC5077B68F7
:1040900004933A680AEB0603B24202D89A46013505
:1040A000EBE749460394059303A8C0470028E7D0EF
:1040B000049B01361C44ECE710B50C4600F064F993
:1040C0000023C4E90003184610BD38B505460C4668
:1040D00000F05AF9002D07DBA84205D9401B8442A5
:1040E0008CBF0020012038BD0020FCE770B50C46D5
:1040F000154600F04CF9294606462046FFF7E5FF35
:10410000C8B1B4FBF6F306FB1343A3B9B5FBF6F352
:1041100006FB13537BB9AE4201D9002070BD00F0FD
:1041200036F9064604F180742046FEF7C9FDAD1B42
:104130003444F9D1F1E76FF01500EFE770B50D46A3
:104140001946284616461C46FFF7BFFF40B12CB162
:104150002246304605F1807100F04AF9002070BD1A
:104160006FF01500FBE730B543681360057A4468CB
:1041700004EBC504A34202D36FF0010030BD5C79AB
:104180008C4201D00833F0E70020F7E743681B6852
:10419000D3F88004C3F88004704742681368D3F8EA
:1041A000100150B10020126A12780A70C3F8100191
:1041B000D3F8102101221A6070474FF0FF3070478A
:1041C00002680346D2F8580140B95B68DB0706D4A1
:1041D000D2F82001003818BF012070470120704735
:1041E00043681B68D3F80423D20517D5D3F82021E0
:1041F000A2B1EFF31182202181F31288BFF36F8FF8
:10420000D3F8201131B10021C3F82011D3F82011C7
:104210000121D96082F31188BFF36F8FD3F8583131
:10422000704713B501AA0446FFF79DFF002805DB80
:10423000019B226819791868FDF7E6FB02B010BDF2
:104240006FF085007047704708B5FDF72BFD08BD7E
:104250000222FDF7F5BE002008B5FDF73DF900206C
:1042600070470020704708B5FFF7F9FF08B9FFF75E
:10427000F8FF08BD30B589B0154601230A4601464E
:10428000684600F00EF8044640B9202269462846E8
:10429000FBF7D4FF002808BF6FF06404204609B084
:1042A00030BD08B5FEF762FF002008BD70B50546B9
:1042B00008460C46FEF71CF8214602460123284614
:1042C000BDE87040FEF740B82DE9F8430D461646AC
:1042D000FEF750F9044600B3FDB10230FEF74EFD83
:1042E00000278146B8460434BBB2994507D800245C
:1042F00006B134600020A5F80080BDE8F8832046B0
:10430000FEF73CFDC3439BB20137A21C002BEFD04C
:10431000984538BF98461446E6E76FF01500ECE77D
:104320000022FFF7D1BF4FF0005358687047034693
:104330005A6B00233C309A4200D17047C168013368
:104340000844F8E7004700F027B838B5044615469A
:10435000FEF7EEFA29462046BDE83840FEF7FCBAE3
:10436000034603F17F42B2F5802F08460AD351B1CC
:1043700003F17E4000F50040B0F5607F2CBF0020C7
:1043800001207047012070474FF4802070474FF4A0
:10439000006070478020704708B1FDF793B8704700
:1043A00040B1C368587810F001001EBF1878B0FA09
:1043B00080F040097047EFF30580003818BF0120F6
:1043C000704708B50246FEF7B9FD70B1D0E9043177
:1043D0009B1A61EBE272B3F1004F72F1000104DA53
:1043E000002AACBF1846002008BD6FF00040FBE774
:1043F0000A44431E914200D1704710B511F8014B99
:10440000914203F8014FF9D110BD02440346934293
:1044100000D1704703F8011BF9E70139024410B5D8
:10442000904201D1002005E0037811F8014FA3422A
:1044300001D0181B10BD0130F2E70246014410B54F
:104440008A42134603D01C780132002CF8D1181A86
:1044500010BDF0B5C3F13707044603F01F03104643
:10446000FFB2082BE6B232D0102B3DD06508A4086D
:1044700045EAC17544EA81748A082D1942EB51025C
:10448000290941EA02716D1842EB1212290A41EA28
:1044900002616D1842EB1222290C41EA02416D18AB
:1044A00042EB1242AD1842F10002EC0844EA4274B9
:1044B000D10804EB8402A6EB4205EDB2092D0CD91C
:1044C0000134A5F10A0541F10001EDB212E0E40862
:1044D00006F0070544EA4174C908303554EA010280
:1044E00000F8015BBDD1F0BD240906F00F0544EAD8
:1044F00001740909092D84BFED19EDB2EDE7000043
:10450000000000003845000100000000584500018F
:10451000E118000100000000251F0001000000005C
:1045200019120001000000000000000078450001A1
:1045300095260001000000007B4B00014047000170
:10454000A046000150000021380100211916000189
:104550000000000000000000EC4B0001604700017B
:10456000BC4600015400002194010021991B000168
:104570004142000100000000964B000100000000D5
:104580008846000152000021000000004919000186
:10459000000000000000000000000000813E00015B
:1045A00000000000813E000100000000813E00018B
:1045B00000000000813E000100000000813E00017B
:1045C000052C00014543000100000000813E000170
:1045D00000000000813E000100000000813E00015B
:1045E00000000000813E000100000000813E00014B
:1045F00000000000813E000100000000813E00013B
:1046000000000000813E000100000000813E00012A
:1046100000000000813E000100000000813E00011A
:1046200000000000813E000100000000813E00010A
:1046300058450001E141000100000000813E0001F9
:1046400000000000813E000100000000E91C0001A4
:1046500000000000813E000100000000813E0001DA
:1046600000000000813E000100000000813E0001CA
:1046700000000000813E000100000000813E0001BA
:1046800000000000813E00013D4100016119000170
:10469000ED40000141190001B9400001311900014C
:1046A000CD3F0001F13F0001BF3F000100000000CD
:1046B0004115000100000000000000009B410001C6
:1046C000ED1A00018D410001E24F000103000000DE
:1046D000DEE61E284CBBCE8F02350000DEE61E282B
:1046E0004CBBCE8F02350000DEE61E288384518647
:1046F00002350100DEE61E28EAAC45B802350000AE
:10470000DEE61E284CBBCE8F023500000000000004
:104710000338FDD8704700000000000000020000D0
:10472000000400000006000000080000000E000069
:1047300000100000FD140001E91500010000000058
:1047400045170001711600018A4B0001E53F000189
:10475000EB3F0001904B00010400000000FF00004F
:10476000003001410100000000000000844700010A
:104770000000D6010000000000000000C20100217E
:10478000C1010021003001419047000102000000FA
:10479000B047000104000000A04700010401000030
:1047A00021800000208000010B8000020A800003AD
:1047B000210000000B000002200600010A06000391
:1047C00000000000000200000004000000060000DD
:1047D00000080000000E00000010000000000000B3
:1047E00000020000000400000006000000080000B5
:1047F000000E00000010000000450001004500010F
:1048000018450001204500013845000138450001E8
:10481000982F8A4291443771CFFBC0B5A5DBB5E92B
:104820005BC25639F111F159A4823F92D55E1CAB9F
:1048300098AA07D8015B8312BE853124C37D0C552D
:10484000745DBE72FEB1DE80A706DC9B74F19BC175
:10485000C1699BE48647BEEFC69DC10FCCA10C2465
:104860006F2CE92DAA84744ADCA9B05CDA88F97649
:1048700052513E986DC631A8C82703B0C77F59BFB3
:10488000F30BE0C64791A7D55163CA0667292914DF
:10489000850AB72738211B2EFC6D2C4D130D38537C
:1048A00054730A65BB0A6A762EC9C281852C72923E
:1048B000A1E8BFA24B661AA8708B4BC2A3516CC76C
:1048C00019E892D1240699D685350EF470A06A10A5
:1048D00016C1A419086C371E4C774827B5BCB034F4
:1048E000B30C1C394AAAD84E4FCA9C5BF36F2E6892
:1048F000EE828F746F63A5781478C8840802C78C21
:10490000FAFFBE90EB6C50A4F7A3F9BEF27871C623
:10491000466C61736820646576696365206E6F74A8
:104920002072656164790A004661696C656420746F
:104930006F2070726F746563742062306E20666CD5
:104940006173682C2063616E63656C20737461729F
:104950007475700A0D00556E61626C6520746F206D
:1049600066696E642076616C6964206669726D7731
:1049700061726520696E736964652025700A0D0097
:104980004661696C656420746F207472616E736631
:10499000657220696D6167653A2025640A0D0046DD
:1049A00061696C656420746F2070726F74656374E4
:1049B0002061707020666C6173683A2025640A0D6E
:1049C00000574553545F544F504449522F7A6570F5
:1049D0006879722F6C69622F686561702F686561F4
:1049E000702E6300415353455254494F4E20464167
:1049F000494C20402025733A25640A0057455354FA
:104A00005F544F504449522F7A65706879722F6C09
:104A100069622F7574696C732F6F6E6F66662E6393
:104A200000574553545F544F504449522F7A657094
:104A30006879722F6C69622F7574696C732F6E6F51
:104A4000746966792E63002A2A2A20426F6F74697E
:104A50006E67206E524620436F6E6E6563742053FE
:104A6000444B2076332E312E39392D393561313989
:104A700038313034383666202A2A2A0A002A2A2A6F
:104A8000205573696E67205A6570687972204F539C
:104A90002076342E322E39392D303562386232315B
:104AA0006161393737202A2A2A0A00574553545F53
:104AB000544F504449522F7A65706879722F617251
:104AC00063682F61726D2F636F72652F636F7274ED
:104AD00065785F6D2F6661756C742E630057455362
:104AE000545F544F504449522F7A65706879722F41
:104AF000617263682F61726D2F636F72652F636FD0
:104B0000727465785F6D2F6972715F6D616E616738
:104B1000652E6300574553545F544F504449522FFC
:104B20007A65706879722F736F632F6E6F72646924
:104B3000632F6E726635332F736F632E6300574594
:104B400053545F544F504449522F7A6570687972BC
:104B50002F647269766572732F636C6F636B5F632A
:104B60006F6E74726F6C2F636C6F636B5F636F6ECD
:104B700074726F6C5F6E72662E6300636C6F636B32
:104B8000403431303035303030006866636C6B0053
:104B90006C66636C6B00666C6173682D636F6E741A
:104BA000726F6C6C657240343130383030303000A8
:104BB000574553545F544F504449522F6D6F64759D
:104BC0006C65732F68616C2F6E6F726469632F6EF2
:104BD0007266782F68616C2F6E72665F6770696F9E
:104BE0002E680000010203040506070B756172744C
:104BF00040343130313330303000574553545F54F6
:104C00004F504449522F6E72662F6C69622F667046
:104C1000726F746563742F6670726F746563745F0E
:104C200061636C2E6300574553545F544F504449A1
:104C3000522F6D6F64756C65732F68616C2F6E6F8A
:104C4000726469632F6E7266782F68616C2F6E7262
:104C5000665F61636C2E6800426F6F74696E6720D7
:104C60002830782578292E0D0A004661696C656424
:104C700020746F2070726F76696465206578742087
:104C80004150497320746F20696D6167652C206203
:104C90006F6F742061626F727465642E0D0A002557
:104CA000633A204572726F722067657474696E672B
:104CB000206D6F6E6F746F6E696320636F756E74B5
:104CC00065720A0025633A20496E76616C6964203A
:104CD0006669726D7761726520696E666F20666FB6
:104CE000726D61742E0A0025633A2054686520664F
:104CF00069726D7761726520646F65736E277420C9
:104D000062656C6F6E672061742064657374696E90
:104D10006174696F6E20616464722E0A0025633AC3
:104D20002073726320616E6420647374206D7573E8
:104D30007420626520657175616C20666F72206CED
:104D40006F63616C2063616C6C732E0A0025633A9B
:104D5000204669726D7761726520696E666F2064A6
:104D60006F65736E277420706F696E7420746F2086
:104D7000697473656C662E0A0025633A2046697271
:104D80006D7761726520686173206265656E206968
:104D90006E76616C6964617465643A203078257858
:104DA0002E0A0025633A20547279696E6720746F69
:104DB00020676574204669726D776172652076653B
:104DC0007273696F6E0A0025633A2043616E6E6FDD
:104DD00074207265616420746865206669726D77FD
:104DE0006172652076657273696F6E2E2025640A84
:104DF0000025633A20576520617373756D652074D3
:104E00006869732069732064756520746F20746805
:104E100065206669726D7761726520766572736967
:104E20006F6E206E6F74206265696E6720656E61BB
:104E3000626C65642E0A0025633A204669726D77BC
:104E40006172652076657273696F6E2028257529F9
:104E500020697320736D616C6C6572207468616E7B
:104E6000206D6F6E6F746F6E696320636F756E7403
:104E7000657220282575292E0A0025633A20466987
:104E8000726D7761726520696E666F206973206E3E
:104E90006F742077697468696E207369676E6564E2
:104EA00020726567696F6E2E0A0025633A20426F93
:104EB0006F742061646472657373206973206E6F10
:104EC000742077697468696E207369676E65642001
:104ED000726567696F6E2E0A0025633A205265730A
:104EE00065742068616E646C6572206973206E6FF2
:104EF000742077697468696E207369676E656420D1
:104F0000726567696F6E2E0A0025633A20436F75DC
:104F10006C64206E6F742066696E642076616C69C3
:104F200064206669726D776172652076616C696470
:104F30006174696F6E20696E666F2E0A0025633A90
:104F40002056616C69646174696F6E20696E666F6A
:104F500020646F65736E27742062656C6F6E6720C6
:104F6000746F2074686973206669726D7761726509
:104F70002E0A0025633A20626C5F63727970746F49
:104F80005F696E697428292072657475726E656434
:104F90002025642E0A0025633A204669726D7761E8
:104FA00072652076616C69646174696F6E206661F8
:104FB000696C65642077697468206572726F72200D
:104FC00025642E0A0025633A204669726D77617266
:104FD0006520686173682076657269666965642E0C
:104FE0000A00626C5F76616C69646174696F6E005F
:104FF0004552524F523A2043616E6E6F742066756F
:105000006C66696C6C204558545F4150492072654C
:1050100071756573742E0D0A005741524E494E4703
:105020003A204F7074696F6E616C204558545F412F
:1050300050492072657175657374206E6F742066B7
:10504000756C66696C6C65642E0D0A0000000001C9
:1050500001000000574553545F544F504449522FAC
:105060006D6F64756C65732F68616C2F6E6F726401
:1050700069632F6E7266782F68616C2F6E72665F3F
:10508000647070692E6800574553545F544F504404
:1050900049522F6D6F64756C65732F68616C2F6E4C
:1050A0006F726469632F6E7266782F68656C7065C5
:1050B00072732F6E7266785F677070695F6470706C
:1050C000692E6300574553545F544F504449522F43
:1050D0006D6F64756C65732F68616C2F6E6F726491
:1050E00069632F6E7266782F647269766572732FAA
:1050F0007372632F6E7266785F636C6F636B2E637F
:1051000000574553545F544F504449522F6D6F64BC
:10511000756C65732F68616C2F6E6F726469632F95
:105120006E7266782F68616C2F6E72665F636C6F4B
:10513000636B2E6800574553545F544F5044495297
:105140002F6D6F64756C65732F68616C2F6E6F7255
:105150006469632F6E7266782F6472697665727304
:105160002F7372632F6E7266785F6E766D632E6337
:1051700000574553545F544F504449522F7A65703D
:105180006879722F6B65726E656C2F6465766963E2
:10519000652E6300574553545F544F504449522F76
:1051A0007A65706879722F6B65726E656C2F6661B7
:1051B00074616C2E6300574553545F544F504449FB
:1051C000522F7A65706879722F6B65726E656C2FDD
:1051D000696E69742E6300286E756C6C29002A66EE
:1051E0006C6F61742A00000000000001F0B5DFF868
:1051F00010C0044F8646A7EB0C0770460047F0BD71
:10520000000000211C0000219D3B00010000000067
:10521000F93E0001000000000000000000F0004125
:1052200000000000FFFFFFFF3F000000FFFFFFFF47
:105230003F0000004800002148000021000000005D
:085240000000000015E015E07C
:1085A800008800010088000101000000FFFFFA5068
:1085B800C65CA073D305E4FAF68C2A1BE7BC5BFF04
:1085C800010001000100F000FFFFFFFFFFFFFFFFB8
:1085D800FFFFFFFFFFFFFFFFFFFFFFFFFFFFFFFFA3
:1085E800FFFFFFFFFFFFFFFFFFFFFFFFFFFFFFFF93
:1085F800FFFFFFFFFFFFFFFFFFFFFFFFFFFFFFFF83
:10860800FFFFFFFFFFFFFFFFFFFFFFFFFFFFFFFF72
:10861800FFFFFFFFFFFFFFFFFFFFFFFFFFFFFFFF62
:10862800FFFFFFFFFFFFFFFFFFFFFFFFFFFFFFFF52
:10863800FFFFFFFFFFFFFFFFFFFFFFFFFFFFFFFF42
:10864800FFFFFFFFFFFFFFFFFFFFFFFFFFFFFFFF32
:10865800FFFFFFFFFFFFFFFFFFFFFFFFFFFFFFFF22
:10866800FFFFFFFFFFFFFFFFFFFFFFFFFFFFFFFF12
:10867800FFFFFFFFFFFFFFFFFFFFFFFFFFFFFFFF02
:10868800FFFFFFFFFFFFFFFFFFFFFFFFFFFFFFFFF2
:10869800FFFFFFFFFFFFFFFFFFFFFFFFFFFFFFFFE2
:1086A800FFFFFFFFFFFFFFFFFFFFFFFFFFFFFFFFD2
:1086B800FFFFFFFFFFFFFFFFFFFFFFFFFFFFFFFFC2
:1086C800FFFFFFFFFFFFFFFFFFFFFFFFFFFFFFFFB2
:1086D800FFFFFFFFFFFFFFFFFFFFFFFFFFFFFFFFA2
:1086E800FFFFFFFFFFFFFFFFFFFFFFFFFFFFFFFF92
:1086F800FFFFFFFFFFFFFFFFFFFFFFFFFFFFFFFF82
:10870800FFFFFFFFFFFFFFFFFFFFFFFFFFFFFFFF71
:10871800FFFFFFFFFFFFFFFFFFFFFFFFFFFFFFFF61
:10872800FFFFFFFFFFFFFFFFFFFFFFFFFFFFFFFF51
:10873800FFFFFFFFFFFFFFFFFFFFFFFFFFFFFFFF41
:10874800FFFFFFFFFFFFFFFFFFFFFFFFFFFFFFFF31
:10875800FFFFFFFFFFFFFFFFFFFFFFFFFFFFFFFF21
:10876800FFFFFFFFFFFFFFFFFFFFFFFFFFFFFFFF11
:10877800FFFFFFFFFFFFFFFFFFFFFFFFFFFFFFFF01
:10878800FFFFFFFFFFFFFFFFFFFFFFFFFFFFFFFFF1
:10879800FFFFFFFFFFFFFFFFFFFFFFFFFFFFFFFFE1
:0887A800FFFFFFFFFFFFFFFFD1
:10880000B09A0021A5CA0101FDDA020191CA010155
:1088100091CA010191CA010191CA01010000000041
:1088200000000000000000000000000001CC010179
:1088300091CA010100000000A1CB010191CA010110
:10884000A9CD0101A9CD0101A9CD0101A9CD010148
:10885000A9CD0101A9CD0101A9CD0101A9CD010138
:108860001BE00201A9CD0101A9CD0101A9CD0101A2
:1088700031E00201A9CD0101A9CD0101A9CD01017C
:10888000A9CD010101E00201A9CD0101A9CD01019C
:10889000A9CD0101A9CD0101A9CD0101A9CD0101F8
:1088A000A9CD0101A9CD0101A9CD0101A9CD0101E8
:1088B000A9CD0101A9CD01010000000000000000C8
:1088C00000000000000000000000000000000000A8
:1088D0000000000000000000000000000000000098
:1088E0000000000000000000000000000000000088
:1088F0000000000000000000000000000000000078
:108900000000000000000000000000000000000067
:108910000000000000000000000000000000000057
:108920000000000000000000000000000000000047
:108930000000000000000000000000000000000037
:108940000000000000000000000000000000000027
:108950000000000000000000000000000000000017
:108960000000000000000000000000000000000007
:1089700000000000000000000000000000000000F7
:1089800000000000000000000000000000000000E7
:1089900000000000000000000000000000000000D7
:1089A00000000000000000000000000000000000C7
:1089B00000000000000000000000000000000000B7
:1089C00000000000000000000000000000000000A7
:1089D0000000000000000000000000000000000097
:1089E0000000000000000000000000000000000087
:1089F0000000000000000000000000000000000077
:108A0000DEE61E284CBBCE8F023500003C00000085
:108A100088B9020001000000008800010088000100
:108A2000FFFF0291000000000000000000000000B5
:108A3000000000000000000000000000064A074B94
:108A400002604FF43672DB7882800822C371002303
:108A500082710372704700BF05AF01014807002112
:108A6000064A074B02604FF4B472DB7A8280082218
:108A7000C371FF2382710372704700BF4BAA0101CB
:108A8000480700212DE9F341C41D0028064624F0C3
:108A900007040CBF0020204600F064FF071E04DA24
:108AA0006FF00B0002B0BDE8F081374DE988A8886F
:108AB00003316B7A03302A7A89B280B20FF07DFAE3
:108AC0000028EDDB3C44A978EB78002E04F1030488
:108AD000194424F0030400FB01F10CBF00202046E0
:108AE00001F0C6F820440EB90028D9DBEA7A044622
:108AF000B2B1EB7B697C13441944FF29D0D8033011
:108B0000002EAA89C9B220F003040CBF0020204621
:108B100001F01EF90028C3DB04440EB9002CBFDBB2
:108B2000012000F015FFB0B1A97BA1B195F82A3062
:108B300033B340234FF481720734002E24F007042E
:108B40000CBF0020204603F0C9FB0028A8DB04442A
:108B50000EB9002CA4DBAB7AFBB1EB7AB3B10734CE
:108B6000002EA97A24F007040CBF0020204606F04E
:108B7000EDF9002894DB04447EB9002C0DDA8FE770
:108B800025232822D8E700BF48070021012000F054
:108B9000DFFE10B1AB7B002BE1D1734B1B6893B1AF
:108BA000A97D81B10334002EEA7D24F003040CBFBB
:108BB0000020204698470028FFF672AF044416B9FB
:108BC000002CFFF66DAF694B1B688BB1297C79B126
:108BD0000334002E24F003040CBF002020469847E5
:108BE0000028FFF65DAF044416B9002CFFF658AF1D
:108BF0005F4B1F68B7B1697CA1B10334002E2B7D98
:108C000024F0030408BF0020009318BF2046EB7C2B
:108C1000AA7CB8470028FFF643AF044416B9002CDD
:108C2000FFF63EAF072000F093FE98B1A97D89B111
:108C30000334002E2A7E24F003040CBF00202046BB
:108C400001F074F90028FFF62BAF044416B9002C8C
:108C5000FFF626AFB6FA86F795F823007F09A0B194
:108C600003346B7FA97E24F0070419443B4644F08B
:108C70000404C9B2224601F099F90028FFF610AFAA
:108C8000044416B9002CFFF60BAF95F82410002908
:108C90004CD004F10708002EEA8C28F007080CBF1E
:108CA000002040460FF09DF9041EFFF6F9AE444443
:108CB000002E3ED1002CFFF6F3AEA97F002945D04F
:108CC00095F82230002B41D02A8C0734002E02F177
:108CD000240224F007080CBF0020404692B20FF097
:108CE00080F90028FFF6DCAE404416B90028FFF6F4
:108CF000D7AE03302B7FA97E20F0070019443B46F6
:108D000040F0040495F82200C9B2224601F040F96F
:108D10000028FFF6C5AE044486B9002CFFF6C0AEAD
:108D2000EB6AF3B1C6B1EC620020BBE6002EC4D002
:108D30008846E98C40460AF005FCBEE72A8C40468E
:108D4000A97F083292B20AF003FCE9E7002EE7D0CF
:108D5000002211461046F6E728343FF5A1AE204622
:108D6000A0E6002EE0D1FAE76000002164000021B7
:108D7000680000211FB572B6194B1C6BECB9BFF32C
:108D80004F8F1849184BCA6802F4E0621343CB6056
:108D9000BFF34F8F00BFFDE7B2FBF6F22B465D1C21
:108DA000002AF9D1DBB203F110056D4405F80C2C53
:108DB0000A2233B901A8A047E1E7024600230A26A8
:108DC000EDE7013BDBB203F110050DEB0506B0FB4F
:108DD000F2F502FB1500303006F80C0C2846E8E7E7
:108DE0004807002100ED00E00400FA0513B5134C1C
:108DF00068462389ADF80030E388ADF80430A388D5
:108E0000ADF8023004F0C8F818B1FD219C20FFF73E
:108E1000B1FF207D04F0F0F810B14FF48071F5E758
:108E2000E07C04F0E3F810B140F20111EEE794F8B1
:108E3000280008F06FFC02B010BD00BF48070021F9
:108E400038B50546002840D00DF06AFE10B94FF045
:108E5000FF3038BD0AF040FFB0F5FA7FF7D81C4C60
:108E60001C4825631B2500F0EFFC00212A4604F175
:108E70000F0084F83410217084F82A10E1620EF09B
