:020000040000FA
:1000000050880420F14B00008B5F0000DD4B0000A6
:10001000DD4B0000DD4B0000DD4B0000DD4B000040
:10002000000000000000000000000000514C000033
:10003000DD4B000000000000DD4B0000DD4B000048
:100040002D0700002D0700002D0700002D070000E0
:100050002D0700002D0700002D0700002D070000D0
:100060002D0700002D0700002D0700002D070000C0
:100070002D0700002D0700002D0700002D070000B0
:100080002D0700002D0700002D0700002D070000A0
:100090002D0700002D0700002D0700002D07000090
:1000A0002D0700002D0700002D0700002D07000080
:1000B0002D0700002D0700002D0700002D07000070
:1000C0002D0700002D0700002D0700002D07000060
:1000D0002D0700002D0700002D0700002D07000050
:1000E0002D0700002D0700002D0700002D07000040
:1000F0002D0700002D0700002D0700002D07000030
:100100002D0700002D0700002D0700002D0700001F
:100110002D0700002D0700002D0700002D0700000F
:100120002D0700002D0700002D0700002D070000FF
:100130002D0700002D0700002D0700002D070000EF
:100140002D0700002D0700002D0700002D070000DF
:100150002D07000053B94AB9002908BF00281CBF69
:100160004FF0FF314FF0FF3000F00CB8ADF1080C4C
:100170006DE904CE00F008F8DDF804E0DDE90223C3
:1001800004B07047704700BF2DE9F04786468C46A3
:100190000846089E154674461946002B40F0C1805B
:1001A0008542B2FA82F245D94AB1C2F1200300FA7F
:1001B00002FC954094402EFA03F343EA0C0C4FEAFC
:1001C000154EA8B2230CBCFBFEF80EFB18CC08FBA6
:1001D00000F943EA0C43994528D9EB1808F1FF3799
:1001E00004D2994502D9A8F102072B44A3EB0903D5
:1001F000A4B2B3FBFEFC0EFB1C330CFB00F044EA84
:100200000344A04214D92C190CF1FF3304D2A042AC
:1002100002D9ACF102032C44241A43EA07401EB170
:10022000D440002334607360BDE8F0874746DDE7C3
:100230006346F1E792BB431B01214FEA154EAFB273
:10024000200CB3FBFEFC0EFB1C330CFB07F840EA52
:100250000343984561D9EB180CF1FF3004D298455F
:1002600002D9ACF102002B44A3EB0803A4B2B3FB08
:10027000FEFC0EFB1C330CFB07F744EA0344A742C9
:100280004DD92C190CF1FF3304D2A74202D9ACF19D
:1002900002032C44E41B43EA0040C0E7C2F1200300
:1002A0009540944020FA03F12EFA03F34FEA154EDD
:1002B0009040AFB20343B1FBFEFC0EFB1C10190CC7
:1002C0000CFB07F841EA0041884522D969180CF176
:1002D000FF3004D2884502D9ACF102002944A1EBD9
:1002E00008019BB2B1FBFEFC0EFB1C110CFB07F7D7
:1002F00043EA01439F420ED9EB180CF1FF3104D2BF
:100300009F4202D9ACF102012B44DB1B41EA0041C0
:1003100093E76046E3E76146F7E76046A4E7634694
:10032000B8E7834206D916B9002108467CE7C6E93A
:1003300000E0F9E7B3FA83F78FB9834201D372453E
:1003400008D8BEEB020460EB030301209C461EB9F3
:10035000002169E73846FAE7C6E9004CF8E7C7F13B
:10036000200CBB400EFA07F522FA0CF42EFA0CF121
:10037000BA401C4320FA0CF3B8404FEA1449014339
:100380001FFA84FEB3FBF9F809FB18300B0C08FBCD
:100390000EFA43EA00439A4540D9E31808F1FF30CA
:1003A00004D29A4502D9A8F102002344A3EB0A0320
:1003B00089B2B3FBF9F809FB183308FB0EFE41EADA
:1003C00003418E452CD9611808F1FF3304D28E45C4
:1003D00002D9A8F10203214443EA0040A1EB0E0137
:1003E000A0FB02984145CE46434602D306D14D4577
:1003F00004D20138B9EB020E68EB0403002EA7D03B
:10040000B5EB0E0261EB030101FA0CFC22FA07F3D3
:10041000F9404CEA0303C6E9003199E74046C5E7D5
:100420004346D9E7036803F01F025B09026004D06A
:10043000012B034818BF002070470248704700BFD7
:1004400000288450002584502DE9F047058B044690
:100450002807904612D4022905F0070540F0CD8008
:10046000204604F0DFFD80B10138218B042800F222
:100470009F80DFE800F0C29D657D8D0001290CBFE3
:1004800045F0100545F02005258388F31188BFF35A
:100490006F8FBDE8F08701F007035A1F012A1CD8AF
:1004A000002221F00701062B276889B2C4E9002247
:1004B00009D13B4603E0628B013262831B68002B4B
:1004C000F9D141F002012046218304F0ABFD002860
:1004D00000F0A18041F020019CE0042B0AD121F022
:1004E000070189B22046218304F09CFD10B141F040
:1004F00020012183218B01F0070AAA4575D000272E
:10050000B946A368002B00F08E8041F008012183DA
:1005100088F31188BFF36F8FA168002900F08C80E9
:100520000D68002900F08880334652462046D1F8F5
:100530000480C047002D48D02B6829461D46F0E7AF
:10054000236921F0070141F00601062DD3F8009040
:10055000218335D1B9F1000F47D041F00801218343
:1005600088F31188BFF36F8F20463D49C84731E0BB
:1005700021F00701236941F0040189B2042DD3F869
:1005800004902183E6D000274FF0040A3E46B8E7E6
:1005900021F00701236941F0050189B2052DD3F847
:1005A00008902183D6D000274FF0050A3E46A8E7E1
:1005B00001F0070AAA4518D00027B9463E46A0E731
:1005C00000274FF0060A3E469BE72B46B5E7B9F1F8
:1005D000000FC9D1EFF31188202383F31288BFF3F2
:1005E0006F8F238B23F008032383258BEA062ED5F8
:1005F00025F01003238305F007056669218B002E83
:10060000BFF649AF00232768C4E9003321F0070192
:1006100041F001012183218B4FF0000901F0070A0D
:10062000AA457FF46EAF002F94D041F008012183DA
:1006300088F31188BFF36F8F002FC8D03D6839460B
:1006400033465246204604F0DBFC2F46F4E7AB0667
:100650007FF51BAF25F02003238305F00705FFE698
:100660005D500000002210B50C4B1C7884420FD066
:1006700001320C2A03F11003F7D16FF0010010BD15
:10068000D2685078C00706D5107820B90B60F6E71D
:10069000DA68002AF4D16FF01200F0E74C62000033
:1006A000002318460649D1F89020C2F3072293424E
:1006B00000DB7047C1F89830C1F8A0000133F6E7BD
:1006C00000ED00E0002807DB01234109034A00F0A8
:1006D0001F00834042F82130704700BF00E100E076
:1006E00000280CDB01220649430900F01F0082406C
:1006F000203341F82320BFF34F8FBFF36F8F704734
:1007000000E100E00028ACBF00F16040064B4FEA7A
:100710004111C9B2ABBF00F5614000F00F0080F895
:1007200000131954704700BF14ED00E0EFF3058388
:10073000034A103B02EBC301496852F833000847F3
:100740000067000030B5104CD4F89030C3F3072395
:10075000013B984215D80D7A0B6805F01F0223F073
:100760001F031A43CB686D0923F01F0343EA4503B7
:1007700043F00103C4F89800C4F89C20C4F8A030EA
:1007800030BD6FF01500FBE700ED00E04FF47F0394
:10079000D3F83021D3F83431072A05D1023B032B9B
:1007A00004D8034AD05C704700207047012070478E
:1007B000FA660000084B70B5C31A0D4607499B1036
:1007C000044659434022064804F081FD2B46014669
:1007D0002046BDE87040184750460020B76DDBB694
:1007E00094600000402373B50B4C0093041B0B4630
:1007F0000D460A49A41061430646094A094804F017
:1008000092FD011E05DA30462B4602B0BDE870406D
:10081000184702B070BD00BF50460020B76DDBB670
:1008200097530000946000002DE9F0410221064634
:100830000520FFF767FF1B4B1A796ABB01241A4A90
:100840001C711A60194B1B689B0602D40520FFF728
:1008500039FF4FF05023C3F81845C3F81445C3F8C7
:1008600080453469DCB100254FF01C08104F08FBAF
:1008700005431C221846002105F0CBFB0C2303FB8B
:1008800005440123032D0761A36702D10020BDE8C1
:10089000F08134690135EAE76FF00400F7E76FF0A3
:1008A0001500F4E7484600203516000000E100E09E
:1008B0006C640000044B054A1B68B3FBF2F3584319
:1008C000034B43F0010318476420002040420F000F
:1008D000A061000000F1744000F5A6000A289ABF4C
:1008E000024B33F910006FF00F0070475A6500009B
:1008F00010B503695C6884B904F06FFD074B93F889
:100900003020012A09D183F83840054BC3F8082369
:100910001A61C3F80045C3F8004110BD0C46002021
:1009200000B00250024B0B6001231360704700BF00
:1009300064640000004870475C640000F8B50E462F
:100940001946304604F06AFD30B346EA030414F059
:10095000030421D10BB90020F8BD01212046104D20
:1009600023F00303A34204D1D5F80034DB07FBD501
:10097000F1E71759C5F88415C5F80415D5F800C472
:100980001CF0010FFAD03751BFF35F8FC5F8840513
:100990000434C5F80405E5E76FF01500DCE700BF97
:1009A000009003500B4670B51146184604F036FD12
:1009B00010B31A43C2F30B02F2B9B1F5805F19D339
:1009C000184602244FF0FF350D4B0144C0F30B06CF
:1009D00066B9C3F88445C3F804450560D3F80064DC
:1009E000F607FBD5C3F88425C3F8042500F580502D
:1009F0008842EBD1002070BD6FF01500FBE700BF0F
:100A000000900350024B0B6001231360704700BF3E
:100A10000446002000487047546400004FF4807181
:100A20004FF48052024B0020C3E90012704700BF10
:100A300004460020B1F5802F10B508D2C1F5802002
:100A4000834204D841EA030010F0030003D06FF0A2
:100A5000150008E004309842FCD3074813440144D1
:100A60009A4201D1002010BD087812F8014B2040B5
:100A700001F8010BF4E700BF4B600020024B0B6054
:100A800001231360704700BF4C64000000487047AA
:100A9000446400000D4B1868010A0006BFF35F8F25
:100AA0000B4BD3F80435181841F10001B3F5801F42
:100AB0000AD2084BD3E90023904271EB030303D21F
:100AC00010F1807041F10001704700BF0046002026
:100AD00000500150F0200020F8B5054672B6002302
:100AE00083F31188BFF36F8F05231B4E1B4F3478A0
:100AF0000134B4FBF3F303EB8303E41AFFF7CAFFFB
:100B0000174A137823B157F82430C31A072B1DD97D
:100B10004FF05023D3F8141141B10021C3F8141140
:100B2000D3F8143134700CB9012313703478FFF703
:100B3000B1FF47F82400BFF34F8F20BF00BF00BFB5
:100B400000BF00BF00BF00BF00BF00BF85F311881A
:100B5000BFF36F8F62B6F8BD4C60042000470020E1
:100B60004B60042038B50F4B994210D10569EFF363
:100B70001180202383F31288BFF36F8F1C462B78DC
:100B800033B100232B7080F31188BFF36F8F38BD12
:100B9000FFF7A2FFEFF3118084F31288BFF36F8F8A
:100BA000EDE700BF0000AD0B4FF0005318680D4B90
:100BB000984210D003F11C53A3F58B13A3F6CC532A
:100BC00098420AD0084B984209D0084B98420CBF73
:100BD0000420022070470020704703207047012046
:100BE000704700BFB6B3B4B55DCE03F1EC49F2B6C1
:100BF00001680E4A0346914215D1C169A2F1102243
:100C0000A2F1EF1291420ED18268012A0BD8C2687C
:100C100012B101698A4206D0586928B19B691B1A32
:100C20005842584170470120704700BF55AA00FF45
:100C300070B50D4B9E68A6B13046FFF7D9FF04464C
:100C400078B9F3686BB935690DB9204670BD28468F
:100C5000FFF7CEFF28B9EB68B34202D12E462D69CB
:100C6000F2E70124F1E700BFC845002010B5034BAF
:100C70000A461B6800210446984710BD50200020FA
:100C800010B5044610B109B1FFF7F0FF024B204642
:100C9000BDE810401B681847542000204FF47F0324
:100CA000D3F83021D3F83431072A05D1023B032B86
:100CB00002D8024AD05C704700207047ED66000001
:100CC000F7B506464FF05021364B374A33F810003F
:100CD000925DC1F8080300250A44012142F2107414
:100CE0004FF05027314B116033F816308E4203F12C
:100CF00050231D601B6808BF0DF107058DF8071014
:100D0000022E32D0032E40D0012E1CD0D7F818343A
:100D100003F480333DB923B10120FFF7CBFD013C43
:100D2000F0D103B0F0BDD7F8182402F003022A7006
:100D3000002BF6D09DF807000128F2D1FFF7BAFD8D
:100D4000013CDDD1EDE7D7F80C3403F480333DB935
:100D5000002BE6D00120FFF7ADFD013CF3D1E0E729
:100D6000D7F80C2402F00102E1E7D7F85C3403F471
:100D700080333DB9002BD4D00120FFF79BFD013C0F
:100D8000F3D1CEE7D7F85C24ECE7D7F85434DB0393
:100D9000C7D5002DCED10120FFF78CFD013CF4D149
:100DA000BFE700BF42650000E56600003A6500004D
:100DB00010B5EFF31184202383F31288BFF36F8FF4
:100DC000074A136823F00201DB07116002D40120F7
:100DD000FFF776FF84F31188BFF36F8F10BD00BF5C
:100DE000F0460020022838B5304C48D003284CD0BB
:100DF000012850D04FF05023D3F81814D3F81824FA
:100E0000C90321D502F00303022B05D0012B02D028
:100E10000020FFF755FF01234FF050220220C2F8B7
:100E2000183508224FF48273002103F15023196012
:100E30001D68012502F15022156022687AB34FF037
:100E40005023C3F804030FE0D3F81424D207E2D5EB
:100E5000D3F81C2402F00302013A012AD8D82268F0
:100E60001AB10222C3F8042338BDD3F80421002AA2
:100E7000FBD00022C3F80421D3F80431F4E7202288
:100E80004FF492734FF40070CEE718224FF4907332
:100E90004FF48070C8E700224FF48073C4E71A68EB
:100EA000002AFCD019601B68DEE700BF484600201E
:100EB00070B5104D6C6B9CB14FF47A735C430A2390
:100EC000B4FBF3F40C4ED6F8003163B995F8393021
:100ED0004BB90A20FFF7EEFC013CF4D1074870BD86
:100EE0004CF25034EEE795F83930002BF6D1044837
:100EF000F5E700BF0C46002000B002500700AD0B24
:100F00000000AD0B10B500220124094BC3F80045C9
:100F1000C3F800211C6008B9064810BDFFF7C8FFE0
:100F2000044B9842F9D1044B83F83840F4E700BFF2
:100F300000B002500000AD0B0C4600202DE9F0413E
:100F400006461746984604F03FFC002863D106F099
:100F50006043B3F1005F60D1B3075ED1314C94F8C8
:100F60003030012B05D0434559D194F83830002B4F
:100F700055D000232C4AB8F1020F0BBFC2F81075F0
:100F8000C2F80475C2F81465C2F808650CBFC2F84F
:100F90001815C2F80C1584F8393023680CBF0825E1
:100FA0000425C3B994F838306BB100221E4B05F10B
:100FB000A045C3F80021012305F52C352B60BDE8C1
:100FC000F041FFF775BF0120FFF79CFF174B9842D8
:100FD000EBD1BDE8F081A36823B1E6606161E76110
:100FE0001348F6E7104AA6602161A76184F83080B3
:100FF000C2F800310123C2F8043394F8382002F01B
:10100000FF0012B9FFF77EFFEAE705F1A04505F5FD
:101010002C352B60E4E70748DBE70748D9E70748AA
:10102000D7E700BF0C46002000B002500700AD0B10
:101030000000AD0B0800AD0B0A00AD0B0B00AD0BB3
:1010400070B5054604F0C0FB00283AD111F0030644
:1010500039D11F4B1A6892B91E4CC4F81C15C4F83C
:10106000205583F8392093F838300BB30023C4F8A7
:1010700000310123E360BDE87040FFF719BF93F82A
:101080003040012C21D1134AC2F81C150421C2F8AA
:10109000205583F8396083F83010C2F80061C2F837
:1010A000044393F8383053B9FFF72CFF0A4805E0A2
:1010B0000120FFF727FF094B9842D7D170BDD460BC
:1010C000F4E70748FAE70748F8E70748F6E700BFFC
:1010D0000C46002000B002500000AD0B0700AD0B25
:1010E0000800AD0B0A00AD0B0B00AD0B124B70B539
:1010F00053F82050013053F82060AE4200D870BD44
:101100006C68B4B1237FDB0711D4636953B1204607
:10111000984738B10028B8BF4042FF28A8BFFF2039
:10112000E3681870E268537843F0010353700835A0
:10113000E3E72B689847FAE72463000048B1094BBE
:101140005B68984205D003681BB1DA68C1680A443D
:10115000DA60D0E9003213605A600023C0E900333E
:10116000704700BF5C200020084B9A685A621A69D9
:101170009A629A69DA62DA689A6032B15A691A61D7
:10118000DA699A610022DA60704770470C460020E5
:1011900010B5224BD3F8002192B10022204CC3F8A5
:1011A000002194F8381094F8302071B90121032AF5
:1011B00084F8381005D0042A05D0022A00D199609D
:1011C00010BD5960FCE7D960FAE7032A19D0042A58
:1011D00019D0022A04D1012384F82030FFF7C4FF7C
:1011E000A36813B9012384F8303094F8393003F040
:1011F000FF0013B9D4E900319847002384F8203068
:10120000DEE70223E8E7032284F82020D3F81C2538
:101210006262D3F8203584F82830E1E700B002504C
:101220000C4600200268154BFF2A08BF4FF0FF3222
:10123000C3F824254268FF2A08BF4FF0FF32C3F8E5
:1012400028258268FF2A08BF4FF0FF32C3F83025F7
:10125000C268FF2A08BF4FF0FF32C3F83425026985
:10126000FF2A08BF4FF0FF32C3F838254269FF2A32
:1012700008BF4FF0FF32C3F83C25704700B0025062
:1012800030B58DB06C46184D0FCD0FC495E80300F6
:1012900084E8030015496846D1F82435DBB206938B
:1012A000D1F82835DBB20793D1F83035DBB208939B
:1012B000D1F83435DBB20993D1F83835DBB20A9373
:1012C000D1F83C35DBB20B93FFF7ACFF0023C1F83C
:1012D000003101230B60D1F80031002BFBD006A8B0
:1012E000FFF7A0FF0DB030BD8061000000B00250DC
:1012F0002DE9F84F44680F46002C54D0D4E900453E
:101300008368002B51D0D3E90063002B4ED0002D11
:101310004CD0AB4240F09B800135092D00F2978004
:1013200090F800A004F050FA002840F08C80DFF81C
:1013300028B19BF83000012840F087809BF83830B6
:10134000DFF81891ABB30122454B5FFA85F8C3F87B
:101350000823FFF795FFACBB0024FF0347EA0527EE
:101360008BF8394047EA0A07DFF8F4B047F44057F2
:10137000CBF80041CBF83476FFF79AFD48451CD0F6
:10138000CBF80041002E5CD0A8F10208DBF83C2627
:10139000DBF83836B8F1070F53D8DFE808F0514FC3
:1013A0004D4B4A4846442546AAE71E4601351D4492
:1013B000B3E7FFF7A7FD4845C5D12848BDE8F84F7A
:1013C000FFF788BAA8F10203072BC5D8DFE803F0BE
:1013D0002927251123211F04E3791B06A27943EA5B
:1013E0000243627943EA0223227913431C4AC2F87A
:1013F0003C36E3781B06A27843EA0243627843EA6C
:10140000022322781343164AC2F83836A4E7002391
:10141000E4E70023E5E70023E6E70023EBE700230A
:10142000ECE70023EDE7110EF171110CB171110A17
:10143000717132711A0EF2701A0CB2701A0A72704F
:1014400033700848BAE70848B8E70848B6E76FF0CD
:101450001500BDE8F88F00BF0C4600200700AD0B5B
:1014600000B002500000AD0B0800AD0B0B00AD0B3F
:101470002DE9F047C1F30B0306460F461546D0F899
:1014800004C0002A6CD0C2F30B0151EA030467D1F7
:10149000002F65DBBB18DCF82C20934260D803F0EA
:1014A000ACFF21463046D6F8048004F09DF904468E
:1014B00000284FD1DFF8B090D8F82C30AB4219D1CA
:1014C00000210220FFF7BCFDAA4604462146304613
:1014D000FFF748FB4C4522D15744A5EB0A0530469F
:1014E00004F098F9041E31DB14F00104F7D1002D4B
:1014F000E2D118E0B5F5803F09D3BBB2DBB939467C
:101500000120FFF79DFD4FF4803A0446DEE7B5F574
:10151000805F10D230461549FFF724FB134C20465C
:10152000FFF7D8F904460121304604F05DF9002C9C
:1015300008BF04460EE0C7F30B000028EAD1394685
:10154000FFF77EFD4FF4805A0446BFE70121304685
:1015500004F04AF93046FFF7CBF92046BDE8F087A2
:101560006FF01504F9E700BF0000AD0B0400AD0BF0
:101570000C22104B014602FB0033002030B4D3E9AB
:101580001C521867EFF31180202484F31288BFF3F4
:101590006F8F9C6F04F0C00444F002049C6780F3DA
:1015A0001188BFF36F8F1DB12B4630BC024818471E
:1015B00030BC7047504600209460000010B4EFF338
:1015C0001182202383F31288BFF36F8F17480168BD
:1015D00041F002040460C80707D482F31188BFF306
:1015E0006F8F012010BCFFF7FDBB4FF05021D1F8E9
:1015F0000C04D1F80C14C907EFD5EFF3118083F375
:101600001288BFF36F8F0A498B6F03F0C00343F05A
:1016100002038B6780F31188BFF36F8F82F3118809
:10162000BFF36F8F002010BCFFF7A2BFF046002071
:1016300050460020092813D8DFE800F005101212E8
:10164000121212120E0C074B986F10F0070007D100
:10165000FFF78EBF0220FBE70320F9E70120F7E741
:10166000704700BF50460020154B9A6A12F0007F69
:101670009A6A14BF1E201D2012F0807F9A6A18BF3C
:101680001F2012F4801F9A6A18BF022012F4002F44
:101690009A6A18BF212012F4802F9A6A18BF22205C
:1016A00012F4003F9A6A18BF232012F4803F9A6A0E
:1016B00018BF24206FEA02426FEA12429A62704712
:1016C00000ED00E010B5184B0246986A9C6A10F4D1
:1016D000805F14BF1720162014F4006F9C6A18BF97
:1016E0001820A40508D5986A000404D51AB19A6A8E
:1016F00022F400429A6219200B4B9A6A12F4806F0E
:101700009A6A18BF1A20D2050CD49B6A13F4005FA2
:1017100018BF1C20044A936A43F47F43936200235A
:101720000B7010BD1B20F5E700ED00E010B51C4B61
:101730000246986A9C6A10F0100F14BF1120102006
:1017400014F0080F9C6A18BF1220A40709D5586B23
:10175000986A000604D51AB19A6A22F080029A6249
:1017600013200F4B9A6A12F0010F9A6A18BF1420C7
:1017700012F0200F9A6A18BF1520D40658BF9B6A32
:10178000074B9A6A920642BF5A6A22F400525A6282
:101790009A6A42F0FF029A6200230B7010BD00BFEC
:1017A00000ED00E00222024B83F8BC20704700BF2E
:1017B000044500202DE9F0432F4B304C93F8BC102A
:1017C00085B04A0054F8225085420FD1582202FBBE
:1017D0000134656A283401A9C0B2FEF743FF00282E
:1017E0000FDA6FF0150005B0BDE8F083013254F850
:1017F000222090423DD1582202FB0134256D543401
:10180000E9E7019B002BECD0D3E90167D86803AA74
:10181000836802A95B69984700231A46194606EBBC
:10182000070C0398814202D300202360DBE74FF0CE
:10183000000E029800EBC100D0F804800768BE4596
:1018400001D30131EDE796420FD89445ECD9FF2B37
:1018500002D96FF00B00C6E705EBC307A2EB060940
:1018600045F83390C7F80480013342440EF1010E6D
:10187000E4E70120B7E700BF044500200C63000047
:10188000F7B5019001A81F461646FEF7CBFD019B58
:101890009DF8204000EB8300D0F80032064D240272
:1018A0001D4044EA8703194341EA46022A43C0F82F
:1018B000002203B0F0BD00BFF0F0FCFF10B50446FD
:1018C0006822002104F0A5FB0B4A0C4B0C49C4E92B
:1018D00012230C4B0C48C4E914130C4BC4E9160337
:1018E0000B4B0020236603F17453A3F52303A3F6E7
:1018F0009243636610BD00BF67E6096A85AE67BBA9
:1019000072F36E3C3AF54FA57F520E518C68059BE1
:10191000ABD9831FB1F5802F38B51DD2C1F5802317
:101920009A4219D841EA0205C5F30B05A5B90C4B3B
:1019300021F47F6121F00F01140B0B44A54201D16A
:10194000002038BD18464FF48052FF2104F061FB9F
:10195000013500F58053F1E76FF01500F1E700BFA6
:101960004B60002008B54FF48022FF21024804F0AC
:1019700050FB002008BD00BF4B6000202DE9F04F58
:1019800085B00F9D119C9246EA000F460646002145
:1019900020460432039304F03CFB043F4FEA850BDE
:1019A00004EB850805F1020944451DD100221146CA
:1019B00058F82530954232D12D48026853404B40AB
:1019C0005A0852425B4213430268DC1782EAE37210
:1019D000D24300231D1D5D4506EB030135D95B4550
:1019E0003CD305B0BDE8F08F57F8042FDAF80010AB
:1019F0002368204601FB0233109900924B43524664
:101A000049460293039B03F07DFD029B2046009311
:101A100049462B460E9A03F075FD0434C4E70E9C2C
:101A200058F8227054F82240781AA0422CBF4FF088
:101A3000000C4FF0010C001B46F822008F422CBF17
:101A400061460CF101010132B4E758F80310F05877
:101A5000214010400143F1502B46BBE718F803002A
:101A60000D7820401540284301F8010B0133B6E7FB
:101A7000DC450020F8B5334A1368D3B19368C3B18D
:101A800000283ED000293CD001FB00F4B4FBF0F06C
:101A9000884236D1201D34D8A1070CD024F003058C
:101AA0000435D36803E05868A8422CD29B69002B08
:101AB000F9D11846F8BD2546F3E7D1602FE005F1CE
:101AC0002007D919203848600020C1E90203DFF857
:101AD00078C01869086143F807C01C4FCF6100B196
:101AE000C160586948619F698F6140B181618869AF
:101AF00000B1416101201961C3E9015013E0D160D7
:101B0000F5E70023D5E7401B232803F12006D6D8AC
:101B100001219960D3E905010028CED0816199693E
:101B200009B1586948610021C3E905111369DB0750
:101B300001D5FFF77DF822460021304604F069FA0E
:101B40000346B6E7C845002055AA00FF669911EE86
:101B5000024638B5002865D0334C2368002B61D08D
:101B6000A368002B5ED0002140F8181C50F8141C0C
:101B7000A0F1200301B38868F0B952F81C0C00F101
:101B8000200548682844486052E90510086152F869
:101B9000145C2A6902B1D56020220021184604F0A5
:101BA00038FA286908B1836843B323699B0739D59C
:101BB000BDE83840FFF73CB852F8100C00282AD096
:101BC000816841BB41685A680A4420325A60026900
:101BD0001A61D3E9051299B9CAB942695A61816992
:101BE0009961B2B193619A6902B153611A6902B104
:101BF000D3602022002104F00CFAD6E72B46E1E75F
:101C00008A619A69002AE8D059695161E5E7E26082
:101C1000F7E7E360E7E7E16842F8081C01B14B61D0
:101C2000E360C2E738BD00BFC84500202DE9FF478B
:101C30000F4605461E4690464168002A7ED0002B7E
:101C40007CD0042B01D9B30778D117F0030475D1E8
:101C5000002F73DBCA6ABB1993426FD8284603F082
:101C6000CCFB2146284603F0BFFD044650B10121BC
:101C7000284603F0B9FD2846FEF73AFE204604B098
:101C8000BDE8F087032E1ED803233A460421684698
:101C9000FFF754F9044601462846FEF763FF294B37
:101CA0009C4236D132464146684604F08BF9022305
:101CB0003A4604216846FFF741F9044601462846A2
:101CC000FEF750FF25E008F06043B3F1005F02D15A
:101CD00018F0030F2DD0DFF86CA0102EB14628BFEE
:101CE0004FF0100941464A46684604F06BF902235A
:101CF0003A4649466846FFF721F904460146284618
:101D0000FEF730FF544504D1B6EB0906C8444F44F2
:101D1000E3D12046FEF7DEFD01210446284603F00C
:101D200063FD06462846FEF7E3FD002C08BF344657
:101D3000A4E702233A4631464046BCE76FF015045B
:101D40009CE700BF0000AD0BB1F5802F104608B531
:101D50001A4609D2C1F580239A4205D8044B19448A
:101D600004F030F9002008BD6FF01500FBE700BF5C
:101D70004B60002042F21073994270B504460D4644
:101D800002D96FF00F0070BDC3888B4214D20B4B89
:101D9000042128461B68984706460028F1D0216890
:101DA00041B1E288920004F00DF9E18820688900D1
:101DB000FEF766FFE58026600020E4E7582000205B
:101DC0004FF0000C2DE9F04FCFB046AD00F14806C2
:101DD000044603910FCE0FC596E80F0085E80F006B
:101DE0009B46DDE9488301933E4B1646029304AAC5
:101DF0008946DDE94615BCF10F0F5BD8039B53F80C
:101E00002C301BBA4FEAF02E86EA0907DDF808A04D
:101E10008EEAB01E07408EEA706E774077445AF81B
:101E200004EB936077443B4445EA010E4FEA713777
:101E3000CDF808A087EAB1070EEA080E05EA010A04
:101E40004EEA0A0E87EAB15777440CF1010CDDF82F
:101E500004E05B44BCF1400F9E44B3463B4402F1B6
:101E60000402CDF804801ED1CDE94C96CDE94AE0BC
:101E7000CDE94858CDE94631CDE9043745A904F10B
:101E80004403643453F8042F51F8040FA34202446E
:101E90001A60F7D104A84FF49471FEF7E7FE002012
:101EA0004FB0BDE8F08FA8464E460D468146194614
:101EB0007046A0E7136852F834AC4FEAF34E8EEA4E
:101EC000734E52F8387C8EEA932E52F8143C3B4401
:101ED0004FEABA4787EAFA17734487EADA073B44BE
:101EE00090E700BF3C6300002DE9F0412D4C002637
:101EF00024F00704C4F1005303F5E023B3F5802F69
:101F00002CBF082204229D1A254425F007052D1B0D
:101F1000ED08254B29462046A560E6601C6003F0CD
:101F20007DFF421D9200013002F107074FEAD707FB
:101F30003146A2F1100204F11000B8BF324604F09D
:101F400068F83A463146204603F056F833463246A2
:101F50003146204603F027F8A5EB07082046314616
:101F6000012203F031F84246394603F045F83B467A
:101F700032463946204603F016F82946204603F03B
:101F80003BF8434632462946204603F00CF82046EB
:101F90000122294603F018F8394603F04EFF304677
:101FA000BDE8F08157900420F4460020F8B54FF0CA
:101FB000502301250026D3F80443174F04B9F8BD78
:101FC000B4FA84F0C0F11F00830003F580739BB264
:101FD00003F1502305FA00F2196892B224EA0204D0
:101FE0000029EBD01E601B684FF05023022AC3F873
:101FF00008230DD1D3F81814D3F8181401F00301F5
:10200000012905D1C3F81825C3F804239960D5E741
:102010003B68C0B29847D1E7484600202DE9F04F11
:10202000824688461C46174685B0002A00F08D80FF
:10203000002B00F086800029C0F287804268CB1810
:10204000D26A934200F28180C8F1000505F00305D1
:1020500003F0D3F9A54228BF25467B4203F00303D2
:1020600007F0030658BF5E42764206F00306A6421A
:1020700028BF2646631BA01B20F0030023F00309A2
:102080008145C8BF814603F00302D4BF14461C1A21
:10209000B9F1000F17D0BB194946019308EB0502AF
:1020A0000323B819FEF74AFF834601465046FEF760
:1020B00059FD274B9B453BD1B54204D04A46019977
:1020C000781903F08CFFC5B1C5F104060323042180
:1020D000A8EB060202A8FEF731FF834601465046F0
:1020E000FEF740FD1A4B9B4522D106F108032A4614
:1020F00038460DEB030103F065FFBCB1082108EB86
:10210000050203234A440DEB0100FEF717FF834647
:1021100001465046FEF726FD0D4B9B4508D109EBC5
:102120000500224602A9384403F04CFFDFF820B036
:102130005046FEF7DDFB584605B0BDE8F04FFEF710
:10214000C9BB184605B0BDE8F08F6FF01500F9E780
:102150000000AD0B2DE9F04F8046436893B05A6BF9
:102160005368117A03EBC101994205D86FF001045D
:10217000204613B0BDE8F08F5879002800F06F8238
:102180000833F1E73B68C3F3C322082AC3F308040A
:1021900000F25F825C451AF802104FEA136312D016
:1021A000222B40F226814E2B40F05682C5F8144572
:1021B00001260CA80C94FEF735F90C9B06FA03F3E4
:1021C000836030469CE1222B40F211814E2B40F07F
:1021D00043824FF0FF33C5F814350437B945D1D1E8
:1021E00002212B20B24EFEF78DFA404603F0DCF8B8
:1021F00096F83030D8F80450002B40F0A581D8F87C
:102200001030AC4AC6E90023002D00F0A98095F8F3
:1022100029401CB195F82A30002B5BD16968FF2951
:1022200000F09481AA68FF2A00F09081EB68FF2BF0
:1022300000F08C8128690E2840F08881112940F037
:102240008581122A40F082810D2B40F07F816B69DD
:10225000FF2B02D00F2B40F07981AB69FF2B02D00E
:10226000102B40F073817CBB0327234601222146BB
:1022700011200097FFF704FB009723460122214617
:10228000A868FFF7FDFA0097234601222146E86877
:10229000FFF7F6FA00972869234601222146FFF747
:1022A000EFFA6869FF2805D02346012221460097EE
:1022B000FFF7E6FAA869FF2806D00323009300235E
:1022C00001221946FFF7DCFA95F82A3013B9281DC8
:1022D000FEF7A8FF6B6A784C736395F8293086F88F
:1022E0003A300123C4F80833FEF7CAFF2B68C4F85C
:1022F0004035AB7F697F2A7F9B0143EAC1031343CB
:10230000EA7F43EAC213C4F8443595F82320D4F891
:102310004435002A40F0138143F44033C4F8443577
:102320004FF4C063C4F84036D4F8002695F8203046
:1023300022F07F4222F0FF02134395F8212043EA66
:10234000026395F8222043EA426395F8232043EA8A
:102350000273C4F80036336813B12B20FEF7B2F9CC
:1023600000230122C6E90233544886F8302086F85B
:102370003830FEF7AFFA041EC0F21081504F0CAC9B
:102380000FCF0FC497E80300002303AF0393C7E9FF
:102390000133AB2384E803008DF80C30464B0CA8C6
:1023A000D3F82425D2B20692D3F82825D2B20792C8
:1023B000D3F83025D2B20892D3F83425D2B209929C
:1023C000D3F83825D2B20A92D3F83C35DBB20B935E
:1023D000FEF728FF96F8383003F0FF09002B00F0D5
:1023E000B78006A8FEF71EFF6FF00404D6E04FF09A
:1023F000FF34222B00F23081DFE813F023002900A4
:102400003000330036003D0033002E012E012E0136
:102410002E014E0064002E012E012E012E012E01F0
:102420002E012E012E012E0167007200750078002A
:102430002E012E012E017B009200950098009B003A
:102440009E00C5F80C45601C7FF4B2AEC5E6C5F829
:102450001445631C3FF4C1AE0026B2E6C5F808453A
:10246000F1E7C5F81045F4E7661CC5F808453FF4E8
:10247000B4AE002605E0601CC5F80C453FF4ADAED7
:1024800001260CA80C94FDF7CDFF024601200C9B01
:1024900000FA03F3D36033E0C5F808450029D8D12A
:1024A000621C3FF49AAE00260621304628E000BFA9
:1024B0000C4600200754000000B002500000AD0B95
:1024C00080610000C5F80C45E8E7C5F86045621C6E
:1024D0003B683FF482AEC3F30043002BD0D067E6E5
:1024E000C5F86445F3E7C5F86845F0E7C5F86C45FD
:1024F000EDE7C5F82445661C3FF46FAE00200126C9
:102500003B68009103F40042002A07BF01463246AF
:10251000012200212046C3F34123FFF7B1F95CE615
:10252000C5F828458FE7C5F83045E4E7C5F83445D8
:10253000E1E7C5F83845DEE7C5F83C4583E723F415
:10254000003343F48033E9E64A4812E74A4810E78B
:102550000120FEF7D7FC014606A8FEF763FE474BB5
:1025600099427FF441AF49463846FEF7C1FE041E4A
:1025700014DB2320FEF79EF99F234FF0030ACDE9D9
:102580000C9949468DF830300CA806AB0697CDF86B
:102590001CA00E93FEF7ACFE041E13DA404602F0B8
:1025A0001CFF96F8301001297FF4E2AD0022344B75
:1025B00086F83820C3F808131961C3F80025C3F85A
:1025C0000021D5E55246394605F1300003F029FDDA
:1025D0000446002838D1D8F80420537F023B012B51
:1025E00030D9157F023D022D8CBF002501254046C4
:1025F00003F010F900282ADBC2B2C0F38010854234
:10260000CCD00023012182F04002ADF808300C93B9
:102610008DF808200E9302AA06AB0CA8069207912B
:102620008DF830100D93FEF763FE04460028B5D1F7
:10263000404603F0EFF8041E01DBE307F8D404EA98
:10264000E474ABE70125D2E76FF01204A6E7044675
:10265000A4E76FF015048BE56FF0850488E51F682B
:1026600093F8049040F2FF1B1568DFF818A007EB01
:102670008909B3E50C00AD0B0400AD0B0000AD0BF8
:1026800000B00250F166000070B586B00D46C0B2D1
:1026900001A9FDF7E7FF064648B9019C1023A16890
:1026A000204602AA103902F0E7FC002801DA0120D6
:1026B00042E0204602F0B9FD334602AA12F8011B9F
:1026C00088423BD10133102BF8D103232B70A16832
:1026D0000123183921F0070120460DF103021039BA
:1026E00002F0CAFC0028E2DB9DF80330204603F02C
:1026F0000F021B092B716A7002F097FD9DF80330E1
:10270000834202D06B78042B03D901236B70002322
:102710002B71A2682046183A22F00702083AA91C39
:1027200002F096FE0028C2D1A2682046183A22F094
:102730000702E91C02F08CFE06B070BD10220449AD
:1027400002A803F06EFC00280CBF01230223BDE7A2
:102750004A6500002DE9F7432E4BD3F80423900778
:102760000BD5D3F8042142B10022C3F804212A4A30
:10277000D3F80431136801331360264AD2F80433C6
:10278000D90326D5254BD3E8EF1F21F00100C3E87C
:10279000E40F002CF7D1CB0702D4D2F84031C3B1FB
:1027A00000251C4CC4F84051D4F84031FEF772F9B2
:1027B000EFF31182202383F31288BFF36F8F184B3E
:1027C000D3E90267B042B94106D282F31188BFF360
:1027D0006F8F03B0BDE8F0834FF0FF38D3E90010EE
:1027E0004FF0FF391D60C3E902894FF48033C4F80C
:1027F0004833C4F84051D4F8403182F31188BFF314
:102800006F8F0029E5D0009032463B462846884726
:10281000DFE700BF0050015000460020F8450020CF
:10282000D020002008B5034802F074FABDE8084043
:1028300002F020BA3C6400002DE9F04F044697B046
:1028400010468846019203F03AF80028C0F29B81B6
:1028500005D16FF00B07384617B0BDE8F08F0023A5
:102860000125CDE90935CDE90B35CDE90D35CDE9AA
:102870000F35664B01991293404613AB119302F04A
:1028800007FF0028414614DA204603F08EF8074679
:10289000002849D1204603F012F80028C0F25F81D9
:1028A0002046019902F023FF002880F26081002772
:1028B000D1E709A803F079F80746A8BB01990BA84E
:1028C00003F073F8074678BBB8F806100DA802317C
:1028D000ADF83050ADF82850FFF74CFA074618BB5A
:1028E00001460DA803F04DF80746E8B9B8F8061000
:1028F0000FA80231FFF73EFA0746A8B90BA803F06C
:10290000ECFA00F01F061F2E21D0C6F11F03194656
:1029100009A8029303F0E5FA074628B902990BA823
:1029200003F0DFFA074698B109A802F028FF0BA8C8
:1029300002F025FF0DA802F022FF0FA802F01FFFF2
:102940000C2113A8FEF792F9002FA3D083E702977A
:10295000BDF82A50BDF832A00BA8A5EB0A094FEA32
:10296000491B594603F0BDFA07460028DCD14FEA5F
:1029700089090BA909A802F0BAFE002834DA5946E1
:102980000BA802F0AAFF07460028CDD10AF1FF36B6
:10299000B30005F1FF39049305F180450AF1804346
:1029A000023B013D9B00A5EB0A050693AB004E459B
:1029B00003932DD3029909A802F08FFF0746002840
:1029C000B2D1B8F80430204609A9ADF8283002F099
:1029D000ECFF07460028A7D1204602F070FF002830
:1029E000A2D10122A2809FE70D9A09A952F80930CD
:1029F0000846013342F809304FF0FF330BAA03F0C9
:102A0000AAF807460028B4D08EE700BF01000300F3
:102A10000B9F049BDDF824A0FB180593049B4FEA51
:102A2000890BFA585AF82910ABF104030D9D07934E
:102A3000039B91421D4480F08D80ABF10400002384
:102A40005AF80000FDF786FB002914BF4FF0FF3352
:102A50000346B9F1010F2B600EBF00230AEB0B03F5
:102A600053F8083C1393ABF104035AF80330149362
:102A70005AF80B3015932B6801332B60069B07EB3C
:102A8000030A2B680021013B2B600FA802F079FF9D
:102A9000074600287FF448AF002E5ED0DAF8002009
:102AA0000F9B0FA91A60059A084612685A602A6897
:102AB00002F0B0FF074600287FF436AF11A90FA837
:102AC00002F015FE0028DCDC2A680BA90FA802F032
:102AD000A1FF074600287FF427AF039B0FA84FEA0A
:102AE000C30A514603F0FDF9074600287FF41CAFE6
:102AF00009A94FF0FF3308460FAA03F02CF8074648
:102B000000287FF411AF09A802F0D9FE00281CDAD2
:102B10000BA90FA802F049FF074600287FF404AF75
:102B200051460FA803F0DDF9074600287FF4FCAEFC
:102B300009A9012308460FAA03F00DF8074600284B
:102B40007FF4F2AE2B68013B2B60039B09F1FF3948
:102B5000043B2CE74FF0FF337BE73246A0E701232D
:102B600021462046019A02F0F6FF0746ECE64FF0B8
:102B7000FF3321462046019A02F0EDFF0746002868
:102B80003FF48EAE67E66FF0090764E638B500F1F2
:102B9000080245680446104603F09FF90730B5EB7C
:102BA000D00F16D1B5F5806F13D8104602F087FE0E
:102BB00000280EDDE38963B1A3681B68DB0708D535
:102BC00004F1100002F07BFE00280348C8BF00207B
:102BD00038BD0148FCE700BF80BFFFFF2DE9F04F83
:102BE000B3F5807FADF2C45D04461546129103D162
:102BF000FFF7CCFF079028B14FF0FF300DF2C45D16
:102C0000BDE8F08F079B294638930123626838A8F6
:102C1000399303F01AF8089040B138A802F0AFFDDC
:102C2000089BB3F5854F00F0C881E5E704F1080380
:102C3000194638A80D9302F05AFD002803DB38A886
:102C400002F09DFDD8E7636804F10800059302F0E7
:102C500036FE002804F11005F1DDA3681B6813F0AF
:102C600001030693EBD0284602F029FE0028E6DB9C
:102C7000284603F032F9B0F5005FE0D804F108000F
:102C800003F02BF9B0F5005FD9D8E38A6BB90121C5
:102C900038A802F076FE8246002800F06E8138A83F
:102CA00002F06DFDCDF820A0BAE75B01502B069B2A
:102CB0002CBF03261E464FF00109E28909FA06F6E9
:102CC00003365643DFF894804E4404213046D8F84A
:102CD0000030984705460028B1D0002370AFC7E9FF
:102CE0000039A36CB600002B40F0E281494638461B
:102CF00002F047FE824630BBE1893846890103F085
:102D0000F0F88246F8B93946384604F10802FFF770
:102D100093FD8246B8B942F21073E189994209D90C
:102D200031462846FDF7ACFFA36C002B87D16FF02E
:102D30000F0A0FE0B7F80690494511D33846FFF760
:102D400019F8824678B331462846FDF799FFA36CFF
:102D5000002BA4D170A802F012FDA0E7582000209B
:102D6000D7F800A009F1FF33002B40F09A815F1CD7
:102D70008F4238BF0F46D8F80030042138469847B4
:102D800080460028CCD0BAF1000F08D05146BA00D6
:102D900003F018F950464FEA8901FDF771FFADF8CD
:102DA000C671CDF8C08170AA04F1480392E803000F
:102DB00083E8030038A9084602F0F7FD82460028A0
:102DC000C1D101230D9938A8ADF8E43002F08FFC91
:102DD000002880F27C81E18938A8FEF7CBFF82468B
:102DE0000028B0D1A768384602F041FCE389DDF83D
:102DF000E090DDF8C0B1CDE901305A4649460F9068
:102E0000009748460395FEF7B9FDA368E18A099348
:102E10002369B4F80E801846109303F050F8012887
:102E200038BF012000F01F03470920F01F00502881
:102E30000493069B28BF032306930123069A09984F
:102E400003FA02F2069B119208FA03F205EB8203E1
:102E50000E934FEA88030A930E9B03EB88030B93B0
:102E600002F005FC51460C904FEA8802284603F018
:102E7000D0F801232B600B9B5A4603930C9B2946E9
:102E8000CDE90183099B284600934346FEF776FD72
:102E90004FEA880305EB030B49461A46584603F0F0
:102EA00091F84FF0020A5946119B534540F01981A1
:102EB000294648460A9A03F085F84FF0000AD3469F
:102EC0000B9B4A4603930C9B4946CDE90183099B22
:102ED000484600934346FEF751FD049B002B40F00B
:102EE00016811F23013F0493109B049A53F8273047
:102EF0000BF1010BD34003F0010343EA4A0A069B9E
:102F00005B4503D0002ADBD1002FD9D10A9A0E9855
:102F10000AFB025103F056F80B9B494603930C9BA6
:102F20004846CDE90183099B0E9A00934346FEF77C
:102F300025FD049B002BC0D1002F40F0E58001232C
:102F4000A268E1890F980092CDE901101EAA4946B6
:102F5000484603951E93FEF711FDBDF9E430BDF818
:102F6000E620013300F0D68031462846FDF788FE82
:102F7000A36C13B970A802F002FCBDF8E630059A04
:102F8000389DB2EB830F4FEA830640F2F98070ABB5
:102F9000921B002118469C1803F03BF80596059BF0
:102FA0001C440023059A934240F0EC8038A802F0BC
:102FB000E6FB089B002B7FF41FAE9DF8BF32BC2BB5
:102FC0007FF41AAE002338AEDF25344615931EA8D1
:102FD000FEF774FC20220DF29F211EA802F091FE44
:102FE000042215A91EA802F08CFE16A91EA802F044
:102FF000C6FE68211EA8FDF739FE202D2F46A8BF6A
:1030000020279DF85730304601333A4616A9ED1B6C
:103010008DF8573002F0D6FF002D3E44D7DC254610
:103020002146002270AB087813F8016B0132704022
:10303000DF2A01F8010BF6D1237803F07F03237018
:1030400015F8013B002B7FF4D7AD079B0133BE2B56
:103050000793F5D194F8BE30012B7FF4CDAD1EA8B7
:10306000FEF72CFC08224F491EA802F04AFE1299D6
:1030700020221EA802F045FE20220DF29F111EA85C
:1030800002F03FFE16A91EA802F079FE68211EA8D4
:10309000FDF7ECFD20220DF29F2116A802F0C1FFE2
:1030A000ACE55AF82320002A7FF461AE013B5BE6D1
:1030B00004F148084046E189FEF75CFE824600289C
:1030C0007FF441AE98E8030087E8030072E638A970
:1030D00008460D9AFFF7B0FB824600283FF47BAE0E
:1030E00031E60A9B5A46C8180B9B139003930C9B1E
:1030F0000AF1010ACDE90183099B00934346FEF7DB
:103100003DFC13980146CFE6DDF810A0D7E6049BFE
:10311000013BE8E623691B68DB077FF525AF3B46EB
:103120009A421AD8204B0D991A681B6857407A08A2
:1031300052427F423A4383EAE273DB4303F00203E5
:10314000013B38AAADF8E4301046012302F003FD3C
:10315000824600283FF408AFF5E559F82310013303
:103160000F43DDE723F00302AA5803F00301C9006F
:10317000CA40D2B28AB901339E42F3D170AC0EE795
:10318000059BF9E723F00302AA5803F00301C900E5
:10319000CA4004F8012D013304E76FF007030893D8
:1031A00004E700BFCB660000DC4500202DE9F043BA
:1031B00004460026FBB03AA80D46FEF77FFB2389A4
:1031C0006289D4F80C801344DFF894929844B04597
:1031D0006BD80CA93AA802F0D2FD68213AA8FDF7F5
:1031E00045FD00232A46009321464FF6FF7306A8AB
:1031F00001F058FF0646002869D1AB680B9A183BCE
:1032000023F00703103B9A4261D84FF0FF34A146E8
:10321000DFF8508208F587770DF10E0303AA04A9A1
:1032200006A801F089FF002851DB40F01581069ABD
:103230000499BDF80E306AB1079A5AB1099A9142C1
:1032400008D34FF6FF7C884830F8022B62453ED009
:103250009A42F9D1102B47D0202B59D0012BDBD12A
:10326000BDF80C40202C32D8234628463AAA01F05B
:1032700003FF60BB1CA8FEF721FB4FF48772414699
:103280001CA802F03EFD14A91CA802F078FD6821DC
:103290001CA8FDF7EBFC22463AA914A802F0C1FED7
:1032A000041E18BF01246442B6E7A8EB0607B7F571
:1032B000807F28BF4FF480774A463B4631462846F8
:1032C00001F0DAFE48B168213AA8FDF7CFFC4FF0D3
:1032D000FF3948467BB0BDE8F0833A4649463AA8F4
:1032E00002F00FFD3E4472E7BDF80C60202EEED1D7
:1032F000334628463AAA01F0BFFE0028E7D13246FD
:103300003AA90CA802F08DFE0028E0D1012683E73F
:10331000002C81D1BDF80C30B3F5807FD7D1284681
:103320003AAA01F0A9FE01460028D0D170220DEB87
:10333000020002F06EFE012209233946CDE938234E
:1033400005A8302314AACDF8148002F09CF830BBF5
:10335000059B149A1344BB4221D139461EAA05A8E5
:1033600002F0BCFCD8B9394620AA05A802F0B6FC88
:10337000A8B91EA802F0B1FD059B0730C008BB42EA
:103380001D900CD11EA9084602F00FFB20B920A900
:10339000084602F00AFB70B3B0F5814F31D04FF010
:1033A000FF3934A802F0EBF936A802F0E8F92EA8AC
:1033B00002F0E5F922A802F0E2F926A802F0DFF90E
:1033C00024A802F0DCF920A802F0D9F91EA802F026
:1033D000D6F932A802F0D3F930A802F0D0F92CA81F
:1033E00002F0CDF92AA802F0CAF928A802F0C7F91C
:1033F0004FF0FF3410E71EA802F06FFD0730C00841
:103400001D901CA8FFF7C2FB0028C8D11EA802F01F
:1034100064FD7F280446C2D9BDF88630002BBED09B
:10342000209B1B68DB07BAD520A802F056FD0128B7
:10343000B5D91EA920A802F05AF90028AFDAE31D79
:10344000DB08B3F5807F1D93A9D13AAA0CA91CA86B
:10345000FFF7C4FB8146A4E7002E7FF43AAF36E7BE
:1034600048470020706500001C6500002DE9F34707
:10347000836807468B420D4644D95B1A934241D379
:10348000511E29446A4601F04BFD00283CDBDDF863
:1034900000801F4E1F4CDFF880906A462946384650
:1034A00001F03EFD00282FDBDDE9005A3846524688
:1034B000294601F0A1FE002826DB5544A845C6F8A0
:1034C0000046C6F80446C6F80846C6F80C46C6F8D4
:1034D0001046C6F81446C6F81846C6F81C46C9F881
:1034E0000046C9F80446C9F80846C9F80C46C9F8A8
:1034F0001046C9F81446C9F81846C9F81C4603D343
:103500000135CAE74FF0FF3002B0BDE8F08700BFD9
:10351000008001503546526E0090015038B5174C6E
:1035200094F8BC20012A12D1154B4FF45E32A365EA
:103530004FF40073A4F860300023C4E91923C4E9F0
:103540001B33E3656367012594F8BC2000E0002588
:1035500058235A432C2303FB05222244106A08B93E
:1035600002F02DFD2023002101F086FD10B185F031
:10357000010038BD002DFCD1E5E700BF0445002067
:103580003DB8F3962DE9F7434FF02C085826414CEF
:1035900008FB00F894F8BC90074606FB0983234417
:1035A0001D6A0DB902F00BFD284601F03EFE94F8AD
:1035B000BC2002FB06862644731E033613F8011F47
:1035C00081424ED19E42F9D1012003B0BDE8F08383
:1035D000F16833895B1852D27189C9184FD2AB6830
:1035E00099424CD240F60C63184248D1012A0AD1C4
:1035F0004FB9582294F8BC305343E218D16C8D4235
:103600000BD00020E1E7582009FB00802946204428
:10361000FFF7CCFD0028ECD031E0166A00220192C1
:103620002C2202FB073323441989042328460DEB7F
:103630000302194401F020FD0028C5D194F8BC30E4
:10364000012B0AD0002BDCD1D6E9012313440199C8
:103650008A4216D89942D4D913E04FF082730E4AA9
:10366000F5E758232C2103FB09F301FB0733E61888
:103670003069C106A8D4E158084B9942A8D0002F60
:10368000A2D0AA68002A9FD000212846FFF7EEFEAC
:103690009AE700BF04450020008800013DB8F3967A
:1036A00001222DE98048B94B032097B01A70FDF72D
:1036B0001DFDB748016819B3B1FA81F30122C3F1C6
:1036C0001F03DBB29A4021EA0204D0E8EF5F8D428B
:1036D00003D1C0E8E64F002EF7D1EBD14FF4806064
:1036E000AC4943F00043C1F8B8054FF40060C1F89D
:1036F0003C05C1F8AC30C1F8A831A74BC3F804258C
:103700000420FDF7F3FC0022A44DA54B0021C3F8D3
:103710000056C3F80456C3F80856C3F80C56C3F84D
:103720001056C3F81456C3F81856C3F81C5603F5C0
:103730008053C3F80056C3F80456C3F80856C3F8BC
:103740000C56C3F81056C3F81456C3F81856C3F8ED
:103750001C56944B1A60944B944A1A60944B954AA9
:103760001A60954B13F003020FBF4FF4C05402F5DB
:10377000BF54C2F104021C3418BF9B1818462246DD
:1037800002F047FC8D498E4A0160A1F11021C2E987
:103790000004A1F1EF11203C90604460C161D06051
:1037A000C0220021874802F034FC864C864E94F8F3
:1037B000BC30012B2DD900234FF0580ADFF80CB292
:1037C0000293012B84F8BC3045D9814E3378012B0C
:1037D00009D110A90220FCF745FF014618B910983D
:1037E000826801F009FD7378012B09D110A9082026
:1037F000FCF738FF014618B91098826801F0FCFC0C
:10380000029B002B00F00A8200234FF02C08582660
:10381000A0E1E21892F8BD20BAB94FF0580808FBB1
:10382000034116F8330020315F00FCF71BFF50B94D
:1038300094F8BC10013708FB014116F827004C3101
:10384000FCF710FF08B102F0BAFB94F8BC3001336A
:1038500084F8BC30ABE7E21892F8BD20002A40F0B3
:10386000D6800AFB03410BEBC3225E00594B4A6230
:1038700053F8260002F580520A65FDF79BFF30B130
:10388000012294F8BC30234483F8B020BFE0514AB1
:10389000731C52F82300FDF78DFF94F8BC600028DC
:1038A00057D00122A31983F8B020FFF737FE002874
:1038B000E6D1582194F8BC9001FB0941D1F8288049
:1038C000D1F854E0B8F5807F00F29D80BEF5807F8E
:1038D00000F299800346024684460646904545D844
:1038E0009E4543D8904540F08E809E4540F08B80A9
:1038F000012358220C9303F101230D93002302FBB3
:103900000949CDE90E33D9F82C200893324BD9F868
:103910004C009A4240F085800423B9F8341008AA7C
:10392000194401F0A9FB002876D0052194F8BC3099
:10393000E21882F8B010002B40F0EF8094F8BC3011
:10394000234493F8B030023B022B60D8012302934A
:103950005DE00AFB06431B6AD8688368DB6898470A
:10396000026804EB8603C3F8B4209EE7664535D1B0
:103970004F6A07EBC2077F6801323E440F6D07EBC9
:10398000C3077F680133BC44A8E700BF4A6000203A
:103990004020002000A00250007001503546526EB9
:1039A00000800150D845002058200020751A0000E2
:1039B00054200020511B00004848002055AA00FF59
:1039C000C8450020044500200C63000004210020AD
:1039D000486000200C6300003DB8F39609D24F6A9E
:1039E000022807EBC2077F683E440CD00120013259
:1039F00074E70F6D012807EBC3077F68BC4402D052
:103A0000022001336AE70123A14489F8B03094F819
:103A1000BC300133DBB2D4E6022194F8BC309F4ABB
:103A2000D15494F8BC209E4E012A4FEA420717D188
:103A30009C4B8DF8282009937B1C56F8230010A975
:103A4000FEF722FE012817D103238DF840308DF8B0
:103A5000433000219DF824009DF84060924B1FE008
:103A600056F8270009A9FEF70FFE0028E4D094F8C5
:103A7000BC30FF21E2185CE70028EAD0F7E7A2EBB0
:103A8000000CDCF1000242EB0C0211E0971B7A42C1
:103A90007A4117E00131032903F106033FF4F0AE48
:103AA0001A78042A06D0052AE9D1421E18BF01223D
:103AB000002AEFD05A78042A06D0052AE6D1721ED1
:103AC00018BF0122002AE5D09A78042A03D09DF875
:103AD00027709742DED1DA78042A03D09DF843702C
:103AE0009742D7D11A79042A03D09DF826709742BD
:103AF000D0D15E79B31E022BB9D801200CA9FFF7F3
:103B000041FDE8B994F8BC30E21882F8B060002BAF
:103B10003FF414AF042E3FF419AF94F8B020042AF8
:103B200004BF012284F8B020012B3FF407AF94F8C2
:103B3000B130042B7FF402AF012384F8B130FDE6ED
:103B400001287FF4F2AE9BE6E21892F8BD1031B185
:103B50000133DBB2012B84F8BC30F5D95EE092F87A
:103B6000B01001F0FB01013918BF012108FB01F180
:103B700006FB03122244176A002F3FF464AE03FBD6
:103B800006110123009340233A4621440DEB030024
:103B900001F088FA002857D100230DF11E0208A970
:103BA00010A801F0C9FA002838DB4AD1BDF81E3050
:103BB0000C2B4BD13846089909AA01F05DFA68BB75
:103BC0009DF82430012B29D8E21892F8B0207343D5
:103BD000023A022A8CBF0022012208FB023323444E
:103BE000197D9DF828209142D6D80AD3597D9DF899
:103BF00029209142D0D804D3DA8ABDF82A309A42DB
:103C0000CAD294F8BC30234493F8B020012A16D0CD
:103C1000023A012A02D8012283F8B0200023012BA6
:103C200084F8BC3017D900230993012B84F8BC30E9
:103C300040F2BE81099A022A00F0EE81FEE70422DA
:103C4000EAE794F8BC3083E70328E7D140F2011398
:103C5000A4F8B030E2E7E11891F8BD20002A40F066
:103C6000A28101200C9040F20110CDE90E228DF8C6
:103C7000362091F8B020ADF83400042A8DF83720B2
:103C800009D8012A12D800F086814FF0FF32234470
:103C900083F8B0207FE1052AF5E700BF48600020E7
:103CA0000C63000003010303D3660000582707FBE1
:103CB0000343D3F84C80B8F1000F3FF4C4AD9E8E9F
:103CC0009B6B40461E443146042310AA01F0D4F9F0
:103CD00000287FF4B8AD94F8BC30BDF8402007FB55
:103CE0000343DF8E46F608139A4240F0E480BDF8A5
:103CF00042309F427FF4A7AD0423404610AAB91971
:103D000001F0BAF900287FF49EAD46F60713BDF81E
:103D100040209A427FF497AD4FF0580BBDF84230E7
:103D20001F4494F8BC3037440BFB0343D3F8209076
:103D3000B9F1000F3FF487ADD3F84CA0BAF1000FF2
:103D40003FF481AD0026B0469B6A94F8BC20434501
:103D50000BFB0242526A1BD002EBC802526831468A
:103D6000484605930292FFF781FB00287FF46BAD74
:103D7000029A059B1644BE42C0F0A18094F8BC3064
:103D800004EB8303D3F8B460B7FBF6F706FB0766D2
:103D900094F8BC2004EB8203D3F8B4004FF44073D2
:103DA0005843582303FB0242536A926A1968013A46
:103DB00003EBC203002230305F689C463A448242E3
:103DC000A3F10803F8D3DCF800304846591AFFF78E
:103DD0004DFB00287FF437AD8346864FDFF818820D
:103DE0005E456FD8D9F80860484601F01EFA834B4B
:103DF000103E26F0070610AF03F1100C3A46186883
:103E00005968083303C263451746F7D1102331467A
:103E1000484610AA01F0DAF900287FF414AD94F8AE
:103E2000BC00012840F09280754B5A78D2077FF58C
:103E30000AAD1B78002B7FF406AD724B724A1968ED
:103E400091427FF400AD1A89D9681A445368B3F1DE
:103E5000807F7FF6F8AC10266C4BC3F840644FF0BF
:103E60005023C3F81406002A3FF4EDAC00293FF4B8
:103E7000EAAC4FF0005300F13640A0F14B10A0F532
:103E80009840C3E900024FF408429960DA60FCF7F9
:103E90008BFE064601F0ECFC5D4F3846FCF70AFD50
:103EA000FCF782FE8642F8D00228584B46D1002209
:103EB000C3F84024C7E4002F3FF427AFC3E408F160
:103EC000010842E7A6EB0B03B3F5806F28BF4FF460
:103ED0008063594650464F4A029301F0CDF80028BE
:103EE0007FF4B1AC59464846029B4A4A01F06EF94C
:103EF00000287FF4A8AC029BC7F800569B44C7F883
:103F00000456C7F80856C7F80C56C7F81056C7F835
:103F10001456C7F81856C7F81C56C8F80056C8F803
:103F20000456C8F80856C8F80C56C8F81056C8F811
:103F30001456C8F81856C8F81C5651E74FF05022CE
:103F40000121C2F814160022C3F84024582294F824
:103F5000BC3002FB03431B6D5A6832B1002150464E
:103F6000FFF784FA00287FF46EAC582294F8BC3036
:103F700002FB0343D3E91423013B02EBC30052F8D5
:103F800033101368426832B15046C91AFFF76EFA0F
:103F900000287FF458AC94F8BC30234493F8B03038
:103FA000FF2B3FF450AC94F8BC300133DBB236E663
:103FB000234493F8BD208DF820209DF820203AB1AD
:103FC000099B0133099394F8BC300133DBB22CE632
:103FD00093F8B030012B08D100210846FFF7D2FA40
:103FE0000028EDD0FDF7DEFBFEE7FFF797FA00288B
:103FF000F2D0F7E700800150009001504A650000C0
:10400000CC2000204B6000203DB8F39600300050DB
:1040100040420F0004410020002384F8BC3094F893
:10402000BD30002B00F0C58094F8BE30002B00F0AE
:10403000BD8084F8BC20FDF7B5FB40F21512634B40
:104040000126C3F80026C3F804264FF48272C3F891
:104050000027039B049A1B895D4CDFF87881134489
:10406000C8F8003015206660FCF73AFB4FF40012E8
:104070000025594B2F46C4F80833C4F84833574B32
:10408000DFF85CA1C3F880214FF0FF33554A56603A
:10409000C2F84833C2F808336660C4F84833C4F83D
:1040A00008334FF0FF395AF8044B0DF1400BC4F8B8
:1040B000089344F30730FCF713FB6660C4F84C71B7
:1040C000D4F84C31C4F81071D4F81031C4F84471EC
:1040D000D4F84431C4F80075D4F80C351093D4F8F2
:1040E00014351193D4F808351293D4F8103513937E
:1040F000C4F80C95C4F81495C4F80895C4F8109544
:104100004FF000095BF8040B431C05D0002301228B
:1041100019460093FDF7B4FB09F10109B9F1040F49
:10412000F0D180220021A01801F073FF802200212D
:1041300004F5C07001F06DFF002D44D04FF0FF3248
:10414000294BC3F808254FF05023C3F80823BFF3C9
:104150006F8F72B60023214903F120000133102B29
:1041600041F82020F8D100234FF0FF301B4A03F123
:1041700060010133102B42F82100F8D1FCF790FACE
:10418000002383F30B8883F30A88D8F80020126891
:1041900082F3088883F31488BFF36F8FBFF36F8FA8
:1041A000D8F800305868114B9847FEE7012384F88F
:1041B000BC30582202FB034103FB0243096A03930C
:1041C0004968049137E701256BE700BF00300050D4
:1041D00000500150C445002003000F0000E100E042
:1041E0001C630000004001500070015001200020BD
:1041F0002DE9F74F4FF0010808FA00F8144606467B
:104200001D466FEA0802DFF834A1DAE8EF3F03EA5F
:104210000201CAE8E01F0028F7D14FF48037DFF829
:104220002091B740C9F80873BFF35F8FBFF36F8F5A
:1042300008EA03030093FCF72DFCA04271EB050391
:104240004BD2404B201A65EB0101984271F10001FD
:1042500071D23D4B03EB0613D3E902239D4208BF05
:10426000944243D04FF0000B24F07F4EF4460320DD
:1042700006F150039B009BB203F1502303F58033FA
:10428000C9F84873C3F800B01A6806F5A87201921D
:1042900001992CF07F4249F821206FF00202C9F801
:1042A0004473D9F80415521A6244DFF8A0C022F012
:1042B0007F4262451AD91A685AB1D9F80415A1EBA0
:1042C0000E0222F07F42B2F5000F0FD9C3F800B002
:1042D0001A6800EB010C0130DAE71D4BD3E8EF1F41
:1042E00041EA0801C3E8E21F002AF7D1164919483C
:1042F0003301C850002001EB0612C2E902455060AC
:10430000009BABB1DAE8EF3F43EA0803CAE8E23FBB
:10431000002AF7D10A4BC3F804730D4BD3E8AF3F23
:10432000F340DB0742BF4FF400120B4BC3F80021F0
:1043300003B0BDE8F08F6FF01500E1E7F445002011
:104340000050015001008000D0200020FDFF7F00C0
:10435000F84500205D43000000E100E02DE9F8434E
:10436000374922F07F45D1E90063921B140A22F0FD
:10437000FF02921943F10003C1E90023A5F50011E2
:10438000B1F5400F0AD22F4909684FEA112C0906EE
:104390004E192D494CF10007C1E9006712F58072F2
:1043A00043F10003FFF724FFEFF3118C202383F385
:1043B0001288BFF36F8FDFF894804FF00009D8F8B0
:1043C0000000234E404508BF0020224D3460674660
:1043D000D5E90021336828B3C4689C4202DDE41AA1
:1043E000C4601FE0A21841EBE471C0F80C90C5E96D
:1043F0000021FCF7A3FE87F31188BFF36F8F83685A
:104400009847EFF31187202383F31288BFF36F8F50
:104410003368D8F800001B1B4045BC463360D6D13A
:10442000D5E900219A1841EBE3710023C5E9002189
:10443000336087F31188BFF36F8FBDE8F88300BF47
:10444000E820002000460020F02000205C20002012
:10445000FC450020E02000202DE9F0414FF0FF3026
:1044600000264FF0FF315C4C5C4B4FF40012C4F857
:104470000833C4F848335A4BC4F80865C3E902014D
:104480004FF4803302210125C4F80433554BC4F89E
:1044900004131520C3F88021FCF734F91520FCF72C
:1044A00011F9514BA5604FF48072256030461D60B4
:1044B0000023FFF79DFE4D4AD2E8EF3FC2E8E15FDF
:1044C0000029F9D13BBB4A498D608A684B6002F0F4
:1044D0000302AA42CB601ED1CB608A68032A1AD895
:1044E000EFF31185202282F31288BFF36F8F4FF60E
:1044F000FF764048848E04F00702C48EB44244D054
:10450000022A2FD10134C48685F31188BFF36F8F3F
:104510001C3000F075FDEFF305851DB9364B1B7897
:10452000002B37D1EFF31185202383F31288BFF3DB
:104530006F8F01264FF050240027DFF8A880D4F8B1
:104540001824D4F81834D2032BD503F00303022B1C
:1045500027D1002E3DD085F31188BFF36F8F002047
:10456000BDE8F0815124D440E4070ED50B60036A06
:1045700043B9C0E9071142B92A4602211F48FBF797
:1045800063FFC8E719600162F5E785F31188BFF39F
:104590006F8FC0E74FF0502302222E46C3F8082346
:1045A000C8E72846FCF798FAD4F81835DBB2012B97
:1045B000C5D1D4F80421002AC1D0C4F80471D4F8BC
:1045C00004210222C4F818252022C8F88021A36003
:1045D000B5E7C4F80433C2E70050015003000F00F0
:1045E000D020002000E100E0F4450020F04500204C
:1045F000E0450020504600204A6000206C46002024
:1046000030B5394B0C465B6800218BB0C3F308030F
:1046100081F31188BFF36F8F02F07F45B5F17F4FB3
:1046200008D102F00C05082D04D012F0080F0CBFC1
:10463000014621460022033B8DF80720032B03D8B7
:10464000DFE803F00A474B4400209DF80730002BB9
:1046500047D102A900F0F1FD234BDA6A9007F3D4A9
:10466000DA6A002AF0DBDA6A5200EDD55A69886905
:1046700042F480725A61BFF34F8FBFF36F8F5A6954
:1046800030F8020C22F480725A61BFF34F8FBFF3EF
:104690006F8F4DF60272904208D09A6AD2B23AB148
:1046A00001200DF10701FDF741F8CEE70868CCE7DE
:1046B0009A6A12F47F4F05D001200DF10701FDF732
:1046C00001F8C2E79B6AB3F5803FBDD3FCF7CCFF8E
:1046D000BBE700200DF10701E5E700200DF1070120
:1046E000EDE70BB030BD00BF00ED00E010B572B6D5
:1046F000002484F31388FBF7D3FF23464FF0FF30E9
:104700000C4A03F120010133102B42F82100F8D1AB
:1047100000234FF0FF30074A03F160010133102BF3
:1047200042F82100F8D162B6BFF34F8FBFF36F8F0D
:1047300010BD00BF00E100E08FB5A74AA74B22F0F3
:104740007F029A60BFF34F8FBFF36F8FD3F888203B
:10475000A34822F47002C3F88820A24A0021121A4A
:1047600001F057FCA048A14AA149121A01F02AFC05
:10477000A048A14AA149121A01F024FC002250B21B
:1047800001210132FBF7BEFF452AF8D10020FCF7DA
:10479000ADFC9B4B03F5006282F3088883F30A8823
:1047A000E0228E4BDFF85C8283F822200022DA7749
:1047B0001A765A769A7683F82020596A41F4E021D5
:1047C000596283F82320596941F0100159615969F0
:1047D00041F480615961596921F008015961102142
:1047E00019614FF0FF319962D962D3F89010090A2C
:1047F00011F0FE0F2AD0BFF35F8F8349C3F89420D6
:10480000C3F8C01002218148C3F89820C3F89C1057
:10481000C3F8A0000120C3F8980000F12020C3F8DD
:104820009C0000F5DB2000F2E270C3F8A00088F8DD
:104830000010D3F89000C0F30720814212DB05225C
:10484000C3F89420BFF34F8FBFF36F8F704998F870
:1048500000404D68002D00F081801F2D1DD86FF0A5
:1048600015047BE0C3F89810C3F8A0200131E0E7FD
:104870002046C3F89870D3F89C2025F01F0502F05D
:104880001F021543C3F89C5000F0F7FC62E0B145ED
:10489000EED1F8B200F0F1FC60E0EA06DFD10A6880
:1048A000D306DCD1104600F0DFFC154405F1FF39DA
:1048B0000646484600F0D8FCB0420746CFD110F17A
:1048C000160FCCD08442CADD444BC3F89800D3F80D
:1048D0009C00C3F89870D3F8A06020F01F008242BB
:1048E00046F01F06D3D0013AC3F8987022F01F009B
:1048F000D3F8A020B14502F01F0242EA0002C3F83B
:10490000A0202046C0D000F0B8FC10F1160FA6D0B1
:10491000324B013EC3F89870D3F89C109DF80820E4
:10492000013061F304028DF80820D3F8A03000951F
:1049300025F01F052E445B08D2B2A6EB090663F3EF
:10494000471226F01F066946C0B28DF8082003966C
:10495000FBF7F8FE10F1160F81D0441C88F80040D8
:10496000022501242B492C4B0020C3F80045C1F837
:10497000D05600F06AFF204600F067FF274BC1F8D1
:1049800004471846C1F804491C22C1F8004B002115
:1049900001F03FFB224A02612046FCF7A7FB2846B4
:1049A000FCF7A4FB002383F30B881E4C1E4DA4F5DB
:1049B000205686F30B8884F3098800200449884731
:1049C000184619461A46A84702488047FEE70000E5
:1049D0008F5F00009D5F00000000000000ED00E020
:1049E000D02000205060042040200020D020002053
:1049F0006869000000200020402000202869000095
:104A0000508804204D600420AAFF4400E1FF0F00FD
:104A1000786400000040005000100050144700204F
:104A20008464000050880420A136000008B5FCF71B
:104A300035F958B15E4BD3F8202A3AB90D21C3F8A5
:104A4000201A0121C3F81C19C3F81C290022D30025
:104A500003F57F03D3F80013013107D0D3F8001317
:104A60000132D3F80433202A0B60F0D1FCF716F999
:104A7000002840F09580FCF711F940B14D4B4E4AAB
:104A8000C3F830254FF050230122C3F858254FF4C6
:104A90007F03D3F83021D3F83431072A09D1023B00
:104AA000032B06D8454AD35C1BB10022444BC3F804
:104AB0004C25FCF7F3F850B14FF05023D3F8002405
:104AC000D10742BF0022C3F81421C3F818214FF4C4
:104AD0007F03D3F83021D3F83431072A09D14FF0BE
:104AE0005023D3F80024D20744BF6FF00102C3F86B
:104AF0000024FCF7D3F818B165222D4BC3F80C271E
:104B00004FF47F03D3F83021D3F83431072A16D17C
:104B10002B4BD3F82034002B11DA4FF05023032213
:104B2000C3F8182501229A60D3F80421002AFBD08B
:104B30000022C3F804210122DA60C3F81825FBF72C
:104B400025FEE8B17E221A4B1A49C3F80C27C3F898
:104B50003C297F231B4AC2F818310023C1F8043EC8
:104B6000C1F8083E01F54821C1F81031C2F82431DE
:104B7000C2F82C3102F5FF1202F58052C2F8A032C1
:104B8000114AD2F88C3043F44063C2F88C300F4A9B
:104B90000F4B1168C3F84415D269C3F84C2508BD02
:104BA0002922034BC3F80C270322C3F83C2762E7F2
:104BB00000400050009003504400EFBEE966000042
:104BC000002003500020005000ED00E00080FF00B6
:104BD0000060005030BFFFF7FDBF00BFEFF308805B
:104BE000EFF3098101B57246FFF70AFD01BD00BF71
:104BF000002080F31488BFF36F8F002080F30A88B1
:104C000080F30B880F4880F30888FFF70FFF002020
:104C10000D490860BFF34F8FFFF768FD202080F338
:104C200011880A484FF40061401880F30988EFF3B7
:104C300014800221084380F31488BFF36F8FFFF7BD
:104C40007BFD00005088042094ED00E05088042093
:104C50001EF0040F0CBFEFF30880EFF309808169A9
:104C600011F8021C0229FFD001B5724601F088F943
:104C700001BD00BF10B50A4C23681BB1012323609E
:104C8000002010BD00F04EF80028F7D001380728AA
:104C900003D8044B53F8200010BD034810BD00BFDB
:104CA0003047002090640000FE8FFFFFBFF34F8F5E
:104CB0000549064BCA6802F4E0621343CB60BFF3B8
:104CC0004F8F00BFFDE700BF00ED00E00400FA05D4
:104CD00030B44FF0FE3200250B4B0C4C0C494968A8
:104CE000C3F80024C3F80424C3F80824C3F80C2430
:104CF000C3F81024C3F81424C3F81824C3F81C24E0
:104D0000C4F8005530BC084700508450004084501F
:104D100068200020024BD0E90012C3E9001270475E
:104D20006820002008B500F011F830B900F010F844
:104D300038B9054AC2F80C0A08BD00F037F803205C
:104D400008BD042008BD00BF0050845000207047FB
:104D500010B5114800F048F800B110BD0F4800F040
:104D600043F80028F9D10E4C204600F03DF8002809
:104D7000F3D10C4B0C481C6000F036F801460028BB
:104D8000EBD100F02DF8044608B1204610BD00F02C
:104D90003FF82046FAE700BF802000207C2000205A
:104DA00078200020702000207420002008B50848DA
:104DB00000F024F8074800F021F8074800F01EF83A
:104DC000064800F01BF8BDE8084000F00BB800BF33
:104DD000802000207C2000207820002074200020EB
:104DE00000207047704700BF08B5034B02681B687E
:104DF00010689847002008BD9820002008B5034B94
:104E000002685B6810689847002008BD9820002061
:104E100070B5094C094D2069AB68984718B1084B2B
:104E200008485B6898470021074AEB6811602069D1
:104E3000BDE87040184700BF842000209820002063
:104E400068200020B06400003447002010B50446FC
:104E500050B1636813F0685F05D0064A934202D0F0
:104E600000236260236010BD034B04485B689847D1
:104E7000EFE700BF2C5F5CA968200020D064000031
:104E8000C8B143680D4A934213D013F0685F0ED047
:104E9000012350E8002F194640E8001C9CF0000F49
:104EA000F7D1012AF5D0BFF35F8F00207047044887
:104EB0007047044870476FF4E04070472C5F5CA96E
:104EC000E98FFFFFEA8FFFFF034680B1426809497F
:104ED0008A420AD012F0685F05D0BFF35F8F0022CC
:104EE00010461A60704704487047044870476FF4D2
:104EF000E04070472C5F5CA9E98FFFFFEA8FFFFF5E
:104F000010B5044620B10023034A2360626010BD3F
:104F10000248FFF7DDFEF6E73A00003AF8640000C9
:104F2000F7B500290546164628DB83688B4225D94C
:104F30006B68C068CC188368694601AA5B699847AA
:104F400000221146019B581E019013B96FF0150005
:104F500016E0009847686CB95342D0F800C063452A
:104F600028BF63469C4503FB07111A440AD8083042
:104F70000090E7E7631AB3FBF7F3EEE76FF0210069
:104F800003B0F0BD6B680020C91AC6E90017F7E747
:104F9000836800EBC101B3F5004F2CBF51F822002C
:104FA00031F81200704700EBC1018068B0F5004F86
:104FB0002CBF41F8223021F812307047012208B589
:104FC000FFF7E6FFD04008BD836800EBC101B3F5F1
:104FD000004F08D34B681AB143F001034B60704790
:104FE00023F00103FAE74B881AB143F001034B8029
:104FF000704723F00103FAE753000122FFF7D3BF04
:1050000070B48D68002605F00305032DCB6002D037
:105010008E6070BC70474D688E60002DF9D0AC4634
:1050200070BC6047038B13F0070305D10368002BA6
:105030000CBF002003207047022B05D1408BB0FA33
:1050400080F0400980007047012B05D10368002BD8
:105050000CBF0020052070470020704710B4EFF30C
:105060001182202484F31288BFF36F8F416110BC3A
:105070000121FBF7E9B97047002930B404460DDB84
:10508000806888420AD9401A834207D8E068646879
:10509000214484682468A44630BC60476FF0150042
:1050A00030BC70472DE9F74304460E469946174633
:1050B0002AB94FF0FF38404603B0BDE8F083CB6813
:1050C0000D8938461D44042329460DEB0302FFF7E2
:1050D000D3FF80460028ECD146F60812BDF8041034
:1050E0007389914225D1BDF806109942E1D104237C
:1050F00038460DEB03022944FFF7BEFF0028D8D144
:1051000046F60713BDF804209A42D2D1C4E90067DD
:105110009DF82830A4F80890A3727389BDF8062082
:105120002B44E360738913442B4404356361256188
:10513000C1E7002BE4D0BCE72DE9F3411D4603682D
:1051400004460E46174623B94FF0FF3002B0BDE8C3
:10515000F0814368002BF7D04FF6FF78D4E90423A1
:105160009A4216D223685B8923B1E368934204BF55
:10517000043323610423216960680DEB0302FFF708
:105180007BFF0028E0D1A37A2BB1D4E903329A4205
:1051900001D30120DAE72389BDF80610434501F168
:1051A000040203D0BDF804C09C450BD115B1BDF875
:1051B00004302B802369043333603980236913441E
:1051C0002361C3E7236913442361C7E7002930B48F
:1051D00004460DDB806888420AD9401A834207D80A
:1051E000E0686468214484686468A44630BC604711
:1051F0006FF0150030BC70470029034610B40DDB7A
:10520000806888420AD9401A824207D8D8685B6809
:10521000194483689B682BB110BC18476FF01500C8
:1052200010BC70476FF05700FAE708B5C068836894
:10523000DB689847407908BDFEE7012801D1EFF30C
:105240000583EFF31183202383F31288BFF36F8F5D
:10525000EFF3118283F31288BFF36F8FFEE7002113
:10526000012008B5FFF7E9FF40E800F313F4803FA1
:10527000D8B208BF6FF01500704730B50C684B68A6
:1052800085B00A894D890094013B24F01F04234412
:1052900002F01F0242EA451223F01F0369468DF80F
:1052A00008200393FBF74EFA05B030BD0B464FF0D4
:1052B00050220121C2F81416002118470C2203695C
:1052C000C9B201FB0233986F00F00700704770B558
:1052D000C9B20369EFF31185202484F31288BFF368
:1052E0006F8F0C2606FB0134A46F14F0C00408D0A5
:1052F000A24206D085F31188BFF36F8F4FF0FF30C5
:1053000070BD012206FB01339A6785F31188BFF354
:105310006F8F436803EBC1035B6898470020EFE79A
:105320008022FFF7D4BFF8B5069F0469C9B2EFF336
:105330001186202585F31288BFF36F8F0C2505FB9E
:105340000144A56F05F0070CBCF1010F0CD1A76754
:1053500086F31188BFF36F8FC4E91C23436853F8A9
:10536000313098470020F8BD05F0C005AF4286F304
:105370001188BFF36F8F0CBF6FF077004FF0FF30D5
:10538000F1E713B580240094FFF7CDFF02B010BD04
:105390006FF08500704710B41C240069CBB203FB8A
:1053A0000400002110BC104708B50169FBF7EEF9B5
:1053B00048B14FF05022D2F8583503F003030B7276
:1053C0000123C2F858354FF050230022C3F8B82506
:1053D0000720BDE80840FBF76DBA4FF050210223CB
:1053E00010B5C1F8B8350469FBF7D0F920B1237ABC
:1053F00003F00303C1F8583510BD03695B680BB9AE
:10540000FFF7D2BF704708B901230B7070474FF404
:10541000000200230020C1E900237047B0F5801F7F
:1054200006D2C0F5801081428CBF00200120704759
:10543000002070474FF4801200230020C1E90023B0
:1054400070474FF4802200230020C1E900237047F9
:1054500038B50C460123114622460546FFF70CFEDF
:1054600000280EDB2846FFF7E0FE2378834206D0B3
:10547000012B14BF022301230020237038BD032316
:10548000FAE70120FAE770B504680D1B002D07DD6F
:1054900025789D4230D1651C05604D1B002D02DC36
:1054A0006FF05F0070BD94F901606378002E0ADB35
:1054B000A31C0360637813600368C91A13688B42E6
:1054C000EED80020EEE703F07F035C1E032C16D815
:1054D0009D42E5DD00241460046801340460046822
:1054E00015682478013B44EA05241460046804F13B
:1054F00001040460F3D1DFE76FF06100D2E76FF0E1
:105500006300CFE78B4228BF0B462DE9F0430646E8
:1055100005460020C91A03F0070C079CDB084FEA78
:10552000431E02EB43139A4205F120050ED1764447
:1055300035464FEA8C0E03EB8C0C634540F08180BE
:105540007644013980F08B80BDE8F0831768203203
:10555000A4FB078710EB080855F8200C47F100075B
:1055600010EB080045F8200C52F81C0C47F100071E
:10557000A4FB00083F1855F81C0C48F10008C0199E
:1055800045F81C0C52F8180C48F10008A4FB000761
:1055900018EB000855F8180C47F1000710EB08004D
:1055A00045F8180C52F8140C47F10007A4FB00084A
:1055B0003F1855F8140C48F10008C01945F8140CB0
:1055C00052F8100C48F10008A4FB000718EB000883
:1055D00055F8100C47F1000710EB080045F8100CC7
:1055E00052F80C0C47F10007A4FB00083F1855F8CF
:1055F0000C0C48F10008C01945F80C0C52F8080CC6
:1056000048F10008A4FB000718EB000855F8080C47
:1056100047F1000710EB080045F8080C52F8040C9D
:1056200047F10007A4FB000917EB000855F8047CBC
:1056300049F1000017EB080740F1000045F8047C31
:1056400071E753F8042BA4FB02278218286847F15E
:105650000007821847F1000045F8042B6DE7336816
:105660001B182CBF0120002046F8043B69E70323E8
:105670000168881C400000F00800084400FB01F2AB
:10568000013BC2F1020202FB00F0F7D14042704739
:1056900010B5C38823B9CA885AB9ABB1012017E045
:1056A000026802EB830252F8042C002AF3D1013B7A
:1056B000F0E70C6804EB820454F8044C0CB9013A8E
:1056C000EAE79342EAD80FD3013B5A1C01D10020EC
:1056D00010BD026852F823400A6852F82320944211
:1056E000DCD803F1FF33F0D24FF0FF30F0E730B5F4
:1056F000C38823B9CA885AB9002B3DD136E0026865
:1057000002EB830252F8042C002AF3D1013BF0E7AC
:105710000C6804EB820555F8045C4DBB013AEAE7DE
:10572000B1F9045003D2B1F90400404226E0B0F9C7
:105730000420002A03DD002D0CDA01201EE0002DDC
:1057400008DD3AB14FF0FF3018E003F1FF330BD220
:10575000504213E0013B016851F8235054F82310E4
:105760008D42F2D9104609E0591CF4D1002005E021
:10577000002BD8D09342D3D9B0F9040030BD10B576
:10578000044648B1006818B1E1888900FBF778FA4F
:1057900000220123C4E9002310BD0020704700202F
:1057A000704700470220FBF78BBA0020FBF788BA4E
:1057B0000320FBF785BA0020FBF714BB0220FBF7A0
:1057C00011BB0320FBF70EBB4FF05023D3F8B825D5
:1057D000920707D1D3F8580500F00300013818BF2D
:1057E00001207047012070471FB5002399420CBF6C
:1057F00006220422194601A8CDE9013303938DF84E
:105800000420FBF775FD002818BF6FF0040005B0F9
:105810005DF804FB7FB5FF238DF803300DF1030322
:10582000002101930123CDE90231052303A88DF85E
:105830000C3001AB04910593FBF75AFD0028A8BF7B
:105840009DF8030007B05DF804FB07B5019001A8BF
:10585000FAF7E8FD019B00EB8300D0F8003223F05B
:10586000E04343F04053C0F8003203B05DF804FB5E
:1058700070B5FAF78BFF4FF0502490B10126002548
:105880000520C4F81866C4F81456FBF713F8304620
:10589000C4F81466FBF70EF8C4F81456C4F818568A
:1058A00070BDC4F81406FBE770B50C460546FFF75B
:1058B000DFFF28462346BDE87040002118471FB58A
:1058C000002301934FF0011302A9039301AB02934C
:1058D000FFF70DFF05B05DF804FBF8B5C48864B1AF
:1058E0004B099C42056801F01F0601D307D146B160
:1058F00000212846A20000F08CFB0020F8BD1F29E3
:1059000014D900219A0005EB8307E01A34BF4FF049
:10591000010C4FF0000C81421AD3BCF1000F18BFEC
:105920000022002105EB800000F073FB002EE4D084
:10593000002205EB8404C6F12000114654F8043D12
:1059400003FA00F2F3400B43AC422360F5D1D4E7F5
:1059500057F8040B45F821000131D6E738B50C465D
:105960001946204615461A46FFF758FD30B11BB1BF
:105970002146284600F026FB002038BD6FF01500B8
:10598000FBE770B50E4601210446FCF7F3F9054626
:1059900048B9E28801469200206800F03AFB23688B
:1059A0001E600123A380284670BD884270B505465D
:1059B0000E4609D0C988C28841B92AB10123920094
:1059C0008380006800F025FB002070BD4C1E8CB960
:1059D000B6F904300134A242AB8012D221462846E7
:1059E000FCF7C8F90028F0D131682868A20000F05F
:1059F000E9FAE9E7336853F82430002BE8D1013C99
:105A0000E5E72868121B0021920000EB840000F0FB
:105A100000FBE9E72DE9F341054688461646CF88A5
:105A20003FB1D8F8003003EB870353F8043C3BB197
:105A300046B90021284602B0BDE8F041FFF7A1BFFA
:105A4000013FEDE72846791CFCF794F9044670B94C
:105A500041462846FFF7A9FF044640B9013E00969B
:105A60003B46D8F80020E9882868FFF74BFD204620
:105A700002B0BDE8F0812DE9F84305460E46904698
:105A8000D4883CB9F188A1420ED26FF0090738469C
:105A9000BDE8F883D8F8003003EB840353F8043CE6
:105AA000002BEFD1013CECE72846FCF763F90746F1
:105AB0000028ECD1F28894420BD2AE4209D028687B
:105AC0003168121B920001EB840100EB840000F0AE
:105AD00079FAEA88F088824207D92B68121A0021E5
